:020000040800F2
:10000000589B00200102000821180008F90E000882
:100010001D180008C30700084B2A00080000000054
:10002000000000000000000000000000690100085E
:10003000A109000800000000AD010008C11C000873
:100040001B0200081B0200081B0200081B0200081C
:100050001B0200081B0200081B0200081B0200080C
:100060001B0200081B0200081B0200081B020008FC
:100070001B0200081B0200081B0200081B020008EC
:100080001B0200081B0200081B0200081B020008DC
:100090001B0200081B0200081B0200081B020008CC
:1000A0001B0200081B0200081B0200081B020008BC
:1000B0001B020008D91F0008A92000081B02000825
:1000C0001B0200081B0200081B0200081B0200089C
:1000D0001B0200081B02000859270008E52700083A
:1000E0001B0200081B0200081B02000800000000A1
:1000F0000000000000000000000000000000000000
:1001000000000000000000001B0200081B020008A5
:100110001B020008A92600081B0200081B02000899
:100120001B0200081B0200081B0200081B0200083B
:100130001B0200081B0200081B0200081B0200082B
:100140001B0200081B0200081B0200081B0200081B
:10015000DFF810D000F0CCF800480047C53C00089C
:10016000AFF30080589B0020224B19680868B0E864
:10017000F00F80F30988BFF36F8F4FF0000080F31A
:1001800011884EF00D0E7047000000000648006810
:10019000006880F3088862B661B6BFF34F8FBFF383
:1001A0006F8F00DF00BF00BF08ED00E0EFF30980B4
:1001B000BFF36F8F0F4B1A6820E9F00F106008B57E
:1001C0004FF0500080F31188BFF34F8FBFF36F8F54
:1001D00004F054FD4FF0000080F31188BDE80840A2
:1001E00019680868B0E8F00F80F30988BFF36F8FD3
:1001F000704700BFC8000020EFF305807047000083
:100200000648804706480047FEE7FEE7FEE7FEE7B0
:10021000FEE7FEE7FEE7FEE7FEE7FEE72D1D00082E
:100220005101000840EA01039B0703D009E008C917
:10023000121F08C0042AFAD203E011F8013B00F8AB
:10024000013B521EF9D27047D2B201E000F8012BF7
:10025000491EFBD270470022F6E710B513460A4646
:1002600004461946FFF7F0FF204610BD421C10F867
:10027000011B0029FBD1801A7047034611F8012B9E
:1002800000F8012B002AF9D1184670472DE9F05FDC
:100290000546002092469B468846064681464024F5
:1002A0001BE0284641464746224600F042F85346A6
:1002B0005A46C01A914110D311461846224600F002
:1002C00029F82D1A67EB01084F462246012000212C
:1002D00000F020F817EB00094E41201EA4F10104A4
:1002E000DFDC484631462A464346BDE8F09F000021
:1002F000064C074D06E0E06840F0010394E8070073
:1003000098471034AC42F6D3FFF726FF10CA000816
:1003100030CA0008202A04DB203A00FA02F100204B
:1003200070479140C2F1200320FA03F31943904033
:100330007047202A04DB203A21FA02F0002170479E
:1003400021FA02F3D040C2F120029140084319463D
:10035000704770B58C1810F8015B15F0070301D1D8
:1003600010F8013B2A1106D110F8012B03E010F818
:10037000016B01F8016B5B1EF9D12B0705D400233B
:10038000521E0DD401F8013BFAE710F8013BCB1ADD
:10039000921C03E013F8015B01F8015B521EF9D5D2
:1003A000A142D8D3002070BD21B1826842F0010281
:1003B000826003E0826822F00102826070470000E0
:1003C00010B502F0F9FC1B490870084600780728B0
:1003D0000ED119480088401C17490880084600883B
:1003E000322826DD0020088001201449087020E012
:1003F0001048007806281CD00E480078104909786B
:10040000884213D00F480078401C0E4908700846F7
:10041000007803280DDD00200870064800780849A0
:100420000870084600780549087502E00020054973
:10043000087010BDAE000020AA000020D8010020E6
:10044000AC000020AD000020014600208A6802F0C8
:1004500004020AB1012000E0002070470146C86C88
:1004600080B270470246002013680B400BB1012098
:1004700000E000207047014600208A6802F0080270
:100480000AB1012000E000207047000030B50246AC
:100490000020002350680F4C20400D790C6844EA7E
:1004A00005242043506090680B4C2040D1E9025451
:1004B0002C434D7944EA450420439060D06A20F4EF
:1004C00070000C7C641EE4B2234340EA0350D06207
:1004D00030BD0000FFFEF0FFFDF7F1FFF0B5044670
:1004E0000D4600200021092D11DDE068A5F10A0666
:1004F00006EB4607072606FA07F18843A5F10A0628
:1005000006EB460603FA06F10843E0600CE02069BA
:1005100005EB4507072606FA07F1884305EB450674
:1005200003FA06F108432061072A0FDA606B561EB2
:1005300006EB86071F2606FA07F18843561E06EBD0
:10054000860605FA06F10843606322E00D2A0FDAF9
:10055000206BD61F06EB86071F2606FA07F1884395
:10056000D61F06EB860605FA06F10843206310E065
:10057000E06AA2F10D0606EB86071F2606FA07F1D0
:100580008843A2F10D0606EB860605FA06F108433C
:10059000E062F0BD816841F008018160704721B1DF
:1005A000826842F4A002826003E0826822F4A00222
:1005B00082607047816841F00401816070470000EB
:1005C00010B5002400F01CFB0D490988884204D0B6
:1005D00000F016FB0A490880012400F00BFB0949D2
:1005E0000988884204D000F005FB064908800124F0
:1005F000012C03D101F066FF00F080FC10BD00006B
:1006000096000020940000201CB502F0DFFD0128B8
:100610007DD1002000904FF6FF730F220121019041
:10062000084600F0A7FF5F48007D05280FD1002095
:100630005D490880009001905A48007D0930C2B29F
:100640004FF6FF730121212000F094FFA8E05648E7
:100650000088401C544908800846008832280AD186
:10066000002000904FF6FF73092201210190212004
:1006700000F080FF94E04C48008864280AD10020F4
:1006800000904FF6FF730A2201210190212000F013
:1006900071FF85E04448008896280AD10020009028
:1006A0004FF6FF730B2201210190212000F062FF21
:1006B00076E03D480088C8280AD1002000904FF617
:1006C000FF730C2201210190212000F053FF67E00D
:1006D00035480088FA280AD1002000904FF6FF73B1
:1006E0000D2201210190212000F044FF58E02E4806
:1006F0000088B0F5967F53D100202B4908800090E8
:100700004FF6FF730E2201210190212000E002E04C
:1007100000F030FF44E0002000904FF6FF731022FD
:1007200001210190084600F025FF1E48007D0128A8
:1007300027DC1D480088401C1B49088008460088AB
:1007400032280DD10020009001901648007D09301C
:10075000C2B24FF6FF730121212000F00BFF1FE012
:100760001148008864281BDD00200F490880009094
:100770004FF6FF73122201210190212000F0FAFEB2
:100780000EE0002008490880009001900548007D97
:100790000930C2B24FF6FF730121212000F0EAFEBA
:1007A0001CBD0000D8010020B000002002F070FB4A
:1007B00006E0FFF705FEFFF727FF0A2004F0DEF84A
:1007C000F7E700BFFEE7000001684FF6FE72114038
:1007D00001600021016041608160C1604B49884235
:1007E00008D14A490839496841F00F01474A083A97
:1007F00051608AE045491431884208D1434908399B
:10080000496841F0F001414A083A51607DE03F49B2
:100810002831884208D13D490839496841F470615E
:100820003A4A083A516070E038493C31884208D170
:1008300036490839496841F47041344A083A5160F0
:1008400063E032495031884208D13049083949685B
:1008500041F470212D4A083A516056E02B49643129
:10086000884208D129490839496841F47001274A6A
:10087000083A516049E025497831884208D1234936
:100880000839496841F07061204A083A51603CE0FB
:100890001F49884206D1011F096841F00F01021F5C
:1008A000116032E01A491431884208D11849091FF1
:1008B000096841F0F001164A121F116025E0144941
:1008C0002831884208D11249091F096841F4706132
:1008D0000F4A121F116018E00D493C31884208D1BF
:1008E0000B49091F096841F47041094A121F116040
:1008F0000BE007495031884207D10549091F0968B3
:1009000041F47021024A121F116070470800024032
:100910000804024010B50022026847F6F0739A43BB
:100920000C6A8B6823430C6923434C6923438C690D
:100930002343CC6923434C6A23438C6A23431A43E1
:100940000260CB6843600B6883604B68C36010BD76
:10095000124A126842F0F002104B1A600F4A1C3221
:1009600011600E4A243210600C4A1832126842F0AC
:1009700001020A4B18331A6000BF084A121F12689E
:1009800002F02002002AF8D0044A1832126822F03D
:100990000102024B18331A60704700000404024041
:1009A000704700008EB0002214210A2004F001FAE2
:1009B000094908600FE000F013F80848007814288F
:1009C00006DB0A2201A90448006804F039FB00BFD5
:1009D000322003F0D3FFEEE7A4000020A80000209F
:1009E00010B50B480078142811DA09480078401C2B
:1009F0000749087008460078012802D102F05EFB22
:100A000005E0034800780F2801D102F05FFB10BD1C
:100A1000A80000202DE9F041024600250026002014
:100A200000230024002791F803C00CF00F0591F873
:100A300003C00CF0100CBCF1000F03D091F802C001
:100A40004CEA050591F800C0BCF1000F31D01468E4
:100A500000202BE04FF0010C0CFA00F3B1F800C0BD
:100A60000CEA03069E4220D183004FF00F0C0CFAD3
:100A700003F7BC4305FA03FC4CEA040491F803C0F5
:100A8000BCF1280F06D14FF0010C0CFA00FCC2F8A3
:100A900014C00AE091F803C0BCF1480F05D14FF033
:100AA000010C0CFA00FCC2F810C0401C0828D1D37D
:100AB0001460B1F800C0BCF1FF0F34DD54680020B1
:100AC0002EE000F1080C4FF0010808FA0CF3B1F821
:100AD00000C00CEA03069E4221D183004FF00F0CA8
:100AE0000CFA03F7BC4305FA03FC4CEA040491F842
:100AF00003C0BCF1280F05D100F1080C08FA0CF86E
:100B0000C2F8148091F803C0BCF1480F07D100F17E
:100B1000080C4FF0010808FA0CF8C2F81080401CCD
:100B20000828CED35460BDE8F0810000F0B50A4635
:100B3000002300240021002500F00046B6F1004FFC
:100B400002D11D4EF16901E01B4E7168C0F30345EF
:100B500083B200F44016B6F5401F08D121F0706151
:100B6000154E766826F07066134F7E6012E000F432
:100B70008016B6F5801F06D1032606FA05F4A143B8
:100B800041F0706106E0460D360103FA06F6B14306
:100B900041F0706122B1460D360103FA06F6314389
:100BA00000F00046B6F1004F02D1034EF16101E0C2
:100BB000014E7160F0BD00000000014002460020BF
:100BC00093680B400BB1012000E000207047024603
:100BD0000020D3680B400BB1012000E000207047DB
:100BE00041617047016170470AB1016100E04161F4
:100BF00070470000014880887047000044010020D1
:100C000001484088704700004401002010B502F000
:100C10007BFC00F04FF802F001FB02F08DFE02F0C9
:100C2000EDFE00F015FB02F027FD03F029F802F0BD
:100C30001BFA02F09FFB02F0BFF910BD10B50024B3
:100C400032E004EB44001A4901EB8000806848B3AD
:100C500004EB440011F82000022823D104EB4400E7
:100C600001EB80004088401C04EB4401104A02EB79
:100C70008101488004EB4400114601EB800040886C
:100C800004EB440102EB8101898888420ADB0120E0
:100C900004EB440102F8210004EB440102EB810162
:100CA00088688047601CC4B2022CCADB10BD0000FB
:100CB0002C01002000B587B00121042000F030FE97
:100CC0000121082000F02CFE0121102000F028FE58
:100CD0000121202000F024FE0121880300F020FEE5
:100CE0000121480400F0FCFD0121880400F0F8FD1A
:100CF0000121080500F0F4FD4FF40070ADF8180074
:100D000018208DF81B0003208DF81A0006A97248E0
:100D1000FFF780FE4FF48060ADF8180004208DF8D6
:100D20001B0003208DF81A0006A96B48FFF772FE1E
:100D30000420ADF8180018208DF81B0003208DF852
:100D40001A0006A96448FFF765FE0820ADF81800F0
:100D500004208DF81B0003208DF81A0006A95E48B8
:100D6000FFF758FE4FF48050ADF8180018208DF8AA
:100D70001B0003208DF81A0006A95848FFF74AFE09
:100D80000420ADF818008DF81B0003208DF81A0020
:100D900006A95348FFF73EFE4FF48060ADF81800F7
:100DA00018208DF81B0003208DF81A0006A94D4865
:100DB000FFF730FE4FF40060ADF8180004208DF806
:100DC0001B0003208DF81A0006A94648FFF722FEF3
:100DD0004FF4E13002900020ADF80C00ADF80E00A9
:100DE000ADF81000ADF814000C20ADF8120002A907
:100DF0003D4801F0B5FD02A93C4801F0B1FD02A952
:100E00003B4801F0ADFD02A93A4801F0A9FD2520BB
:100E10008DF8040003208DF805008DF806000120F0
:100E20008DF8070001A800F0FDFC26208DF80400D5
:100E300004208DF8050003208DF8060001208DF8B0
:100E4000070001A800F0EEFC27208DF80400052023
:100E50008DF8050003208DF8060001208DF80700AD
:100E600001A800F0DFFC35208DF8040005208DF886
:100E7000050006208DF8060001208DF8070001A866
:100E800000F0D0FC012240F22551184801F042FD4B
:100E9000012240F22551144801F03CFD012240F2AC
:100EA0002551134801F036FD012240F22551114829
:100EB00001F030FD01210D4801F0E9FC01210A4853
:100EC00001F0E5FC01210A4801F0E1FC012109489B
:100ED00001F0DDFC07B000BD00080140001001403A
:100EE00000140140000C0140004400400038014063
:100EF000004800400050004000BFFEE710B586B03B
:100F000000242A480088632810DD28480088B0F5AE
:100F10007A7F0BDA25480088642190FBF1F03030AD
:100F2000C2B22046611CCCB204A90A541F480088F2
:100F3000642190FBF1F201FB12000A2190FBF1F019
:100F40003030C2B22046611CCCB204A90A542E2211
:100F50002046611CCCB204A90A54144800880A2116
:100F600090FBF1F201FB12003030C2B22046611C4E
:100F7000CCB204A90A5425222046611CCCB204A993
:100F80000A5400222046611CCCB204A90A54002055
:100F90001821CDE900014FF6FF7304AA0321029046
:100FA000872000F021FB06B010BD00009400002057
:100FB00010B50446142002F073FB102C49D2DFE870
:100FC00004F0443034383C2C201408281C104024F1
:100FD000180C21A001F056FD3BE022A001F052FDCB
:100FE00037E023A001F04EFD33E025A001F04AFDDB
:100FF0002FE026A001F046FD2BE028A001F042FDE5
:1010000027E029A001F03EFD23E02CA001F03AFDED
:101010001FE02DA001F036FD1BE02FA001F032FDF6
:1010200017E030A001F02EFD13E033A001F02AFDFF
:101030000FE036A001F026FD0BE039A001F022FD03
:1010400007E03DA001F01EFD03E040A001F01AFD05
:1010500000BF00BF10BD0000B0B4BCFC3A4B455906
:10106000300A0000B0B4BCFC3A4B4559310A0000CC
:10107000B0B4BCFC3A4B4559325F55500A000000F1
:10108000B0B4BCFC3A4B4559330A0000B0B4BCFCC8
:101090003A4B4559345F4C4546540A00B0B4BCFC49
:1010A0003A4B4559350A0000B0B4BCFC3A4B45599F
:1010B000365F52494748540A00000000B0B4BCFCF7
:1010C0003A4B4559370A0000B0B4BCFC3A4B45597D
:1010D000385F444F574E0A00B0B4BCFC3A4B4559F8
:1010E000390A0000B0B4BCFC3A4B45595F4449533F
:1010F00041524D0A00000000B0B4BCFC3A4B4559C7
:101100005F484F4D4541524D0A000000B0B4BCFC51
:101110003A4B45595F4157415241524D0A00000038
:10112000B0B4BCFC3A4B45595F43414E4345494C32
:101130005F4441494C0A0000B0B4BCFC3A4B4559ED
:101140005F534F535F44454C0A000000B0B4BCFCF1
:101150003A4B45595F4D454E550A000008B50022EF
:101160000221084603F025FE0A49086010E002F05B
:1011700023F90A2269460748006803F061FFC4B2F8
:101180001CB19DF80000FFF713FF0A2003F0F6FBE7
:10119000EDE700008C0000202DE9F04107460C46E9
:1011A00015461E462A2000F053FA384600F03DFA54
:1011B000284600F03AFA2B2000F04AFA611C88B267
:1011C00000F033FA711C88B200F02FFA2C2000F0E6
:1011D0003FFABDE8F08170B504460D4616462B4631
:1011E000224629462046FFF7D7FF304600F01DFA79
:1011F00070BD00002DE9F04781460F4615461E469A
:10120000DDF82080701E83B2681E82B239464846DF
:10121000FFF7C2FF00240AE04FEA28222046611CA3
:101220008CB20A490A5401F80480601C84B2AC42B2
:10123000F2DB3C4605E029460448FFF789FB601CC9
:1012400084B2B4EB460FF6DBBDE8F087D4940020FF
:1012500010B542F2107002F0CBFB02F051FB42F2EB
:10126000107002F0C5FB02F041FB642002F0C0FBED
:10127000112000F0EDF942F2107002F0B9FB3620B7
:1012800000F0E6F9A02000F0DDF93A2000F0E0F9E6
:10129000052000F0D7F9B22000F0DAF90C2000F0B8
:1012A000D1F90C2000F0CEF9002000F0CBF933206A
:1012B00000F0C8F9332000F0C5F9B72000F0C8F9F4
:1012C000352000F0BFF9BB2000F0C2F9352000F056
:1012D000B9F9C02000F0BCF92C2000F0B3F9C2200D
:1012E00000F0B6F9012000F0ADF9C32000F0B0F92C
:1012F000132000F0A7F9C42000F0AAF9202000F084
:10130000A1F9C62000F0A4F90F2000F09BF9CA2033
:1013100000F09EF90F2000F095F9C82000F098F930
:10132000082000F08FF9552000F092F9902000F08D
:1013300089F9D02000F08CF9A42000F083F9A120D5
:1013400000F080F9E02000F083F9D02000F07AF975
:10135000002000F077F9062000F074F9092000F071
:1013600071F90B2000F06EF92A2000F06BF93C2097
:1013700000F068F9552000F065F94B2000F062F9A3
:10138000082000F05FF9162000F05CF9142000F04E
:1013900059F9192000F056F9202000F053F9E12006
:1013A00000F056F9D02000F04DF9002000F04AF985
:1013B000062000F047F9092000F044F90B2000F066
:1013C00041F9292000F03EF9362000F03BF9542085
:1013D00000F038F94B2000F035F90D2000F032F91B
:1013E000162000F02FF9142000F02CF9212000F035
:1013F00029F9202000F026F9292000F029F902F02F
:10140000A7F810BD2DE9FF5F80468A4617469B4628
:101410000F9D00200290CDF80080284605EBD0718A
:10142000C1F347042046E21704EB5272D210214662
:10143000E31704EB5373DB10A4EBC3030BB10123DD
:1014400000E000231A446A4392B20192A7F12000FF
:10145000C7B20AEB0500401E83B208EB0400401E31
:1014600082B251464046FFF797FE002673E00C2DEE
:1014700007D107EB47003A4901EB8000805D0390FC
:1014800025E0102D05D1374800EB0710805D039053
:101490001DE0182D07D107EB4700334901EB001081
:1014A000805D039013E0202D05D1304800EB8710BC
:1014B000805D03900BE0302D07D107EBC7002C496E
:1014C00001EB0010805D039001E0BDE8FF9F4FF04D
:1014D00000093AE01098C8B9012000FA09F0039910
:1014E000084018B1584600F0A0F802E00E9800F04D
:1014F0009CF80298401CC0B20290029890FBF4F154
:1015000004FB1100E8B90020029021E0012000FA5C
:1015100009F00399084020B15A4651464046FFF76A
:101520005AFE08F101001FFA80F80098A8EB0000AD
:10153000A04206D1DDF800800AF101001FFA80FA0E
:1015400006E009F1010000F0FF09B9F1080FC1DB65
:1015500000BF701C86B20198864288DB00BFB4E7EA
:101560002C570008A05B0008906100086073000819
:10157000208B00082DE9F84F06460F469046994605
:10158000DDF82CB08020009007F11F0083B206F137
:101590001F0082B239463046FFF7FEFD00251BE0F2
:1015A000104800EBC81010F805A0002410E0BBF1B3
:1015B000000F0BD18020204100EA0A0018B14846F4
:1015C00000F033F802E00A9800F02FF8601CC4B273
:1015D000082CECDB681C85B200988542E0DBBDE896
:1015E000F88F000090C000082DE9FE4F06460F4618
:1015F00014469846DDE90D5ADDF8309010E0CDE94B
:10160000015ACDF800902278434639463046FFF71C
:10161000F9FE284605EBD07106EB61018EB2641C21
:1016200020780028EBD1BDE8FE8F18B504462012C3
:101630008DF80000E0B28DF8010002216846FFF746
:1016400087F918BD10B50446204600F011F810BD0A
:1016500010B5044610210548FFF7C2FA204600F0F5
:1016600007F810210148FFF7BDFA10BD000C01403A
:1016700001B540210348FFF7B3FA01216846FFF79F
:1016800067F908BD000C0140002410E04FF4FA6136
:101690000748006803F064F804462CB103F058FED4
:1016A0000349086001F034FFC82003F067F9EDE753
:1016B0008800002094B0002500221321022003F0AE
:1016C00078FB54490860A4E00A220FA95148006839
:1016D00003F0B6FC0646012E7ED19DF83D0003289E
:1016E00002D0102879D145E09DF83C008DF83400F7
:1016F0009DF83D008DF835000FA840798DF8390030
:10170000BDF83E00ADF836009DF840008DF8380079
:101710009DF836100DA8C07801440DA80079084442
:10172000C5B29DF83900A84223D19DF8360080301B
:10173000C0B28DF836009DF839008030C0B28DF807
:1017400039000D980090BDF83800ADF80400002471
:101750000DE01DF80410304801F073F900BF40217E
:101760002D4801F0A0F80028F9D0601CC4B2062C66
:10177000EFD349E0002406E00DF14100005D28446C
:10178000C5B2601CC4B20C2CF6DB002406E00DF1DF
:101790003F00005D2844C5B2601CC4B2022CF6DBD9
:1017A0009DF83E002844C5B20FA8407C2844C5B22D
:1017B0009DF84E00A84225D19DF83E008030C0B271
:1017C0008DF83E009DF84E008030C0B28DF84E007E
:1017D00013220FA9684601E018E014E0FEF722FD8D
:1017E00000240DE01DF804100B4801F02AF900BF99
:1017F0004021094801F057F80028F9D0601CC4B214
:10180000132CEFD300E000BF00BF0025642003F0DD
:10181000B5F859E7A00000200050004000BFFEE7E7
:101820007047000070B5002100230F22C47804B374
:10183000154C246804F4E064C4F5E064210AC1F1A5
:101840000403CA40447804FA03F184781440214325
:1018500009010E4C0678A155047804F01F050124F7
:10186000AC4005786D11AD0005F1E025C5F80041EB
:1018700009E0047804F01F050124AC40044D06780B
:10188000761145F8264070BD0CED00E000E400E064
:1018900080E100E002490143024A11607047000004
:1018A0000000FA050CED00E001460020034A5068F4
:1018B00020F4404008435060704700000010024090
:1018C00029B1064A52690243044B5A6104E0034AB3
:1018D00052698243014B5A61704700000010024078
:1018E00029B1064AD2690243044BDA6104E0034A93
:1018F000D2698243014BDA61704700000010024058
:1019000029B1064A12690243044B1A6104E0034AF2
:1019100012698243014B1A617047000000100240B7
:1019200029B1064A92690243044B9A6104E0034AD2
:1019300092698243014B9A61704700000010024097
:1019400029B1064AD2680243044BDA6004E0034A34
:10195000D2688243014BDA607047000000100240F9
:101960002DE9F0410021002200250023002600245B
:1019700000278C46DFF86081D8F8048008F00C015D
:1019800021B1042907D0082959D109E0DFF84C8199
:10199000C0F8008058E0DFF84881C0F8008053E0CC
:1019A000DFF83481D8F8048008F47012DFF8288159
:1019B000D8F8048008F48035920C0D2A01D0921CCE
:1019C00000E0062235B9DFF81C8102FB08F8C0F8F8
:1019D000008033E0DFF80081D8F82C8008F48036EE
:1019E000DFF8F480D8F82C8008F00F0808F1010423
:1019F00046B9DFF8EC80B8FBF4F808FB02F8C0F851
:101A000000801BE0DFF8D080D8F82C80C8F30318E2
:101A100008F10107DFF8C080D8F82C80C8F303284C
:101A200008F1020CDFF8B880B8FBF7F808FB0CF8F7
:101A3000B8FBF4F808FB02F8C0F8008004E0DFF817
:101A40009C80C0F8008000BF00BFDFF88C80D8F811
:101A5000048008F0F0010909DFF88C8018F80130E3
:101A6000D0F8008028FA03F8C0F80480DFF8688016
:101A7000D8F8048008F4E061090ADFF86C8018F8EF
:101A80000130D0F8048028FA03F8C0F80880DFF8A5
:101A90004880D8F8048008F46051C90ADFF848800B
:101AA00018F80130D0F8048028FA03F8C0F80C8048
:101AB000DFF82480D8F8048008F44041890BDFF86F
:101AC0002C8018F80130D0F80C80B8FBF3F8C0F87F
:101AD0001080BDE8F08100000010024000127A0082
:101AE00040787D0100093D00B2000020C2000020C6
:101AF00021B1028842F04002028004E002884FF6E1
:101B0000BF731A40028070471AB183880B438380E9
:101B100002E083888B438380704710B500220288DF
:101B200002F441520B884C8823438C882343CC8891
:101B300023430C8923434C8923438C892343CC8939
:101B400023431A430280838B4FF2FF742340838325
:101B50000B8A038210BD10B500F002F810BD000022
:101B60000CB50020019000903F48006840F48030A0
:101B70003D49086000BF3C48006800F40030009018
:101B80000198401C0190009818B90198B0F5A06F19
:101B9000F1D13548006800F4003010B10120009008
:101BA00001E000200090009801285CD12F480068D7
:101BB00040F010002D4908600846006820F003003E
:101BC00008600846006840F0020008602648406847
:101BD000254948600846406848600846406840F427
:101BE000806048600846C06A214908401E49C862B2
:101BF0000846C06A1F4908431B49C8620846006876
:101C000040F08060086000BF1748006800F0006086
:101C10000028F9D01448406820F47C10124948602C
:101C20000846406840F4E81048600846006840F004
:101C30008070086000BF0C48006800F00070002849
:101C4000F9D00948406820F0030007494860084679
:101C5000406840F00200486000BF0348406800F060
:101C60000C000828F9D10CBD0010024000200240F1
:101C700000F0FEFF44060100032006490870002022
:101C800088600873487308460021C0F80E108174FC
:101C90007047000044010020042808D14FF0E021E3
:101CA000096941F004014FF0E022116107E04FF0B3
:101CB000E021096921F004014FF0E0221161704731
:101CC00010B503F035FB012801D003F047F810BD33
:101CD00070B505460420FFF7DFFF10480068104983
:101CE000B0FBF1F00F4908700C4800680C49B0FBDC
:101CF000F1F44FF47A70444301200B4908804FF00F
:101D0000E020006940F002004FF0E0210861084641
:101D10004461006940F00100086170BD740000205A
:101D200040420F00200100202201002010B516487B
:101D3000006840F0010014490860084640681349F3
:101D400008401149486008460068114908400E499A
:101D500008600846006820F4802008600846406853
:101D600020F4FE0048600846006820F0A05008609B
:101D70004FF47F0088600020C862FFF7ECFE4FF050
:101D800000600449086010BD001002400000FFF030
:101D9000FFFFF6FE08ED00E0F0B50C461546002208
:101DA0000021068C4FF6FE773E400684028B018CA4
:101DB0004FF60C7632407E1C06EA03162E43324361
:101DC000104EB0420ED0104EB0420BD0B0F1804F4A
:101DD00008D00E4EB04205D00D4EB04202D00D4E8E
:101DE000B04206D14FF6FD76314044F00106314352
:101DF00005E04FF6F576314044F0010631430283A9
:101E00000184F0BD002C014000340140000400407A
:101E100000080040000C0040F0B50C4615460022BA
:101E200000210026078C4FF6EF7C07EA0C07078499
:101E3000028B018C4FF6FF7707EA041640F6FF4746
:101E40003A404FF6FF7707EA03373A434FF6FF77FA
:101E500007EA05273A43114FB8420ED0104FB84257
:101E60000BD0B0F1804F08D00E4FB84205D00E4FC6
:101E7000B84202D00D4FB84206D14FF6DF77394055
:101E800046F01007394305E04FF65F77394044F0DC
:101E90001007394302830184F0BD0000002C01408B
:101EA000003401400004004000080040000C0040E5
:101EB000F0B50C461546002200210026078C4FF68F
:101EC000FF6C07EA0C070784828B018C4FF6FF77C3
:101ED00007EA04264FF60C773A404FF6FF7707EAF9
:101EE00003172F433A43114FB8420ED0104FB84258
:101EF0000BD0B0F1804F08D00E4FB84205D00E4F36
:101F0000B84202D00D4FB84206D14FF6FF573940C4
:101F100046F48077394305E04FF2FF57394044F4E7
:101F20008077394382830184F0BD0000002C01409A
:101F3000003401400004004000080040000C004054
:101F4000F0B50C461546002200210026078C4EF6FF
:101F5000FF7C07EA0C070784828B018C4FF6FF7722
:101F600007EA043640F6FF473A404FF6FF7707EAA4
:101F700005273A434FF6FF7707EA03373A43114FF5
:101F8000B8420ED0104FB8420BD0B0F1804F08D0FD
:101F90000E4FB84205D00E4FB84202D00D4FB84296
:101FA00006D14DF6FF77394046F48057394305E0B6
:101FB00047F6FF57394044F4805739438283018400
:101FC000F0BD0000002C014000340140000400403E
:101FD00000080040000C004010B50121304800F01E
:101FE00076F904212E4800F072F9002852D02C48CE
:101FF00000F06AF92B49886008468068B42808D246
:10200000084680688C2804D90020087304200870D2
:1020100031E0244880683C2803D9224880685A2847
:1020200024D320488068872820D21E4880686428EE
:102030001CD91C4A107BC21700EB5272D310194AEC
:102040000E32D25C174B197BCB1701EB5373DB10AD
:10205000A1EBC304802323411A43124B187BC317FF
:1020600000EB5373DC100F4B0E331A550D48007BF9
:10207000401C0C4908730B48007B282806D100211E
:10208000074800F021F80120064948730021044860
:1020900000F08DF90521024800F013F810BD000092
:1020A000000400404401002010B5FEF7C7FD0121E7
:1020B000014800F003F810BD00080040CA43028246
:1020C0007047CA430282704721B1028842F0010280
:1020D000028004E002884FF6FE731A4002807047C7
:1020E00010B504466848844208D10121C014FFF7A6
:1020F00027FC0021E014FFF723FCC4E0B4F1804F7B
:1021000008D101210846FFF7FBFB00210120FFF762
:10211000F7FBB8E05D48844208D101210220FFF7B7
:10212000EFFB00210220FFF7EBFBACE058488442B4
:1021300008D101210420FFF7E3FB00210420FFF771
:10214000DFFBA0E05348844208D101210820FFF7BB
:10215000D7FB00210820FFF7D3FB94E04E488442D0
:1021600008D101211020FFF7CBFB00211020FFF741
:10217000C7FB88E04948844208D101212020FFF7AD
:10218000BFFB00212020FFF7BBFB7CE044488442DA
:1021900008D101214014FFF7D3FB00216014FFF7A1
:1021A000CFFB70E03F48844209D10121C804FFF70A
:1021B000C7FB00214FF40020FFF7C2FB63E03A4861
:1021C000844209D101210805FFF7BAFB00214FF431
:1021D0008010FFF7B5FB56E03448844209D1012155
:1021E0004805FFF7ADFB00214FF40010FFF7A8FBF7
:1021F00049E02F48844208D101214020FFF780FBAD
:1022000000214020FFF77CFB3DE02A48844208D1B2
:1022100001218020FFF774FB00218020FFF770FB75
:1022200031E02548844208D101218015FFF768FB81
:102230000021A015FFF764FB25E02048844209D166
:1022400001210804FFF77CFB00214FF48030FFF7E9
:1022500077FB18E01A48844209D101214804FFF7AE
:102260006FFB00214FF40030FFF76AFB0BE01548CD
:10227000844208D101218804FFF762FB00214FF45A
:102280008020FFF75DFB10BD002C014000040040E2
:1022900000080040000C0040001000400014004006
:1022A00000340140004C0140005001400054014006
:1022B00000180040001C0040002000400040014089
:1022C00000440140004801400146088F704730B586
:1022D0000246002000230024158A05EA010395899F
:1022E00005EA010413B10CB1012000E0002030BD6B
:1022F00070B505460C46244885420ED023488542D9
:102300000BD0B5F1804F08D02148854205D0214837
:10231000854202D02048854200D100E000BF2088DD
:1023200050B92389A28861882846FFF735FDE188E6
:10233000284600F03EF825E0208804280AD12389A9
:10234000A28861882846FFF767FDE188284600F0EB
:1023500039F817E0208808280AD12389A2886188E3
:102360002846FFF7A5FDE188284600F038F809E087
:102370002389A28861882846FFF7E2FDE188284684
:1023800000F036F870BD0000002C01400034014020
:102390000004004000080040000C00401AB183898E
:1023A0000B43838102E083898B438381704781845F
:1023B0007047028B4FF6F3731A400283028B0A4375
:1023C00002837047028B4FF2FF331A400283028B65
:1023D0004FF6FF7303EA01231A4302837047828B8F
:1023E0004FF6F3731A408283828B0A4382837047CD
:1023F000828B4FF2FF331A408283828B4FF6FF733A
:1024000003EA01231A4382837047000000220288F6
:102410001D4B98420ED01D4B98420BD0B0F1804F0F
:1024200008D01B4B984205D01A4B984202D01A4B49
:10243000984204D14FF68F731A404B881A43174BBA
:10244000984207D0164B984204D04FF6FF431A40EB
:10245000CB881A4302808B8883850B8803850A4BBF
:1024600098420BD0094B984208D00E4B984205D0A9
:102470000D4B984202D00D4B984201D10B7A038646
:102480000123838270470000002C0140003401408A
:102490000004004000080040000C00400010004014
:1024A0000014004000400140004401400048014049
:1024B00000BF00F02BFEFEF783F8642002F05EFA06
:1024C000F7E7000010B586B000242A48008863288A
:1024D00010DD28480088B0F57A7F0BDA254800889F
:1024E000642190FBF1F03030C2B22046611CCCB2C6
:1024F00004A90A541F480088642190FBF1F201FBF3
:1025000012000A2190FBF1F03030C2B22046611C6B
:10251000CCB204A90A542E222046611CCCB204A9D4
:102520000A54144800880A2190FBF1F201FB1200C2
:102530003030C2B22046611CCCB204A90A54212218
:102540002046611CCCB204A90A5400222046611C1A
:10255000CCB204A90A5400201821CDE900014FF69D
:10256000FF7304AA032102904620FFF73DF806B04E
:1025700010BD000096000020ADF5006D0024012084
:1025800002F006FC05462BE047F230511548006882
:1025900002F0E6F80446002C1FD00021284602F085
:1025A000D1FD002819D002F0D3FE0E49086068461C
:1025B00002F04CFA0CA000F065FA18A000F062FAE4
:1025C000694622A000F05EFA21A000F05BFA002329
:1025D0001A461946284602F049FC642002F0CEF95A
:1025E000D2E70000240100202D2D2D2D2D2D2D2D85
:1025F0002D2D2D2D2D2D2D2D2D2D2D2DC8CECEF16A
:102600002D2D2D2D2D2D2D2D2D2D2D2D2D2D2D2DFA
:102610002D2D2D2D2D2D2D2D0D0A0000C3FBB3C604
:102620002020202020202020202020D7B4CCAC2027
:102630002020D3C5CFC8BCB6202020CAA3D3E0D564
:10264000BB2020D0F2BAC50D0A000000257300009F
:1026500042A3BAD7E8C8FB202052A3BABECDD0F718
:10266000202044A3BAC9BEB3FD202053A3BAD4DDB1
:10267000CDA3202058A3BAD4CBD0D0200D0A00007F
:1026800000F007F801F0CCFF00BF642002F076F9FB
:10269000FBE708B50020F0234FF4A072014600903C
:1026A000FEF7A8FD08BD000010B58EB000200D900B
:1026B00040F22551234800F003F918B3214800F0F7
:1026C000BBF9C1B2204802780078401C1E4B18703C
:1026D0000DF802109DF80100032803D106201B49C4
:1026E00008700AE09DF80100102803D11320174953
:1026F000087002E000201549087040F22551114889
:1027000000F0B6F81048007810490978884216D1D0
:102710006C4600230DAA21460D48006802F042FCD9
:1027200000200A490870084908700D9838B14FF028
:10273000805008490860BFF34F8FBFF36F8F0EB012
:1027400010BD0000005000400100002000000020EB
:10275000A000002004ED00E000B58FB000200E9036
:1027600040F225511B4800F0ABF880B1194800F049
:1027700063F9C1B2184802780078401C164B1870F3
:1027800001A8815440F22551124800F071F8124816
:102790000078042807D010480078052803D00E4898
:1027A0000078062813D100200B49087000230EAAD8
:1027B00001A90A48006802F0F5FB0E9838B14FF005
:1027C000805007490860BFF34F8FBFF36F8F0FB082
:1027D00000BD00000044004003000020A4000020D1
:1027E00004ED00E000B58FB000200E9040F22551BE
:1027F0001B4800F065F880B1194800F01DF9C1B21E
:10280000184802780078401C164B187001A88154B3
:1028100040F22551124800F02BF8124800780428A5
:1028200007D010480078052803D00E480078062805
:1028300013D100200B49087000230EAA01A90A48F1
:10284000006802F0AFFB0E9838B14FF08050074996
:102850000860BFF34F8FBFF36F8F0FB000BD000054
:1028600000480040020000209800002004ED00E035
:1028700010B50022002340F66A14A14200D100BF27
:102880000A1201249440A3B2DC43048010BD21B19C
:10289000828942F40052828104E082894DF6FF73FE
:1028A0001A408281704702460020B1F5007F00D1B6
:1028B00000BF13880B400BB1012000E000207047DF
:1028C00070B50246002400230025002040F66A1659
:1028D000B14200D100BFC1F3421501F01F03012630
:1028E00006FA03F3012D02D19689334006E0022D4A
:1028F00002D1168A334001E0968A33400C12012639
:1029000006FA04F41688344013B10CB1012000E03B
:10291000002070BDF0B503460024002600250020ED
:1029200040F66A17B94200D100BF1846C1F34214FD
:1029300001F01F06012707FA06F5012C01D10C3022
:1029400004E0022C01D1103000E014301AB1076805
:102950002F43076002E00768AF430760F0BD000047
:102960002DE9F04786B005460E460024A24600BF7A
:10297000A1460027B08900B100BF2F462C8A4CF633
:10298000FF700440F08804432C82AC894EF6F310AB
:102990000440B08831890843718908430443AC81FD
:1029A000AC8A4FF6FF400440B0890443AC8201A8D2
:1029B000FEF7D6FF1F48874202D1DDF810A001E0E4
:1029C000DDF80CA0A88900F4004040B10AEBCA0071
:1029D00000EB0A1031684900B0FBF1F807E00AEBA0
:1029E000CA0000EB0A1031688900B0FBF1F86420DE
:1029F000B8FBF0F004012009642101FB1089A889CB
:102A000000F4004040B1322000EBC900B0FBF1F00F
:102A100000F00700044308E0322000EB09106421B5
:102A2000B0FBF1F000F00F0004432C8106B0BDE8CC
:102A3000F08700000038014001468888C0F3080094
:102A40007047C1F308028280704700BFFEE70000B4
:102A50008EB0002214210A2002F0ABF90849086068
:102A60000CE002F03BF930B10A2201A904480068E9
:102A700002F0E6FA00BF642001F080FFF1E70000F9
:102A8000980000200FB4054B10B503A9044A029822
:102A900000F02CF810BC5DF814FB0000A12F00081A
:102AA000280100200FB4084B10B504A902AA03980E
:102AB00000F01CF8044602A9002000F077F9204637
:102AC00010BC5DF814FB0000AD2D000802E008C842
:102AD000121F08C1002AFAD170477047002001E098
:102AE00001C1121F002AFBD1704700002DE9FF4FE2
:102AF0008DB09B460F460446002606E025280BD0E5
:102B00005A460F999047641C761C20780028F5D10E
:102B100011B03046BDE8F08F0025A8460122984943
:102B200000E0054314F8013F203B02FA03F008429D
:102B3000F7D120782E2817D114F8010F45F004059D
:102B40002A280ED06FF02F022078A0F13001092939
:102B50000AD808EB880102EB410100EB0108641C74
:102B6000F2E757F8048B641C20786C280DD004DC45
:102B70004C2812D06A2811D104E074280DD07A288C
:102B80000CD10AE045F4001507E0617845F48015A2
:102B9000814202D1641C05F58015641C20786928E7
:102BA00044D008DC0028B3D0582867D063280FD061
:102BB000642808D13AE0702865D0732812D07528AF
:102BC0005AD078285AD05A460F999047761CD5E0AB
:102BD00017F8040B8DF8000000208DF80100E9467D
:102BE000012003E057F8049B4FF0FF3069074FF0D6
:102BF000000501D40AE06D1C45450DDA8542FADB7B
:102C000019F805100029F6D106E06D1C8542FCDBA1
:102C100019F805100029F8D12E4404E019F8010B29
:102C20005A460F9990476D1EF8D2A7E00A2000215E
:102C3000CDE90801C5F3025002280CD001CFC1171D
:102C4000021E71F100020CDA0023D0EB030063EBEB
:102C500001012D2208E0FF1D27F00707F7E8020118
:102C6000EEE72A0504D52B228DF8282001223CE02E
:102C7000EA073AD02022F7E70A2000E010200021DE
:102C8000CDE9080107E01020002145F00405CDE959
:102C900008014FF00808C5F30250022810D001CFF8
:102CA00000214FF0000A2A0720D52278702A0DD083
:102CB000DDE908C38CF0100C5CEA030C0CD015E0C5
:102CC000FF1D27F00707F7E80201EAE740228DF829
:102CD00028204FF0010A0CE050EA010306D030230F
:102CE0008DF828308DF82920022292462278582A21
:102CF00004D024A20DF120090B9209E026A2F9E7E5
:102D0000DDE90823FDF7C2FA0B9B9B5C09F8013D46
:102D100050EA0102F4D1ADEB0900203008906807B9
:102D200001D44FF001080899884503DD0898A8EB05
:102D3000000000E000208046002506E00AA85A4670
:102D4000405D0F9990476D1C761C5545F6DB04E0FD
:102D500030205A460F999047761CB8F10001A8F12F
:102D60000108F5DC05E019F8010B5A460F99904768
:102D7000761C0899481E08900029F4DC641CC4E6FF
:102D80000928010030313233343536373839616241
:102D90006364656600000000303132333435363705
:102DA0003839414243444546000000000A68531C3C
:102DB0000B6010707047000010B53448007830B1D7
:102DC00001280BD0022826D003285CD134E0002053
:102DD0002E49487048608860072010BD082000F028
:102DE0001DFD2A4949680844284948600A2000F026
:102DF00015FD2649896808442449886008464078BA
:102E0000401C4870084640780A2803DB00204870C0
:102E10000220087037E01D4880680A21B0FBF1F0FD
:102E20001A498881084640680A21B0FBF1F0174929
:102E3000C8810320087026E0002014490870084665
:102E4000C089FA2148431149898990FBF1F0440077
:102E5000B4F5C87F01D90520BFE7B4F5C37F01D918
:102E60000420BAE7B4F5C87F01D90320B5E7B4F56B
:102E7000B97F01D90220B0E7B4F5B47F01D90120B0
:102E8000ABE70020A9E700BF0620A6E7D801002095
:102E90000020054908704870486088600520087562
:102EA0000020087448827047D801002070B504469D
:102EB00002F03EFA012810D00B480088844206D365
:102EC00009480088B4FBF0F5284601F057FD064894
:102ED0000088B4FBF0F100FB11444FF47A7104FB5D
:102EE00001F000F003F870BD2201002070B5034628
:102EF00000224FF0E02675690D4E367803FB06F48C
:102F00004FF0E026B16910E04FF0E026B06988424A
:102F10000BD0884202D20E1A324402E02E1A0E441E
:102F200032440146A24200D300E0EDE700BF70BD8D
:102F3000200100202DE9F04106463746134800687D
:102F4000874201D100241EE001F0BEFC7D6901F042
:102F5000CDFC0F480068854203D00E4800688542CA
:102F600001D102240FE00C48854205D1B86A08B9A6
:102F7000032408E0022406E00848854200D00DB989
:102F8000042400E001242046BDE8F081C8000020B0
:102F9000CC000020D0000020C0040020AC040020A1
:102FA0000A46044900BF0B8803F08003002BFAD0C7
:102FB000888070470038014000B587B001210820A3
:102FC000FEF7AEFC01211020FEF7AAFC012140F221
:102FD0000120FEF7A5FC0120ADF8180000208DF8B7
:102FE0001B0006A91D48FDF715FD0120ADF81800CE
:102FF00000208DF81B0006A91948FDF70BFD4FF4C2
:103000004040FEF751FC002001908DF808008DF83B
:1030100009004FF4602003900020049002208DF8F6
:10302000140001A90F48FDF731FA01210D48FDF701
:10303000BBF90C48FDF7AEFA00BF0A48FDF71BFAD2
:103040000028FAD10748FDF7B5FA00BF0548FDF79B
:10305000FBF90028FAD107B000BD0000000C0140C8
:10306000001001400024014010B5002004494880B0
:103070008880087047214FF6FF7000F067FD10BD93
:103080004401002070B500EB40040B4D05F82430DE
:10309000002400EB4005084E06EB85056C8000EB34
:1030A0004004354605EB8404A28000EB400405EBA8
:1030B0008404A16070BD00002C01002010B5202107
:1030C0000148FDF78FFD10BD0008014010B520211B
:1030D0000148FDF785FD10BD0008014010B5022133
:1030E0000148FDF76BFD10BD000C014010B510212B
:1030F0000148FDF775FD10BD0010014010B510210D
:103100000148FDF76FFD10BD0010014070B52B4860
:103110000068401C29490860084600681E2804D938
:10312000002008600120264908702548007830B149
:10313000012805D0032809D004283CD112E03AE048
:10314000FEF79AFD012000F03DFA34E080211D4891
:10315000FDF748FD01211C48FEF7B6FF002000F0F6
:1031600031FA28E01648407B20B30020144908704B
:1031700048730846857B012406E011480E30005D47
:103180002844C5B2601CC4B2042CF6DB0C48807C19
:10319000A8420ED10A48C07B0949897B00EB012077
:1031A000074988800846417C007C01EB00200449E7
:1031B0004880002500BF00BF70BD0000380000201F
:1031C00044010020000801400004004010B5FFF752
:1031D00085FF04460120FFF769FE0E48007884420F
:1031E00003D100200C49087010E00A48007884429E
:1031F0000CD009480078401C074908700846007840
:10320000142803DD0020087002480470014800788B
:1032100010BD0000040000200500002008B50121B9
:103220000420FEF77DFB01210820FEF779FB012138
:103230001020FEF775FB1020ADF8000002208DF87D
:10324000020010208DF8030069461148FDF7E2FBEB
:103250002020ADF8000002208DF8020010208DF82B
:10326000030069460B48FDF7D5FB0220ADF80000CE
:1032700004208DF8030069460748FDF7CBFBFFF7F4
:103280002DFF06490870FFF739FFFFF71FFF08BD44
:103290000010014000080140000C01400400002023
:1032A00070B5002400250AE06006040E2F4951F88D
:1032B0002500804708B144F00104681CC5B2052D03
:1032C000F2DB112C4AD2DFE804F049090D1115197F
:1032D0001D2125292D3135393D4145000120244945
:1032E000087040E00120224948703CE0012020495C
:1032F000887038E001201E49C87034E001201C4964
:10330000087130E001201A4948712CE00120184969
:10331000887128E001201649C87124E00120144971
:10332000087220E00120124948721CE00120104977
:10333000887218E001200E49C87214E001200C497F
:10334000087310E001200A4948730CE00120084985
:10335000887308E001200649C87304E0102104487E
:10336000FCF779FF00BF00BF70BD00003C000020EB
:10337000C801002010B500F099FA002410E00020E8
:10338000094908550320094921F81400C8200849B3
:1033900021F814009620074921F81400601CC4B2DB
:1033A000102CECDB10BD000058010020680100204B
:1033B00088010020A801002038B5FFF771FF002424
:1033C00077E0FF2000903C48005D052863D2DFE8ED
:1033D00000F0030A26425B003848005D10B101206E
:1033E0003549085557E03548005D80B1344830F81C
:1033F0001400401E80B2324921F8140070B9032035
:1034000021F8140002202C490855009406E00320FE
:103410002B4921F814000020274908553BE0274894
:10342000005D80B1274830F81400401E80B2254965
:1034300021F8140070B9C82021F8140003201E4997
:103440000855009406E0C8201E4921F81400042005
:10345000194908551FE01948005D40B90420164974
:1034600008559620184921F8140000940BE01648DE
:1034700030F81400401E80B2134921F8140010B92E
:10348000962021F8140006E00C48005D10B90020D9
:103490000949085500BF00BF9DF80000FF2806D06D
:1034A00000230A2269460948006801F0DFFC601C1D
:1034B000C4B2102C85DB38BD58010020C8010020A3
:1034C0006801002088010020A80100208C00002055
:1034D00008B501211020FEF723FA4FF44040ADF863
:1034E000000002208DF8020010208DF803006946CC
:1034F0000448FDF78FFA4FF480410248FDF770FB56
:1035000008BD00000010014010B5FFF7E1FF10BD3D
:1035100010B54FF480410D48FDF759FBC0F1010093
:10352000C4B222464FF480410848FDF75DFB4FF4DA
:1035300000410648FDF74BFBC0F10100C4B2224632
:103540004FF400410148FDF74FFB10BD0010014052
:1035500010B54FF480610248FDF744FB10BD000038
:103560000010014010B5024602EB4200094B03EB8C
:103570008000806858B102EB420003F82010002060
:1035800002EB4203034C04EB8303588010BD01207F
:10359000FCE700002C01002008B50120ADF8000078
:1035A00002208DF8020010208DF8030069460448BF
:1035B000FDF730FA01210248FDF714FB08BD0000B9
:1035C0000008014038B5044601210420FEF7A8F99F
:1035D000012C11D18020ADF8000002208DF80200EE
:1035E00010208DF8030069460948FDF713FA802181
:1035F0000748FDF7F5FA09E08020ADF80000482003
:103600008DF8030069460248FDF704FA38BD000052
:103610000008014008B501211020FEF781F90121C1
:103620000420FEF77DF901210846FEF779F906200E
:10363000ADF8000003208DF8020010208DF8030083
:1036400069460C48FDF7E6F90820ADF800000320B4
:103650008DF8020004208DF8030069460548FDF747
:10366000D9F904210348FDF7BDFA02210148FDF70D
:10367000B9FA08BD0010014010B5FFF7CBFFFFF706
:103680008BFF00200349087003490870FF2003499D
:10369000087010BD2E0000202F00002030000020F8
:1036A00010B504461348007800BB02231A4612499D
:1036B0000120FFF7E7FC00F02DF801210F48FDF78E
:1036C00091FA02210E48FDF78BFA04210C48FDF710
:1036D00087FA0C4804700020064908700A480088E0
:1036E0000A490880FF200A49087001E00848047070
:1036F00010BD00002E000020153700080008014012
:10370000001001402F0000200600002032000020A1
:103710003000002010B539480088401E3749088025
:1037200008460088002863D135480078401C344999
:1037300008703448097830F8110030490880304862
:10374000007831490870087800EBD0714910A0EB7F
:10375000410119B901202C49087002E000202A49D2
:1037600008702948007810B1012825D11AE02448B2
:103770000078012803D125480078254908700221E6
:103780002448FDF72DFA2248007800F0010020B10E
:1037900004212048FDF726FA03E004211D48FDF727
:1037A0001FFA09E002211B48FDF71CFA18480078AF
:1037B00040101749087000BF00BF11480078112859
:1037C00016D104211348FDF70DFA02211148FDF727
:1037D00009FA00200A4908700F480078FF2806D02F
:1037E0000D480078FFF75CFFFF200B49087010BD03
:1037F00002210120FFF7B6FE00BFF8E732000020EB
:103800002E00002006000020350000202F000020A0
:1038100034000020001001403000002010B50446A4
:103820000723012221460948FCF758FE01210748D9
:10383000FCF7B5FE00BF02210448FCF713FE002888
:10384000F9D00248FCF70AFE10BD00000024014038
:1038500010B540210148FDF7B1F910BD001001403D
:1038600010B580210148FDF7A9F910BD00100140F5
:1038700010B54FF480710248FDF7A0F910BD0000AB
:103880000010014010B54FF400710248FDF796F9A1
:1038900010BD00000010014010B54FF480710248C7
:1038A000FDF78CF910BD00000008014008B50121AA
:1038B0001420FEF735F84FF47070ADF80000482082
:1038C0008DF8030069460748FDF7A4F84FF48070AF
:1038D000ADF8000048208DF8030069460248FDF766
:1038E00099F808BD001001400008014010B54FF4E0
:1038F00000410248FDF776F910BD000000080140C4
:1039000010B54FF400410248FDF76AF910BD000000
:103910000008014010B504462CB14FF48051054811
:10392000FDF760F904E04FF480510248FDF758F9C3
:1039300010BD0000000C014000B587B001218803D4
:10394000FDF7CEFF01210820FDF7EAFF012108461F
:10395000FDF7E6FF4FF46040ADF8040003208DF85A
:10396000060018208DF8070001A91F48FDF752F83E
:103970004FF48050ADF8040003208DF806001020AD
:103980008DF8070001A91848FDF744F84FF480515D
:103990001548FDF727F90020ADF808004FF48270B4
:1039A000ADF80A000020ADF80C000220ADF80E00C2
:1039B0000120ADF810004002ADF812001020ADF863
:1039C00014000020ADF816000720ADF8180002A979
:1039D0000648FEF7A2F801210448FEF789F8012005
:1039E000FFF798FF07B000BD000C01400038004011
:1039F00000BF011EA0F10100FBD1704700B591B0DE
:103A00000121C803FDF76CFF01210220FDF758FFDB
:103A100001211D20FDF784FF01214648FDF786F8AE
:103A20004FF40040ADF82C0010208DF82F0003203B
:103A30008DF82E000BA94048FCF7ECFF4FF4004135
:103A40003D48FDF7CFF85020ADF82C0010208DF840
:103A50002F0003208DF82E000BA93848FCF7DAFF61
:103A600050213648FDF7BEF84FF48060ADF82C00C9
:103A700010208DF82F0003208DF82E000BA9304860
:103A8000FCF7C8FF4FF480612D48FDF7A9F8282006
:103A9000ADF82C0003208DF82E0018208DF82F0093
:103AA0000BA92648FCF7B6FF4FF44040ADF83000B4
:103AB0004FF48270ADF832000020ADF834000220DF
:103AC000ADF836000120ADF838004002ADF83A00FC
:103AD0000020ADF83C00ADF83E000720ADF84000F6
:103AE0000CA91848FEF719F81748FCF76DFE1548A1
:103AF0000C30009010200290800103900020049070
:103B00008020059000200690079008904FF4805088
:103B1000099000200A9069460B48FCF7FBFE012241
:103B200002210848FDF7F0FF01210648FDF7E0FFFC
:103B300011B000BD0002300000080140000C01403F
:103B400000100140003C00401C04024030B589B028
:103B500005460C4601210220FDF7C2FE012104208A
:103B6000FDF7DEFE8020ADF8200010208DF8230048
:103B700003208DF8220008A91F48FCF74BFF802185
:103B80001D48FDF72FF8ADF80C50ADF808400020A7
:103B9000ADF80E00ADF80A0002A91848FEF736FC91
:103BA0000420ADF814000220ADF816000120ADF895
:103BB00018000020ADF81A00ADF81C0005A90F4848
:103BC000FEF796FB1D208DF8040002208DF80500FD
:103BD00000208DF8060001208DF8070001A8FDF7F0
:103BE00021FE012205210548FEF7D8FB00210348EC
:103BF000FEF76AFA09B030BD000801400004004039
:103C00001FB501210420FDF76BFE1A48FEF768FA84
:103C10003220ADF80800184800681849B0FBF1F0F0
:103C2000401E80B2ADF804000020ADF80A00ADF8E7
:103C3000060001A90F48FEF7E9FB012211460D48D5
:103C4000FEF7ACFB01210B48FEF73EFA4FF4A060F3
:103C5000FDF720FE1E208DF8000000208DF80100E9
:103C600003208DF8020001208DF803006846FDF75F
:103C7000D9FD1FBD000800407400002040420F0025
:103C800010B5FFF7BDFF002417E0012004EB44014D
:103C90000B4A02F82100002004EB440102EB8101F1
:103CA000488004EB440102EB8101888004EB44016D
:103CB00002EB81018860601CC4B2022CE5DB10BD00
:103CC0002C0100201CB54820FEF702F8FCF79EFFEF
:103CD0002F48022100233222CDE900102DA13048C7
:103CE00001F0F6FA2F4805210023C822CDE9001083
:103CF0002DA1304801F0ECFA2F48062100234FF4A3
:103D00009672CDE900102DA12F4801F0E1FA2F485D
:103D100003210023C822CDE900102DA12F4801F076
:103D2000D7FA2F4804210023C822CDE900102DA185
:103D3000304801F0CDFA304807210023C822CDE9F0
:103D400000102EA1304801F0C3FA304808210023AA
:103D5000CA01CDE900102EA1304801F0B9FA30486F
:103D6000092100234FF48062CDE900102DA13048D5
:103D700001F0AEFA2F48012100238A02CDE900109C
:103D80002DA1304801F0A4FA00F03EFF00201CBD38
:103D9000500000204C65645F5461736B00000000AC
:103DA00089160008540000204B65795F5461736BDD
:103DB000000000005D110008580000205466744C9B
:103DC00063645F5461736B00812600085C0000200F
:103DD00054656D48756D5F5461736B00B1240008C4
:103DE00060000020426174746572795F5461736B86
:103DF00000000000AD0700086C0000204C6F7261ED
:103E00005F5461736B000000B5160008700000205D
:103E100045433230304E5F5461736B00A509000892
:103E200068000020576966695F5461736B00000089
:103E3000512A000864000020546573745F54617354
:103E40006B000000792500082DE9F04105460E467B
:103E50001C4807681C480068001D00F093FC50B91E
:103E60001948006890F82C1001208840174909680B
:103E7000814316480160681C38B936B112480168A0
:103E8000091D134800F014FD1AE07C190E48006863
:103E90004460BC4207D20C480168091D0D48006807
:103EA00000F0ECFC0CE008480168091D0A480068B5
:103EB00000F0E4FC09480068844201D2074804602D
:103EC000BDE8F081DC000020C8000020E0000020F8
:103ED000C0040020D0000020CC000020F80000200A
:103EE00010B5044600F0F0FC24480068401C23494B
:103EF00008602348006840B921480460084600680B
:103F000001280DD100F092F90AE01E48006838B986
:103F10001B480068C06AE16A884201D818480460FA
:103F200019480068401C1849086008460068606429
:103F300094F82C100120884014490968084313495B
:103F40000860E16A01EB8101114A02EB8100211D49
:103F500000F0AEFC00F0CAFC0A48006868B10848EE
:103F60000068C06AE16A884207D24FF08050094970
:103F70000860BFF34F8FBFF36F8F10BDD8000020D4
:103F8000C8000020E4000020F4000020E000002031
:103F9000F001002004ED00E010B516E000F094FC04
:103FA0000C48C068C468201D00F0ECFB0A4800689B
:103FB000401E0949086009480068401E074908601A
:103FC00000F094FC204600F05EF8044800680028E9
:103FD000E4D110BDAC040020D8000020D4000020A3
:103FE00070B504460D46206C70B1216CE068084441
:103FF000E0606168E068884201D32068E06028469C
:10400000226CE168FCF70EF970BD2DE9F041044621
:104010000F4615464FF00008A66B206C40B920688B
:1040200060BB606801F028FA80460020606025E0EF
:104030007DB93946226CA068FCF7F4F8216CA068C1
:104040000844A060D4E90110884217D32068A0601A
:1040500014E03946226CE068FCF7E4F8216CE06873
:10406000401AE0602168E068884203D2216C6068F1
:10407000401AE060022D01D106B1761E701CA063CB
:104080004046BDE8F08110B50446206B00F03EFCD0
:10409000204600F03BFC10BD01464A6A22B10A6B83
:1040A0001268C2F1200000E00020704730B54FF4E4
:1040B0001043174800F007042CB1C01D20F0070082
:1040C000134C041B1B1B0246124C22600024114D92
:1040D0006C60D018083820F007000F4C20600024D6
:1040E0000D4D2D686C600C4D2D682C601146441AE6
:1040F0004C60094C24680C60084D4C682C60084DDD
:104100004C682C604FF00044064D2C6030BD000020
:10411000D4040020040100200C0100201401002020
:10412000100100201801002000BFFFF735FF0648EE
:1041300000680128F9D94FF0805004490860BFF3A6
:104140004F8FBFF36F8FF0E7F001002004ED00E028
:1041500010B504464CB1002060602060E060002390
:104160001A461946204600F081FE10BD2DE9F041A7
:1041700006460D4617469846069C0DB9246000E099
:104180002760E66325640121204600F02FFE84F8B5
:1041900050800020A064BDE8F0812DE9F05F8146E9
:1041A0000F4690469A460A9E0C9C4FEA8801A5222B
:1041B000206BFCF749F8A8F10100216B01EB800BA3
:1041C0002BF0070B002507E0795D04F13400415521
:1041D000785D00B902E06D1C102DF5D300BF002101
:1041E00043200155202E00D31F26E662E6640020FE
:1041F0002065201D00F03FFB04F1180000F03BFBA0
:104200002461C6F12000A06164620020606584F82A
:10421000580052464946584600F0F0F920600B9885
:1042200008B10B980460BDE8F09F000010B50024B1
:1042300007E004EB84010F4A02EB810000F00EFB63
:10424000641C202CF5D30C4800F008FB0B4800F050
:1042500005FB0B4800F002FB0A4800F0FFFA0A4891
:1042600000F0FCFA0448094908600448084908605D
:1042700010BD0000F0010020700400208404002024
:1042800098040020AC040020C0040020CC000020D2
:10429000D000002010B50146164800E00068036811
:1042A0008B42FBD30246436813448B4204D14368DC
:1042B0004C682344436001460A464B681344046833
:1042C000A34211D10C4C03682468A34208D04B6868
:1042D0000468646823444B6003681B680B6005E056
:1042E000054B1B680B6001E003680B60884200D03F
:1042F000016010BD040100200C01002070B50546CE
:1043000000F0E2FAA86B08B9012400E0002400F0F4
:10431000EDFA204670BD70B5054600F0D5FAA86BE1
:10432000E96B884201D1012400E0002400F0DEFAAC
:10433000204670BD2DE9F04707460C469046002602
:10434000206848B3204641684968416000F108018F
:1043500042688A4202D14168496841604168D1F8A7
:104360000C9000BF204641684968416000F1080197
:1043700042688A4202D14168496841604168CD681B
:1043800006EBC60007EB800143460122284600F0F9
:104390000FFB761C4D45E5D13046BDE8F0872DE991
:1043A000F3410D460098846C0027A06BE16B8842B6
:1043B0001BD294F945602A4669462046FFF725FE40
:1043C0000746701C60B9606A08B9012000E000204F
:1043D00050B904F1240001F0F5F828B1012703E0F9
:1043E000701C40B284F8450000BF3846BDE8FC812F
:1043F0000A490968096809B9012100E0002121B1D1
:104400004FF0FF31064A116006E004490968C968A7
:10441000C868034A4168116070470000CC00002062
:10442000F80000200246002101E0521C491C1078CF
:10443000A528FAD0890888B2704700BF502080F3C1
:104440001188BFF34F8FBFF36F8F00BF00BFFEE730
:1044500070B5044600F038FA94F945501AE0A06CA3
:1044600038B100212046FFF79AFF88B100F05EFBCB
:104470000EE0606A08B9012000E0002038B904F1BC
:10448000240001F09FF818B100F050FB00E003E0B9
:10449000681E45B2002DE2DC00BFFF2084F8450015
:1044A00000F024FA00F010FA94F9445010E020696A
:1044B00008B9012000E0002048B904F1100001F023
:1044C00081F808B100F032FB681E45B200E001E05F
:1044D000002DECDC00BFFF2084F8440000F006FA59
:1044E00070BD70B505460E4631462846FBF7C5FE41
:1044F0002846FBF7BBFE044602E020202855641C3A
:104500000F2CFAD300202855281970BD2DE9F04151
:1045100005464FF0000800F0A9FB2B48006808B9D9
:10452000FFF7C4FD294800682840002847D145B15D
:10453000083505F0070020B105F00700C0F10800BC
:104540000544002D3BD022480068854237D8214ED3
:104550003046046801E0264624686068A84202D21A
:1045600020680028F7D118480068844227D03068B6
:1045700000F10808206830606068401B102807D9E7
:1045800067196068401B786065603846FFF782FEF7
:104590000F4960680968081A0D49086008460068F4
:1045A0000D490968884203D2094800680A49086031
:1045B000064960680968084360600020206001F0D7
:1045C00041F84046BDE8F0810C01002018010020B0
:1045D000100100200401002014010020064800689A
:1045E00030B10549096801F15000096D491C0160AD
:1045F0000148006870470000C8000020001F4FF00D
:1046000080730360001F21F001030360001F034B50
:104610000360143802602038704700003B440008F3
:1046200000B587B0002000904FF6FF730F220121E4
:1046300001900846FCF79EFF002000904FF6FF73A4
:104640000E22012101902120FCF794FF0020009010
:104650004FF6FF73032201210190FA20FCF78AFF35
:10466000002000904FF6FF730422012101904FF4C7
:104670008D70FCF77FFF002000904FF6FF73112232
:1046800001210190D220FCF775FF00203021CDE9F7
:1046900000014FF6FF732EA2642102904620FCF722
:1046A000A3FF32208DF80C0030208DF80D00322051
:1046B0008DF80E0034208DF80F002D208DF810009D
:1046C00030208DF8110034208DF812002D208DF847
:1046D000130030208DF8140033208DF815000020D1
:1046E0008DF816001821CDE900014FF6FF7303AADB
:1046F000C82102901420FCF777FF31208DF80C00C0
:1047000032208DF80D003A208DF80E0030208DF803
:104710000F008DF8100000208DF811001821CDE950
:1047200000014FF6FF7303AAC8210290A020FCF7F6
:104730005BFF00201821CDE900014FF6FF7307A2AF
:10474000C82102904FF48270FCF74EFF07B000BD05
:104750002044495341524D20000000004D6F6E002F
:104760002DE9F04104460D460026002700F0F0FD3B
:1047700006462746F01BA84202D90120BDE8F08179
:104780000020FBE701460A69D1E901309860D1E9D0
:10479000010358605068884201D188685060002049
:1047A00008611068401E1060106870472DE9F041E4
:1047B0000546884616460024202700F057FA21486F
:1047C0000068804539D300BF7F1E07EB87021E4B70
:1047D00003EB820104EBC40205EB82000122FFF728
:1047E000A9FD0444002FEFD104EBC40105EB8100C7
:1047F000022216490968FFF79DFD044404EBC40139
:1048000005EB8100022212490968FFF793FD044479
:1048100004EBC40105EB810004220E49FFF78AFD79
:10482000044404EBC40105EB810003220A49FFF7AD
:1048300081FD04440EB10020306000F003FF2046EB
:10484000BDE8F081D8000020F0010020CC0000205D
:10485000D0000020AC040020C004002000F10801BA
:1048600041604FF0FF31816000F10801C1600161DA
:1048700000210160704700210161704710B50246B8
:104880000B685C1C0CB9106907E002F1080000E03D
:104890004068446824689C42FAD944684C604C687B
:1048A000A160886041600A611468641C146010BDD6
:1048B00042684A6093688B609368596091600861B0
:1048C00003685B1C0360704700BF502080F31188B1
:1048D000BFF34F8FBFF36F8F00BF03480068401CCA
:1048E00001490860704700001C010020064800686C
:1048F000401E054908600846006820B9002080F382
:10490000118800BF00BF70471C01002070B506462B
:104910003546D6B1083D2C460C4960680968084008
:1049200098B1206888B9094960680968884360605F
:1049300000F09CF906496068096808440449086069
:104940002046FFF7A7FC00F07DFE70BD1801002097
:104950001001002000204FF0E02108618861064826
:1049600000684FF47A71B0FBF1F0401E4FF0E02187
:1049700048610720086170477400002070B5044644
:10498000002544B100F072F900212046FFF75CFADF
:1049900000F058FE05463DB94FF0805003490860CD
:1049A000BFF34F8FBFF36F8F70BD000004ED00E0C9
:1049B0002DE9F04107460C4690461E4617B91C48A3
:1049C000006800E038460546256005F13400606067
:1049D000E86A2061286BE061686CA060E86C606147
:1049E0000020A061052E12D011480068854202D136
:1049F000002020730FE02673032E0CD100F036F94F
:104A0000A86A08B10220207300F01CFE03E02846CB
:104A1000FEF790FA2073B8F1000F04D0286BFFF76F
:104A200001FD208401E000202084BDE8F081000029
:104A3000C800002003490968016003490968416012
:104A400070470000F0000020DC0000207FB5054624
:104A5000002028703048006803902F49096801EB56
:104A6000C1018800FFF752FD0446002C53D00022FC
:104A700020460399FFF79AFE03900020029043E03E
:104A8000029800EBC00004EB8000007B05280ED2EA
:104A9000DFE800F0030507090B00582609E052265D
:104AA00007E0422605E0532603E0442601E0002605
:104AB00000BF00BF029800EBC00004EB800041681B
:104AC0002846FFF70EFD0546029800EBC00004EBF8
:104AD00080008068029901EBC10104EB8101098C1F
:104AE000CDE90010029800EBC00004EB80003246D4
:104AF0000AA103692846FDF7D5FF2846FBF7B6FB58
:104B000005440298401C0290DDE902018842B7D3B7
:104B10002046FFF7FBFE7FBDD80000200925630972
:104B200025750925750925750D0A00000120014923
:104B300008607047EC00002070B505460C4605483B
:104B4000016818312846FFF799FE01212046FFF73A
:104B50007BF970BDC80000202DE9F04706460F46DE
:104B600034464FF00109002E47D0E06CB84201D224
:104B70003D4600E0E56CE06AA8423ED0206D012889
:104B80003BD1D4F82C80E562A06900F0004010B958
:104B9000C5F12000A06108EB8801194A02EB8101F0
:104BA0006069884201D1012000E0002028B3201D67
:104BB000FFF7E8FD78B9E06A00EB8000104951F892
:104BC000200040B994F82C10012088400D49096854
:104BD00081430C48016094F82C1001208840094959
:104BE0000968084307490860E16A01EB8101044A4A
:104BF00002EB8100211DFFF75BFEBDE8F08700009E
:104C0000F0010020E00000201CB5114800210B46F7
:104C10008022CDE900100FA1104800F059FB044696
:104C2000012C14D100BF502080F31188BFF34F8FA7
:104C3000BFF36F8F00BF4FF0FF30094908600120BC
:104C40000849086000200849086000F06DF81CBDA4
:104C5000FC00002049444C450000000029410008A8
:104C6000F8000020E4000020DC000020024800687A
:104C7000401C01490860704700010020124800688C
:104C800018B10120114908601DE000200F4908609B
:104C90000F480068B0FA80F0C0F11F0101EB8102FB
:104CA0000C4B03EB820042685268426000F108023C
:104CB0004368934202D14268526842604268D268B7
:104CC000054B1A6000BF704700010020EC00002077
:104CD000E0000020F0010020C800002010B5FEF721
:104CE00075FA01281BD10F48008808B9FEF7FEF9B4
:104CF0000C480088B0F57A7F0FDA0A480088401C1B
:104D00000849088008460088962804DD4FF4FA60B8
:104D10000880FEF7F3F9002010BD0120FCE7002019
:104D2000FAE700009C00002010B50A48006840F433
:104D30007000084908600846006840F0704008604C
:104D4000FFF708FE002004490860FBF71FFA002067
:104D500010BD000020ED00E01C01002010B500BFD8
:104D6000502080F31188BFF34F8FBFF36F8F00BFC8
:104D700000F0F4FA18B14FF080500449086000BF09
:104D8000002080F3118800BF10BD000004ED00E09A
:104D90002DE9F0410446012600272246002101208A
:104DA00000F007F805462846FFF7D2F92846BDE887
:104DB000F0812DE9F84307460D4690460DB90026CF
:104DC00001E007FB05F606F15400FFF79FFB0446E0
:104DD00044B104F1540943464A46294638460094F2
:104DE000FFF7C4F92046BDE8F883000070B505461A
:104DF0000E462C46FFF768FDD4E90F12206801FB30
:104E0000020060600020A0632068A060E06B401E8C
:104E1000226C216800FB0210E060FF2084F844004F
:104E200084F845009EB9206908B9012000E00020FF
:104E3000A8B904F1100000F0C5FB80B14FF080501C
:104E400009490860BFF34F8FBFF36F8F07E004F18C
:104E50001000FFF703FD04F12400FFF7FFFCFFF74C
:104E600045FD012070BD000004ED00E02DE9FF4389
:104E700083B0074688461D464FF000093C4600BFF8
:104E8000FFF722FDA06BE16B884201D3022D38D1E0
:104E90002A4641462046FFF7B8F80646A06C68B19E
:104EA00029462046FFF77BFA28B34FF080503C4953
:104EB0000860BFF34F8FBFF36F8F1CE0606A08B9C3
:104EC000012000E0002068B904F1240000F07AFB22
:104ED00088B14FF0805032490860BFF34F8FBFF365
:104EE0006F8F08E03EB14FF080502D490860BFF34E
:104EF0004F8FBFF36F8FFFF7F9FC012007B0BDE8BC
:104F0000F083059818B9FFF7F1FC0020F6E7B9F136
:104F1000000F04D101A8FFF78DFD4FF00109FFF745
:104F2000E5FCFFF7A3FEFFF7CFFC94F94400401C1B
:104F300010B9002084F8440094F94500401C10B9D1
:104F4000002084F84500FFF7D1FC05A901A800F076
:104F500091F9F0B92046FFF7DEF9A0B104F1100095
:104F60000599FFF7E9FD2046FFF772FA00F06AFBAA
:104F7000002885D14FF0805009490860BFF34F8F5A
:104F8000BFF36F8F7CE72046FFF762FA00F05AFB11
:104F900076E72046FFF75CFA00F054FB0020ADE70F
:104FA00004ED00E02DE9F05F06468A4615461F46EF
:104FB000344600BF5021EFF3118081F31188BFF315
:104FC0004F8FBFF36F8F00BF8146A06BE16B8842AC
:104FD00001D3022F2BD194F945B03A4651462046D1
:104FE000FFF713F80BF10100C8B9A06C40B13946C6
:104FF0002046FFF7D4F9B8B1B5B10120286013E01D
:10500000606A08B9012000E0002068B904F12400BA
:1050100000F0D8FA40B13DB10120286004E00BF166
:10502000010040B284F845004FF0010801E04FF064
:10503000000800BF89F3118800BF4046BDE8F09F1B
:105040002DE9F74183B005460F464FF000082C4686
:1050500000BFFFF739FCA66BF6B139462046FEF7D4
:10506000BFFF701EA063206908B9012000E0002086
:1050700060B904F1100000F0A5FA38B14FF080508B
:105080002F490860BFF34F8FBFF36F8FFFF72EFCE0
:10509000012006B0BDE8F081059818B9FFF726FC9D
:1050A0000020F6E7B8F1000F04D101A8FFF7C2FC19
:1050B0004FF00108FFF71AFCFFF7D8FDFFF704FCDB
:1050C00094F94400401C10B9002084F8440094F97D
:1050D0004500401C10B9002084F84500FFF706FC8D
:1050E00005A901A800F0C6F8F0B92046FFF706F9B7
:1050F000A0B104F124000599FFF71EFD2046FFF73B
:10510000A7F900F09FFA0028A3D14FF080500C4976
:105110000860BFF34F8FBFF36F8F9AE72046FFF70A
:1051200097F900F08FFA94E72046FFF791F900F025
:1051300089FA2046FFF7E2F800288AD00020A8E785
:1051400004ED00E02DE9F34182B0054600272C462E
:10515000B84600BFFFF7B8FBA66BFEB1701EA06398
:10516000206810B9FFF73AFA6060206908B9012099
:1051700000E0002060B904F1100000F023FA38B11B
:105180004FF080503A490860BFF34F8FBFF36F8FE5
:10519000FFF7ACFB012004B0BDE8F081039818B91B
:1051A000FFF7A4FB0020F6E71FB96846FFF742FCB3
:1051B0000127FFF79BFBFFF759FDFFF785FB94F9EC
:1051C0004400401C10B9002084F8440094F94500C4
:1051D000401C10B9002084F84500FFF787FB03A9A5
:1051E000684600F047F840BB2046FFF787F8F0B16B
:1051F000206838B9FFF768FB606800F07FF98046E7
:10520000FFF774FB04F124000399FFF795FC204697
:10521000FFF71EF900F016FA00289BD14FF08050DE
:1052200013490860BFF34F8FBFF36F8F92E720469B
:10523000FFF70EF900F006FA8CE72046FFF708F9B1
:1052400000F000FA2046FFF759F8002882D0B8F1A4
:10525000000F0BD0FFF738FB2046FEF71DFF064678
:1052600031466068FFF778FCFFF740FB002092E7CB
:1052700004ED00E070B506460C46FFF725FB12482A
:1052800002687068131A2068401C08B9002517E0EE
:105290000E4930680968884204D07068904201D88D
:1052A00001250DE02068984207D92068C01A2060C7
:1052B0003046FFF7BFFB002502E0002020600125FB
:1052C000FFF714FB284670BDDC000020F000002032
:1052D0002DE9FF4F85B0804689461746DDE912ABC0
:1052E000B800FFF713F9064656B15C20FFF70EF938
:1052F00004460CB1266304E03046FFF707FB00E0EC
:1053000000247CB10020CDE900ABCDE902403A4653
:1053100049464046089BFEF740FF2046FEF7E0FD69
:10532000012501E04FF0FF35284609B0BDE8F08FB8
:105330000549096809B9012005E00449096809B966
:10534000022000E000207047E4000020000100205F
:105350000149086870470000DC0000202DE9F04199
:1053600000273A480068002863D139480068451C86
:10537000374805608DB93748D0F800803648006856
:10538000344908603448C0F8008034480068401C44
:1053900032490860FFF72CF800BF314800688542A9
:1053A0003BD300BF2B480068006808B9012000E02B
:1053B000002020B14FF0FF30294908602CE025483B
:1053C0000068C068C4686668B54202D224480660B6
:1053D00022E0201DFFF7D6F9A06A18B104F11800E9
:1053E000FFF7D0F994F82C10012088401D49096876
:1053F00008431C490860E16A01EB81011A4A02EB8B
:105400008100211DFFF754FA1849E06A0968C96A4A
:105410008842C7D30127C5E700BF14480068C06AA7
:1054200000EB8000104951F82000012800D9012725
:1054300004E00F480068401C0D4908600D480068F2
:1054400000B101273846BDE8F081000000010020CE
:10545000DC000020CC000020D0000020F000002064
:10546000F8000020E0000020F0010020C80000202B
:10547000E8000020EC00002070B505462C46002610
:10548000ADB3206D401E2065E16CE06A88422ED0ED
:10549000206D60BB201DFFF775F978B9E06A00EB5D
:1054A0008000144951F8200040B994F82C100120D4
:1054B00088401149096881430F480160E06CE0624F
:1054C000E06AC0F12000A06194F82C10012088400F
:1054D00009490968084308490860E16A01EB81014C
:1054E000044A02EB8100211DFFF7E2F90126304654
:1054F00070BD0000F0010020E000002070B50546FE
:105500002C460026002D54D02B49E06A0968C96A50
:10551000884247D2A06900F0004028B926480068B8
:10552000C06AC0F12000A061E16A01EB8101234A59
:1055300002EB81016069884201D1012000E0002076
:1055400050B3201DFFF71EF978B9E06A00EB800028
:105550001A4951F8200040B994F82C1001208840D5
:105560001749096881431648016013480068C06AFA
:10557000E06294F82C100120884011490968084322
:105580000F490860E16A01EB81010C4A02EB8100DE
:10559000211DFFF78DF903E007480068C06AE0624B
:1055A000012606E00449E06C0968C96A884200D215
:1055B0000126304670BD0000C8000020F001002028
:1055C000E000002070B50646F068C46804F11800D9
:1055D000FFF7D8F815480068A8B9201DFFF7D2F8E2
:1055E00094F82C100120884011490968084310499B
:1055F0000860E16A01EB81010E4A02EB8100211D86
:10560000FFF756F904E004F118010B48FFF750F9D1
:105610000A49E06A0968C96A884204D9012501205B
:105620000749086000E00025284670BD0001002001
:10563000E0000020F001002098040020C8000020B5
:10564000EC00002070B500240026FFF73DF92E483D
:105650000068401E2C4908600846006800284FD1A9
:105660002A48006800284BD024E02948C068C46854
:1056700004F11800FFF786F8201DFFF783F894F86F
:105680002C100120884023490968084321490860FB
:10569000E16A01EB8101204A02EB8100211DFFF745
:1056A00007F91E49E06A0968C96A884202D30120E5
:1056B0001B4908601648006808B9012000E0002076
:1056C0000028D2D00CB1FEF793FE1648056865B1EC
:1056D00000BFFFF743FE10B10120114908606D1EA5
:1056E000002DF6D100200F4908600D48006838B140
:1056F000012630070C490860BFF34F8FBFF36F8F4F
:10570000FFF7F4F8304670BD00010020D8000020FB
:1057100098040020E0000020F0010020C8000020D4
:10572000EC000020E800002004ED00E00000000094
:105730000000000000000000000004040404040055
:105740000004000014140A00000000000000000023
:1057500000000A0A1F0A0A1F0A0A000000040E15A8
:1057600005060C14150E0400000012150D152E2C44
:105770002A1200000000040A0A3615152916000036
:1057800002020100000000000000000010080804F0
:1057900004040404080810000204040808080808A7
:1057A0000404020000000004150E0E1504000000A1
:1057B00000000008083E080800000000000000008B
:1057C000000000000202010000000000003F000095
:1057D00000000000000000000000000000020000C7
:1057E00000201010080804040202010000000E113D
:1057F00011111111110E000000000406040404042C
:10580000040E000000000E1111080402011F000028
:1058100000000E11100C1010110E00000000080CFA
:105820000C0A091F081C000000001F01010F1110C5
:10583000110E000000000C12010D1311110E0000DA
:1058400000001E10080804040404000000000E11EB
:10585000110E1111110E000000000E111119161079
:105860000906000000000000040000000004000021
:105870000000000000040000000404000000100804
:105880000402020408100000000000003F003F0076
:1058900000000000000002040810100804020000CC
:1058A00000000E11110804040004000000001C2276
:1058B000292D2D1D221C0000000004040C0A0A1EC4
:1058C0001233000000000F12120E1212120F00000D
:1058D00000001E1101010101110E000000000F1255
:1058E00012121212120F000000001F120A0E0A02FA
:1058F000121F000000001F120A0E0A020207000019
:1059000000001C1201013911120C000000003312BA
:10591000121E12121233000000001F0404040404BB
:10592000041F000000003E080808080808080907CE
:10593000000037120A060A121237000000000702A0
:1059400002020202223F000000003B1B1B1B151538
:105950001535000000003B1216161A1A1217000027
:1059600000000E1111111111110E000000000F1294
:10597000120E02020207000000000E111111111791
:10598000190E180000000F12120E0A121237000032
:1059900000001E1101060810110F000000001F1565
:1059A00004040404040E0000000033121212121248
:1059B000120C000000003312120A0A0C040400004A
:1059C0000000151515150E0A0A0A000000001B0A32
:1059D0000A04040A0A1B000000001B0A0A0A040445
:1059E000040E000000001F0908040402121F00003A
:1059F0001C0404040404040404041C000002020443
:105A000004040808081010000E0808080808080810
:105A100008080E00040A000000000000000000005A
:105A200000000000000000000000003F0204000031
:105A3000000000000000000000000000000C121C2C
:105A4000123C000000030202020E1212120E0000AD
:105A500000000000001C1202120C000000181010C0
:105A6000101C1212123C000000000000000C121E5C
:105A7000021C000000182404041E0404041E00007C
:105A800000000000003C120C021C221C0003020259
:105A9000020E121212370000000404000006040473
:105AA000040E000000080800000C08080808080799
:105AB00000030202021A0A060A1300000007040487
:105AC00004040404041F000000000000000F15156A
:105AD0001515000000000000000F12121237000020
