:020000040800F2
:100000008897002001020008A104000821040008CC
:100010009D040008490200088D0900080000000046
:10002000000000000000000000000000690100085E
:100030004D02000800000000AD010008B1070008F3
:100040001B0200081B0200081B0200081B0200081C
:100050001B0200081B0200081B0200081B0200080C
:100060001B0200081B0200081B0200081B020008FC
:100070001B0200081B0200081B0200081B020008EC
:100080001B0200081B0200081B0200081B020008DC
:100090001B0200081B0200081B0200081B020008CC
:1000A0001B0200081B0200081B0200081B020008BC
:1000B0001B0200081B0200081B0200081B020008AC
:1000C0001B0200081B0200081B0200081B0200089C
:1000D0001B0200081B0200081B0200081B0200088C
:1000E0001B0200081B0200081B02000800000000A1
:1000F0000000000000000000000000000000000000
:1001000000000000000000001B0200081B020008A5
:100110001B0200081B0200081B0200081B0200084B
:100120001B0200081B0200081B0200081B0200083B
:100130001B0200081B0200081B0200081B0200082B
:100140001B0200081B0200081B0200081B0200081B
:10015000DFF810D000F066F800480047790A000880
:10016000AFF3008088970020224B19680868B0E838
:10017000F00F80F30988BFF36F8F4FF0000080F31A
:1001800011884EF00D0E7047000000000648006810
:10019000006880F3088862B661B6BFF34F8FBFF383
:1001A0006F8F00DF00BF00BF08ED00E0EFF30980B4
:1001B000BFF36F8F0F4B1A6820E9F00F106008B57E
:1001C0004FF0500080F31188BFF34F8FBFF36F8F54
:1001D00001F028F84FF0000080F31188BDE80840D6
:1001E00019680868B0E8F00F80F30988BFF36F8FD3
:1001F000704700BF40000020EFF30580704700000B
:100200000648804706480047FEE7FEE7FEE7FEE7B0
:10021000FEE7FEE7FEE7FEE7FEE7FEE71D08000853
:1002200051010008064C074D06E0E06840F001036C
:1002300094E8070098471034AC42F6D3FFF78CFFE0
:10024000F01600081017000800BFFEE770472DE900
:10025000F04102460025002600200023002400274C
:1002600091F803C00CF00F0591F803C00CF0100CCE
:10027000BCF1000F03D091F802C04CEA050591F8DB
:1002800000C0BCF1000F31D0146800202BE04FF00B
:10029000010C0CFA00F3B1F800C00CEA03069E4210
:1002A00020D183004FF00F0C0CFA03F7BC4305FA82
:1002B00003FC4CEA040491F803C0BCF1280F06D1FA
:1002C0004FF0010C0CFA00FCC2F814C00AE091F8DF
:1002D00003C0BCF1480F05D14FF0010C0CFA00FC33
:1002E000C2F810C0401C0828D1D31460B1F800C077
:1002F000BCF1FF0F34DD546800202EE000F1080C43
:100300004FF0010808FA0CF3B1F800C00CEA03063C
:100310009E4221D183004FF00F0C0CFA03F7BC432F
:1003200005FA03FC4CEA040491F803C0BCF1280F61
:1003300005D100F1080C08FA0CF8C2F8148091F805
:1003400003C0BCF1480F07D100F1080C4FF00108C1
:1003500008FA0CF8C2F81080401C0828CED354606C
:10036000BDE8F08102460020D3680B400BB10120AC
:1003700000E000207047416170470AB1016100E070
:100380004161704710B500F053FB00F001F810BD5B
:1003900000B585B00121042000F08EF8012188030A
:1003A00000F08AF84FF40070ADF8100018208DF8B6
:1003B000130003208DF8120004A91748FFF747FF28
:1003C0004FF48060ADF8100004208DF81300032076
:1003D0008DF8120004A91048FFF739FF4FF4E130FF
:1003E00000900020ADF80400ADF80600ADF808005C
:1003F000ADF80C000C20ADF80A006946074800F083
:1004000059FA0121054800F03FFA012280210348F2
:1004100000F046FA05B000BD000801400038014078
:1004200000BFFEE76FF07F410B48006800F02AFF35
:1004300000BF41F288310948006800F0E9FD044638
:1004400034B101F00DF80549086005A000F0A0FAEC
:10045000642000F093FEECE7240000202800002038
:100460004865617274426561742121210D0A0000A2
:10047000002410E04FF4FA610748006800F0C8FD5E
:1004800004462CB100F0ECFF0349086000F0D4FAF8
:10049000C82000F073FEEDE71C00002000BFFEE75F
:1004A0007047000002490143024A11607047000092
:1004B0000000FA050CED00E029B1064A92690243FA
:1004C000044B9A6104E0034A92698243014B9A61AA
:1004D00070470000001002402DE9F0410021002289
:1004E000002500230026002400278C46DFF86081C9
:1004F000D8F8048008F00C0121B1042907D008299C
:1005000059D109E0DFF84C81C0F8008058E0DFF8ED
:100510004881C0F8008053E0DFF83481D8F80480C7
:1005200008F47012DFF82881D8F8048008F48035C8
:10053000920C0D2A01D0921C00E0062235B9DFF89A
:100540001C8102FB08F8C0F8008033E0DFF800816E
:10055000D8F82C8008F48036DFF8F480D8F82C80A6
:1005600008F00F0808F1010446B9DFF8EC80B8FB89
:10057000F4F808FB02F8C0F800801BE0DFF8D08038
:10058000D8F82C80C8F3031808F10107DFF8C08001
:10059000D8F82C80C8F3032808F1020CDFF8B880E3
:1005A000B8FBF7F808FB0CF8B8FBF4F808FB02F806
:1005B000C0F8008004E0DFF89C80C0F8008000BF35
:1005C00000BFDFF88C80D8F8048008F0F00109093A
:1005D000DFF88C8018F80130D0F8008028FA03F892
:1005E000C0F80480DFF86880D8F8048008F4E0617F
:1005F000090ADFF86C8018F80130D0F8048028FA76
:1006000003F8C0F80880DFF84880D8F8048008F4C0
:100610006051C90ADFF8488018F80130D0F804802A
:1006200028FA03F8C0F80C80DFF82480D8F804809A
:1006300008F44041890BDFF82C8018F80130D0F81D
:100640000C80B8FBF3F8C0F81080BDE8F081000022
:100650000010024000127A0040787D0100093D0040
:100660002C0000203C00002010B500F001F810BD67
:100670000CB50020019000903F48006840F48030A5
:100680003D49086000BF3C48006800F4003000901D
:100690000198401C0190009818B90198B0F5A06F1E
:1006A000F1D13548006800F4003010B1012000900D
:1006B00001E000200090009801285CD12F480068DC
:1006C00040F010002D4908600846006820F0030043
:1006D00008600846006840F002000860264840684C
:1006E000254948600846406848600846406840F42C
:1006F000806048600846C06A214908401E49C862B7
:100700000846C06A1F4908431B49C862084600687A
:1007100040F08060086000BF1748006800F000608B
:100720000028F9D01448406820F47C101249486031
:100730000846406840F4E81048600846006840F009
:100740008070086000BF0C48006800F0007000284E
:10075000F9D00948406820F003000749486008467E
:10076000406840F00200486000BF0348406800F065
:100770000C000828F9D10CBD0010024000200240F6
:1007800000F0FEFF44060100042808D14FF0E021EC
:10079000096941F004014FF0E022116107E04FF0D8
:1007A000E021096921F004014FF0E0221161704756
:1007B00010B500F045FE012801D000F09BFD10BDF2
:1007C00070B505460420FFF7DFFF104800681049A8
:1007D000B0FBF1F00F4908700C4800680C49B0FB01
:1007E000F1F44FF47A70444301200B4908804FF034
:1007F000E020006940F002004FF0E0210861084667
:100800004461006940F00100086170BD08000020EB
:1008100040420F00980000209A00002010B51648B2
:10082000006840F001001449086008464068134918
:1008300008401149486008460068114908400E49BF
:1008400008600846006820F4802008600846406878
:1008500020F4FE0048600846006820F0A0500860C0
:100860004FF47F0088600020C862FFF7FDFE4FF064
:1008700000600449086010BD001002400000FFF055
:10088000FFFFF6FE08ED00E021B1828942F400523C
:10089000828104E082894DF6FF731A40828170479D
:1008A0001AB1838A0B43838202E0838A8B4383825B
:1008B000704700002DE9F04786B005460E4600243B
:1008C000A24600BFA1460027B08900B100BF2F4655
:1008D0002C8A4CF6FF700440F08804432C82AC89CB
:1008E0004EF6F3100440B0883189084371890843FB
:1008F0000443AC81AC8A4FF6FF400440B089044306
:10090000AC8201A8FFF7E8FD1F48874202D1DDF85D
:1009100010A001E0DDF80CA0A88900F4004040B16F
:100920000AEBCA0000EB0A1031684900B0FBF1F88D
:1009300007E00AEBCA0000EB0A1031688900B0FB3F
:10094000F1F86420B8FBF0F004012009642101FBF8
:100950001089A88900F4004040B1322000EBC900A2
:10096000B0FBF1F000F00700044308E0322000EB98
:1009700009106421B0FBF1F000F00F0004432C815A
:1009800006B0BDE8F08700000038014000BFFEE778
:10099000014A024900F013B8E10900089C00002058
:1009A00002E008C8121F08C1002AFAD17047704738
:1009B000002001E001C1121F002AFBD170472DE980
:1009C000F04116460F460446002503E03946B0477D
:1009D000641C6D1C20780028F8D12846BDE8F08101
:1009E0000A46044900BF0B8803F08003002BFAD0AD
:1009F000888070470038014008B501211020FFF7BA
:100A00005BFD4FF44040ADF8000002208DF802007D
:100A100010208DF8030069460448FFF718FC4FF4D6
:100A200080410248FFF7A7FC08BD0000001001400C
:100A300010B5FFF7E1FF10BD10B54FF480410D4830
:100A4000FFF790FCC0F10100C4B222464FF4804190
:100A50000848FFF792FC4FF400410648FFF782FC7C
:100A6000C0F10100C4B222464FF400410148FFF733
:100A700084FC10BD001001401CB54820FFF7A0FE0B
:100A80004FF44070FFF70EFDFFF77CFC00220221BF
:100A90000A2000F049FC0F49086000F003FC0E49F1
:100AA00008600E4800210B463222CDE900100CA14F
:100AB0000E4800F095FC0E4801210023C822CDE924
:100AC00000100CA10E4800F08BFC00F071FB002020
:100AD0001CBD000020000020240000200000002099
:100AE0004C65645F5461736B000000007104000882
:100AF000040000204B65795F5461736B00000000B7
:100B0000250400082DE9F04105460E461C480768FB
:100B10001C480068001D00F08DFA50B919480068A3
:100B200090F82C1001208840174909688143164825
:100B30000160681C38B936B112480168091D1348B4
:100B400000F0B6FA1AE07C190E4800684460BC4216
:100B500007D20C480168091D0D48006800F08EFAA4
:100B60000CE008480168091D0A48006800F086FA90
:100B700009480068844201D207480460BDE8F0815A
:100B80005400002040000020580000207003002086
:100B900048000020440000207000002010B50446EA
:100BA00000F092FA23480068401C2249086022485D
:100BB000006840B9204804600846006801280DD14B
:100BC00000F01EF90AE01D48006838B91A480068AC
:100BD000C06AE16A884201D8174804601848006872
:100BE000401C1749086094F82C10012088401549D2
:100BF0000968084313490860E16A01EB8101124A60
:100C000002EB8100211D00F053FA00F06FFA0B484F
:100C1000006868B108480068C06AE16A884207D283
:100C20004FF0805009490860BFF34F8FBFF36F8FBB
:100C300010BD000050000020400000205C0000209B
:100C40006C00002058000020A000002004ED00E00F
:100C500010B516E000F038FA0C48C068C468201DD2
:100C600000F0E8F90A480068401E09490860094890
:100C70000068401E0749086000F038FA204600F07E
:100C80000BF8044800680028E4D110BD5C03002084
:100C9000500000204C00002010B50446206B00F0EE
:100CA00035FA204600F032FA10BD000030B54FF49E
:100CB0001043174800F007042CB1C01D20F00700B6
:100CC000134C041B1B1B0246124C22600024114DC6
:100CD0006C60D018083820F007000F4C206000240A
:100CE0000D4D2D686C600C4D2D682C601146441A1A
:100CF0004C60094C24680C60084D4C682C60084D11
:100D00004C682C604FF00044064D2C6030BD000054
:100D1000840300207C000020840000208C00002040
:100D2000880000209000002000BFFFF791FF0648D8
:100D300000680128F9D94FF0805004490860BFF3DA
:100D40004F8FBFF36F8FF0E7A000002004ED00E0AD
:100D50002DE9F04106460D4617469846069C0DB90A
:100D6000246000E02760E66325640121204600F04E
:100D7000F7FA0020A064BDE8F0812DE9FF5F80460E
:100D80000F469146DDE90E6A109CA9F10100216B26
:100D900001EB800B2BF0070B002507E0795D04F1D8
:100DA00034004155785D00B902E06D1C102DF5D37B
:100DB00000BF002143200155202E00D31F26E662EC
:100DC00066640020A064201D00F055F904F11800AD
:100DD00000F051F92461C6F12000A0616462002096
:100DE000E06484F8500041465846039A00F0FEF84B
:100DF0002060BAF1000F01D0CAF80040BDE8FF9FA3
:100E000010B5002407E004EB84010F4A02EB8100D7
:100E100000F024F9641C202CF5D30C4800F01EF9D6
:100E20000B4800F01BF90B4800F018F90A4800F0D5
:100E300015F90A4800F012F9044809490860044805
:100E40000849086010BD0000A00000202003002019
:100E500034030020480300205C03002070030020BE
:100E6000440000204800002010B50146164800E06C
:100E7000006803688B42FBD30246436813448B42ED
:100E800004D143684C682344436001460A464B68DA
:100E900013440468A34211D10C4C03682468A34294
:100EA00008D04B680468646823444B6003681B687F
:100EB0000B6005E0054B1B680B6001E003680B60ED
:100EC000884200D0016010BD7C000020840000201A
:100ED0000A490968096809B9012100E0002121B126
:100EE0004FF0FF31064A116006E004490968C968FD
:100EF000C868034A41681160704700004400002040
:100F00007000002000BF502080F31188BFF34F8F86
:100F1000BFF36F8F00BF00BFFEE700002DE9F04177
:100F200005464FF0000800F075F92B48006808B935
:100F3000FFF7BCFE294800682840002847D145B18A
:100F4000083505F0070020B105F00700C0F10800E2
:100F50000544002D3BD022480068854237D8214EF9
:100F60003046046801E0264624686068A84202D240
:100F700020680028F7D118480068844227D03068DC
:100F800000F10808206830606068401B102807D90D
:100F900067196068401B786065603846FFF764FF3A
:100FA0000F4960680968081A0D490860084600681A
:100FB0000D490968884203D2094800680A49086057
:100FC000064960680968084360600020206000F0FE
:100FD0001BFB4046BDE8F08184000020900000200B
:100FE000880000207C0000208C000020001F4FF0B3
:100FF00080730360001F21F001030360001F034B97
:10100000036014380260203870470000050F0008A4
:101010002DE9F04104460D460026002700F020FA95
:1010200006462746F01BA84202D90120BDE8F08100
:101030000020FBE701460A69D1E901309860D1E957
:10104000010358605068884201D1886850600020D0
:1010500008611068401E10601068704700F10801B8
:1010600041604FF0FF31816000F10801C160016112
:1010700000210160704700210161704710B50246F0
:101080000B685C1C0CB9106907E002F1080000E075
:101090004068446824689C42FAD944684C604C68B3
:1010A000A160886041600A611468641C146010BD0E
:1010B00042684A6093688B609368596091600861E8
:1010C00003685B1C0360704700BF502080F31188E9
:1010D000BFF34F8FBFF36F8F00BF03480068401C02
:1010E000014908607047000094000020064800682D
:1010F000401E054908600846006820B9002080F3BA
:10110000118800BF00BF70479400002070B50646EC
:101110003546D6B1083D2C460C4960680968084040
:1011200098B1206888B90949606809688843606097
:1011300000F070F8064960680968084404490860CE
:101140002046FFF791FE00F05FFA70BD900000208E
:101150008800002000204FF0E021086188610648E7
:1011600000684FF47A71B0FBF1F0401E4FF0E021BF
:1011700048610720086170470800002070B50446E8
:10118000002544B100F046F800212046FFF7BAFCE4
:1011900000F03AFA05463DB94FF080500349086027
:1011A000BFF34F8FBFF36F8F70BD000004ED00E001
:1011B0001CB5114800210B468022CDE900100FA17B
:1011C000104800F00DF90446012C14D100BF502046
:1011D00080F31188BFF34F8FBFF36F8F00BF4FF0C5
:1011E000FF300949086001200849086000200849CB
:1011F000086000F065F81CBD7400002049444C45AF
:1012000000000000290D0008700000205C00002094
:101210005400002002480068401C014908607047E3
:10122000780000201248006818B1012011490860B8
:101230001DE000200F4908600F480068B0FA80F0F8
:10124000C0F11F0101EB81020C4B03EB82004268ED
:101250005268426000F108024368934202D142683A
:10126000526842604268D268054B1A6000BF7047FE
:10127000780000206400002058000020A00000201A
:10128000400000202DE9F04104460E462546FFF7B8
:101290001BFF2F682868B0432860FFF727FF3846F8
:1012A000BDE8F08110B51820FFF738FE044624B1E0
:1012B00000202060201DFFF7D1FE204610BD000059
:1012C00010B50A48006840F47000084908600846F4
:1012D000006840F070400860FFF73CFF00200449C0
:1012E0000860FEF753FF002010BD000020ED00E075
:1012F0009400002010B500BF502080F31188BFF388
:101300004F8FBFF36F8F00BF00F0B0F818B14FF0F0
:1013100080500449086000BF002080F3118800BF9E
:1013200010BD000004ED00E02DE9F84307460D462E
:1013300090460DB9002601E007FB05F606F14C00CA
:10134000FFF7ECFD044644B104F14C0943464A461C
:10135000294638460094FFF7FBFC2046BDE8F88399
:1013600070B505460E462C46FFF7AEFED4E90F12C7
:10137000206801FB020060600020A0632068A0607C
:10138000E06B401E226C216800FB0210E060FF2031
:1013900084F8440084F845009EB9206908B901200A
:1013A00000E00020A8B904F1100000F0EDF880B1D1
:1013B0004FF0805009490860BFF34F8FBFF36F8F24
:1013C00007E004F11000FFF749FE04F12400FFF7E5
:1013D00045FEFFF78BFE012070BD000004ED00E02C
:1013E0002DE9FF4F85B0804689461746DDE912ABEF
:1013F000B800FFF793FD064656B15420FFF78EFD67
:1014000004460CB1266304E03046FFF77FFE00E09F
:1014100000247CB10020CDE900ABCDE902403A4682
:1014200049464046089BFFF7A8FC2046FFF7B6FB5D
:10143000012501E04FF0FF35284609B0BDE8F08FE7
:101440000549096809B9012005E00449096809B995
:10145000022000E0002070475C000020780000209F
:101460000149086870470000540000202DE9F04150
:1014700000273A480068002863D139480068451CB5
:10148000374805608DB93748D0F800803648006885
:10149000344908603448C0F8008034480068401C73
:1014A00032490860FFF714FD00BF314800688542EB
:1014B0003BD300BF2B480068006808B9012000E05A
:1014C000002020B14FF0FF30294908602CE025486A
:1014D0000068C068C4686668B54202D224480660E5
:1014E00022E0201DFFF7A6FDA06A18B104F1180044
:1014F000FFF7A0FD94F82C10012088401D490968D1
:1015000008431C490860E16A01EB81011A4A02EBB9
:101510008100211DFFF7CCFD1849E06A0968C96AFE
:101520008842C7D30127C5E700BF14480068C06AD6
:1015300000EB8000104951F82000012800D9012754
:1015400004E00F480068401C0D4908600D48006821
:1015500000B101273846BDE8F08100007800002086
:1015600054000020440000204800002068000020B3
:101570007000002058000020A00000204000002043
:10158000600000206400002070B50646F068C46862
:1015900004F11800FFF74EFD15480068A8B9201D9A
:1015A000FFF748FD94F82C10012088401149096884
:1015B000084310490860E16A01EB81010E4A02EB21
:1015C0008100211DFFF774FD04E004F118010B48B0
:1015D000FFF76EFD0A49E06A0968C96A884204D9C2
:1015E000012501200749086000E00025284670BD5C
:1015F0007800002058000020A000002048030020B0
:10160000400000206400002070B500240026FFF791
:101610005BFD2E480068401E2C49086008460068A3
:1016200000284FD12A48006800284BD024E02948E0
:10163000C068C46804F11800FFF7FCFC201DFFF728
:10164000F9FC94F82C1001208840234909680843CC
:1016500021490860E16A01EB8101204A02EB810027
:10166000211DFFF725FD1E49E06A0968C96A884205
:1016700002D301201B4908601648006808B9012000
:1016800000E000200028D2D00CB1FFF721FC164862
:10169000056865B100BFFFF7E9FE10B101201149EF
:1016A00008606D1E002DF6D100200F4908600D481E
:1016B000006838B1012630070C490860BFF34F8F2E
:1016C000BFF36F8FFFF712FD304670BD780000202A
:1016D000500000204803002058000020A0000020F7
:1016E00040000020640000206000002004ED00E0C5
:1016F0001017000800000020A0000000A00900084A
:10170000B0170008A0000020E8960000B00900080B
:10171000000000000000000000A24A0400000000D9
:101720000000000001020304060708090000000091
:1017300000000000000000000000000000000000A9
:101740000102030401020304060708090204060853
:101750000000000000000000000000000000000089
:101760000000000000000000000000000000000079
:101770000000000000000000000000000000000069
:101780000000000000000000000000000000000059
:101790000000000000000000000000000000000049
:1017A00000000000AAAAAAAA000000000000000091
:04000005080001519D
:00000001FF
