:020000040800F2
:10000000F8A10020CD0200088D1700084D0E000851
:1000100089170008910700087329000800000000F4
:100020000000000000000000000000003502000891
:100030006D0900080000000079020008991C000802
:10004000E7020008E7020008E7020008E7020008EC
:10005000E7020008E7020008E7020008E7020008DC
:10006000E7020008E7020008E7020008E7020008CC
:10007000E7020008E7020008E7020008E7020008BC
:10008000E7020008E7020008E7020008E7020008AC
:10009000E7020008E7020008E7020008E70200089C
:1000A000E7020008E7020008E7020008E70200088C
:1000B000E7020008B11F000881200008E7020008DD
:1000C000E7020008E7020008E7020008E70200086C
:1000D000E702000859260008F9260008FD26000856
:1000E000E7020008E7020008E7020008000000003D
:1000F0000000000000000000000000000000000000
:100100000000000000000000E7020008E70200080D
:10011000E70200087D250008E7020008E702000862
:10012000E7020008E7020008E7020008E70200080B
:10013000E7020008E7020008E7020008E7020008FB
:10014000E7020008E7020008E7020008E7020008EB
:1001500000F002F800F05FF80AA090E8000C82447A
:100160008344AAF10107DA4501D100F054F8AFF257
:10017000090EBAE80F0013F0010F18BFFB1A43F085
:100180000103184730C2000050C200000A444FF07B
:10019000000C10F8013B13F0070408BF10F8014BE6
:1001A0001D1108BF10F8015B641E05D010F8016B2B
:1001B000641E01F8016BF9D113F0080F1EBF10F88F
:1001C000014BAD1C0C1B09D16D1E58BF01F801CBB2
:1001D000FAD505E014F8016B01F8016B6D1EF9D535
:1001E0009142D6D37047000000230024002500264A
:1001F000103A28BF78C1FBD8520728BF30C148BF8A
:100200000B607047732900F00182002070471FB512
:100210001FBD10B510BD00F013FA1146FFF7F7FF30
:1002200003F0B0FC00F031FA03B4FFF7F2FF03BCB7
:1002300002F0EEFD224B19680868B0E8F00F80F379
:100240000988BFF36F8F4FF0000080F311884EF0E4
:100250000D0E70470000000006480068006880F33B
:10026000088862B661B6BFF34F8FBFF36F8F00DFB0
:1002700000BF00BF08ED00E0EFF30980BFF36F8F10
:100280000F4B1A6820E9F00F106008B54FF05000CE
:1002900080F31188BFF34F8FBFF36F8F04F03EFAE6
:1002A0004FF0000080F31188BDE808401968086825
:1002B000B0E8F00F80F30988BFF36F8F704700BF7D
:1002C00010010020EFF305807047000009488047C7
:1002D00009480047FEE7FEE7FEE7FEE7FEE7FEE728
:1002E000FEE7FEE7FEE7FEE704480549054A064B40
:1002F00070470000051D000851010008F89B002010
:10030000F8A10020F89D0020F89D00207047000013
:100310000FB4044910B503AA029800F07BF910BC91
:100320005DF814FB040000202DE9F0410E46044660
:10033000002020622046E168884730B3252805D098
:10034000D4E901219047206A401CF2E7E168204689
:1003500000278847050018D0A5F14100192802D8C8
:1003600020354FF400673246294620462760FFF7C4
:1003700049FF40B1012804D0F61D26F007060836D3
:10038000D8E7361DD6E72846DAE7206ABDE8F081CF
:1003900070B50C460546012A05D02878800600D5A0
:1003A000EA69002302E0012305E05B1C934202D2CC
:1003B000E05C0028F9D1A869E618C01AA861286A8B
:1003C000184428622846AFF3008004E0D5E90121F3
:1003D00014F8010B9047B442F8D32846AFF30080DD
:1003E00070BD10B5431C02E010F8011B71B181070C
:1003F000FAD14FF0013202C88C1A8C4314EAC211B0
:10040000F9D0C01A0A0603D0C01E10BDC01A10BD14
:100410000A0401D0801E10BD0902FCD0401E10BD90
:10042000032A40F2308010F0030C00F0158011F820
:10043000013BBCF1020F624498BF11F801CB00F8F8
:10044000013B38BF11F8013BA2F1040298BF00F84C
:1004500001CB38BF00F8013B11F0030300F0258009
:10046000083AC0F0088051F8043B083A51F804CB30
:10047000A0E80810F5E7121D5CBF51F8043B40F8F6
:10048000043BAFF30080D20724BF11F8013B11F801
:1004900001CB48BF11F8012B24BF00F8013B00F845
:1004A00001CB48BF00F8012B704710B5203AC0F0CF
:1004B0000B80B1E81850203AA0E81850B1E8185065
:1004C000A0E81850BFF4F5AF5FEA027C24BFB1E8A2
:1004D0001850A0E8185044BF18C918C0BDE8104013
:1004E0005FEA827C24BF51F8043B40F8043B08BF1C
:1004F0007047D20728BF31F8023B48BF11F8012BE3
:1005000028BF20F8023B48BF00F8012B704702F0DB
:10051000FF0343EA032242EA024200F002B84FF02E
:1005200000020429C0F0128010F0030C00F01B80C0
:10053000CCF1040CBCF1020F18BF00F8012BA8BFCE
:1005400020F8022BA1EB0C0100F00DB85FEAC17C92
:1005500024BF00F8012B00F8012B48BF00F8012B45
:1005600070474FF0000200B5134694469646203976
:1005700022BFA0E80C50A0E80C50B1F12001BFF45C
:10058000F7AF090728BFA0E80C5048BF0CC05DF8C2
:1005900004EB890028BF40F8042B08BF704748BF10
:1005A00020F8022B11F0804F18BF00F8012B704784
:1005B000704770477047704701694A1C02610878AC
:1005C000704700B58FB0CDE9013100210591054993
:1005D0007944CDE9031011466846FFF7A5FE0FB038
:1005E00000BD0000E5FFFFFF10B5436913B1AFF395
:1005F000008001E0FFF7CCFE012010BD127800F171
:1006000024010A7000224A700122EDE711684FF0C0
:10061000FF32E9E7074B70B50D467B44FFF7D1FF8A
:100620000446284600F008F810B14FF0FF3070BDC6
:10063000204670BD97280000007B00F080007047C6
:10064000754600F02BF8AE4605006946534620F08B
:100650000700854618B020B5FFF746FEBDE82040EC
:100660004FF000064FF000074FF000084FF0000B6E
:1006700021F00701AC46ACE8C009ACE8C009ACE821
:10068000C009ACE8C0098D46704710B50446AFF309
:1006900000802046BDE81040FFF7C6BD0048704707
:1006A000989B002021B1826842F00102826003E041
:1006B000826822F0010282607047014600208A6849
:1006C00002F004020AB1012000E000207047014658
:1006D00000208A6802F008020AB1012000E0002030
:1006E0007047000030B502460020002350680F4CD0
:1006F00020400D790C6844EA05242043506090683E
:100700000B4C2040D1E902542C434D7944EA450476
:1007100020439060D06A20F470000C7C641EE4B228
:10072000234340EA0350D06230BD0000FFFEF0FFDB
:10073000FDF7F1FF816841F0080181607047816831
:1007400041F004018160704710B5002400F010FAF8
:100750000D490988884204D000F00AFA0A49088045
:10076000012400F0FFF909490988884204D000F00B
:10077000F9F9064908800124012C03D101F08EFE0D
:1007800000F066FB10BD0000A2000020A0000020C9
:1007900000BFFEE701684FF6FE72114001600021C4
:1007A000016041608160C1604B49884208D14A497B
:1007B0000839496841F00F01474A083A51608AE018
:1007C00045491431884208D143490839496841F004
:1007D000F001414A083A51607DE03F4928318842A2
:1007E00008D13D490839496841F470613A4A083AEC
:1007F000516070E038493C31884208D136490839A7
:10080000496841F47041344A083A516063E0324922
:100810005031884208D130490839496841F4702183
:100820002D4A083A516056E02B496431884208D17C
:1008300029490839496841F47001274A083A51604A
:1008400049E025497831884208D123490839496867
:1008500041F07061204A083A51603CE01F498842EB
:1008600006D1011F096841F00F01021F116032E03B
:100870001A491431884208D11849091F096841F002
:10088000F001164A121F116025E0144928318842F0
:1008900008D11249091F096841F470610F4A121FFB
:1008A000116018E00D493C31884208D10B49091FFD
:1008B000096841F47041094A121F11600BE00749B1
:1008C0005031884207D10549091F096841F4702158
:1008D000024A121F116070470800024008040240DB
:1008E00010B50022026847F6F0739A430C6A8B68D1
:1008F00023430C6923434C6923438C692343CC690C
:1009000023434C6A23438C6A23431A430260CB6817
:1009100043600B6883604B68C36010BD124A126865
:1009200042F0F002104B1A600F4A1C3211600E4A5E
:10093000243210600C4A1832126842F001020A4B4D
:1009400018331A6000BF084A121F126802F0200212
:10095000002AF8D0044A1832126822F00102024B31
:1009600018331A60704700000404024070472DE9F4
:10097000F041024600250026002000230024002725
:1009800091F803C00CF00F0591F803C00CF0100CA7
:10099000BCF1000F03D091F802C04CEA050591F8B4
:1009A00000C0BCF1000F31D0146800202BE04FF0E4
:1009B000010C0CFA00F3B1F800C00CEA03069E42E9
:1009C00020D183004FF00F0C0CFA03F7BC4305FA5B
:1009D00003FC4CEA040491F803C0BCF1280F06D1D3
:1009E0004FF0010C0CFA00FCC2F814C00AE091F8B8
:1009F00003C0BCF1480F05D14FF0010C0CFA00FC0C
:100A0000C2F810C0401C0828D1D31460B1F800C04F
:100A1000BCF1FF0F34DD546800202EE000F1080C1B
:100A20004FF0010808FA0CF3B1F800C00CEA030615
:100A30009E4221D183004FF00F0C0CFA03F7BC4308
:100A400005FA03FC4CEA040491F803C0BCF1280F3A
:100A500005D100F1080C08FA0CF8C2F8148091F8DE
:100A600003C0BCF1480F07D100F1080C4FF001089A
:100A700008FA0CF8C2F81080401C0828CED3546045
:100A8000BDE8F081F0B50A460023002400210025CE
:100A900000F00046B6F1004F02D11D4EF16901E0B1
:100AA0001B4E7168C0F3034583B200F44016B6F5DF
:100AB000401F08D121F07061154E766826F07066EF
:100AC000134F7E6012E000F48016B6F5801F06D149
:100AD000032606FA05F4A14341F0706106E0460DD5
:100AE000360103FA06F6B14341F0706122B1460DBA
:100AF000360103FA06F6314300F00046B6F1004F26
:100B000002D1034EF16101E0014E7160F0BD0000C1
:100B1000000001400246002093680B400BB1012009
:100B200000E00020704702460020D3680B400BB164
:100B3000012000E00020704741617047016170476B
:100B40000AB1016100E0416170470146002004E004
:100B5000401C322800D903E0491C0A78002AF7D14A
:100B600000BF704701488088704700006C05002076
:100B700001484088704700006C05002010B502F065
:100B80003FFC00F04FF802F0C9FA02F03BFE02F021
:100B900095FE00F007FB02F0EBFC02F0D1FF02F043
:100BA000F3F902F063FB02F097F910BD10B50024D1
:100BB00032E004EB44001A4901EB8000806848B33E
:100BC00004EB440011F82000022823D104EB440078
:100BD00001EB80004088401C04EB4401104A02EB0A
:100BE0008101488004EB4400114601EB80004088FD
:100BF00004EB440102EB8101898888420ADB012071
:100C000004EB440102F8210004EB440102EB8101F2
:100C100088688047601CC4B2022CCADB10BD00008B
:100C20005405002000B587B00121042000F02EFEFD
:100C30000121082000F02AFE0121102000F026FEEC
:100C40000121202000F022FE0121880300F01EFE79
:100C50000121480400F0FAFD0121880400F0F6FDAE
:100C60000121080500F0F2FD4FF40070ADF8180006
:100C700018208DF81B0003208DF81A0006A96B4878
:100C8000FFF775FE4FF48060ADF8180004208DF872
:100C90001B0003208DF81A0006A96448FFF767FEC1
:100CA0000420ADF8180018208DF81B0003208DF8E3
:100CB0001A0006A95D48FFF75AFE0820ADF8180093
:100CC00004208DF81B0003208DF81A0006A9574850
:100CD000FFF74DFE4FF48050ADF8180018208DF846
:100CE0001B0003208DF81A0006A95148FFF73FFEAC
:100CF0000420ADF818008DF81B0003208DF81A00B1
:100D000006A94C48FFF733FE4FF48060ADF8180099
:100D100018208DF81B0003208DF81A0006A94648FC
:100D2000FFF725FE4FF40060ADF8180004208DF8A1
:100D30001B0003208DF81A0006A93F48FFF717FE95
:100D40004FF4E13002900020ADF80C00ADF80E0039
:100D5000ADF81000ADF814000C20ADF8120002A997
:100D6000364801F091FD02A9354801F08DFD02A938
:100D7000344801F089FD02A9334801F085FD2520A2
:100D80008DF8040003208DF805008DF80600012081
:100D90008DF8070001A800F0FBFC26208DF8040068
:100DA00004208DF8050003208DF8060001208DF841
:100DB000070001A800F0ECFC27208DF804000520B6
:100DC0008DF8050003208DF8060001208DF807003E
:100DD00001A800F0DDFC35208DF8040005208DF819
:100DE000050006208DF8060001208DF8070001A8F7
:100DF00000F0CEFC012240F22551114801F01EFD09
:100E0000012240F225510F4801F018FD012240F265
:100E100024410C4801F012FD0121094801F0CBFCEE
:100E20000121084801F0C7FC07B000BD00080140DF
:100E30000010014000140140000C0140004400403B
:100E400000380140004800400050004000BFFEE76D
:100E500010B586B000242A480088632810DD284891
:100E60000088B0F57A7F0BDA25480088642190FB72
:100E7000F1F03030C2B22046611CCCB204A90A5451
:100E80001F480088642190FBF1F201FB12000A2147
:100E900090FBF1F03030C2B22046611CCCB204A904
:100EA0000A542E222046611CCCB204A90A541448CC
:100EB00000880A2190FBF1F201FB12003030C2B22F
:100EC0002046611CCCB204A90A5425222046611C8C
:100ED000CCB204A90A5400222046611CCCB204A959
:100EE0000A5400201821CDE900014FF6FF7304AA2F
:100EF00003210290872000F01FFB06B010BD000008
:100F0000A000002010B50446142002F045FB102C70
:100F100049D2DFE804F0443034383C2C201408284F
:100F20001C104024180C21A0FFF7F2F93BE022A08E
:100F3000FFF7EEF937E023A0FFF7EAF933E025A049
:100F4000FFF7E6F92FE026A0FFF7E2F92BE028A053
:100F5000FFF7DEF927E029A0FFF7DAF923E02CA05C
:100F6000FFF7D6F91FE02DA0FFF7D2F91BE02FA065
:100F7000FFF7CEF917E030A0FFF7CAF913E033A06E
:100F8000FFF7C6F90FE036A0FFF7C2F90BE039A072
:100F9000FFF7BEF907E03DA0FFF7BAF903E040A074
:100FA000FFF7B6F900BF00BF10BD0000B0B4BCFC35
:100FB0003A4B4559300A0000B0B4BCFC3A4B455995
:100FC000310A0000B0B4BCFC3A4B4559325F555071
:100FD0000A000000B0B4BCFC3A4B4559330A00008B
:100FE000B0B4BCFC3A4B4559345F4C4546540A00FA
:100FF000B0B4BCFC3A4B4559350A0000B0B4BCFC57
:101000003A4B4559365F52494748540A00000000A0
:10101000B0B4BCFC3A4B4559370A0000B0B4BCFC34
:101020003A4B4559385F444F574E0A00B0B4BCFCA8
:101030003A4B4559390A0000B0B4BCFC3A4B45590B
:101040005F44495341524D0A00000000B0B4BCFC5B
:101050003A4B45595F484F4D4541524D0A000000FB
:10106000B0B4BCFC3A4B45595F4157415241524DD7
:101070000A000000B0B4BCFC3A4B45595F43414EF6
:101080004345494C5F4441494C0A0000B0B4BCFCA4
:101090003A4B45595F534F535F44454C0A0000009B
:1010A000B0B4BCFC3A4B45595F4D454E550A000063
:1010B00008B500220221084603F0CAFB0A4908606D
:1010C00010E002F0F5F80A2269460748006803F0CC
:1010D00005FDC4B21CB19DF80000FFF713FF0A2004
:1010E00003F0A6FAEDE70000940000202DE9F0419E
:1010F00007460C4615461E462A2000F051FA38468F
:1011000000F03BFA284600F038FA2B2000F048FAAD
:10111000611C88B200F031FA711C88B200F02DFA1F
:101120002C2000F03DFABDE8F08170B504460D4674
:1011300016462B46224629462046FFF7D7FF304663
:1011400000F01BFA70BD00002DE9F04781460F4604
:1011500015461E46DDF82080701E83B2681E82B2DE
:1011600039464846FFF7C2FF00240AE04FEA28222A
:101170002046611C8CB20A490A5401F80480601CA4
:1011800084B2AC42F2DB3C4605E029460448FFF756
:10119000C5FB601C84B2B4EB460FF6DBBDE8F087FC
:1011A0001899002010B5642001F078FE02F00EFBC3
:1011B000642001F073FE02F0FFFA642001F06EFE7D
:1011C000112000F0EDF9642001F068FE362000F0F7
:1011D000E7F9A02000F0DEF93A2000F0E1F905205F
:1011E00000F0D8F9B22000F0DBF90C2000F0D2F9C1
:1011F0000C2000F0CFF9002000F0CCF9332000F0F3
:10120000C9F9332000F0C6F9B72000F0C9F935203C
:1012100000F0C0F9BB2000F0C3F9352000F0BAF9A6
:10122000C02000F0BDF92C2000F0B4F9C22000F07D
:10123000B7F9012000F0AEF9C32000F0B1F9132096
:1012400000F0A8F9C42000F0ABF9202000F0A2F9CA
:10125000C62000F0A5F90F2000F09CF9CA2000F08C
:101260009FF90F2000F096F9C82000F099F90820A6
:1012700000F090F9552000F093F9902000F08AF9E1
:10128000D02000F08DF9A42000F084F9A12000F016
:1012900081F9E02000F084F9D02000F07BF90020F3
:1012A00000F078F9062000F075F9092000F072F9D5
:1012B0000B2000F06FF92A2000F06CF93C2000F0C0
:1012C00069F9552000F066F94B2000F063F9082019
:1012D00000F060F9162000F05DF9142000F05AF9D2
:1012E000192000F057F9202000F054F9E12000F017
:1012F00057F9D02000F04EF9002000F04BF90620FD
:1013000000F048F9092000F045F90B2000F042F9FF
:10131000292000F03FF9362000F03CF9542000F07D
:1013200039F94B2000F036F90D2000F033F9162082
:1013300000F030F9142000F02DF9212000F02AF9F6
:10134000202000F027F9292000F02AF902F07CF88B
:1013500010BD00002DE9FF5F80468A4617469B4678
:101360000F9D00200290CDF80080284605EBD0713B
:10137000C1F347042046E21704EB5272D210214613
:10138000E31704EB5373DB10A4EBC3030BB101238E
:1013900000E000231A446A4392B20192A7F12000B0
:1013A000C7B20AEB0500401E83B208EB0400401EE2
:1013B00082B251464046FFF799FE002673E00C2D9D
:1013C00007D107EB47003A4901EB8000805D0390AD
:1013D00025E0102D05D1374800EB0710805D039004
:1013E0001DE0182D07D107EB4700334901EB001032
:1013F000805D039013E0202D05D1304800EB87106D
:10140000805D03900BE0302D07D107EBC7002C491E
:1014100001EB0010805D039001E0BDE8FF9F4FF0FD
:1014200000093AE01098C8B9012000FA09F00399C0
:10143000084018B1584600F0A0F802E00E9800F0FD
:101440009CF80298401CC0B20290029890FBF4F104
:1014500004FB1100E8B90020029021E0012000FA0D
:1014600009F00399084020B15A4651464046FFF71B
:101470005CFE08F101001FFA80F80098A8EB00005C
:10148000A04206D1DDF800800AF101001FFA80FABF
:1014900006E009F1010000F0FF09B9F1080FC1DB16
:1014A00000BF701C86B20198864288DB00BFB4E79B
:1014B000D04F000844540008345A0008046C000857
:1014C000C48300082DE9F84F06460F46904699461A
:1014D000DDF82CB08020009007F11F0083B206F1E8
:1014E0001F0082B239463046FFF700FE00251BE0A0
:1014F000104800EBC81010F805A0002410E0BBF164
:10150000000F0BD18020204100EA0A0018B14846A4
:1015100000F033F802E00A9800F02FF8601CC4B223
:10152000082CECDB681C85B200988542E0DBBDE846
:10153000F88F000034B900082DE9FE4F06460F462B
:1015400014469846DDE90D5ADDF8309010E0CDE9FB
:10155000015ACDF800902278434639463046FFF7CD
:10156000F9FE284605EBD07106EB61018EB2641CD2
:1015700020780028EBD1BDE8FE8F18B50446201274
:101580008DF80000E0B28DF8010002216846FFF7F7
:10159000C5F918BD10B50446204600F011F810BD7D
:1015A00010B5044610210548FFF7C6FA204600F0A2
:1015B00007F810210148FFF7C1FA10BD000C0140E7
:1015C00001B540210348FFF7B7FA01216846FFF74C
:1015D000A5F908BD000C0140002410E04FF4FA61A9
:1015E0000748006802F05AFF04462CB103F066FB7E
:1015F0000349086001F008FFC82003F019F8EDE77F
:101600009000002094B0002500221321022003F056
:101610001FF956490860A7E00A220FA9534800683D
:1016200003F05CFA0646012E7ED19DF83D000328AA
:1016300002D0102879D145E09DF83C008DF83400A7
:101640009DF83D008DF835000FA840798DF83900E0
:10165000BDF83E00ADF836009DF840008DF838002A
:101660009DF836100DA8C07801440DA800790844F3
:10167000C5B29DF83900A84223D19DF836008030CC
:10168000C0B28DF836009DF839008030C0B28DF8B8
:1016900039000D980090BDF83800ADF80400002422
:1016A0000DE01DF80410324801F05FF900BF402141
:1016B0002F4801F08CF80028F9D0601CC4B2062C29
:1016C000EFD34CE0002406E00DF14100005D28441A
:1016D000C5B2601CC4B20C2CF6DB002406E00DF190
:1016E0003F00005D2844C5B2601CC4B2022CF6DB8A
:1016F0009DF83E002844C5B20FA8407C2844C5B2DE
:101700009DF84E00A84228D11AA0FEF701FE9DF8D0
:101710003E008030C0B28DF83E009DF84E00803013
:10172000C0B28DF84E0001E01BE017E013220FA9B4
:101730006846FEF7BAFE00240DE01DF804100C48C0
:1017400001F013F900BF4021094801F040F80028DA
:10175000F9D0601CC4B2132CEFD300E000BF00BF6F
:101760000025142002F064FF56E70000F800002076
:10177000005000404C6F7261204170704E657420C3
:101780004170706C79210A0000BFFEE770470000CD
:1017900070B5002100230F22C47804B3154C2468CF
:1017A00004F4E064C4F5E064210AC1F10403CA4012
:1017B000447804FA03F184781440214309010E4C63
:1017C0000678A155047804F01F050124AC40057883
:1017D0006D11AD0005F1E025C5F8004109E0047880
:1017E00004F01F050124AC40044D0678761145F83D
:1017F000264070BD0CED00E000E400E080E100E078
:1018000002490143024A1160704700000000FA05D6
:101810000CED00E001460020034A506820F44040EF
:1018200008435060704700000010024029B1064A8A
:1018300052690243044B5A6104E0034A52698243ED
:10184000014B5A61704700000010024029B1064A5E
:10185000D2690243044BDA6104E0034AD26982434D
:10186000014BDA61704700000010024029B1064ABE
:1018700012690243044B1A6104E0034A126982436D
:10188000014B1A61704700000010024029B1064A5E
:1018900092690243044B9A6104E0034A92698243CD
:1018A000014B9A61704700000010024029B1064ABE
:1018B000D2680243044BDA6004E0034AD2688243F0
:1018C000014BDA6070470000001002402DE9F04142
:1018D00000210022002500230026002400278C463A
:1018E000DFF86081D8F8048008F00C0121B10429E8
:1018F00007D0082959D109E0DFF84C81C0F80080F1
:1019000058E0DFF84881C0F8008053E0DFF8348108
:10191000D8F8048008F47012DFF82881D8F8048021
:1019200008F48035920C0D2A01D0921C00E00622AA
:1019300035B9DFF81C8102FB08F8C0F8008033E0FD
:10194000DFF80081D8F82C8008F48036DFF8F480C6
:10195000D8F82C8008F00F0808F1010446B9DFF828
:10196000EC80B8FBF4F808FB02F8C0F800801BE03C
:10197000DFF8D080D8F82C80C8F3031808F10107ED
:10198000DFF8C080D8F82C80C8F3032808F1020CD7
:10199000DFF8B880B8FBF7F808FB0CF8B8FBF4F8F0
:1019A00008FB02F8C0F8008004E0DFF89C80C0F873
:1019B000008000BF00BFDFF88C80D8F8048008F0FA
:1019C000F0010909DFF88C8018F80130D0F80080A8
:1019D00028FA03F8C0F80480DFF86880D8F804809B
:1019E00008F4E061090ADFF86C8018F80130D0F8DB
:1019F000048028FA03F8C0F80880DFF84880D8F897
:101A0000048008F46051C90ADFF8488018F80130F2
:101A1000D0F8048028FA03F8C0F80C80DFF824809E
:101A2000D8F8048008F44041890BDFF82C8018F8BE
:101A30000130D0F80C80B8FBF3F8C0F81080BDE896
:101A4000F08100000010024000127A0040787D0111
:101A500000093D00FC0000200C01002021B102889B
:101A600042F04002028004E002884FF6BF731A4041
:101A7000028070471AB183880B43838002E0838819
:101A80008B438380704710B50022028802F44152D4
:101A90000B884C8823438C882343CC8823430C89B0
:101AA00023434C8923438C892343CC8923431A4302
:101AB0000280838B4FF2FF74234083830B8A03825F
:101AC00010BD2DE9F05F04460D4690462846FFF70D
:101AD0003CF88146C84504D3A8EB090000F1010A8F
:101AE00002E0FF20BDE8F09F002600271CE02078E0
:101AF0002978884216D14FF0010B0FE0761C4E4535
:101B000001D13846EEE7641C6D1C207829788842A4
:101B100004D0A41BAD1B0026B34602E0BBF1000FAE
:101B2000ECD100BF641C7F1C5745E0D3FF20D9E7F0
:101B300010B500F001F810BD0CB500200190009028
:101B40003F48006840F480303D49086000BF3C4891
:101B5000006800F4003000900198401C019000984B
:101B600018B90198B0F5A06FF1D13548006800F4BC
:101B7000003010B10120009001E00020009000989A
:101B800001285CD12F48006840F010002D49086002
:101B90000846006820F0030008600846006840F02E
:101BA00002000860264840682549486008464068A9
:101BB00048600846406840F4806048600846C06A53
:101BC000214908401E49C8620846C06A1F490843A7
:101BD0001B49C8620846006840F08060086000BF8A
:101BE0001748006800F000600028F9D014484068E9
:101BF00020F47C10124948600846406840F4E81020
:101C000048600846006840F08070086000BF0C48DB
:101C1000006800F000700028F9D00948406820F002
:101C20000300074948600846406840F002004860E9
:101C300000BF0348406800F00C000828F9D10CBD33
:101C4000001002400020024000F0FEFF44060100A8
:101C5000032006490870002088600873487308460E
:101C60000021C0F80E108174704700006C05002040
:101C7000042808D14FF0E021096941F004014FF038
:101C8000E022116107E04FF0E021096921F0040131
:101C90004FF0E0221161704710B502F0FFFF0128FC
:101CA00001D002F0BBFD10BD70B505460420FFF762
:101CB000DFFF104800681049B0FBF1F00F490870D1
:101CC0000C4800680C49B0FBF1F44FF47A704443BF
:101CD00001200B4908804FF0E020006940F002002D
:101CE0004FF0E021086108464461006940F00100BE
:101CF000086170BD7C00002040420F006801002098
:101D00006A01002010B51648006840F0010014492F
:101D10000860084640681349084011494860084671
:101D20000068114908400E4908600846006820F420
:101D3000802008600846406820F4FE00486008469D
:101D4000006820F0A05008604FF47F0088600020F9
:101D5000C862FFF7EDFE4FF000600449086010BD57
:101D6000001002400000FFF0FFFFF6FE08ED00E06B
:101D7000F0B50C46154600220021068C4FF6FE7782
:101D80003E400684028B018C4FF60C7632407E1C5E
:101D900006EA03162E433243104EB0420ED0104EC8
:101DA000B0420BD0B0F1804F08D00E4EB04205D0FB
:101DB0000D4EB04202D00D4EB04206D14FF6FD7628
:101DC000314044F00106314305E04FF6F5763140ED
:101DD00044F00106314302830184F0BD002C014030
:101DE000003401400004004000080040000C0040A6
:101DF000F0B50C461546002200210026078C4FF650
:101E0000EF7C07EA0C070784028B018C4FF6FF7703
:101E100007EA041640F6FF473A404FF6FF7707EA15
:101E200003373A434FF6FF7707EA05273A43114F46
:101E3000B8420ED0104FB8420BD0B0F1804F08D04E
:101E40000E4FB84205D00E4FB84202D00D4FB842E7
:101E500006D14FF6DF77394046F01007394305E0E9
:101E60004FF65F77394044F010073943028301840D
:101E7000F0BD0000002C014000340140000400408F
:101E800000080040000C0040F0B50C46154600224A
:101E900000210026078C4FF6FF6C07EA0C07078429
:101EA000828B018C4FF6FF7707EA04264FF60C77FA
:101EB0003A404FF6FF7707EA03172F433A43114F93
:101EC000B8420ED0104FB8420BD0B0F1804F08D0BE
:101ED0000E4FB84205D00E4FB84202D00D4FB84257
:101EE00006D14FF6FF57394046F48077394305E075
:101EF0004FF2FF57394044F480773943828301849D
:101F0000F0BD0000002C01400034014000040040FE
:101F100000080040000C0040F0B50C4615460022B9
:101F200000210026078C4EF6FF7C07EA0C07078489
:101F3000828B018C4FF6FF7707EA043640F6FF47A5
:101F40003A404FF6FF7707EA05273A434FF6FF7707
:101F500007EA03373A43114FB8420ED0104FB84248
:101F60000BD0B0F1804F08D00E4FB84205D00E4FC5
:101F7000B84202D00D4FB84206D14DF6FF77394036
:101F800046F48057394305E047F6FF57394044F49B
:101F90008057394382830184F0BD0000002C01404A
:101FA000003401400004004000080040000C0040E4
:101FB00010B50121304800F076F904212E4800F0D8
:101FC00072F9002852D02C4800F06AF92B49886039
:101FD00008468068B42808D2084680688C2804D94E
:101FE000002008730420087031E0244880683C28F1
:101FF00003D9224880685A2824D32048806887283B
:1020000020D21E48806864281CD91C4A107BC21745
:1020100000EB5272D310194A0E32D25C174B197B67
:10202000CB1701EB5373DB10A1EBC30480232341D7
:102030001A43124B187BC31700EB5373DC100F4B82
:102040000E331A550D48007B401C0C4908730B4891
:10205000007B282806D10021074800F021F8012044
:10206000064948730021044800F08DF90521024813
:1020700000F013F810BD0000000400406C050020C3
:1020800010B5FEF793FD0121014800F003F810BDE3
:1020900000080040CA4302827047CA430282704768
:1020A00021B1028842F00102028004E002884FF66A
:1020B000FE731A400280704710B504466848844297
:1020C00008D10121C014FFF7F1FB0021E014FFF754
:1020D000EDFBC4E0B4F1804F08D101210846FFF7C1
:1020E000C5FB00210120FFF7C1FBB8E05D48844239
:1020F00008D101210220FFF7B9FB00210220FFF7E0
:10210000B5FBACE05848844208D101210420FFF718
:10211000ADFB00210420FFF7A9FBA0E05348844257
:1021200008D101210820FFF7A1FB00210820FFF7BB
:102130009DFB94E04E48844208D101211020FFF716
:1021400095FB00211020FFF791FB88E0494884426D
:1021500008D101212020FFF789FB00212020FFF773
:1021600085FB7CE04448844208D101214014FFF7FC
:102170009DFB00216014FFF799FB70E03F4884420B
:1021800009D10121C804FFF791FB00214FF4002081
:10219000FFF78CFB63E03A48844209D1012108052E
:1021A000FFF784FB00214FF48010FFF77FFB56E020
:1021B0003448844209D101214805FFF777FB00210B
:1021C0004FF40010FFF772FB49E02F48844208D11A
:1021D00001214020FFF74AFB00214020FFF746FB8A
:1021E0003DE02A48844208D101218020FFF73EFBD0
:1021F00000218020FFF73AFB31E02548844208D1D6
:1022000001218015FFF732FB0021A015FFF72EFBFF
:1022100025E02048844209D101210804FFF746FB4C
:1022200000214FF48030FFF741FB18E01A48844248
:1022300009D101214804FFF739FB00214FF4003098
:10224000FFF734FB0BE01548844208D101218804D4
:10225000FFF72CFB00214FF48020FFF727FB10BD78
:10226000002C01400004004000080040000C004029
:10227000001000400014004000340140004C0140B8
:10228000005001400054014000180040001C004074
:10229000002000400040014000440140004801404F
:1022A0000146088F704730B5024600200023002405
:1022B000158A05EA0103958905EA010413B10CB1F9
:1022C000012000E0002030BD70B505460C462448D2
:1022D00085420ED0234885420BD0B5F1804F08D0FF
:1022E0002148854205D02148854202D020488542B8
:1022F00000D100E000BF208850B92389A2886188FE
:102300002846FFF735FDE188284600F03EF825E035
:10231000208804280AD12389A28861882846FFF7EB
:1023200067FDE188284600F039F817E02088082882
:102330000AD12389A28861882846FFF7A5FDE18894
:10234000284600F038F809E02389A28861882846E9
:10235000FFF7E2FDE188284600F036F870BD000086
:10236000002C0140003401400004004000080040FF
:10237000000C00401AB183890B43838102E08389FA
:102380008B438381704781847047028B4FF6F373D0
:102390001A400283028B0A4302837047028B4FF27A
:1023A000FF331A400283028B4FF6FF7303EA0123C7
:1023B0001A4302837047828B4FF6F3731A4082836D
:1023C000828B0A4382837047828B4FF2FF331A401D
:1023D0008283828B4FF6FF7303EA01231A438283C1
:1023E00070470000002202881D4B98420ED01D4B02
:1023F00098420BD0B0F1804F08D01B4B984205D0CB
:102400001A4B984202D01A4B984204D14FF68F7360
:102410001A404B881A43174B984207D0164B9842E4
:1024200004D04FF6FF431A40CB881A4302808B88B2
:1024300083850B8803850A4B98420BD0094B984241
:1024400008D00E4B984205D00D4B984202D00D4B50
:10245000984201D10B7A03860123838270470000E2
:10246000002C0140003401400004004000080040FE
:10247000000C0040001000400014004000400140EB
:10248000004401400048014000BF00F0BFFDFEF7DE
:102490005BF9642002F0CCF8F7E7000010B586B0D5
:1024A00000242A480088632810DD28480088B0F5F9
:1024B0007A7F0BDA25480088642190FBF1F03030F8
:1024C000C2B22046611CCCB204A90A541F4800883D
:1024D000642190FBF1F201FB12000A2190FBF1F064
:1024E0003030C2B22046611CCCB204A90A542E225C
:1024F0002046611CCCB204A90A54144800880A2161
:1025000090FBF1F201FB12003030C2B22046611C98
:10251000CCB204A90A5421222046611CCCB204A9E1
:102520000A5400222046611CCCB204A90A5400209F
:102530001821CDE900014FF6FF7304AA0321029090
:102540004620FEF7F9FF06B010BD0000A2000020F3
:1025500000F009F801F00CFF00BF00F02BFA642036
:1025600002F066F8F9E708B50020F0234FF4A072F6
:1025700001460090FEF7E8FD08BD000010B58EB0E2
:1025800000200D90002440F225512E4800F02CF937
:1025900008B32C4800F0E4F9C1B22B480278007867
:1025A000401C294B18700DF802109DF80000FE2801
:1025B0000AD00020254908701946087040F22551BC
:1025C000204800F0E9F80EE09DF80100032803D14F
:1025D00006201E49087006E09DF80100102802D16F
:1025E00013201A4908701848007818490978884259
:1025F00025D11648007801F041FE04463CB16C46F6
:1026000000230DAA21461248006802F019FA0020A2
:102610000E4908700C49087014B1204601F0D0FF33
:102620000D9838B14FF080500A490860BFF34F8FC2
:10263000BFF36F8F40F22551024800F0ADF80EB0A5
:1026400010BD0000005000400900002008000020DC
:10265000F800002004ED00E010B540F225512348B9
:1026600000F0C2F800283FD0204800F079F9C4B249
:102670001F48008800F40040B0BB1D48008800F4EB
:10268000804088B10A2C03D000201949088005E059
:102690001748008840F400401549088040F2255151
:1026A000124800F079F81FE00D2C06D11048008880
:1026B00040F480400E49088016E00D480088C0F3C1
:1026C0000D000C490C540A480088401C0849088039
:1026D00008460088B0F57A7F06DB0020088040F2CB
:1026E0002551024800F058F810BD000000380140A4
:1026F000000000206C0100207047000010B5CCB035
:1027000000BF40F22551204800F06EF8C0B140F201
:1027100025511D4800F040F81B4800F021F9C1B2D6
:102720001A4802780078401C184B187001A8815490
:1027300018460078B0F5967F02D10020194608703F
:1027400040F22441104800F04FF8D0B100231A465F
:1027500001A90F48006802F073F900200B490870C6
:102760004FF4967101A8FDF7FCFE07480088C4B23B
:102770000548001D0088C4B240F22441054800F01D
:102780000BF84CB010BD0000004800400A000020CB
:10279000A40000200038014010B50022002340F6BC
:1027A0006A14A14200D100BF0A1201249440A3B2CE
:1027B000DC43048010BD21B1828942F40052828141
:1027C00004E082894DF6FF731A4082817047024609
:1027D0000020B1F5007F00D100BF13880B400BB182
:1027E000012000E00020704770B50246002400235D
:1027F0000025002040F66A16B14200D100BFC1F3A7
:10280000421501F01F03012606FA03F3012D02D140
:102810009689334006E0022D02D1168A334001E04A
:10282000968A33400C12012606FA04F416883440C6
:1028300013B10CB1012000E0002070BDF0B50346DB
:10284000002400260025002040F66A17B94200D176
:1028500000BF1846C1F3421401F01F06012707FA12
:1028600006F5012C01D10C3004E0022C01D110300E
:1028700000E014301AB107682F43076002E00768D0
:10288000AF430760F0BD00002DE9F04786B0054674
:102890000E460024A24600BFA1460027B08900B121
:1028A00000BF2F462C8A4CF6FF700440F08804438A
:1028B0002C82AC894EF6F3100440B088318908436D
:1028C000718908430443AC81AC8A4FF6FF40044051
:1028D000B0890443AC8201A8FEF7F8FF1F48874285
:1028E00002D1DDF810A001E0DDF80CA0A88900F409
:1028F000004040B10AEBCA0000EB0A103168490001
:10290000B0FBF1F807E00AEBCA0000EB0A103168EF
:102910008900B0FBF1F86420B8FBF0F00401200955
:10292000642101FB1089A88900F4004040B13220E5
:1029300000EBC900B0FBF1F000F00700044308E031
:10294000322000EB09106421B0FBF1F000F00F0021
:1029500004432C8106B0BDE8F08700000038014038
:1029600001468888C0F308007047C1F308028280DE
:10297000704700BFFEE700002DE9F04107460D4615
:10298000904600240FE00A4850F82410424638468A
:10299000FFF797F8C6B2FF2E03D02C700120BDE8D8
:1029A000F081601CC4B2072CEDDB0020F7E70000CB
:1029B000D40000201CB5484890F8330047490978F6
:1029C000884233D0444890F83300444908700846A0
:1029D0000078502803DC04204149087026E03F4875
:1029E0000078502807DD3D480078702803DC03207C
:1029F0003B4908701AE039480078702807DD3748ED
:102A00000078802803DC0220354908700EE0334846
:102A10000078802807DD31480078992803DC012000
:102A20002F49087002E000202D4908702D480078D9
:102A30002B49097888424ED02948007829490870E6
:102A40000846007804280DD127A0FDF761FC00207E
:102A500000904FF6FF73032201210190FA20FEF748
:102A600031FD38E01F48007803280DD123A0FDF781
:102A70004FFC002000904FF6FF73022201210190CD
:102A8000FA20FEF71FFD26E01648007802280DD137
:102A90001FA0FDF73DFC002000904FF6FF730122C0
:102AA00011460190FA20FEF70DFD14E00D48007864
:102AB00001280DD11CA0FDF72BFC002000904FF643
:102AC000FF73024601210190FA20FEF7FBFC02E0B1
:102AD0001AA0FDF71DFC1CBD000600209C00002074
:102AE0009E0000209D0000205749464920736967D9
:102AF0006E616C2062657374210A00005749464973
:102B0000207369676E616C20676F6F64210A000033
:102B100057494649207369676E616C206E6F726D0C
:102B2000616C210A0000000057494649207369671B
:102B30006E616C20776F727374210A0057494649A1
:102B4000207369676E616C206E6F210A00000000BF
:102B5000F0B502460C46002114B1012C46D133E0F9
:102B600000E0521C10783A28FBD1521C1078302813
:102B700007DB1078392804DC107830381D4E3070AF
:102B800001E00020F0BD00E0521C10782228FBD1AB
:102B9000177808464E1CF1B2164E761C3754521C5C
:102BA00007E0177808464E1CF1B2124E761C3754D7
:102BB000521C10782228F4D1177808464E1CF1B226
:102BC0000C4E761C375412E000E0521C10782D2871
:102BD000FBD1521C13781807030E521C157805F010
:102BE0000F052B43034880F8333000E000BF00BFDF
:102BF0000120C7E70006002070B5CCB00A22694664
:102C00002148006801F06AFFC6B2002E3AD068463B
:102C1000FDF7E7FBC5B22A464BA96846FFF7ACFEB5
:102C200004465CB39DF82C01D0B1012820D00628C1
:102C300023D116480078012804D0022806D00328A2
:102C40000CD107E002201149087007E003200F496A
:102C5000087003E005200D49087000BF00BF0CE0BC
:102C600000216846FFF774FF09200849087004E056
:102C700001216846FFF76CFF00BF00BF694604A052
:102C8000FDF746FB4CB070BDA4000020A80000205A
:102C900025730A0070B504460E4621460AA0FDF7CA
:102CA00037FB00250CE000BF40210948FFF78FFDEE
:102CB0000028F9D0615D0648FFF757FE681CC5B2D1
:102CC000B542F0DB70BD0000646174613A257300A9
:102CD0000048004000224FF49671012001F0B8FD39
:102CE0000649086009E001F059FD18B1FFF784FFBB
:102CF00000F006F80A2001F09BFCF4E7A400002095
:102D000070B5002600253F4800780A2877D2DFE812
:102D100000F076051F2D3B497676765B40F6B8319C
:102D20003948006801F0BAFB044684B101F0C6FFDF
:102D3000354908603548406848B134494868FDF76E
:102D400050FBC5B2314948682946FFF7A3FF57E059
:102D50002E48806848B12D498868FDF742FBC5B20E
:102D60002A4988682946FFF795FF49E02748C06847
:102D700048B12649C868FDF734FBC5B22349C86885
:102D80002946FFF787FF3BE02048006948B11F490B
:102D90000869FDF726FBC5B21C4908692946FFF7FB
:102DA00079FF2DE01948406968B118494869FDF775
:102DB00018FBC5B2154948692946FFF76BFF01F0BA
:102DC0007DFF114908601BE042F210710E48006857
:102DD00001F064FB044684B101F070FF0A49086009
:102DE0000A48406A48B10949486AFDF7FAFAC5B28B
:102DF0000649486A2946FFF74DFF01E0FFE700BF9B
:102E000000BF70BDA8000020F4000020AC0000202E
:102E100000BF704770B5044601F040FF012810D094
:102E20000B480088844206D309480088B4FBF0F5BB
:102E3000284601F0FDFB06480088B4FBF0F100FBDA
:102E400011444FF47A7104FB01F000F003F870BDF7
:102E50006A01002070B5034600224FF0E026756934
:102E60000D4E367803FB06F44FF0E026B16910E012
:102E70004FF0E026B06988420BD0884202D20E1A89
:102E8000324402E02E1A0E4432440146A24200D3DC
:102E900000E0EDE700BF70BD6801002030B50446DA
:102EA000002504E04FF47A70FFF7D4FF6D1CA542B3
:102EB000F8D330BD70B504460D46E1B20548FFF7C2
:102EC00054FD00BF80210348FFF781FC0028F9D0A2
:102ED000204670BD0038014000B587B001210820B0
:102EE000FEF7D4FC01211020FEF7D0FC012140F2B6
:102EF0000120FEF7CBFC0120ADF8180000208DF872
:102F00001B0006A91D48FDF732FD0120ADF8180091
:102F100000208DF81B0006A91948FDF728FD4FF485
:102F20004040FEF777FC002001908DF808008DF8F6
:102F300009004FF4602003900020049002208DF8D7
:102F4000140001A90F48FDF7CDFB01210D48FDF745
:102F5000A9FB0C48FDF7EEFB00BF0A48FDF7B7FBE5
:102F60000028FAD10748FDF7EAFB00BF0548FDF746
:102F7000A4FB0028FAD107B000BD0000000C0140FE
:102F8000001001400024014010B500200449488091
:102F90008880087047214FF6FF7000F037FD10BDA4
:102FA0006C05002070B500EB40040B4D05F8243093
:102FB000002400EB4005084E06EB85056C8000EB15
:102FC0004004354605EB8404A28000EB400405EB89
:102FD0008404A16070BD00005405002010B50221DA
:102FE0000148FDF797FD10BD000C014010B5102100
:102FF0000148FDF7A1FD10BD0010014010B51021E2
:103000000148FDF79BFD10BD0010014070B52B4835
:103010000068401C29490860084600681E2804D939
:10302000002008600120264908702548007830B14A
:10303000012805D0032809D004283CD112E03AE049
:10304000FEF706FE012000F039FA34E080211D4829
:10305000FDF774FD01211C48FFF722F8002000F065
:103060002DFA28E01648407B20B300201449087050
:1030700048730846857B012406E011480E30005D48
:103080002844C5B2601CC4B2042CF6DB0C48807C1A
:10309000A8420ED10A48C07B0949897B00EB012078
:1030A000074988800846417C007C01EB00200449E8
:1030B0004880002500BF00BF70BD00004000002018
:1030C0006C050020000801400004004010B5FFF727
:1030D00085FF04460120FFF79DFE0E4800788442DC
:1030E00003D100200C49087010E00A48007884429F
:1030F0000CD009480078401C074908700846007841
:10310000142803DD0020087002480470014800788C
:1031100010BD00000B0000200C00002008B50121AC
:103120000420FEF7B3FB01210820FEF7AFFB0121CD
:103130001020FEF7ABFB1020ADF8000002208DF848
:10314000020010208DF8030069460F48FDF70FFCC0
:103150002020ADF8000002208DF8020010208DF82C
:10316000030069460948FDF702FC0220ADF80000A3
:1031700004208DF8030069460548FDF7F8FBFFF7CA
:103180002DFF0449087008BD0010014000080140EF
:10319000000C01400B00002070B5002400250AE05F
:1031A0006006040E2F4951F82500804708B144F00D
:1031B0000104681CC5B2052DF2DB112C4AD2DFE8F0
:1031C00004F049090D1115191D2125292D31353915
:1031D0003D41450001202449087040E0012022497A
:1031E00048703CE001202049887038E001201E49E9
:1031F000C87034E001201C49087130E001201A49F0
:1032000048712CE001201849887128E001201649F6
:10321000C87124E001201449087220E001201249FD
:1032200048721CE001201049887218E001200E4904
:10323000C87214E001200C49087310E001200A490B
:1032400048730CE001200849887308E00120064912
:10325000C87304E010210448FDF761F900BF00BF06
:1032600070BD000044000020F005002010B500F003
:1032700083FA002410E00020094908550320094979
:1032800021F81400C820084921F8140096200749A5
:1032900021F81400601CC4B2102CECDB10BD00003F
:1032A0008005002090050020B0050020D0050020FA
:1032B00038B5FFF771FF002477E0FF2000903C480D
:1032C000005D052863D2DFE800F0030A26425B00B8
:1032D0003848005D10B101203549085557E03548A0
:1032E000005D80B1344830F81400401E80B232498D
:1032F00021F8140070B9032021F8140002202C4991
:103300000855009406E003202B4921F81400002002
:10331000274908553BE02748005D80B1274830F831
:103320001400401E80B2254921F8140070B9C8204D
:1033300021F8140003201E490855009406E0C82017
:103340001E4921F814000420194908551FE01948A6
:10335000005D40B90420164908559620184921F807
:10336000140000940BE0164830F81400401E80B2A0
:10337000134921F8140010B9962021F8140006E032
:103380000C48005D10B900200949085500BF00BF76
:103390009DF80000FF2806D000230A22694609484C
:1033A000006801F0B1FA601CC4B2102C85DB38BD96
:1033B00080050020F005002090050020B0050020C9
:1033C000D00500209400002008B501211020FEF750
:1033D0005DFA4FF44040ADF8000002208DF8020085
:1033E00010208DF8030069460448FDF7C0FA4FF439
:1033F00080410248FDF7A0FB08BD0000001001401D
:1034000010B5FFF7E1FF10BD10B54FF480410D4836
:10341000FDF789FBC0F10100C4B222464FF48041A0
:103420000848FDF78DFB4FF400410648FDF77BFB94
:10343000C0F10100C4B222464FF400410148FDF73B
:103440007FFB10BD0010014010B54FF480610248B1
:10345000FDF774FB10BD00000010014010B50246DE
:1034600002EB4200094B03EB8000806858B102EB8D
:10347000420003F82010002002EB4203034C04EB4F
:103480008303588010BD0120FCE700005405002094
:1034900008B50120ADF8000002208DF802001020D0
:1034A0008DF8030069460448FDF761FA01210248DE
:1034B000FDF744FB08BD00000008014038B5044694
:1034C00001210420FEF7E2F9012C11D18020ADF892
:1034D000000002208DF8020010208DF803006946DC
:1034E0000948FDF744FA80210748FDF725FB09E06C
:1034F0008020ADF8000048208DF80300694602489E
:10350000FDF735FA38BD00000008014008B501217B
:103510001020FEF7BBF901210420FEF7B7F90121C5
:103520000846FEF7B3F90620ADF8000003208DF839
:10353000020010208DF8030069460C48FDF717FAC9
:103540000820ADF8000003208DF8020004208DF85B
:10355000030069460548FDF70AFA04210348FDF710
:10356000EDFA02210148FDF7E9FA08BD001001401B
:1035700010B5FFF7CBFFFFF78BFF00200349087062
:1035800003490870FF200349087010BD3600002071
:10359000370000203800002010B504461B2C00DD49
:1035A00010BD1448007800BB02231A4612490120BE
:1035B000FFF7F8FC00F02EF801211048FDF7BEFAE5
:1035C00002210F48FDF7B8FA04210D48FDF7B4FABF
:1035D0000C4804700020074908700B4800880B490C
:1035E0000880FF200A49087001E00948047000BF04
:1035F000D6E700003600002015360008000801401C
:1036000000100140370000200E0000203A0000208A
:103610003800002010B539480088401E374908801E
:1036200008460088002863D135480078401C34499A
:1036300008703448097830F8110030490880304863
:10364000007831490870087800EBD0714910A0EB80
:10365000410119B901202C49087002E000202A49D3
:1036600008702948007810B1012825D11AE02448B3
:103670000078012803D125480078254908700221E7
:103680002448FDF759FA2248007800F0010020B1E3
:1036900004212048FDF752FA03E004211D48FDF7FC
:1036A0004BFA09E002211B48FDF748FA1848007858
:1036B00040101749087000BF00BF1148007811285A
:1036C00016D104211348FDF739FA02211148FDF7FC
:1036D00035FA00200A4908700F480078FF2806D004
:1036E0000D480078FFF758FFFF200B49087010BD08
:1036F00002210120FFF7B2FE00BFF8E73A000020E8
:10370000360000200E0000203D0000203700002081
:103710003C000020001001403800002010B540217E
:103720000148FDF7F7F910BD0010014010B58021E8
:103730000148FDF7EFF910BD0010014010B54FF43E
:1037400080710248FDF7E6F910BD0000001001404D
:1037500010B54FF400710248FDF7DCF910BD000010
:103760000010014010B54FF480710248FDF7D2F906
:1037700010BD00000008014008B501211420FEF72B
:1037800085F84FF47070ADF8000048208DF8030004
:1037900069460748FDF7EBF84FF48070ADF800007C
:1037A00048208DF8030069460248FDF7E0F808BD9F
:1037B000001001400008014010B54FF400410248DC
:1037C000FDF7BCF910BD00000008014010B54FF432
:1037D00000410248FDF7B0F910BD000000080140AB
:1037E00010B504462CB14FF480510548FDF7A6F9F9
:1037F00004E04FF480510248FDF79EF910BD00002F
:10380000000C014000B587B001218803FEF71EF8C7
:1038100001210820FEF73AF801210846FEF736F8A4
:103820004FF46040ADF8040003208DF80600182026
:103830008DF8070001A91F48FDF799F84FF4805053
:10384000ADF8040003208DF8060010208DF8070065
:1038500001A91848FDF78BF84FF480511548FDF782
:103860006DF90020ADF808004FF48270ADF80A0041
:103870000020ADF80C000220ADF80E000120ADF8DC
:1038800010004002ADF812001020ADF81400002026
:10389000ADF816000720ADF8180002A90648FEF79B
:1038A000F2F801210448FEF7D9F80120FFF798FF4C
:1038B00007B000BD000C01400038004000B591B0D9
:1038C0000121C803FDF7C2FF01210220FDF7AEFF71
:1038D00001211D20FDF7DAFF01214648FDF7D2F84E
:1038E0004FF40040ADF82C0010208DF82F0003207D
:1038F0008DF82E000BA94048FDF739F84FF4004130
:103900003D48FDF71BF95020ADF82C0010208DF834
:103910002F0003208DF82E000BA93848FDF727F85B
:1039200050213648FDF70AF94FF48060ADF82C00BD
:1039300010208DF82F0003208DF82E000BA93048A1
:10394000FDF715F84FF480612D48FDF7F5F82820B4
:10395000ADF82C0003208DF82E0018208DF82F00D4
:103960000BA92648FDF703F84FF44040ADF83000AE
:103970004FF48270ADF832000020ADF83400022020
:10398000ADF836000120ADF838004002ADF83A003D
:103990000020ADF83C00ADF83E000720ADF8400037
:1039A0000CA91848FEF76FF81748FCF7F3FE154806
:1039B0000C300090102002908001039000200490B1
:1039C0008020059000200690079008904FF48050CA
:1039D000099000200A9069460B48FCF781FF0122FC
:1039E00002210848FEF746F801210648FEF736F89E
:1039F00011B000BD0002300000080140000C014081
:103A000000100140003C00401C04024030B589B069
:103A100005460C4601210220FDF718FF0121042074
:103A2000FDF734FF8020ADF8200010208DF8230032
:103A300003208DF8220008A91F48FCF798FF802179
:103A40001D48FDF77BF8ADF80C50ADF8084000209C
:103A5000ADF80E00ADF80A0002A91848FEF7C2FC46
:103A60000420ADF814000220ADF816000120ADF8D6
:103A700018000020ADF81A00ADF81C0005A90F4889
:103A8000FEF722FC1D208DF8040002208DF80500B1
:103A900000208DF8060001208DF8070001A8FDF731
:103AA00077FE012205210548FEF764FC002103484A
:103AB000FEF7F6FA09B030BD0008014000040040EE
:103AC0001FB501210420FDF7C1FE1A48FEF7F4FAE4
:103AD0003220ADF80800184800681849B0FBF1F032
:103AE000401E80B2ADF804000020ADF80A00ADF829
:103AF000060001A90F48FEF775FC012211460D488A
:103B0000FEF738FC01210B48FEF7CAFA4FF4A0601B
:103B1000FDF776FE1E208DF8000000208DF80100D4
:103B200003208DF8020001208DF803006846FDF7A0
:103B30002FFE1FBD000800407C00002040420F0007
:103B400010B5FFF7BDFF002417E0012004EB44018E
:103B50000B4A02F82100002004EB440102EB810132
:103B6000488004EB440102EB8101888004EB4401AE
:103B700002EB81018860601CC4B2022CE5DB10BD41
:103B8000540500201CB54820FEF78EF8FCF7F6FF20
:103B90002148022100236422CDE900101FA1224800
:103BA00001F04CF8214805210023C822CDE900107E
:103BB0001FA1224801F042F82148062100234FF4BA
:103BC000FA72CDE900101FA1214801F037F8214811
:103BD00003210023C822CDE900101FA1214801F0D4
:103BE0002DF82148072100234FF4FA72CDE9001087
:103BF0001EA1214801F022F82048092100234FF49A
:103C00008062CDE900101EA1204801F017F800F0F5
:103C10004BFD00201CBD0000580000204C65645F77
:103C20005461736B00000000D91500085C0000208F
:103C30004B65795F5461736B00000000B1100008A0
:103C4000600000205466744C63645F5461736B00C1
:103C5000512500086400002054656D48756D5F545F
:103C600061736B0089240008740000204C6F72613E
:103C70005F5461736B00000005160008700000209F
:103C8000576966695F5461736B000000D52C0008AA
:103C90002DE9F04105460E461C4807681C4800689F
:103CA000001D00F00DFC50B91948006890F82C1068
:103CB0000120884017490968814316480160681C43
:103CC00038B936B112480168091D134800F04AFCA2
:103CD0001AE07C190E4800684460BC4207D20C48C8
:103CE0000168091D0D48006800F022FC0CE008483E
:103CF0000168091D0A48006800F01AFC09480068BC
:103D0000844201D207480460BDE8F081240100200C
:103D100010010020280100200409002018010020C3
:103D2000140100204001002010B5044600F026FCDC
:103D300024480068401C234908602348006840B9B3
:103D4000214804600846006801280DD100F07AF986
:103D50000AE01E48006838B91B480068C06AE16A7A
:103D6000884201D81848046019480068401C184966
:103D7000086008460068606494F82C1001208840B0
:103D800014490968084313490860E16A01EB81019D
:103D9000114A02EB8100211D00F0E4FB00F000FC61
:103DA0000A48006868B108480068C06AE16A884249
:103DB00007D24FF0805009490860BFF34F8FBFF31F
:103DC0006F8F10BD20010020100100202C01002069
:103DD0003C010020280100203406002004ED00E012
:103DE00010B516E000F0CAFB0C48C068C468201D7E
:103DF00000F066FB0A480068401E0949086009484F
:103E00000068401E0749086000F0CAFB204600F029
:103E10005EF8044800680028E4D110BDF0080020D6
:103E2000200100201C01002070B504460D46206CC6
:103E300070B1216CE0680844E0606168E068884225
:103E400001D32068E0602846226CE168FCF7E8FABC
:103E500070BD2DE9F04104460F4615464FF00008AD
:103E6000A66B206C40B9206860BB606800F0BAFFA8
:103E700080460020606025E07DB93946226CA0684C
:103E8000FCF7CEFA216CA0680844A060D4E90110C8
:103E9000884217D32068A06014E03946226CE0689D
:103EA000FCF7BEFA216CE068401AE0602168E06827
:103EB000884203D2216C6068401AE060022D01D173
:103EC00006B1761E701CA0634046BDE8F08110B5B7
:103ED0000446206B00F074FB204600F071FB10BD1F
:103EE00030B54FF41043174800F007042CB1C01D43
:103EF00020F00700134C041B1B1B0246124C2260CF
:103F00000024114D6C60D018083820F007000F4CC9
:103F1000206000240D4D2D686C600C4D2D682C60C8
:103F20001146441A4C60094C24680C60084D4C68DA
:103F30002C60084D4C682C604FF00044064D2C60FE
:103F400030BD0000180900204C0100205401002061
:103F50005C010020580100206001002000BFFFF735
:103F60003FFF064800680128F9D94FF08050044906
:103F70000860BFF34F8FBFF36F8FF0E73406002068
:103F800004ED00E02DE9F04106460D46174698463F
:103F9000069C0DB9246000E02760E66325640121DA
:103FA000204600F071FC84F850800020A064BDE839
:103FB000F0812DE9F05F81460F4690469A460A9EB1
:103FC0000C9C4FEA8801A522206BFCF7A0FAA8F10F
:103FD0000100216B01EB800B2BF0070B002507E0A4
:103FE000795D04F134004155785D00B902E06D1C43
:103FF000102DF5D300BF002143200155202E00D302
:104000001F26E662E66400202065201D00F08DFA80
:1040100004F1180000F089FA2461C6F12000A061C3
:1040200064620020606584F858005246494658464C
:1040300000F08CF920600B9808B10B980460BDE883
:10404000F09F000010B5002407E004EB84010F4A44
:1040500002EB810000F05CFA641C202CF5D30C48C4
:1040600000F056FA0B4800F053FA0B4800F050FAF3
:104070000A4800F04DFA0A4800F04AFA0448094993
:10408000086004480849086010BD0000340600209C
:10409000B4080020C8080020DC080020F008002038
:1040A00004090020140100201801002010B5014669
:1040B000164800E0006803688B42FBD30246436861
:1040C00013448B4204D143684C6823444360014647
:1040D0000A464B6813440468A34211D10C4C036890
:1040E0002468A34208D04B680468646823444B608A
:1040F00003681B680B6005E0054B1B680B6001E063
:1041000003680B60884200D0016010BD4C010020A4
:104110005401002070B5054600F030FAA86B08B9CC
:10412000012400E0002400F03BFA204670BD70B589
:10413000054600F023FAA86BE96B884201D10124FF
:1041400000E0002400F02CFA204670BD2DE9F34178
:104150000D460098846C0027A06BE16B88421BD24F
:1041600094F945602A4669462046FFF772FE0746E5
:10417000701C60B9606A08B9012000E0002050B9E5
:1041800004F1240000F070FE28B1012703E0701C48
:1041900040B284F8450000BF3846BDE8FC8100000D
:1041A0000A490968096809B9012100E0002121B123
:1041B0004FF0FF31064A116006E004490968C968FA
:1041C000C868034A4168116070470000140100206C
:1041D0004001002000BF502080F31188BFF34F8FB3
:1041E000BFF36F8F00BF00BFFEE770B5044600F05D
:1041F000C5F994F945501AE0A06C38B10021204669
:10420000FFF7A4FF88B100F039FA0EE0606A08B940
:10421000012000E0002038B904F1240000F024FE61
:1042200018B100F02BFA00E003E0681E45B2002D43
:10423000E2DC00BFFF2084F8450000F0B1F900F097
:104240009DF994F9445010E0206908B9012000E07C
:10425000002048B904F1100000F006FE08B100F09B
:104260000DFA681E45B200E001E0002DECDC00BF55
:10427000FF2084F8440000F093F970BD2DE9F0416F
:1042800005464FF0000800F041FA2B48006808B9D5
:10429000FFF726FE294800682840002847D145B18D
:1042A000083505F0070020B105F00700C0F108004F
:1042B0000544002D3BD022480068854237D8214E66
:1042C0003046046801E0264624686068A84202D2AD
:1042D00020680028F7D118480068844227D0306849
:1042E00000F10808206830606068401B102807D97A
:1042F00067196068401B786065603846FFF7D6FE36
:104300000F4960680968081A0D4908600846006886
:104310000D490968884203D2094800680A490860C3
:10432000064960680968084360600020206000F06A
:10433000DBFD4046BDE8F081540100206001002013
:10434000580100204C0100205C010020001F4FF0AC
:1043500080730360001F21F001030360001F034B03
:10436000036014380260203870470000D54100080F
:1043700000B587B0002000904FF6FF730F22012197
:1043800001900846FDF79EF8002000904FF6FF735D
:104390000E22012101902120FDF794F800200090C9
:1043A0004FF6FF730422012101904FF48D70FDF749
:1043B00089F8002000904FF6FF731122012101902F
:1043C000D220FDF77FF800203021CDE900014FF623
:1043D000FF732EA2642102904620FDF7ADF8322033
:1043E0008DF80C0030208DF80D0032208DF80E0075
:1043F00034208DF80F002D208DF8100031208DF81D
:10440000110030208DF812002D208DF8130030207F
:104410008DF8140033208DF8150000208DF816005B
:104420001821CDE900014FF6FF7303AAC8210290BD
:104430001420FDF781F831208DF80C0032208DF822
:104440000D003A208DF80E0030208DF80F008DF809
:10445000100000208DF811001821CDE900014FF661
:10446000FF7303AAC8210290A020FDF765F8002081
:104470001821CDE900014FF6FF7307A2C821029071
:104480004FF48270FDF758F807B000BD204449533F
:1044900041524D20000000004D6F6E002DE9F041AB
:1044A00004460D460026002700F008FC0646274675
:1044B000F01BA84202D90120BDE8F0810020FBE7F3
:1044C00001460A69D1E901309860D1E901035860D9
:1044D0005068884201D188685060002008611068E7
:1044E000401E10601068704770B505460C462146A6
:1044F00001A0FBF70DFF70BDC8CECEF1A3BA2573A6
:1045000020B7A2CFD6D5BBD2E7B3F60D0A00000084
:1045100000F1080141604FF0FF31816000F10801B6
:10452000C160016100210160704700210161704795
:1045300010B502460B685C1C0CB9106907E002F16B
:10454000080000E04068446824689C42FAD9446846
:104550004C604C68A160886041600A611468641C0A
:10456000146010BD42684A6093688B60936859601C
:104570009160086103685B1C0360704700BF5020B6
:1045800080F31188BFF34F8FBFF36F8F00BF0348D5
:104590000068401C01490860704700006401002069
:1045A00006480068401E054908600846006820B9B2
:1045B000002080F3118800BF00BF70476401002015
:1045C00070B506463546D6B1083D2C460C496068A4
:1045D0000968084098B1206888B909496068096885
:1045E0008843606000F092F80649606809680844F2
:1045F000044908602046FFF759FD00F075FC70BDC6
:10460000600100205801002000204FF0E0210861E7
:104610008861064800684FF47A71B0FBF1F0401EE3
:104620004FF0E02148610720086170477C000020BE
:1046300070B50446002544B100F068F8002120461A
:10464000FFF726FB00F050FC05463DB94FF08050C7
:1046500003490860BFF34F8FBFF36F8F70BD000039
:1046600004ED00E0034909680160034909684160FD
:10467000704700003801002024010020012001497A
:10468000086070473401002070B505460C460548A7
:10469000016818312846FFF74BFF01212046FFF73C
:1046A000F7FA70BD100100201CB5114800210B461F
:1046B0008022CDE900100FA1104800F0BFFA044697
:1046C000012C14D100BF502080F31188BFF34F8F0D
:1046D000BFF36F8F00BF4FF0FF3009490860012022
:1046E0000849086000200849086000F07DF81CBDFA
:1046F0004401002049444C45000000005D3F000893
:10470000400100202C010020240100200248006804
:10471000401C0149086070474801002010B51A4844
:10472000006818B10120194908602BE000201749E2
:10473000086017480068006815490968096B8842D5
:1047400005D81348016834310068FFF7CDFE1148E1
:104750000068B0FA80F0C0F11F0101EB81020E4B3E
:1047600003EB820042685268426000F1080243682D
:10477000934202D14268526842604268D268044B58
:104780001A6000BF10BD0000480100203401002065
:1047900010010020280100203406002010B5FEF78B
:1047A00095FC01281BD10F48008808B9FEF71EFCB4
:1047B0000C480088B0F57A7F0FDA0A480088401C60
:1047C00008490880084600881E2804DD4FF4FA6076
:1047D0000880FEF713FC002010BD0120FCE700203C
:1047E000FAE70000F000002010B50A48006840F425
:1047F0007000084908600846006840F07040086092
:10480000FFF702FF002004490860FBF725FD0020A8
:1048100010BD000020ED00E06401002010B500BFD5
:10482000502080F31188BFF34F8FBFF36F8F00BF0D
:1048300000F04AFA18B14FF080500449086000BFF8
:10484000002080F3118800BF10BD000004ED00E0DF
:104850002DE9F84307460D4690460DB9002601E0C4
:1048600007FB05F606F15400FFF708FD044644B1C6
:1048700004F1540943464A46294638460094FFF756
:1048800081FB2046BDE8F88370B505460E462C46F0
:10489000FFF774FED4E90F12206801FB020060608C
:1048A0000020A0632068A060E06B401E226C21689D
:1048B00000FB0210E060FF2084F8440084F845000B
:1048C0009EB9206908B9012000E00020A8B904F1D0
:1048D000100000F0C9FA80B14FF08050094908601B
:1048E000BFF34F8FBFF36F8F07E004F11000FFF7A6
:1048F0000FFE04F12400FFF70BFEFFF751FE01202D
:1049000070BD000004ED00E02DE9FF4383B00746D1
:1049100088461D464FF000093C4600BFFFF72EFEBB
:10492000A06BE16B884201D3022D38D12A46414663
:104930002046FFF78EFA0646A06C68B1294620464D
:10494000FFF704FC28B34FF080503C490860BFF3E8
:104950004F8FBFF36F8F1CE0606A08B9012000E041
:10496000002068B904F1240000F07EFA88B14FF00D
:10497000805032490860BFF34F8FBFF36F8F08E05C
:104980003EB14FF080502D490860BFF34F8FBFF309
:104990006F8FFFF705FE012007B0BDE8F083059893
:1049A00018B9FFF7FDFD0020F6E7B9F1000F04D1BB
:1049B00001A8FFF757FE4FF00109FFF7F1FDFFF7E0
:1049C000A5FEFFF7DBFD94F94400401C10B9002060
:1049D00084F8440094F94500401C10B9002084F884
:1049E0004500FFF7DDFD05A901A800F0F9F8F0B9D1
:1049F0002046FFF79CFBA0B104F110000599FFF7DA
:104A000043FE2046FFF7F1FB00F06EFA002885D147
:104A10004FF0805009490860BFF34F8FBFF36F8F8D
:104A20007CE72046FFF7E1FB00F05EFA76E72046E0
:104A3000FFF7DBFB00F058FA0020ADE704ED00E0E3
:104A40002DE9F05F06468A4615461F46344600BFEC
:104A50005021EFF3118081F31188BFF34F8FBFF323
:104A60006F8F00BF8146A06BE16B884201D3022F9C
:104A70002BD194F945B03A4651462046FFF7E9F963
:104A80000BF10100C8B9A06C40B139462046FFF7D0
:104A90005DFBB8B1B5B10120286013E0606A08B9C8
:104AA000012000E0002068B904F1240000F0DCF9E6
:104AB00040B13DB10120286004E00BF1010040B29B
:104AC00084F845004FF0010801E04FF0000800BFF6
:104AD00089F3118800BF4046BDE8F09F2DE9F741FA
:104AE00083B005460F464FF000082C4600BFFFF785
:104AF00045FDA66BF6B139462046FFF795F9701EC5
:104B0000A063206908B9012000E0002060B904F129
:104B1000100000F0A9F938B14FF080502F4908601B
:104B2000BFF34F8FBFF36F8FFFF73AFD012006B041
:104B3000BDE8F081059818B9FFF732FD0020F6E7CF
:104B4000B8F1000F04D101A8FFF78CFD4FF0010868
:104B5000FFF726FDFFF7DAFDFFF710FD94F944009B
:104B6000401C10B9002084F8440094F94500401C12
:104B700010B9002084F84500FFF712FD05A901A82F
:104B800000F02EF8F0B92046FFF7C4FAA0B104F106
:104B900024000599FFF778FD2046FFF726FB00F07B
:104BA000A3F90028A3D14FF080500C490860BFF34F
:104BB0004F8FBFF36F8F9AE72046FFF716FB00F089
:104BC00093F994E72046FFF710FB00F08DF920469B
:104BD000FFF7A0FA00288AD00020A8E704ED00E043
:104BE00070B506460C46FFF7C9FC124802687068AB
:104BF000131A2068401C08B9002517E00E493068D8
:104C00000968884204D07068904201D801250DE0FF
:104C10002068984207D92068C01A20603046FFF704
:104C200021FD002502E0002020600125FFF7B8FCEF
:104C3000284670BD24010020380100202DE9FF4FD7
:104C400085B0804689461746DDE912ABB800FFF70C
:104C500015FB064656B15C20FFF710FB04460CB16D
:104C6000266304E03046FFF7ABFC00E000247CB193
:104C70000020CDE900ABCDE902403A464946404626
:104C8000089BFFF796F92046FFF74EF8012501E053
:104C90004FF0FF35284609B0BDE8F08F0549096897
:104CA00009B9012005E00449096809B9022000E0BA
:104CB000002070472C0100204801002001490868AD
:104CC00070470000240100202DE9F04100273A48F8
:104CD0000068002863D139480068451C37480560E2
:104CE0008DB93748D0F800803648006834490860EC
:104CF0003448C0F8008034480068401C32490860DD
:104D0000FFF74EFA00BF3148006885423BD300BF31
:104D10002B480068006808B9012000E0002020B19D
:104D20004FF0FF30294908602CE025480068C06832
:104D3000C4686668B54202D22448066022E0201D9D
:104D4000FFF7BEFBA06A18B104F11800FFF7B8FB2B
:104D500094F82C10012088401D49096808431C491B
:104D60000860E16A01EB81011A4A02EB8100211D12
:104D7000FFF7F8FB1849E06A0968C96A8842C7D397
:104D80000127C5E700BF14480068C06A00EB800037
:104D9000104951F82000012800D9012704E00F48EC
:104DA0000068401C0D4908600D48006800B10127EB
:104DB0003846BDE8F08100004801002024010020B1
:104DC00014010020180100203801002040010020BB
:104DD00028010020340600201001002030010020AE
:104DE0003401002070B505462C460026ADB3206D79
:104DF000401E2065E16CE06A88422ED0206D60BBC9
:104E0000201DFFF75DFB78B9E06A00EB80001449D4
:104E100051F8200040B994F82C1001208840114925
:104E2000096881430F480160E06CE062E06AC0F10C
:104E30002000A06194F82C100120884009490968DD
:104E4000084308490860E16A01EB8101044A02EB6A
:104E50008100211DFFF786FB0126304670BD000052
:104E6000340600202801002070B50646F068C468AA
:104E700004F11800FFF724FB15480068A8B9201DAD
:104E8000FFF71EFB94F82C10012088401149096897
:104E9000084310490860E16A01EB81010E4A02EB08
:104EA0008100211DFFF75EFB04E004F118010B48AF
:104EB000FFF758FB0A49E06A0968C96A884204D9C1
:104EC000012501200749086000E00025284670BD43
:104ED000480100202801002034060020DC080020C2
:104EE000100100203401002070B500240026FFF7D7
:104EF00045FB2E480068401E2C49086008460068A3
:104F000000284FD12A48006800284BD024E02948C7
:104F1000C068C46804F11800FFF7D2FA201DFFF73B
:104F2000CFFA94F82C1001208840234909680843DF
:104F300021490860E16A01EB8101204A02EB81000E
:104F4000211DFFF70FFB1E49E06A0968C96A884204
:104F500002D301201B4908601648006808B90120E7
:104F600000E000200028D2D00CB1FFF719F9164854
:104F7000056865B100BFFFF7A7FE10B10120114918
:104F800008606D1E002DF6D100200F4908600D4805
:104F9000006838B1012630070C490860BFF34F8F15
:104FA000BFF36F8FFFF7FCFA304670BD4801002059
:104FB00020010020DC080020280100203406002009
:104FC00010010020340100203001002004ED00E039
:104FD00000000000000000000000000000000404C9
:104FE000040404000004000014140A00000000007F
:104FF0000000000000000A0A1F0A0A1F0A0A000037
:1050000000040E1505060C14150E04000000121500
:105010000D152E2C2A1200000000040A0A36151560
:10502000291600000202010000000000000000003C
:10503000100808040404040408081000020404080A
:10504000080808080404020000000004150E0E15EC
:105050000400000000000008083E080800000000EE
:10506000000000000000000002020100000000003B
:10507000003F0000000000000000000000000000F1
:1050800000020000002010100808040402020100C1
:1050900000000E1111111111110E00000000040684
:1050A00004040404040E000000000E1111080402A0
:1050B000011F000000000E11100C1010110E000056
:1050C0000000080C0C0A091F081C000000001F014A
:1050D000010F1110110E000000000C12010D131130
:1050E000110E000000001E10080804040404000053
:1050F00000000E11110E1111110E000000000E1112
:10510000111916100906000000000000040000003C
:10511000000400000000000000040000000404007F
:105120000000100804020204081000000000000043
:105130003F003F00000000000000020408101008BB
:105140000402000000000E11110804040004000015
:1051500000001C22292D2D1D221C0000000004042B
:105160000C0A0A1E1233000000000F12120E121257
:10517000120F000000001E1101010101110E0000BC
:1051800000000F1212121212120F000000001F1264
:105190000A0E0A02121F000000001F120A0E0A0265
:1051A0000207000000001C1201013911120C00005E
:1051B00000003312121E12121233000000001F04EE
:1051C00004040404041F000000003E080808080846
:1051D00008080907000037120A060A1212370000F1
:1051E0000000070202020202223F000000003B1BF7
:1051F0001B1B15151535000000003B1216161A1A58
:105200001217000000000E1111111111110E0000F3
:1052100000000F12120E02020207000000000E1121
:1052200011111117190E180000000F12120E0A1298
:105230001237000000001E1101060810110F0000B7
:1052400000001F1504040404040E000000003312C3
:1052500012121212120C000000003312120A0A0C71
:10526000040400000000151515150E0A0A0A0000B6
:1052700000001B0A0A04040A0A1B000000001B0AA3
:105280000A0A0404040E000000001F0908040402B6
:10529000121F00001C0404040404040404041C0081
:1052A0000002020404040808081010000E08080890
:1052B0000808080808080E00040A000000000000A2
:1052C0000000000000000000000000000000003F9F
:1052D00002040000000000000000000000000000C8
:1052E000000C121C123C000000030202020E1212FB
:1052F000120E000000000000001C1202120C000040
:1053000000181010101C1212123C000000000000C7
:10531000000C121E021C000000182404041E0404C9
:10532000041E000000000000003C120C021C221CA5
:1053300000030202020E12121237000000040400E1
:1053400000060404040E000000080800000C080811
:105350000808080700030202021A0A060A130000DE
:105360000007040404040404041F000000000000FB
:10537000000F15151515000000000000000F121297
:105380001237000000000000000C1212120C000086
:1053900000000000000F1212120E020700000000B1
:1053A000001C1212121C103800000000001B060224
:1053B0000207000000000000001E020C101E00008A
:1053C00000000004041E0404041C0000000000008F
:1053D000001B1212123C000000000000001B0A0A11
:1053E00004040000000000000015150E0A0A000069
:1053F00000000000001B0A040A1B0000000000005F
:10540000003312120C08040300000000001E080400
:10541000041E000018080808080C080808081800EE
:10542000080808080808080808080808060404040A
:10543000040804040404060016090000000000002B
:10544000000000000000000000000000000000005C
:105450000000000000000008080808080808000014
:105460001818000000486C24120000000000000022
:10547000000000000000002424247F1212127F127A
:10548000121200000000081C2A2A0A0C1828282AD8
:105490002A1C080800000022251515152A58545406
:1054A000542200000000000C1212120A7625291165
:1054B000916E0000000606040300000000000000DA
:1054C000000000000040201010080808080808101C
:1054D00010204000000204080810101010101008DE
:1054E000080402000000000008086B1C1C6B080880
:1054F0000000000000000000080808087F080808F5
:105500000800000000000000000000000000000093
:10551000060604030000000000000000FE0000007A
:10552000000000000000000000000000000000007B
:1055300006060000000080404020201010080804EB
:105540000402020000000018244242424242424249
:1055500024180000000000080E08080808080808C1
:10556000083E00000000003C424242202010080497
:10557000427E00000000003C424220182040404291
:10558000221C0000000000203028242422227E203B
:10559000207800000000007E0202021A26404042ED
:1055A000221C0000000000382402021A2642424257
:1055B000241800000000007E2222101008080808AD
:1055C000080800000000003C4242422418244242E5
:1055D000423C00000000001824424242645840400F
:1055E000241C00000000000000001818000000004B
:1055F0001818000000000000000000080000000073
:1056000000080804000000402010080402040810EC
:10561000204000000000000000007F0000007F002C
:1056200000000000000000020408102040201008C4
:10563000040200000000003C4242464020101000DE
:10564000181800000000001C225A555555552D42CF
:10565000221C00000000000808181414243C2242F8
:1056600042E700000000001F2222221E2242424286
:10567000221F00000000007C4242010101010142A2
:10568000221C00000000001F2242424242424242CD
:10569000221F00000000003F4212121E121202429E
:1056A000423F00000000003F4212121E121202028E
:1056B000020700000000003C2222010101712122AA
:1056C000221C0000000000E7424242427E42424269
:1056D00042E700000000003E080808080808080823
:1056E000083E00000000007C101010101010101078
:1056F0001010110F0000007722120A0E0A12122257
:1057000022770000000000070202020202020202E9
:10571000427F000000000077363636362A2A2A2AD1
:105720002A6B0000000000E346464A4A5252526289
:10573000624700000000001C2241414141414141BB
:10574000221C00000000003F424242423E02020290
:10575000020700000000001C2241414141414D531D
:10576000321C60000000003F4242423E12122222E0
:1057700042C700000000007C424202041820404260
:10578000423E00000000007F490808080808080899
:10579000081C0000000000E74242424242424242EE
:1057A000423C0000000000E7424222242414141866
:1057B000080800000000006B494949495555362248
:1057C00022220000000000E7422424181818242494
:1057D00042E700000000007722221414080808089D
:1057E000081C00000000007E212010100804044264
:1057F000423F000000780808080808080808080860
:1058000008087800000002020404080808101020AC
:1058100020204040001E101010101010101010100A
:1058200010101E00003844000000000000000000BE
:105830000000000000000000000000000000000068
:10584000000000FF0006080000000000000000004B
:1058500000000000000000000000003C42784442CC
:1058600042FC0000000000030202021A26424242EB
:10587000261A000000000000000000384402020266
:1058800044380000000000604040407844424242FA
:1058900064D80000000000000000003C427E0202CC
:1058A000423C0000000000F08808087E0808080854
:1058B000083E0000000000000000007C22221C02C4
:1058C0003C42423C000000030202023A464242428D
:1058D00042E700000000000C0C00000E0808080859
:1058E000083E00000000003030000038202020205A
:1058F0002020221E0000000302020272120A161269
:10590000227700000000000E0808080808080808B0
:10591000083E0000000000000000007F929292927A
:1059200092B70000000000000000003B46424242E7
:1059300042E70000000000000000003C42424242FA
:10594000423C0000000000000000001B26424242D2
:10595000221E02070000000000000078444242427C
:10596000447840E000000000000000774C0404048C
:10597000041F0000000000000000007C42023C40C8
:10598000423E0000000000000008083E0808080829
:105990000830000000000000000000634242424264
:1059A00062DC000000000000000000E74224241434
:1059B0000808000000000000000000EB49495555B0
:1059C00022220000000000000000007624181818B1
:1059D000246E000000000000000000E742242414B0
:1059E00018080807000000000000007E22100808C8
:1059F000447E000000C020202020201020202020F5
:105A00002020C000101010101010101010101010D6
:105A100010101010000608080808081008080808E8
:105A2000080806000C32C200000000000000000060
:105A30000000000000000000000000000000000066
:105A40000000000000000000000000000000000056
:105A50000000000000000000000000000000000046
:105A6000000000000000000000000400CA012A023B
:105A70001A02140210021000100010001000100092
:105A8000100010001000100010022001C0000000E3
:105A9000000000000000000060066006300398016E
:105AA000880044000000000000000000000000002A
:105AB00000000000000000000000000000000000E6
:105AC00000000000000000000000000010021002B2
:105AD00010021002FE07FE07080208010801080173
