:020000040800F2
:10000000289B0020010200085D1200087909000801
:1000100059120008250300083324000800000000DE
:10002000000000000000000000000000690100085E
:100030000105000800000000AD010008E5160008F9
:100040001B0200081B0200081B0200081B0200081C
:100050001B0200081B0200081B0200081B0200080C
:100060001B0200081B0200081B0200081B020008FC
:100070001B0200081B0200081B0200081B020008EC
:100080001B0200081B0200081B0200081B020008DC
:100090001B0200081B0200081B0200081B020008CC
:1000A0001B0200081B0200081B0200081B020008BC
:1000B0001B020008FD190008CD1A00081B020008E9
:1000C0001B0200081B0200081B0200081B0200089C
:1000D0001B0200081B0200081B0200082522000862
:1000E0001B0200081B0200081B02000800000000A1
:1000F0000000000000000000000000000000000000
:1001000000000000000000001B0200081B020008A5
:100110001B0200081B0200081B0200081B0200084B
:100120001B0200081B0200081B0200081B0200083B
:100130001B0200081B0200081B0200081B0200082B
:100140001B0200081B0200081B0200081B0200081B
:10015000DFF810D000F0B0F800480047FD3200088A
:10016000AFF30080289B0020224B19680868B0E894
:10017000F00F80F30988BFF36F8F4FF0000080F31A
:1001800011884EF00D0E7047000000000648006810
:10019000006880F3088862B661B6BFF34F8FBFF383
:1001A0006F8F00DF00BF00BF08ED00E0EFF30980B4
:1001B000BFF36F8F0F4B1A6820E9F00F106008B57E
:1001C0004FF0500080F31188BFF34F8FBFF36F8F54
:1001D00004F01EF84FF0000080F31188BDE80840DD
:1001E00019680868B0E8F00F80F30988BFF36F8FD3
:1001F000704700BFA4000020EFF3058070470000A7
:100200000648804706480047FEE7FEE7FEE7FEE7B0
:10021000FEE7FEE7FEE7FEE7FEE7FEE75117000810
:100220005101000840EA01039B0703D009E008C917
:10023000121F08C0042AFAD203E011F8013B00F8AB
:10024000013B521EF9D27047D2B201E000F8012BF7
:10025000491EFBD270470022F6E710B513460A4646
:1002600004461946FFF7F0FF204610BD421C10F867
:10027000011B0029FBD1801A7047034611F8012B9E
:1002800000F8012B002AF9D11846704730B50B460B
:10029000014600202022012409E021FA02F59D42B6
:1002A00005D303FA02F5491B04FA02F52844151E8A
:1002B000A2F10102F1DC30BD064C074D06E0E0681A
:1002C00040F0010394E8070098471034AC42F6D39D
:1002D000FFF742FF58BF000878BF000810B50024A0
:1002E00000F004FA0D490988884204D000F0FEF9B4
:1002F0000A490880012400F0F3F909490988884275
:1003000004D000F0EDF9064908800124012C03D146
:1003100001F0EAFD00F032FB10BD00008E0000206D
:100320008C00002000BFFEE701684FF6FE7211400E
:1003300001600021016041608160C1604B498842D9
:1003400008D14A490839496841F00F01474A083A3B
:1003500051608AE045491431884208D1434908393F
:10036000496841F0F001414A083A51607DE03F4957
:100370002831884208D13D490839496841F4706103
:100380003A4A083A516070E038493C31884208D115
:1003900036490839496841F47041344A083A516095
:1003A00063E032495031884208D130490839496800
:1003B00041F470212D4A083A516056E02B496431CE
:1003C000884208D129490839496841F47001274A0F
:1003D000083A516049E025497831884208D12349DB
:1003E0000839496841F07061204A083A51603CE0A0
:1003F0001F49884206D1011F096841F00F01021F01
:10040000116032E01A491431884208D11849091F95
:10041000096841F0F001164A121F116025E01449E5
:100420002831884208D11249091F096841F47061D6
:100430000F4A121F116018E00D493C31884208D163
:100440000B49091F096841F47041094A121F1160E4
:100450000BE007495031884207D10549091F096857
:1004600041F47021024A121F1160704708000240D7
:100470000804024010B50022026847F6F0739A4360
:100480000C6A8B6823430C6923434C6923438C69B2
:100490002343CC6923434C6A23438C6A23431A4386
:1004A0000260CB6843600B6883604B68C36010BD1B
:1004B000124A126842F0F002104B1A600F4A1C32C6
:1004C00011600E4A243210600C4A1832126842F051
:1004D00001020A4B18331A6000BF084A121F126843
:1004E00002F02002002AF8D0044A1832126822F0E2
:1004F0000102024B18331A607047000004040240E6
:1005000070472DE9F0410246002500260020002317
:100510000024002791F803C00CF00F0591F803C0E8
:100520000CF0100CBCF1000F03D091F802C04CEAA3
:10053000050591F800C0BCF1000F31D0146800200F
:100540002BE04FF0010C0CFA00F3B1F800C00CEAFC
:1005500003069E4220D183004FF00F0C0CFA03F7E4
:10056000BC4305FA03FC4CEA040491F803C0BCF157
:10057000280F06D14FF0010C0CFA00FCC2F814C091
:100580000AE091F803C0BCF1480F05D14FF0010C0F
:100590000CFA00FCC2F810C0401C0828D1D314602B
:1005A000B1F800C0BCF1FF0F34DD546800202EE02C
:1005B00000F1080C4FF0010808FA0CF3B1F800C084
:1005C0000CEA03069E4221D183004FF00F0C0CFA77
:1005D00003F7BC4305FA03FC4CEA040491F803C09A
:1005E000BCF1280F05D100F1080C08FA0CF8C2F88C
:1005F000148091F803C0BCF1480F07D100F1080C3A
:100600004FF0010808FA0CF8C2F81080401C0828C6
:10061000CED35460BDE8F081F0B50A460023002433
:100620000021002500F00046B6F1004F02D11D4E1A
:10063000F16901E01B4E7168C0F3034583B200F419
:100640004016B6F5401F08D121F07061154E76684E
:1006500026F07066134F7E6012E000F48016B6F547
:10066000801F06D1032606FA05F4A14341F070610C
:1006700006E0460D360103FA06F6B14341F070611B
:1006800022B1460D360103FA06F6314300F000466A
:10069000B6F1004F02D1034EF16101E0014E7160ED
:1006A000F0BD0000000001400246002093680B40AE
:1006B0000BB1012000E00020704702460020D36803
:1006C0000B400BB1012000E00020704741617047F2
:1006D000016170470AB1016100E0416170470000AB
:1006E00001488088704700002C01002001484088A4
:1006F000704700002C01002010B502F03BFA00F01A
:100700004DF802F0C1F802F033FC02F093FC00F067
:1007100069FB02F0E7FA02F0CFFD01F0EDFF02F015
:100720005FF910BD10B5002432E004EB44001A4913
:1007300001EB8000806848B304EB440011F820000E
:10074000022823D104EB440001EB80004088401CC8
:1007500004EB4401104A02EB8101488004EB4400A1
:10076000114601EB8000408804EB440102EB81015B
:10077000898888420ADB012004EB440102F8210049
:1007800004EB440102EB810188688047601CC4B21D
:10079000022CCADB10BD00001401002000B587B098
:1007A00000220A21084603F0A8FD6A4908600022D9
:1007B00004210A2003F0A1FD6749086001210420FB
:1007C00000F0C0FD0121082000F0BCFD0121102037
:1007D00000F0B8FD0121202000F0B4FD01218803C4
:1007E00000F0B0FD0121880400F08CFD0121080516
:1007F00000F088FD4FF40070ADF8180018208DF857
:100800001B0003208DF81A0006A95448FFF779FE53
:100810004FF48060ADF8180004208DF81B00032011
:100820008DF81A0006A94D48FFF76BFE4FF4805073
:10083000ADF8180018208DF81B0003208DF81A0061
:1008400006A94748FFF75DFE0420ADF818008DF8B3
:100850001B0003208DF81A0006A94248FFF751FE3D
:100860004FF48060ADF8180018208DF81B000320AD
:100870008DF81A0006A93C48FFF743FE4FF40060CC
:10088000ADF8180004208DF81B0003208DF81A0025
:1008900006A93548FFF735FE4FF4E13002900020FD
:1008A000ADF80C00ADF80E00ADF81000ADF8140076
:1008B0000C20ADF8120002A92C4801F049FD02A954
:1008C0002B4801F045FD02A92A4801F041FD2520F1
:1008D0008DF8040007208DF8050003208DF8060030
:1008E00001208DF8070001A800F0BAFC27208DF840
:1008F000040005208DF8050003208DF80600012076
:100900008DF8070001A800F0ABFC35208DF804003D
:1009100005208DF8050006208DF8060001208DF8D1
:10092000070001A800F09CFC012240F2255110486C
:1009300001F0E9FC012240F225510E4801F0E3FCF0
:1009400001210A4801F0A9FC0121094801F0A5FC98
:1009500007B000BD00000020040000200008014096
:100960000010014000140140000C0140003801401B
:10097000004800400050004000BFFEE710B586B0C0
:1009800000242A480088632810DD28480088B0F534
:100990007A7F0BDA25480088642190FBF1F0303033
:1009A000C2B22046611CCCB204A90A541F48008878
:1009B000642190FBF1F201FB12000A2190FBF1F09F
:1009C0003030C2B22046611CCCB204A90A542E2297
:1009D0002046611CCCB204A90A54144800880A219C
:1009E00090FBF1F201FB12003030C2B22046611CD4
:1009F000CCB204A90A5425222046611CCCB204A919
:100A00000A5400222046611CCCB204A90A540020DA
:100A10001821CDE900014FF6FF7304AA03210290CB
:100A2000872000F0ABFB06B010BD00008C0000205A
:100A30001FB504460A2094FBF0F03030C0B28DF8A8
:100A40000C000A2094FBF0F100FB11403030C0B2E2
:100A50008DF80D0000208DF80E001821CDE9000161
:100A60004FF6FF737EA22821029000F087FB14202E
:100A700002F04CF9102C15D2DFE804F0CB8A97A4D1
:100A8000B17D562F08704922BE633C150020182105
:100A9000CDE900014FF6FF7373A2282102903220A6
:100AA00000F06CFBC2E000201821CDE900014FF6F8
:100AB000FF736FA228210290322000F05FFBB5E0A7
:100AC00000201821CDE900014FF6FF736AA228210A
:100AD0000290322000F052FBA8E000201821CDE95E
:100AE00000014FF6FF7366A228210290322000F029
:100AF00045FB9BE000201821CDE900014FF6FF7374
:100B000061A228210290322000F038FB8EE0002004
:100B10001821CDE900014FF6FF735DA22821029054
:100B2000322000F02BFB81E000201821CDE90001EC
:100B30004FF6FF7358A228210290322000F01EFBCE
:100B400074E000201821CDE900014FF6FF7354A294
:100B500028210290322000F011FB67E000201821CC
:100B6000CDE900014FF6FF734FA2282102903220F9
:100B700000F004FB5AE000201821CDE900014FF6F7
:100B8000FF734BA228210290322000F0F7FA4DE0CB
:100B900000201821CDE900014FF6FF7346A228215D
:100BA0000290322000F0EAFA40E000201821CDE95E
:100BB00000014FF6FF7342A228210290322000F07C
:100BC000DDFA33E000201821CDE900014FF6FF7374
:100BD0003DA228210290322000F0D0FA26E0002029
:100BE0001821CDE900014FF6FF7339A228210290A8
:100BF000322000F0C3FA19E000201821CDE90001ED
:100C00004FF6FF7334A228210290322000F0B6FA8A
:100C10000CE000201821CDE900014FF6FF732FA250
:100C200028210290322000F0A9FA00BF00BF002066
:100C30001821CDE900014FF6FF732AA22821029066
:100C4000782000F09BFA00201821CDE900014FF632
:100C5000FF7303AA28210290C82000F08FFA1FBD5D
:100C60004B45593A000000004B4559300000000048
:100C70004B455931000000004B455932000000003F
:100C80004B455933000000004B455934000000002B
:100C90004B455935000000004B4559360000000017
:100CA0004B455937000000004B4559380000000003
:100CB0004B455939000000004449534100000000F1
:100CC000484F4D45000000004157415900000000C9
:100CD0004441494C00000000534F53004D454E55D0
:100CE000000000004B45594442433A0008B5002239
:100CF0000221084603F001FB0A49086000BF01F029
:100D000091FE0A2269460748006803F03DFCC4B220
:100D10001CB19DF80000FFF78BFE0A2003F0F8F8E5
:100D2000EDE70000840000202DE9F04104460D4667
:100D300016461F462A2000F055FAA11C88B200F082
:100D40003EFAB11C88B200F03AFA2B2000F04AFAC1
:100D5000691C88B200F033FA791C88B200F02FFACF
:100D60002C2000F03FFABDE8F08170B504460D4636
:100D700016462B46224629462046FFF7D5FF304629
:100D800000F01DFA70BD00002DE9F04781460F46C6
:100D900015461E46DDF82080701E83B2681E82B2A2
:100DA00039464846FFF7C0FF00240AE04FEA2822F0
:100DB0002046611C8CB20A490A5401F80480601C68
:100DC00084B2AC42F2DB3C4605E029460448FFF71A
:100DD0006FFB601C84B2B4EB460FF6DBBDE8F08716
:100DE000A494002010B542F2107002F01DF902F038
:100DF000A3F842F2107002F017F902F093F86420A1
:100E000002F012F9112000F0EDF942F2107002F038
:100E10000BF9362000F0E6F9A02000F0DDF93A20C9
:100E200000F0E0F9052000F0D7F9B22000F0DAF97F
:100E30000C2000F0D1F90C2000F0CEF9002000F0D9
:100E4000CBF9332000F0C8F9332000F0C5F9B72002
:100E500000F0C8F9352000F0BFF9BB2000F0C2F95E
:100E6000352000F0B9F9C02000F0BCF92C2000F0CA
:100E7000B3F9C22000F0B6F9012000F0ADF9C320AB
:100E800000F0B0F9132000F0A7F9C42000F0AAF98F
:100E9000202000F0A1F9C62000F0A4F90F2000F0F6
:100EA0009BF9CA2000F09EF90F2000F095F9C820A8
:100EB00000F098F9082000F08FF9552000F092F921
:100EC000902000F089F9D02000F08CF9A42000F0E7
:100ED00083F9A12000F080F9E02000F083F9D02010
:100EE00000F07AF9002000F077F9062000F074F99C
:100EF000092000F071F90B2000F06EF92A2000F0B3
:100F00006BF93C2000F068F9552000F065F94B20A2
:100F100000F062F9082000F05FF9162000F05CF99B
:100F2000142000F059F9192000F056F9202000F0A3
:100F300053F9E12000F056F9D02000F04DF90020DF
:100F400000F04AF9062000F047F9092000F044F9C2
:100F50000B2000F041F9292000F03EF9362000F086
:100F60003BF9542000F038F94B2000F035F90D2002
:100F700000F032F9162000F02FF9142000F02CF9BF
:100F8000212000F029F9202000F026F9292000F086
:100F900029F901F013FE10BD2DE9FF5F80468A4656
:100FA00017469B460F9D00200290CDF800802846F2
:100FB00005EBD071C1F347042046E21704EB5272EF
:100FC000D2102146E31704EB5373DB10A4EBC303E9
:100FD0000BB1012300E000231A446A4392B201924C
:100FE000A7F12000C7B20AEB0500401E83B208EB50
:100FF0000400401E82B251464046FFF795FE00268F
:1010000073E00C2D07D107EB47003A4901EB800054
:10101000805D039025E0102D05D1374800EB0710C7
:10102000805D03901DE0182D07D107EB4700334981
:1010300001EB0010805D039013E0202D05D13048B6
:1010400000EB8710805D03900BE0302D07D107EB9C
:10105000C7002C4901EB0010805D039001E0BDE862
:10106000FF9F4FF000093AE01098C8B9012000FA3C
:1010700009F00399084018B1584600F0A0F802E0C2
:101080000E9800F09CF80298401CC0B202900298A2
:1010900090FBF4F104FB1100E8B90020029021E07C
:1010A000012000FA09F00399084020B15A46514640
:1010B0004046FFF75AFE08F101001FFA80F8009839
:1010C000A8EB0000A04206D1DDF800800AF1010083
:1010D0001FFA80FA06E009F1010000F0FF09B9F1FA
:1010E000080FC1DB00BF701C86B20198864288DB06
:1010F00000BFB4E7744C0008E8500008D856000858
:10110000A8680008688000082DE9F84F06460F46D9
:1011100090469946DDF82CB08020009007F11F0022
:1011200083B206F11F0082B239463046FFF7FCFD5C
:1011300000251BE0104800EBC81010F805A00024A3
:1011400010E0BBF1000F0BD18020204100EA0A0023
:1011500018B1484600F033F802E00A9800F02FF882
:10116000601CC4B2082CECDB681C85B20098854278
:10117000E0DBBDE8F88F0000D8B500082DE9FE4F90
:1011800006460F4614469846DDE90D5ADDF83090C4
:1011900010E0CDE9015ACDF8009022784346394657
:1011A0003046FFF7F9FE284605EBD07106EB6101EA
:1011B0008EB2641C20780028EBD1BDE8FE8F18B5F4
:1011C000044620128DF80000E0B28DF801000221E3
:1011D0006846FFF76DF918BD10B50446204600F0CB
:1011E00011F810BD10B5044610210548FFF76EFA3E
:1011F000204600F007F810210148FFF769FA10BDFA
:10120000000C014001B540210348FFF75FFA0121BE
:101210006846FFF74DF908BD000C0140002418E0B6
:1012200001F00CFB012803D003F036FB09490860EC
:101230004FF4FA610748006802F05CFD04462CB1E7
:1012400003F02AFB0349086001F098FCC82002F073
:101250005FFEE5E78000002000BFFEE7704700006A
:1012600070B5002100230F22C47804B3154C246804
:1012700004F4E064C4F5E064210AC1F10403CA4047
:10128000447804FA03F184781440214309010E4C98
:101290000678A155047804F01F050124AC400578B8
:1012A0006D11AD0005F1E025C5F8004109E00478B5
:1012B00004F01F050124AC40044D0678761145F872
:1012C000264070BD0CED00E000E400E080E100E0AD
:1012D00002490143024A1160704700000000FA050C
:1012E0000CED00E029B1064A52690243044B5A61F1
:1012F00004E0034A52698243014B5A61704700007F
:101300000010024029B1064AD2690243044BDA6157
:1013100004E0034AD2698243014BDA61704700005E
:101320000010024029B1064A12690243044B1A61B7
:1013300004E0034A12698243014B1A6170470000BE
:101340000010024029B1064A92690243044B9A6197
:1013500004E0034A92698243014B9A61704700009E
:101360000010024029B1064AD2680243044BDA60F9
:1013700004E0034AD2688243014BDA607047000000
:10138000001002402DE9F041002100220025002339
:101390000026002400278C46DFF86081D8F80480FE
:1013A00008F00C0121B1042907D0082959D109E01E
:1013B000DFF84C81C0F8008058E0DFF84881C0F8C1
:1013C000008053E0DFF83481D8F8048008F470120C
:1013D000DFF82881D8F8048008F48035920C0D2AB3
:1013E00001D0921C00E0062235B9DFF81C8102FB17
:1013F00008F8C0F8008033E0DFF80081D8F82C80CE
:1014000008F48036DFF8F480D8F82C8008F00F0854
:1014100008F1010446B9DFF8EC80B8FBF4F808FBEA
:1014200002F8C0F800801BE0DFF8D080D8F82C80EC
:10143000C8F3031808F10107DFF8C080D8F82C8042
:10144000C8F3032808F1020CDFF8B880B8FBF7F8FE
:1014500008FB0CF8B8FBF4F808FB02F8C0F80080B1
:1014600004E0DFF89C80C0F8008000BF00BFDFF818
:101470008C80D8F8048008F0F0010909DFF88C802E
:1014800018F80130D0F8008028FA03F8C0F804807A
:10149000DFF86880D8F8048008F4E061090ADFF812
:1014A0006C8018F80130D0F8048028FA03F8C0F8EE
:1014B0000880DFF84880D8F8048008F46051C90A31
:1014C000DFF8488018F80130D0F8048028FA03F8D3
:1014D000C0F80C80DFF82480D8F8048008F440417C
:1014E000890BDFF82C8018F80130D0F80C80B8FB9D
:1014F000F3F8C0F81080BDE8F08100000010024051
:1015000000127A0040787D0100093D009000002023
:10151000A000002021B1028842F04002028004E0D5
:1015200002884FF6BF731A40028070471AB1838851
:101530000B43838002E083888B438380704710B520
:101540000022028802F441520B884C8823438C8885
:101550002343CC8823430C8923434C8923438C8920
:101560002343CC8923431A430280838B4FF2FF74B9
:10157000234083830B8A038210BD10B500F002F86C
:1015800010BD00000CB50020019000903F4800689D
:1015900040F480303D49086000BF3C48006800F4DA
:1015A000003000900198401C0190009818B90198F3
:1015B000B0F5A06FF1D13548006800F4003010B1EB
:1015C0000120009001E000200090009801285CD1EB
:1015D0002F48006840F010002D4908600846006858
:1015E00020F0030008600846006840F00200086030
:1015F00026484068254948600846406848600846D3
:10160000406840F4806048600846C06A214908404C
:101610001E49C8620846C06A1F4908431B49C86280
:101620000846006840F08060086000BF1748006806
:1016300000F000600028F9D01448406820F47C10C5
:10164000124948600846406840F4E810486008467F
:10165000006840F08070086000BF0C48006800F02F
:1016600000700028F9D00948406820F003000749BD
:1016700048600846406840F00200486000BF0348E8
:10168000406800F00C000828F9D10CBD00100240A1
:101690000020024000F0FEFF44060100032006493E
:1016A0000870002088600873487308460021C0F85D
:1016B0000E108174704700002C010020042808D10E
:1016C0004FF0E021096941F004014FF0E02211617F
:1016D00007E04FF0E021096921F004014FF0E0221A
:1016E0001161704710B503F0C7F8012801D002F06E
:1016F000D9FD10BD70B505460420FFF7DFFF104887
:1017000000681049B0FBF1F00F4908700C48006800
:101710000C49B0FBF1F44FF47A70444301200B49BB
:1017200008804FF0E020006940F002004FF0E02117
:10173000086108464461006940F00100086170BD1D
:101740006C00002040420F00FC000020FE00002042
:1017500010B51648006840F00100144908600846BA
:10176000406813490840114948600846006811491B
:1017700008400E4908600846006820F48020086090
:101780000846406820F4FE0048600846006820F0E3
:10179000A05008604FF47F0088600020C862FFF707
:1017A000ECFE4FF000600449086010BD00100240DC
:1017B0000000FFF0FFFFF6FE08ED00E0F0B50C467C
:1017C000154600220021068C4FF6FE773E40068427
:1017D000028B018C4FF60C7632407E1C06EA031613
:1017E0002E433243104EB0420ED0104EB0420BD0BA
:1017F000B0F1804F08D00E4EB04205D00D4EB04231
:1018000002D00D4EB04206D14FF6FD76314044F085
:101810000106314305E04FF6F576314044F001060C
:10182000314302830184F0BD002C014000340140AB
:101830000004004000080040000C0040F0B50C46D9
:101840001546002200210026078C4FF6EF7C07EAA0
:101850000C070784028B018C4FF6FF7707EA04160A
:1018600040F6FF473A404FF6FF7707EA03373A431F
:101870004FF6FF7707EA05273A43114FB8420ED0DB
:10188000104FB8420BD0B0F1804F08D00E4FB84285
:1018900005D00E4FB84202D00D4FB84206D14FF6D8
:1018A000DF77394046F01007394305E04FF65F77A0
:1018B000394044F01007394302830184F0BD000031
:1018C000002C0140003401400004004000080040AA
:1018D000000C0040F0B50C46154600220021002601
:1018E000078C4FF6FF6C07EA0C070784828B018C8C
:1018F0004FF6FF7707EA04264FF60C773A404FF68B
:10190000FF7707EA03172F433A43114FB8420ED02F
:10191000104FB8420BD0B0F1804F08D00E4FB842F4
:1019200005D00E4FB84202D00D4FB84206D14FF647
:10193000FF57394046F48077394305E04FF2FF57AF
:10194000394044F48077394382830184F0BD00003C
:10195000002C014000340140000400400008004019
:10196000000C0040F0B50C46154600220021002670
:10197000078C4EF6FF7C07EA0C070784828B018CEC
:101980004FF6FF7707EA043640F6FF473A404FF636
:10199000FF7707EA05273A434FF6FF7707EA033751
:1019A0003A43114FB8420ED0104FB8420BD0B0F1AD
:1019B000804F08D00E4FB84205D00E4FB84202D02B
:1019C0000D4FB84206D14DF6FF77394046F48057A7
:1019D000394305E047F6FF57394044F4805739430F
:1019E00082830184F0BD0000002C014000340140DE
:1019F0000004004000080040000C004010B5012128
:101A0000304800F076F904212E4800F072F90028E1
:101A100052D02C4800F06AF92B498860084680684B
:101A2000B42808D2084680688C2804D9002008739E
:101A30000420087031E0244880683C2803D92248FB
:101A400080685A2824D320488068872820D21E48DE
:101A5000806864281CD91C4A107BC21700EB5272A4
:101A6000D310194A0E32D25C174B197BCB1701EBFE
:101A70005373DB10A1EBC304802323411A43124BA1
:101A8000187BC31700EB5373DC100F4B0E331A5542
:101A90000D48007B401C0C4908730B48007B28282C
:101AA00006D10021074800F021F8012006494873BB
:101AB0000021044800F08DF90521024800F013F8D8
:101AC00010BD0000000400402C01002010B5FEF7FE
:101AD00029FE0121014800F003F810BD0008004074
:101AE000CA4302827047CA430282704721B102880A
:101AF00042F00102028004E002884FF6FE731A40B1
:101B00000280704710B504466848844208D101211C
:101B1000C014FFF727FC0021E014FFF723FCC4E00A
:101B2000B4F1804F08D101210846FFF7FBFB0021EB
:101B30000120FFF7F7FBB8E05D48844208D101219E
:101B40000220FFF7EFFB00210220FFF7EBFBACE0E8
:101B50005848844208D101210420FFF7E3FB00210B
:101B60000420FFF7DFFBA0E05348844208D10121A5
:101B70000820FFF7D7FB00210820FFF7D3FB94E0F4
:101B80004E48844208D101211020FFF7CBFB0021F1
:101B90001020FFF7C7FB88E04948844208D10121A3
:101BA0002020FFF7BFFB00212020FFF7BBFB7CE0DC
:101BB0004448844208D101214014FFF7D3FB00219F
:101BC0006014FFF7CFFB70E03F48844209D1012148
:101BD000C804FFF7C7FB00214FF40020FFF7C2FB4A
:101BE00063E03A48844209D101210805FFF7BAFBB6
:101BF00000214FF48010FFF7B5FB56E034488442D3
:101C000009D101214805FFF7ADFB00214FF4001079
:101C1000FFF7A8FB49E02F48844208D1012140206A
:101C2000FFF780FB00214020FFF77CFB3DE02A48C6
:101C3000844208D101218020FFF774FB002180201D
:101C4000FFF770FB31E02548844208D1012180155F
:101C5000FFF768FB0021A015FFF764FB25E0204893
:101C6000844209D101210804FFF77CFB00214FF4D5
:101C70008030FFF777FB18E01A48844209D1012130
:101C80004804FFF76FFB00214FF40030FFF76AFBB9
:101C90000BE01548844208D101218804FFF762FB5C
:101CA00000214FF48020FFF75DFB10BD002C0140A8
:101CB0000004004000080040000C004000100040FC
:101CC0000014004000340140004C0140005001402D
:101CD0000054014000180040001C0040002000405B
:101CE0000040014000440140004801400146088F87
:101CF000704730B50246002000230024158A05EA0B
:101D00000103958905EA010413B10CB1012000E03B
:101D1000002030BD70B505460C46244885420ED0E3
:101D2000234885420BD0B5F1804F08D02148854229
:101D300005D02148854202D02048854200D100E0EC
:101D400000BF208850B92389A28861882846FFF700
:101D500035FDE188284600F03EF825E0208804287B
:101D60000AD12389A28861882846FFF767FDE188A8
:101D7000284600F039F817E0208808280AD123897E
:101D8000A28861882846FFF7A5FDE188284600F073
:101D900038F809E02389A28861882846FFF7E2FD28
:101DA000E188284600F036F870BD0000002C0140A4
:101DB000003401400004004000080040000C0040D6
:101DC0001AB183890B43838102E083898B4383812A
:101DD000704781847047028B4FF6F3731A40028379
:101DE000028B0A4302837047028B4FF2FF331A4083
:101DF0000283028B4FF6FF7303EA01231A43028327
:101E00007047828B4FF6F3731A408283828B0A43AA
:101E100082837047828B4FF2FF331A408283828B1A
:101E20004FF6FF7303EA01231A43828370470000D1
:101E3000002202881D4B98420ED01D4B98420BD0B9
:101E4000B0F1804F08D01B4B984205D01A4B9842F6
:101E500002D01A4B984204D14FF68F731A404B8828
:101E60001A43174B984207D0164B984204D04FF6AE
:101E7000FF431A40CB881A4302808B8883850B88E6
:101E800003850A4B98420BD0094B984208D00E4B61
:101E9000984205D00D4B984202D00D4B984201D18B
:101EA0000B7A03860123838270470000002C0140D7
:101EB000003401400004004000080040000C0040D5
:101EC0000010004000140040004001400044014068
:101ED0000048014000BF00F051FCFEF7FFF964200C
:101EE00002F016F8F7E7000010B586B000242A4883
:101EF0000088632810DD28480088B0F57A7F0BDA67
:101F000025480088642190FBF1F03030C2B22046B1
:101F1000611CCCB204A90A541F480088642190FBBC
:101F2000F1F201FB12000A2190FBF1F03030C2B255
:101F30002046611CCCB204A90A542E222046611C02
:101F4000CCB204A90A54144800880A2190FBF1F28B
:101F500001FB12003030C2B22046611CCCB204A991
:101F60000A5421222046611CCCB204A90A54002242
:101F70002046611CCCB204A90A5400201821CDE9E6
:101F800000014FF6FF7304AA032102904620FFF7D9
:101F9000F5F806B010BD00008E000020ADF5016D13
:101FA000002500BF48A00068039000BF01204749FA
:101FB000487002208870032008700022032101204D
:101FC00002F09BF90746012002F086F9064679E007
:101FD00047F230513E48006801F08CFE0546002D66
:101FE00013D002F059FC3A49086004A801F0F8FF48
:101FF00038A000F021FA44A000F01EFA04A94EA077
:1020000000F01AFA4DA000F017FA4FF0FF313046F9
:1020100002F03CFB00282BD054480068002821D156
:102020000120524908600023821E03A9504800681D
:1020300002F0C0F9B0B14FF0FF3202A94C4800687D
:1020400002F0A2FA70B14BA000F0F6F9002407E00C
:1020500002A8025D21464DA000F0EEF9601CC4B25A
:10206000042CF5DB00231A461946304602F0A2F98B
:102070004B480068002822D101204949086000230C
:10208000821E1249384602F095F9C0B14FF0FF3276
:1020900001A9384602F078FA88B142A000F0CCF9E4
:1020A0009DF8051046A000F0C7F99DF8061049A05C
:1020B00000F0C2F99DF804104BA000F0BDF96420B7
:1020C00001F026FF84E7000041544F4B000100203F
:1020D000040100202D2D2D2D2D2D2D2D2D2D2D2DBF
:1020E0002D2D2D2D2D2D2D2DC8CECEF12D2D2D2D7F
:1020F0002D2D2D2D2D2D2D2D2D2D2D2D2D2D2D2D10
:102100002D2D2D2D0D0A0000C3FBB3C6202020204D
:1021100020202020202020D7B4CCAC202020D3C5E4
:10212000CFC8BCB6202020CAA3D3E0D5BB2020D086
:10213000F2BAC50D0A0000002573000042A3BAD709
:10214000E8C8FB202052A3BABECDD0F7202044A37C
:10215000BAC9BEB3FD202053A3BAD4DDCDA320203D
:1021600058A3BAD4CBD0D0200D0A0000080100201B
:1021700004000020B6D3C1D0B4ABC8EBCAFDD7E988
:10218000B5C4D3A6D3C3A3BA200D0A0052585F42E8
:102190007566665B25645D3A25630D0A00000000E4
:1021A0000C010020B6D3C1D0B4ABC8EBBDE1B9B9C6
:1021B000CCE5B5C4D3A6D3C3A3BA200D0A00000052
:1021C000546573745F52782E4242413A25640D0A79
:1021D00000000000546573745F52782E4343443A04
:1021E00025640D0A00000000546573745F52782E58
:1021F0005245543A25640D0A0000000000F007F82B
:1022000001F0D8FC00BF642001F082FEFBE708B5B6
:102210000020F0234FF4A07201460090FEF7B4FDB9
:1022200008BD00001CB50020019040F22551104867
:1022300000F03FF880B10E4800F0F6F8C0B2009010
:10224000002301AA69460B48006802F04FF940F2EA
:102250002551074800F012F8019838B14FF080502E
:1022600005490860BFF34F8FBFF36F8F1CBD00009F
:10227000004800400000002004ED00E010B50022FE
:10228000002340F66A14A14200D100BF0A120124C3
:102290009440A3B2DC43048010BD21B1828942F492
:1022A0000052828104E082894DF6FF731A408281D8
:1022B000704770B50246002400230025002040F638
:1022C0006A16B14200D100BFC1F3421501F01F03ED
:1022D000012606FA03F3012D02D19689334006E068
:1022E000022D02D1168A334001E0968A33400C1247
:1022F000012606FA04F41688344013B10CB101200B
:1023000000E0002070BDF0B5034600240026002543
:10231000002040F66A17B94200D100BF1846C1F349
:10232000421401F01F06012707FA06F5012C01D11E
:102330000C3004E0022C01D1103000E014301AB14E
:1023400007682F43076002E00768AF430760F0BDEE
:102350002DE9F04786B005460E460024A24600BF90
:10236000A1460027B08900B100BF2F462C8A4CF649
:10237000FF700440F08804432C82AC894EF6F310C1
:102380000440B08831890843718908430443AC8113
:10239000AC8A4FF6FF400440B0890443AC8201A8E8
:1023A000FEF7F0FF1F48874202D1DDF810A001E0E0
:1023B000DDF80CA0A88900F4004040B10AEBCA0087
:1023C00000EB0A1031684900B0FBF1F807E00AEBB6
:1023D000CA0000EB0A1031688900B0FBF1F86420F4
:1023E000B8FBF0F004012009642101FB1089A889E1
:1023F00000F4004040B1322000EBC900B0FBF1F026
:1024000000F00700044308E0322000EB09106421CB
:10241000B0FBF1F000F00F0004432C8106B0BDE8E2
:10242000F08700000038014001468888C0F30800AA
:10243000704700BFFEE700000FB4054B10B503A9BD
:10244000044A029800F02CF810BC5DF814FB000060
:10245000E1260008100100200FB4084B10B504A9B4
:1024600002AA039800F01CF8044602A9002000F01C
:10247000F3F8204610BC5DF814FB00005926000854
:1024800002E008C8121F08C1002AFAD1704770473D
:10249000002001E001C1121F002AFBD1704700009B
:1024A0002DE9FF4F8BB09A460F460546002606E001
:1024B00025280BD052460D9990476D1C761C287824
:1024C0000028F5D10FB03046BDE8F08F0024A046BB
:1024D0000122604900E0044315F8013F203B02FA65
:1024E00003F00842F7D128782E2817D115F8010FEC
:1024F00044F004042A280ED06FF02F022878A0F1AF
:10250000300109290AD808EB880102EB410100EBF0
:1025100001086D1CF2E757F8048B6D1C28786928B8
:102520003ED006DC0028CDD063280BD0642804D12F
:1025300036E0732810D075284BD052460D9990473D
:10254000761C85E017F8040B8DF8000000208DF84C
:102550000100E946012003E057F8049B4FF0FF30EB
:1025600061074FF0000401D40AE0641C44450DDA11
:102570008442FADB19F804100029F6D106E0641C45
:102580008442FCDB19F804100029F8D1264404E049
:1025900019F8010B52460D999047641EF8D257E086
:1025A00001CF4FF00A0B002802DA40422D2102E051
:1025B000210504D52B218DF82410012103E0E1072A
:1025C00005D02021F7E70DF1200908910CE000214A
:1025D000F9E701CF4FF00A0BF9E75946FDF756FE30
:1025E00001F1300209F8012D0028F6D1ADEB090008
:1025F00000F1200B600701D44FF00108D84502DD3F
:10260000A8EB0B0000E000208046002406E009A8AB
:102610005246005D0D999047641C761C08988442D0
:10262000F5DB04E0302052460D999047761CB8F156
:102630000001A8F10108F5DC05E019F8010B52468C
:102640000D999047761CBBF10001ABF1010BF4DC56
:102650006D1C34E7092801000A68531C0B601070D8
:10266000704700204FF4E15000BF011EA0F10100AF
:10267000FBD170472DE9F041064637461348006804
:10268000874201D100241EE001F0E8FB7D6901F0E2
:10269000F7FB0F480068854203D00E48006885426A
:1026A00001D102240FE00C48854205D1B86A08B96F
:1026B000032408E0022406E00848854200D00DB952
:1026C000042400E001242046BDE8F081A40000209D
:1026D000A8000020AC000020900400207C04002012
:1026E0000A46044900BF0B8803F08003002BFAD090
:1026F000888070470038014010B5002004494880A8
:102700008880087047214FF6FF7000F03BFD10BD38
:102710002C01002070B500EB40040B4D05F824306F
:10272000002400EB4005084E06EB85056C8000EBAD
:102730004004354605EB8404A28000EB400405EB21
:102740008404A16070BD00001401002010B5202198
:102750000148FDF7BBFF10BD0008014010B5022184
:102760000148FDF7A1FF10BD000C014010B510217C
:102770000148FDF7ADFF10BD0010014070B52B48BA
:102780000068401C29490860084600681E2804D9D2
:10279000002008600120264908702548007830B1E3
:1027A000012805D0032809D004283CD112E03AE0E2
:1027B000FEF774FF012000F03BFA34E080211D4851
:1027C000FDF786FF01211C48FFF790F9002000F07B
:1027D0002FFA28E01648407B20B3002014490870E7
:1027E00048730846857B012406E011480E30005DE1
:1027F0002844C5B2601CC4B2042CF6DB0C48807CB3
:10280000A8420ED10A48C07B0949897B00EB012010
:10281000074988800846417C007C01EB0020044980
:102820004880002500BF00BF70BD00003C000020B4
:102830002C010020000801400004004010B5FFF703
:102840008DFF0446FFF70DFF0D480078844203D149
:1028500000200C49087010E00948007884420CD030
:1028600008480078401C074908700846007814287A
:1028700003DD00200870024804700148007810BD94
:10288000080000200900002008B501210420FEF7FF
:1028900059FD01210820FEF755FD01211020FEF70A
:1028A00051FD1020ADF8000002208DF8020010202C
:1028B0008DF8030069461148FDF723FE2020ADF88E
:1028C000000002208DF8020010208DF803006946F8
:1028D0000B48FDF716FE0220ADF8000004208DF82D
:1028E000030069460748FDF70CFEFFF737FF06496E
:1028F0000870FFF73BFFFFF729FF08BD00100140FC
:1029000000080140000C01400800002070B50024C0
:1029100000250AE06006040E2F4951F82500804783
:1029200008B144F00104681CC5B2052DF2DB112C7E
:102930004AD2DFE804F049090D1115191D21252996
:102940002D3135393D41450001202449087040E0D2
:102950000120224948703CE001202049887038E07D
:1029600001201E49C87034E001201C49087130E084
:1029700001201A4948712CE001201849887128E08B
:1029800001201649C87124E001201449087220E092
:102990000120124948721CE001201049887218E099
:1029A00001200E49C87214E001200C49087310E0A0
:1029B00001200A4948730CE001200849887308E0A7
:1029C00001200649C87304E010210448FDF743FCC8
:1029D00000BF00BF70BD000040000020B00100201B
:1029E00010B500F07FFA002410E0002009490855D6
:1029F0000320094921F81400C820084921F81400CF
:102A00009620074921F81400601CC4B2102CECDB9E
:102A100010BD000040010020500100207001002086
:102A20009001002038B5FFF771FF002477E0FF2008
:102A300000903C48005D052863D2DFE800F0030AFF
:102A400026425B003848005D10B101203549085529
:102A500057E03548005D80B1344830F81400401E1E
:102A600080B2324921F8140070B9032021F8140013
:102A700002202C490855009406E003202B4921F838
:102A800014000020274908553BE02748005D80B12D
:102A9000274830F81400401E80B2254921F8140060
:102AA00070B9C82021F8140003201E49085500946D
:102AB00006E0C8201E4921F81400042019490855D1
:102AC0001FE01948005D40B90420164908559620BA
:102AD000184921F8140000940BE0164830F814004F
:102AE000401E80B2134921F8140010B9962021F835
:102AF000140006E00C48005D10B900200949085593
:102B000000BF00BF9DF80000FF2806D000230A2266
:102B100069460948006801F04DFC601CC4B2102CE5
:102B200085DB38BD40010020B001002050010020AD
:102B300070010020900100208400002008B50121D0
:102B40001020FEF7FFFB4FF44040ADF800000220DC
:102B50008DF8020010208DF8030069460448FDF747
:102B6000D0FC4FF480410248FDF7B0FD08BD0000E5
:102B70000010014010B5FFF7E1FF10BD10B54FF494
:102B800080410D48FDF799FDC0F10100C4B2224615
:102B90004FF480410848FDF79DFD4FF40041064881
:102BA000FDF78BFDC0F10100C4B222464FF4004195
:102BB0000148FDF78FFD10BD0010014010B54FF426
:102BC00080610248FDF784FD10BD00000010014047
:102BD00010B5024602EB4200094B03EB800080680F
:102BE00058B102EB420003F82010002002EB420330
:102BF000034C04EB8303588010BD0120FCE7000068
:102C00001401002008B50120ADF8000002208DF865
:102C1000020010208DF8030069460448FDF771FC9E
:102C200001210248FDF754FD08BD000000080140E5
:102C300038B5044601210420FEF784FB012C11D194
:102C40008020ADF8000002208DF8020010208DF8E1
:102C5000030069460948FDF754FC80210748FDF749
:102C600035FD09E08020ADF8000048208DF8030014
:102C700069460248FDF745FC38BD000000080140E8
:102C800008B501211020FEF75DFB01210420FEF7AD
:102C900059FB01210846FEF755FB0620ADF8000060
:102CA00003208DF8020010208DF8030069460C48BF
:102CB000FDF727FC0820ADF8000003208DF8020086
:102CC00004208DF8030069460548FDF71AFC04212D
:102CD0000348FDF7FDFC02210148FDF7F9FC08BDA2
:102CE0000010014010B5FFF7CBFFFFF78BFF00206E
:102CF0000349087003490870FF200349087010BD9C
:102D000032000020330000203400002010B50446BB
:102D10001348007800BB02231A4612490120FFF72E
:102D2000F9FC00F02DF801210F48FDF7D1FC02213C
:102D30000E48FDF7CBFC04210C48FDF7C7FC0C48FE
:102D400004700020064908700A4800880A49088073
:102D5000FF200A49087001E00848047010BD000017
:102D600032000020812D00080008014000100140C1
:102D7000330000200A00002036000020340000202C
:102D800010B539480088401E374908800846008839
:102D9000002863D135480078401C34490870344815
:102DA000097830F8110030490880304800783149FE
:102DB0000870087800EBD0714910A0EB410119B9F7
:102DC00001202C49087002E000202A490870294897
:102DD000007810B1012825D11AE024480078012894
:102DE00003D1254800782549087002212448FDF7C1
:102DF0006DFC2248007800F0010020B10421204839
:102E0000FDF766FC03E004211D48FDF75FFC09E0C7
:102E100002211B48FDF75CFC184800784010174958
:102E2000087000BF00BF11480078112816D1042196
:102E30001348FDF74DFC02211148FDF749FC002025
:102E40000A4908700F480078FF2806D00D4800781E
:102E5000FFF75CFFFF200B49087010BD0221012025
:102E6000FFF7B6FE00BFF8E7360000203200002072
:102E70000A00002039000020330000203800002024
:102E8000001001403400002010B540210148FDF73A
:102E90000BFC10BD0010014010B580210148FDF76A
:102EA00003FC10BD0010014010B54FF480710248C2
:102EB000FDF7FAFB10BD00000010014010B54FF403
:102EC00000710248FDF7F0FB10BD0000001001404A
:102ED00010B54FF480710248FDF7E6FB10BD00000D
:102EE0000008014008B501211420FEF72BFA4FF429
:102EF0007070ADF8000048208DF80300694607485F
:102F0000FDF7FFFA4FF48070ADF8000048208DF80F
:102F1000030069460248FDF7F4FA08BD00100140BD
:102F20000008014010B54FF400410248FDF7D0FB06
:102F300010BD00000008014010B54FF400410248E8
:102F4000FDF7C4FB10BD00000008014010B50446A9
:102F50002CB14FF480510548FDF7BAFB04E04FF463
:102F600080510248FDF7B2FB10BD0000000C01408B
:102F700000B587B001218803FEF7C4F901210820BC
:102F8000FEF7E0F901210846FEF7DCF94FF4604056
:102F9000ADF8040003208DF8060018208DF8070016
:102FA00001A91F48FDF7ADFA4FF48050ADF80400B9
:102FB00003208DF8060010208DF8070001A918489D
:102FC000FDF79FFA4FF480511548FDF781FB002073
:102FD000ADF808004FF48270ADF80A000020ADF89B
:102FE0000C000220ADF80E000120ADF810004002E8
:102FF000ADF812001020ADF814000020ADF8160056
:103000000720ADF8180002A90648FEF798FA01213A
:103010000448FEF77FFA0120FFF798FF07B000BDD4
:10302000000C01400038004000BF011EA0F101006B
:10303000FBD1704700B591B00121C803FEF762F9DA
:1030400001210220FEF74EF901211D20FEF77AF939
:1030500001214648FDF7E0FA4FF40040ADF82C009E
:1030600010208DF82F0003208DF82E000BA940486A
:10307000FDF747FA4FF400413D48FDF729FB50208A
:10308000ADF82C0010208DF82F0003208DF82E00B5
:103090000BA93848FDF735FA50213648FDF718FBE3
:1030A0004FF48060ADF82C0010208DF82F00032025
:1030B0008DF82E000BA93048FDF723FA4FF48061FC
:1030C0002D48FDF703FB2820ADF82C0003208DF8D8
:1030D0002E0018208DF82F000BA92648FDF711FAB5
:1030E0004FF44040ADF830004FF48270ADF832003C
:1030F0000020ADF834000220ADF836000120ADF814
:1031000038004002ADF83A000020ADF83C00ADF8C0
:103110003E000720ADF840000CA91848FEF70FFA52
:103120001748FDF701F915480C3000901020029067
:1031300080010390002004908020059000200690DC
:10314000079008904FF48050099000200A9069463B
:103150000B48FDF78FF9012202210848FEF7E6F936
:1031600001210648FEF7D6F911B000BD000230007B
:1031700000080140000C014000100140003C0040EC
:103180001C04024030B589B005460C4601210220DE
:10319000FEF7B8F801210420FEF7D4F88020ADF83E
:1031A000200010208DF8230003208DF8220008A9AC
:1031B0001F48FDF7A6F980211D48FDF789FAADF8F3
:1031C0000C50ADF808400020ADF80E00ADF80A0034
:1031D00002A91848FEF72CFE0420ADF814000220C6
:1031E000ADF816000120ADF818000020ADF81A0067
:1031F000ADF81C0005A90F48FEF78CFD1D208DF8C9
:10320000040002208DF8050000208DF80600012042
:103210008DF8070001A8FEF723F8012205210548D3
:10322000FEF7CEFD00210348FEF760FC09B030BD7B
:1032300000080140000400401FB501210420FEF7F2
:1032400061F81A48FEF75EFC3220ADF80800184815
:1032500000681849B0FBF1F0401E80B2ADF80400E0
:103260000020ADF80A00ADF8060001A90F48FEF7EE
:10327000DFFD012211460D48FEF7A2FD01210B489A
:10328000FEF734FC4FF4A060FEF722F81E208DF804
:10329000000000208DF8010003208DF802000120BD
:1032A0008DF803006846FDF7DBFF1FBD00080040F6
:1032B0006C00002040420F0010B5FFF7BDFF002456
:1032C00017E0012004EB44010B4A02F82100002022
:1032D00004EB440102EB8101488004EB440102EB62
:1032E0008101888004EB440102EB81018860601C4D
:1032F000C4B2022CE5DB10BD140100201CB548202F
:10330000FEF7F8F9FDF7F8F91B48012100233222F6
:10331000CDE9001019A11C4801F07EFA1B480321D9
:103320000023C822CDE9001019A11C4801F074FA4D
:103330001B48042100234FF49672CDE9001019A117
:103340001B4801F069FA1B4802210023C822CDE97D
:10335000001019A11B4801F05FFA1B480621002349
:103360004FF48062CDE9001018A11B4801F054FA17
:1033700000F014FF00201CBD540000204C65645F69
:103380005461736B000000001D12000858000020FB
:103390004B65795F5461736B00000000ED0C000811
:1033A0005C0000205466744C63645F5461736B006E
:1033B000FD2100086000002054656D48756D5F5464
:1033C00061736B00D51E000864000020546573749F
:1033D0005F5461736B0000009D1F00082DE9F041F0
:1033E00005460E461C4807681C480068001D00F092
:1033F00093FC50B91948006890F82C1001208840BF
:1034000017490968814316480160681C38B936B10C
:1034100012480168091D134800F014FD1AE07C19D8
:103420000E4800684460BC4207D20C480168091D80
:103430000D48006800F0ECFC0CE008480168091D2C
:103440000A48006800F0E4FC09480068844201D2A0
:1034500007480460BDE8F081B8000020A400002007
:10346000BC00002090040020AC000020A800002038
:10347000D400002010B5044600F0F0FC2448006899
:10348000401C234908602348006840B92148046073
:103490000846006801280DD100F092F90AE01E48A4
:1034A000006838B91B480068C06AE16A884201D8E0
:1034B0001848046019480068401C1849086008460C
:1034C0000068606494F82C10012088401449096851
:1034D000084313490860E16A01EB8101114A02EBDC
:1034E0008100211D00F0AEFC00F0CAFC0A48006813
:1034F00068B108480068C06AE16A884207D24FF0A4
:10350000805009490860BFF34F8FBFF36F8F10BD24
:10351000B4000020A4000020C0000020D000002043
:10352000BC000020C001002004ED00E010B516E052
:1035300000F094FC0C48C068C468201D00F0ECFB4F
:103540000A480068401E0949086009480068401E92
:103550000749086000F094FC204600F05EF804483B
:1035600000680028E4D110BD7C040020B4000020D5
:10357000B000002070B504460D46206C70B1216C7F
:10358000E0680844E0606168E068884201D3206830
:10359000E0602846226CE168FCF744FE70BD2DE92E
:1035A000F04104460F4615464FF00008A66B206C0C
:1035B00040B9206860BB606801F002FA80460020D4
:1035C000606025E07DB93946226CA068FCF72AFED0
:1035D000216CA0680844A060D4E90110884217D388
:1035E0002068A06014E03946226CE068FCF71AFEFF
:1035F000216CE068401AE0602168E068884203D2EC
:10360000216C6068401AE060022D01D106B1761E7F
:10361000701CA0634046BDE8F08110B50446206BE5
:1036200000F03EFC204600F03BFC10BD01464A6A1B
:1036300022B10A6B1268C2F1200000E0002070473E
:1036400030B54FF41043174800F007042CB1C01DEB
:1036500020F00700134C041B1B1B0246124C226077
:103660000024114D6C60D018083820F007000F4C72
:10367000206000240D4D2D686C600C4D2D682C6071
:103680001146441A4C60094C24680C60084D4C6883
:103690002C60084D4C682C604FF00044064D2C60A7
:1036A00030BD0000A4040020E0000020E80000205D
:1036B000F0000020EC000020F400002000BFFFF725
:1036C00035FF064800680128F9D94FF080500449B9
:1036D0000860BFF34F8FBFF36F8FF0E7C00100208A
:1036E00004ED00E010B504464CB10020606020609D
:1036F000E06000231A461946204600F05BFE10BD2C
:103700002DE9F04106460D4617469846069C0DB930
:10371000246000E02760E66325640121204600F074
:1037200009FE84F850800020A064BDE8F0812DE9F6
:10373000F05F81460F4690469A460A9E0C9C4FEADF
:103740008801A522206BFCF77FFDA8F10100216B09
:1037500001EB800B2BF0070B002507E0795D04F1EE
:1037600034004155785D00B902E06D1C102DF5D391
:1037700000BF002143200155202E00D31F26E66202
:10378000E66400202065201D00F03FFB04F11800D6
:1037900000F03BFB2461C6F12000A06164620020C0
:1037A000606584F8580052464946584600F0F0F9E2
:1037B00020600B9808B10B980460BDE8F09F0000F2
:1037C00010B5002407E004EB84010F4A02EB8100EE
:1037D00000F00EFB641C202CF5D30C4800F008FB15
:1037E0000B4800F005FB0B4800F002FB0A4800F014
:1037F000FFFA0A4800F0FCFA044809490860044846
:103800000849086010BD0000C001002040040020ED
:1038100054040020680400207C0400209004002050
:10382000A8000020AC00002010B50146164800E0BA
:10383000006803688B42FBD30246436813448B4203
:1038400004D143684C682344436001460A464B68F0
:1038500013440468A34211D10C4C03682468A342AA
:1038600008D04B680468646823444B6003681B6895
:103870000B6005E0054B1B680B6001E003680B6003
:10388000884200D0016010BDE0000020E800002068
:1038900070B5054600F0E2FAA86B08B9012400E013
:1038A000002400F0EDFA204670BD70B5054600F02A
:1038B000D5FAA86BE96B884201D1012400E000240D
:1038C00000F0DEFA204670BD2DE9F04707460C46B1
:1038D00090460026206848B3204641684968416008
:1038E00000F1080142688A4202D14168496841609A
:1038F0004168D1F80C9000BF20464168496841609A
:1039000000F1080142688A4202D141684968416079
:103910004168CD6806EBC60007EB800143460122F3
:10392000284600F00FFB761C4D45E5D13046BDE83A
:10393000F0872DE9F3410D460098846C0027A06BB9
:10394000E16B88421BD294F945602A4669462046BD
:10395000FFF725FE0746701C60B9606A08B90120B0
:1039600000E0002050B904F1240001F0CFF828B1A4
:10397000012703E0701C40B284F8450000BF3846C0
:10398000BDE8FC810A490968096809B9012100E01C
:10399000002121B14FF0FF31064A116006E00449D1
:1039A0000968C968C868034A416811607047000027
:1039B000A8000020D40000200246002101E0521C93
:1039C000491C1078A528FAD0890888B2704700BF32
:1039D000502080F31188BFF34F8FBFF36F8F00BF6C
:1039E00000BFFEE770B5044600F038FA94F9455080
:1039F0001AE0A06C38B100212046FFF79AFF88B189
:103A000000F05EFB0EE0606A08B9012000E00020D3
:103A100038B904F1240001F079F818B100F050FB36
:103A200000E003E0681E45B2002DE2DC00BFFF208D
:103A300084F8450000F024FA00F010FA94F944509C
:103A400010E0206908B9012000E0002048B904F125
:103A5000100001F05BF808B100F032FB681E45B2BF
:103A600000E001E0002DECDC00BFFF2084F8440002
:103A700000F006FA70BD70B505460E463146284680
:103A8000FCF7FBFB2846FCF7F1FB044602E0202094
:103A90002855641C0F2CFAD300202855281970BD16
:103AA0002DE9F04105464FF0000800F0A9FB2B4836
:103AB000006808B9FFF7C4FD2948006828400028BD
:103AC00047D145B1083505F0070020B105F00700E2
:103AD000C0F108000544002D3BD022480068854213
:103AE00037D8214E3046046801E0264624686068D5
:103AF000A84202D220680028F7D118480068844202
:103B000027D0306800F10808206830606068401BEA
:103B1000102807D967196068401B786065603846CF
:103B2000FFF782FE0F4960680968081A0D490860AE
:103B3000084600680D490968884203D209480068B0
:103B40000A49086006496068096808436060002007
:103B5000206001F01BF84046BDE8F081E80000203D
:103B6000F4000020EC000020E0000020F000002025
:103B70000648006830B10549096801F15000096D37
:103B8000491C01600148006870470000A400002043
:103B9000001F4FF080730360001F21F001030360DA
:103BA000001F034B03601438026020387047000088
:103BB000CF39000800B587B0002000904FF6FF73A2
:103BC0000F22012101900846FDF79EFA0020009087
:103BD0004FF6FF730E22012101902120FDF794FA88
:103BE000002000904FF6FF73032201210190FA207C
:103BF000FDF78AFA002000904FF6FF73042201219E
:103C000001904FF48D70FDF77FFA002000904FF681
:103C1000FF73112201210190D220FDF775FA0020D7
:103C20003021CDE900014FF6FF732EA264210290EE
:103C30004620FDF7A3FA32208DF80C0030208DF8D5
:103C40000D0032208DF80E0034208DF80F002D204D
:103C50008DF8100030208DF8110031208DF8120001
:103C60002D208DF8130032208DF814008DF81500EA
:103C700000208DF816001821CDE900014FF6FF73E2
:103C800003AAC82102901420FDF778FA31208DF89C
:103C90000C0032208DF80D003A208DF80E003020F7
:103CA0008DF80F008DF8100000208DF811001821FC
:103CB000CDE900014FF6FF7303AAC8210290A020AE
:103CC000FDF75CFA00201821CDE900014FF6FF73E3
:103CD00007A2C82102904FF48270FDF74FFA07B097
:103CE00000BD00002044495341524D200000000017
:103CF0004D6F6E002DE9F04104460D460026002769
:103D000000F0CAFD06462746F01BA84202D9012052
:103D1000BDE8F0810020FBE701460A69D1E90130E6
:103D20009860D1E9010358605068884201D18868E1
:103D30005060002008611068401E106010687047D5
:103D40002DE9F0410546884616460024202700F05C
:103D500057FA21480068804539D300BF7F1E07EB22
:103D600087021E4B03EB820104EBC40205EB8200C9
:103D70000122FFF7A9FD0444002FEFD104EBC40199
:103D800005EB8100022216490968FFF79DFD0444F6
:103D900004EBC40105EB8100022212490968FFF718
:103DA00093FD044404EBC40105EB810004220E4999
:103DB000FFF78AFD044404EBC40105EB81000322F4
:103DC0000A49FFF781FD04440EB10020306000F085
:103DD000DDFE2046BDE8F081B4000020C0010020D7
:103DE000A8000020AC0000207C04002090040020EB
:103DF00000F1080141604FF0FF31816000F10801DE
:103E0000C1600161002101607047002101617047BC
:103E100010B502460B685C1C0CB9106907E002F192
:103E2000080000E04068446824689C42FAD944686D
:103E30004C604C68A160886041600A611468641C31
:103E4000146010BD42684A6093688B609368596043
:103E50009160086103685B1C0360704700BF5020DD
:103E600080F31188BFF34F8FBFF36F8F00BF0348FC
:103E70000068401C0149086070470000F8000020FD
:103E800006480068401E054908600846006820B9D9
:103E9000002080F3118800BF00BF7047F8000020A9
:103EA00070B506463546D6B1083D2C460C496068CB
:103EB0000968084098B1206888B9094960680968AC
:103EC0008843606000F09CF906496068096808440E
:103ED000044908602046FFF7A7FC00F057FE70BDBC
:103EE000F4000020EC00002000204FF0E0210861E9
:103EF0008861064800684FF47A71B0FBF1F0401E0B
:103F00004FF0E02148610720086170476C000020F5
:103F100070B50446002544B100F072F90021204636
:103F2000FFF75CFA00F032FE05463DB94FF08050D5
:103F300003490860BFF34F8FBFF36F8F70BD000060
:103F400004ED00E02DE9F04107460C4690461E4680
:103F500017B91C48006800E038460546256005F1A1
:103F600034006060E86A2061286BE061686CA060E2
:103F7000E86C60610020A061052E12D01148006835
:103F8000854202D1002020730FE02673032E0CD14E
:103F900000F036F9A86A08B10220207300F0F6FD9F
:103FA00003E02846FEF766FB2073B8F1000F04D04B
:103FB000286BFFF701FD208401E000202084BDE88C
:103FC000F0810000A4000020034909680160034952
:103FD0000968416070470000CC000020B800002054
:103FE0007FB50546002028703048006803902F49AF
:103FF000096801EBC1018800FFF752FD0446002C5F
:1040000053D0002220460399FFF79AFE0390002028
:10401000029043E0029800EBC00004EB8000007BBC
:1040200005280ED2DFE800F0030507090B0058262B
:1040300009E0522607E0422605E0532603E0442625
:1040400001E0002600BF00BF029800EBC00004EBB7
:10405000800041682846FFF70EFD0546029800EBF8
:10406000C00004EB80008068029901EBC10104EB01
:104070008101098CCDE90010029800EBC00004EB2F
:10408000800032460AA103692846FEF7E5F9284672
:10409000FCF7ECF805440298401C0290DDE90201AF
:1040A0008842B7D32046FFF7FBFE7FBDB400002057
:1040B0000925630925750925750925750D0A00006F
:1040C0000120014908607047C800002070B505460E
:1040D0000C460548016818312846FFF799FE012172
:1040E0002046FFF77BF970BDA40000202DE9F047C2
:1040F00006460F4634464FF00109002E47D0E06CCB
:10410000B84201D23D4600E0E56CE06AA8423ED0EC
:10411000206D01283BD1D4F82C80E562A06900F025
:10412000004010B9C5F12000A06108EB8801194AD0
:1041300002EB81016069884201D1012000E000208A
:1041400028B3201DFFF7E8FD78B9E06A00EB800096
:10415000104951F8200040B994F82C1001208840F3
:104160000D49096881430C48016094F82C10012026
:10417000884009490968084307490860E16A01EB7A
:104180008101044A02EB8100211DFFF75BFEBDE8BF
:10419000F0870000C0010020BC0000201CB51148C1
:1041A00000210B468022CDE900100FA1104800F03D
:1041B00033FB0446012C14D100BF502080F311883A
:1041C000BFF34F8FBFF36F8F00BF4FF0FF30094930
:1041D000086001200849086000200849086000F0D4
:1041E00047F81CBDD800002049444C4500000000A1
:1041F000BD360008D4000020C0000020B800002018
:1042000002480068401C014908607047DC0000203B
:104210001248006818B10120114908601DE0002013
:104220000F4908600F480068B0FA80F0C0F11F0124
:1042300001EB81020C4B03EB820042685268426042
:1042400000F108024368934202D14268526842601A
:104250004268D268054B1A6000BF7047DC0000203E
:10426000C8000020BC000020C0010020A4000020E5
:1042700010B50A48006840F4700008490860084614
:10428000006840F070400860FFF72EFE00200449EF
:104290000860FBF77BFF002010BD000020ED00E070
:1042A000F800002010B500BF502080F31188BFF344
:1042B0004F8FBFF36F8F00BF00F0F4FA18B14FF0CB
:1042C00080500449086000BF002080F3118800BFBF
:1042D00010BD000004ED00E02DE9F0410446012688
:1042E000002722460021012000F007F80546284655
:1042F000FFF7F8F92846BDE8F0812DE9F8430746B5
:104300000D4690460DB9002601E007FB05F606F1C3
:104310005400FFF7C5FB044644B104F15409434679
:104320004A46294638460094FFF7EAF92046BDE898
:10433000F883000070B505460E462C46FFF78EFD4B
:10434000D4E90F12206801FB020060600020A06326
:104350002068A060E06B401E226C216800FB021008
:10436000E060FF2084F8440084F845009EB920698D
:1043700008B9012000E00020A8B904F1100000F005
:10438000C5FB80B14FF0805009490860BFF34F8FE3
:10439000BFF36F8F07E004F11000FFF729FD04F170
:1043A0002400FFF725FDFFF76BFD012070BD000025
:1043B00004ED00E02DE9FF4383B0074688461D4623
:1043C0004FF000093C4600BFFFF748FDA06BE16BD2
:1043D000884201D3022D38D12A4641462046FFF7B4
:1043E000DEF80646A06C68B129462046FFF7A1FA20
:1043F00028B34FF080503C490860BFF34F8FBFF3A4
:104400006F8F1CE0606A08B9012000E0002068B9E5
:1044100004F1240000F07AFB88B14FF0805032495B
:104420000860BFF34F8FBFF36F8F08E03EB14FF0CE
:1044300080502D490860BFF34F8FBFF36F8FFFF798
:104440001FFD012007B0BDE8F083059818B9FFF7FC
:1044500017FD0020F6E7B9F1000F04D101A8FFF71E
:10446000B3FD4FF00109FFF70BFDFFF7C9FEFFF7A2
:10447000F5FC94F94400401C10B9002084F8440075
:1044800094F94500401C10B9002084F84500FFF75E
:10449000F7FC05A901A800F091F9F0B92046FFF753
:1044A00004FAA0B104F110000599FFF70FFE2046B1
:1044B000FFF798FA00F06AFB002885D14FF0805092
:1044C00009490860BFF34F8FBFF36F8F7CE7204629
:1044D000FFF788FA00F05AFB76E72046FFF782FAEA
:1044E00000F054FB0020ADE704ED00E02DE9F05FA3
:1044F00006468A4615461F46344600BF5021EFF354
:10450000118081F31188BFF34F8FBFF36F8F00BF0E
:104510008146A06BE16B884201D3022F2BD194F925
:1045200045B03A4651462046FFF739F80BF10100F5
:10453000C8B9A06C40B139462046FFF7FAF9B8B1C6
:10454000B5B10120286013E0606A08B9012000E0DD
:10455000002068B904F1240000F0D8FA40B13DB160
:104560000120286004E00BF1010040B284F845000E
:104570004FF0010801E04FF0000800BF89F31188F7
:1045800000BF4046BDE8F09F2DE9F74183B00546E6
:104590000F464FF000082C4600BFFFF75FFCA66BEC
:1045A000F6B139462046FEF7E5FF701EA06320698C
:1045B00008B9012000E0002060B904F1100000F00B
:1045C000A5FA38B14FF080502F490860BFF34F8FE4
:1045D000BFF36F8FFFF754FC012006B0BDE8F081F8
:1045E000059818B9FFF74CFC0020F6E7B8F1000F6A
:1045F00004D101A8FFF7E8FC4FF00108FFF740FCE9
:10460000FFF7FEFDFFF72AFC94F94400401C10B9A7
:10461000002084F8440094F94500401C10B90020A3
:1046200084F84500FFF72CFC05A901A800F0C6F8A6
:10463000F0B92046FFF72CF9A0B104F12400059948
:10464000FFF744FD2046FFF7CDF900F09FFA002860
:10465000A3D14FF080500C490860BFF34F8FBFF3D8
:104660006F8F9AE72046FFF7BDF900F08FFA94E7C5
:104670002046FFF7B7F900F089FA2046FFF708F95E
:1046800000288AD00020A8E704ED00E02DE9F341DE
:1046900082B0054600272C46B84600BFFFF7DEFB78
:1046A000A66BFEB1701EA063206810B9FFF760FA18
:1046B0006060206908B9012000E0002060B904F1C1
:1046C000100000F023FA38B14FF080503A490860EA
:1046D000BFF34F8FBFF36F8FFFF7D2FB012004B002
:1046E000BDE8F081039818B9FFF7CAFB0020F6E790
:1046F0001FB96846FFF768FC0127FFF7C1FBFFF70A
:104700007FFDFFF7ABFB94F94400401C10B900207B
:1047100084F8440094F94500401C10B9002084F846
:104720004500FFF7ADFB03A9684600F047F840BB22
:104730002046FFF7ADF8F0B1206838B9FFF78EFBDF
:10474000606800F07FF98046FFF79AFB04F12400CF
:104750000399FFF7BBFC2046FFF744F900F016FA77
:1047600000289BD14FF0805013490860BFF34F8F52
:10477000BFF36F8F92E72046FFF734F900F006FA97
:104780008CE72046FFF72EF900F000FA2046FFF7ED
:104790007FF8002882D0B8F1000F0BD0FFF75EFB46
:1047A0002046FEF743FF064631466068FFF79EFC51
:1047B000FFF766FB002092E704ED00E070B50646C7
:1047C0000C46FFF74BFB124802687068131A20680A
:1047D000401C08B9002517E00E4930680968884276
:1047E00004D07068904201D801250DE020689842FD
:1047F00007D92068C01A20603046FFF7E5FB002586
:1048000002E0002020600125FFF73AFB284670BD3A
:10481000B8000020CC0000202DE9FF4F85B0804675
:1048200089461746DDE912ABB800FFF739F90646AD
:1048300056B15C20FFF734F904460CB1266304E05E
:104840003046FFF72DFB00E000247CB10020CDE9CD
:1048500000ABCDE902403A4649464046089BFEF788
:1048600066FF2046FEF706FE012501E04FF0FF350A
:10487000284609B0BDE8F08F0549096809B901204B
:1048800005E00449096809B9022000E000207047EA
:10489000C0000020DC0000200149086870470000CB
:1048A000B80000202DE9F04100273A4800680028B0
:1048B00063D139480068451C374805608DB93748D1
:1048C000D0F8008036480068344908603448C0F8A1
:1048D000008034480068401C32490860FFF752F8F5
:1048E00000BF3148006885423BD300BF2B480068B9
:1048F000006808B9012000E0002020B14FF0FF302F
:10490000294908602CE025480068C068C4686668CA
:10491000B54202D22448066022E0201DFFF7FCF9D0
:10492000A06A18B104F11800FFF7F6F994F82C10FA
:10493000012088401D49096808431C490860E16A54
:1049400001EB81011A4A02EB8100211DFFF77AFA7F
:104950001849E06A0968C96A8842C7D30127C5E7D0
:1049600000BF14480068C06A00EB8000104951F88D
:104970002000012800D9012704E00F480068401CEE
:104980000D4908600D48006800B101273846BDE8B0
:10499000F0810000DC000020B8000020A80000200A
:1049A000AC000020CC000020D4000020BC0000207F
:1049B000C0010020A4000020C4000020C800002086
:1049C00070B505462C460026ADB3206D401E20650F
:1049D000E16CE06A88422ED0206D60BB201DFFF79D
:1049E0009BF978B9E06A00EB8000144951F8200087
:1049F00040B994F82C10012088401149096881437E
:104A00000F480160E06CE062E06AC0F12000A06144
:104A100094F82C1001208840094909680843084986
:104A20000860E16A01EB8101044A02EB8100211D6B
:104A3000FFF708FA0126304670BD0000C0010020D3
:104A4000BC00002070B505462C460026002D54D031
:104A50002B49E06A0968C96A884247D2A06900F018
:104A6000004028B926480068C06AC0F12000A06153
:104A7000E16A01EB8101234A02EB8101606988420E
:104A800001D1012000E0002050B3201DFFF744F9C0
:104A900078B9E06A00EB80001A4951F8200040B96B
:104AA00094F82C1001208840174909688143164862
:104AB000016013480068C06AE06294F82C1001207D
:104AC00088401149096808430F490860E16A01EB11
:104AD00081010C4A02EB8100211DFFF7B3F903E0CD
:104AE00007480068C06AE062012606E00449E06CFD
:104AF0000968C96A884200D20126304670BD0000AC
:104B0000A4000020C0010020BC00002070B50646B3
:104B1000F068C46804F11800FFF7FEF81548006853
:104B2000A8B9201DFFF7F8F894F82C100120884050
:104B300011490968084310490860E16A01EB8101E5
:104B40000E4A02EB8100211DFFF77CF904E004F11D
:104B500018010B48FFF776F90A49E06A0968C96A43
:104B6000884204D9012501200749086000E000259A
:104B7000284670BDDC000020BC000020C0010020E1
:104B800068040020A4000020C800002070B50024A4
:104B90000026FFF763F92E480068401E2C49086084
:104BA0000846006800284FD12A48006800284BD0EA
:104BB00024E02948C068C46804F11800FFF7ACF885
:104BC000201DFFF7A9F894F82C10012088402349F4
:104BD0000968084321490860E16A01EB8101204A24
:104BE00002EB8100211DFFF72DF91E49E06A0968DB
:104BF000C96A884202D301201B4908601648006830
:104C000008B9012000E000200028D2D00CB1FEF746
:104C1000B9FE1648056865B100BFFFF743FE10B145
:104C20000120114908606D1E002DF6D100200F49AA
:104C300008600D48006838B1012630070C4908604B
:104C4000BFF34F8FBFF36F8FFFF71AF9304670BD78
:104C5000DC000020B400002068040020BC0000201C
:104C6000C0010020A4000020C8000020C4000020D3
:104C700004ED00E000000000000000000000000063
:104C800000000404040404000004000014140A00DA
:104C9000000000000000000000000A0A1F0A0A1FAE
:104CA0000A0A000000040E1505060C14150E040077
:104CB000000012150D152E2C2A1200000000040A07
:104CC0000A36151529160000020201000000000036
:104CD0000000000010080804040404040808100080
:104CE0000204040808080808040402000000000484
:104CF000150E0E150400000000000008083E08080C
:104D0000000000000000000000000000020201009E
:104D100000000000003F0000000000000000000054
:104D20000000000000020000002010100808040429
:104D30000202010000000E1111111111110E0000EC
:104D40000000040604040404040E000000000E1118
:104D500011080402011F000000000E11100C1010B9
:104D6000110E00000000080C0C0A091F081C0000AE
:104D700000001F01010F1110110E000000000C12A5
:104D8000010D1311110E000000001E10080804048C
:104D90000404000000000E11110E1111110E00008C
:104DA00000000E1111191610090600000000000085
:104DB00004000000000400000000000000040000E7
:104DC000000404000000100804020204081000009F
:104DD000000000003F003F0000000000000002044F
:104DE000081010080402000000000E11110804044D
:104DF0000004000000001C22292D2D1D221C000093
:104E0000000004040C0A0A1E1233000000000F12F6
:104E1000120E1212120F000000001E1101010101FA
:104E2000110E000000000F1212121212120F0000D9
:104E300000001F120A0E0A02121F000000001F12BB
:104E40000A0E0A020207000000001C1201013911BB
:104E5000120C000000003312121E12121233000056
:104E600000001F0404040404041F000000003E08A6
:104E70000808080808080907000037120A060A127D
:104E8000123700000000070202020202223F000067
:104E900000003B1B1B1B15151535000000003B12C5
:104EA00016161A1A1217000000000E111111111116
:104EB000110E000000000F12120E02020207000085
:104EC00000000E1111111117190E180000000F1219
:104ED000120E0A121237000000001E1101060810FF
:104EE000110F000000001F1504040404040E00004C
:104EF0000000331212121212120C000000003312C2
:104F0000120A0A0C040400000000151515150E0AFB
:104F10000A0A000000001B0A0A04040A0A1B000017
:104F200000001B0A0A0A0404040E000000001F0906
:104F300008040402121F00001C04040404040404F6
:104F400004041C00000202040404080808101000F5
:104F50000E0808080808080808080E00040A0000DF
:104F60000000000000000000000000000000000041
:104F70000000003F020400000000000000000000EC
:104F800000000000000C121C123C00000003020292
:104F9000020E1212120E000000000000001C12028D
:104FA000120C000000181010101C1212123C00000D
:104FB00000000000000C121E021C00000018240457
:104FC000041E0404041E000000000000003C120C3B
:104FD000021C221C00030202020E121212370000F1
:104FE0000004040000060404040E00000008080089
:104FF000000C08080808080700030202021A0A0643
:105000000A1300000007040404040404041F000041
:1050100000000000000F151515150000000000002D
:10502000000F12121237000000000000000C1212D4
:10503000120C000000000000000F1212120E0207F6
:1050400000000000001C1212121C103800000000AA
:10505000001B06020207000000000000001E020CF8
:10506000101E000000000004041E0404041C0000C4
:1050700000000000001B1212123C000000000000A3
:10508000001B0A0A04040000000000000015150EB1
:105090000A0A000000000000001B0A040A1B0000AE
:1050A00000000000003312120C080403000000008E
:1050B000001E0804041E000018080808080C080850
:1050C0000808180008080808080808080808080858
:1050D000060404040408040404040600160900007D
:1050E00000000000000000000000000000000000C0
:1050F0000000000000000000000000080808080888
:10510000080800001818000000486C241200000075
:1051100000000000000000000000002424247F1292
:1051200012127F12121200000000081C2A2A0A0C18
:105130001828282A2A1C0808000000222515151501
:105140002A585454542200000000000C1212120A73
:1051500076252911916E0000000606040300000068
:1051600000000000000000000040201010080808A7
:105170000808081010204000000204080810101051
:1051800010101008080402000000000008086B1C42
:105190001C6B080800000000000000000808080858
:1051A0007F08080808000000000000000000000060
:1051B00000000000060604030000000000000000DC
:1051C000FE000000000000000000000000000000E1
:1051D0000000000006060000000080404020201073
:1051E0001008080404020200000000182442424291
:1051F0004242424224180000000000080E0808083D
:1052000008080808083E00000000003C4242422016
:1052100020100804427E00000000003C424220189A
:1052200020404042221C000000000020302824249E
:1052300022227E20207800000000007E0202021A56
:1052400026404042221C0000000000382402021ABE
:1052500026424242241800000000007E2222101044
:1052600008080808080800000000003C42424224E8
:1052700018244242423C00000000001824424242EE
:1052800064584040241C0000000000000000181872
:1052900000000000181800000000000000000008D6
:1052A000000000000008080400000040201008046E
:1052B00002040810204000000000000000007F00F1
:1052C00000007F0000000000000000020408102021
:1052D00040201008040200000000003C424246400A
:1052E00020101000181800000000001C225A55550C
:1052F00055552D42221C0000000000080818141407
:10530000243C224242E700000000001F2222221E0D
:1053100022424242221F00000000007C4242010162
:1053200001010142221C00000000001F22424242F3
:1053300042424242221F00000000003F4212121E61
:1053400012120242423F00000000003F4212121EB1
:1053500012120202020700000000003C222201019A
:1053600001712122221C0000000000E7424242425B
:105370007E42424242E700000000003E0808080862
:1053800008080808083E00000000007C10101010FB
:10539000101010101010110F0000007722120A0ECA
:1053A0000A12122222770000000000070202020205
:1053B00002020202427F00000000007736363636D5
:1053C0002A2A2A2A2A6B0000000000E346464A4A9D
:1053D00052525262624700000000001C22414141CB
:1053E00041414141221C00000000003F4242424234
:1053F0003E020202020700000000001C224141415F
:1054000041414D53321C60000000003F4242423E89
:105410001212222242C700000000007C4242020415
:1054200018204042423E00000000007F4908080862
:1054300008080808081C0000000000E74242424239
:1054400042424242423C0000000000E74242222425
:1054500024141418080800000000006B4949494949
:105460005555362222220000000000E7422424186D
:105470001818242442E700000000007722221414A8
:1054800008080808081C00000000007E21201010F9
:1054900008040442423F0000007808080808080891
:1054A0000808080808087800000002020404080838
:1054B0000810102020204040001E10101010101066
:1054C0001010101010101E000038440000000000E2
:1054D00000000000000000000000000000000000CC
:1054E00000000000000000FF0006080000000000AF
:1054F0000000000000000000000000000000003C70
:105500004278444242FC0000000000030202021AFA
:1055100026424242261A0000000000000000003827
:10552000440202024438000000000060404040781D
:105530004442424264D80000000000000000003CE9
:10554000427E0202423C0000000000F08808087E13
:1055500008080808083E0000000000000000007C69
:1055600022221C023C42423C000000030202023A9A
:105570004642424242E700000000000C0C00000ED0
:1055800008080808083E000000000030300000381D
:10559000202020202020221E000000030202027290
:1055A000120A1612227700000000000E08080808F0
:1055B00008080808083E0000000000000000007F06
:1055C0009292929292B70000000000000000003B0F
:1055D0004642424242E70000000000000000003C5A
:1055E00042424242423C0000000000000000001B1A
:1055F00026424242221E02070000000000000078FE
:1056000044424242447840E000000000000000773D
:105610004C040404041F0000000000000000007C93
:1056200042023C40423E0000000000000008083EEC
:1056300008080808083000000000000000000063AF
:105640004242424262DC000000000000000000E72D
:10565000422424140808000000000000000000EBB1
:105660004949555522220000000000000000007644
:1056700024181818246E000000000000000000E745
:105680004224241418080807000000000000007ECF
:1056900022100808447E000000C020202020201096
:1056A000202020202020C0001010101010101010FA
:1056B000101010101010101000060808080808102C
:1056C00008080808080806000C32C20000000000A4
:1056D00000000000000000000000000000000000CA
:1056E00000000000000000000000000000000000BA
:1056F00000000000000000000000000000000000AA
:105700000000000000000000000000000000040095
:10571000CA012A021A02140210021000100010001E
:1057200010001000100010001000100010022001E6
:10573000C0000000000000000000000060066006DD
:1057400030039801880044000000000000000000C1
:105750000000000000000000000000000000000049
:105760000000000000000000000000000000000039
:105770001002100210021002FE07FE0708020801C4
:10578000080108010801FE07FE07040104010401E5
:1057900004010000000000000000000000004000C4
:1057A0004000F00158034C03CC034C00580070003B
:1057B000E000C001C00140034C035C034C034801FE
:1057C000F000400040000000000000000000000069
:1057D0000E010A01910091009100510051003A0020
:1057E000AE03A00250045004480448044804840254
:1057F0008403000000000000000000000000000022
:1058000038006C006C006C006C006C002C00980779
:105810001C011A01330133016301E300C308C60907
:105820003C07000000000000000000000C001C000D
:10583000100010000800040000000000000000003C
:105840000000000000000000000000000000000058
:105850000000000000000000000000000004000242
:105860000001800080004000400020002000200057
:105870002000200020002000400040008000800028
:10588000000100020004000000000000020004000B
:1058900008001000100020002000400040004000E0
:1058A0004000400040004000200020001000100098
:1058B00008000400020000000000000000000000DA
:1058C000000000004000C0004000460C4E0FD00118
:1058D000F0015E0F460C4000400040000000000058
:1058E00000000000000000000000000000000000B8
:1058F0000000000000004000400040004000400068
:10590000FE0F40004000400040004000000000004A
:105910000000000000000000000000000000000087
:105920000000000000000000000000000000000077
:105930000000000000000000000000000C001C003F
:10594000100010000800040000000000000000002B
:105950000000000000000000000000000000000047
:10596000FE07000000000000000000000000000032
:105970000000000000000000000000000000000027
:105980000000000000000000000000000000000017
:105990000000000000000000000000001C001C00CF
:1059A0001C000000000000000000000000040006D1
:1059B0000002000300010001800080004000400060
:1059C00060002000200010001000080008000C00FB
:1059D00004000600020000000000000000000000BB
:1059E0000000F00098010C030C03060606060606EC
:1059F000060606060606060606060C030C039801B4
:105A0000F0000000000000000000000000000000A6
:105A1000000040007C0060006000600060006000EA
:105A20006000600060006000600060006000600076
:105A3000FC03000000000000000000000000000067
:105A40000000F800840102030603060300030001BE
:105A50008001C0006000200010000802040206025D
:105A6000FE03000000000000000000000000000035
:105A700000007800C6008601860180018001C00018
:105A80007000800100010003000306030603860185
:105A9000F80000000000000000000000000000000E
:105AA000000080018001C001A001A00190018801D7
:105AB000880184018201FE0F800180018001800144
:105AC000E0070000000000000000000000000000EF
:105AD0000000FC0304000400040004000400F400BF
