:020000040800F2
:10000000789A002001020008050E0008FD0700088C
:10001000010E0008010300080D1D0008000000008B
:10002000000000000000000000000000690100085E
:10003000DD04000800000000AD0100088D1200087A
:100040001B0200081B0200081B0200081B0200081C
:100050001B0200081B0200081B0200081B0200080C
:100060001B0200081B0200081B0200081B020008FC
:100070001B0200081B0200081B0200081B020008EC
:100080001B0200081B0200081B0200081B020008DC
:100090001B0200081B0200081B0200081B020008CC
:1000A0001B0200081B0200081B0200081B020008BC
:1000B0001B020008A5150008751600081B020008A1
:1000C0001B0200081B0200081B0200081B0200089C
:1000D0001B0200081B0200081B0200081B0200088C
:1000E0001B0200081B0200081B02000800000000A1
:1000F0000000000000000000000000000000000000
:1001000000000000000000001B0200081B020008A5
:100110001B0200081B0200081B0200081B0200084B
:100120001B0200081B0200081B0200081B0200083B
:100130001B0200081B0200081B0200081B0200082B
:100140001B0200081B0200081B0200081B0200081B
:10015000DFF810D000F09EF800480047AD260008F8
:10016000AFF30080789A0020224B19680868B0E845
:10017000F00F80F30988BFF36F8F4FF0000080F31A
:1001800011884EF00D0E7047000000000648006810
:10019000006880F3088862B661B6BFF34F8FBFF383
:1001A0006F8F00DF00BF00BF08ED00E0EFF30980B4
:1001B000BFF36F8F0F4B1A6820E9F00F106008B57E
:1001C0004FF0500080F31188BFF34F8FBFF36F8F54
:1001D00003F088F84FF0000080F31188BDE8084074
:1001E00019680868B0E8F00F80F30988BFF36F8FD3
:1001F000704700BF84000020EFF3058070470000C7
:100200000648804706480047FEE7FEE7FEE7FEE7B0
:10021000FEE7FEE7FEE7FEE7FEE7FEE7F91200086D
:1002200051010008D2B201E000F8012B491EFBD2B7
:1002300070470022F6E710B513460A4604461946F1
:10024000FFF7F0FF204610BD421C10F8011B0029EB
:10025000FBD1801A7047034611F8012B00F8012BDF
:10026000002AF9D11846704730B50B4601460020E8
:100270002022012409E021FA02F59D4205D303FA68
:1002800002F5491B04FA02F52844151EA2F10102E9
:10029000F1DC30BD064C074D06E0E06840F001039C
:1002A00094E8070098471034AC42F6D3FFF754FFA8
:1002B00094AA0008B4AA000810B5002400F004FABB
:1002C0000D490988884204D000F0FEF90A490880E7
:1002D000012400F0F3F909490988884204D000F0AC
:1002E000EDF9064908800124012C03D101F0D0FB6F
:1002F00000F086FA10BD00006E0000206C000020A7
:1003000000BFFEE701684FF6FE7211400160002158
:10031000016041608160C1604B49884208D14A490F
:100320000839496841F00F01474A083A51608AE0AC
:1003300045491431884208D143490839496841F098
:10034000F001414A083A51607DE03F492831884236
:1003500008D13D490839496841F470613A4A083A80
:10036000516070E038493C31884208D1364908393B
:10037000496841F47041344A083A516063E03249B7
:100380005031884208D130490839496841F4702118
:100390002D4A083A516056E02B496431884208D111
:1003A00029490839496841F47001274A083A5160DF
:1003B00049E025497831884208D1234908394968FC
:1003C00041F07061204A083A51603CE01F49884280
:1003D00006D1011F096841F00F01021F116032E0D0
:1003E0001A491431884208D11849091F096841F097
:1003F000F001164A121F116025E014492831884285
:1004000008D11249091F096841F470610F4A121F8F
:10041000116018E00D493C31884208D10B49091F91
:10042000096841F47041094A121F11600BE0074945
:100430005031884207D10549091F096841F47021EC
:10044000024A121F1160704708000240080402406F
:1004500010B50022026847F6F0739A430C6A8B6865
:1004600023430C6923434C6923438C692343CC69A0
:1004700023434C6A23438C6A23431A430260CB68AC
:1004800043600B6883604B68C36010BD124A1268FA
:1004900042F0F002104B1A600F4A1C3211600E4AF3
:1004A000243210600C4A1832126842F001020A4BE2
:1004B00018331A6000BF084A121F126802F02002A7
:1004C000002AF8D0044A1832126822F00102024BC6
:1004D00018331A60704700000404024070472DE989
:1004E000F0410246002500260020002300240027BA
:1004F00091F803C00CF00F0591F803C00CF0100C3C
:10050000BCF1000F03D091F802C04CEA050591F848
:1005100000C0BCF1000F31D0146800202BE04FF078
:10052000010C0CFA00F3B1F800C00CEA03069E427D
:1005300020D183004FF00F0C0CFA03F7BC4305FAEF
:1005400003FC4CEA040491F803C0BCF1280F06D167
:100550004FF0010C0CFA00FCC2F814C00AE091F84C
:1005600003C0BCF1480F05D14FF0010C0CFA00FCA0
:10057000C2F810C0401C0828D1D31460B1F800C0E4
:10058000BCF1FF0F34DD546800202EE000F1080CB0
:100590004FF0010808FA0CF3B1F800C00CEA0306AA
:1005A0009E4221D183004FF00F0C0CFA03F7BC439D
:1005B00005FA03FC4CEA040491F803C0BCF1280FCF
:1005C00005D100F1080C08FA0CF8C2F8148091F873
:1005D00003C0BCF1480F07D100F1080C4FF001082F
:1005E00008FA0CF8C2F81080401C0828CED35460DA
:1005F000BDE8F081F0B50A46002300240021002563
:1006000000F00046B6F1004F02D11D4EF16901E045
:100610001B4E7168C0F3034583B200F44016B6F573
:10062000401F08D121F07061154E766826F0706683
:10063000134F7E6012E000F48016B6F5801F06D1DD
:10064000032606FA05F4A14341F0706106E0460D69
:10065000360103FA06F6B14341F0706122B1460D4E
:10066000360103FA06F6314300F00046B6F1004FBA
:1006700002D1034EF16101E0014E7160F0BD000056
:10068000000001400246002093680B400BB101209E
:1006900000E00020704702460020D3680B400BB1F9
:1006A000012000E000207047416170470161704700
:1006B0000AB1016100E04161704700000148808893
:1006C000704700000001002001484088704700008A
:1006D0000001002010B501F04BFD00F04BF801F0D7
:1006E00013FD01F01DFE01F07DFE00F04FF901F059
:1006F000DDFD01F0B9FF01F06BFC10BD10B5002469
:1007000032E004EB44001A4901EB8000806848B3F2
:1007100004EB440011F82000022823D104EB44002C
:1007200001EB80004088401C04EB4401104A02EBBE
:100730008101488004EB4400114601EB80004088B1
:1007400004EB440102EB8101898888420ADB012025
:1007500004EB440102F8210004EB440102EB8101A7
:1007600088688047601CC4B2022CCADB10BD000040
:10077000E800002000B585B00121042000F0B6FBA0
:100780000121880300F0B2FB4FF40070ADF81000B7
:1007900018208DF8130003208DF8120004A91548C5
:1007A000FFF79DFE4FF48060ADF8100004208DF837
:1007B000130003208DF8120004A90E48FFF78FFEE6
:1007C0004FF4E13000900020ADF80400ADF80600D1
:1007D000ADF80800ADF80C000C20ADF80A00694631
:1007E000054801F027FA0121034801F016FA05B087
:1007F00000BD0000000801400038014000BFFEE7D6
:1008000010B586B000242A480088632810DD2848E7
:100810000088B0F57A7F0BDA25480088642190FBC8
:10082000F1F03030C2B22046611CCCB204A90A54A7
:100830001F480088642190FBF1F201FB12000A219D
:1008400090FBF1F03030C2B22046611CCCB204A95A
:100850000A542E222046611CCCB204A90A54144822
:1008600000880A2190FBF1F201FB12003030C2B285
:100870002046611CCCB204A90A5425222046611CE2
:10088000CCB204A90A5400222046611CCCB204A9AF
:100890000A5400201821CDE900014FF6FF7304AA85
:1008A00003210290872000F03DFA06B010BD000041
:1008B0006C0000206FF07F410448006802F042FDA8
:1008C00000BF642002F008FCFBE700006800002085
:1008D0002DE9F04104460D4616461F462A2000F039
:1008E00055FAA11C88B200F03EFAB11C88B200F0A3
:1008F0003AFA2B2000F04AFA691C88B200F033FA69
:10090000791C88B200F02FFA2C2000F03FFABDE8E5
:10091000F08170B504460D4616462B462246294600
:100920002046FFF7D5FF304600F01DFA70BD0000ED
:100930002DE9F04781460F4615461E46DDF820801A
:10094000701E83B2681E82B239464846FFF7C0FF68
:1009500000240AE04FEA28222046611C8CB20A4992
:100960000A5401F80480601C84B2AC42F2DB3C46BD
:1009700005E029460448FFF789FD601C84B2B4EB0A
:10098000460FF6DBBDE8F087F893002010B542F281
:10099000107001F021FD01F0A7FC42F2107001F08F
:1009A0001BFD01F097FC642001F016FD112000F002
:1009B000EDF942F2107001F00FFD362000F0E6F97B
:1009C000A02000F0DDF93A2000F0E0F9052000F069
:1009D000D7F9B22000F0DAF90C2000F0D1F90C20A0
:1009E00000F0CEF9002000F0CBF9332000F0C8F978
:1009F000332000F0C5F9B72000F0C8F9352000F029
:100A0000BFF9BB2000F0C2F9352000F0B9F9C020D1
:100A100000F0BCF92C2000F0B3F9C22000F0B6F9C8
:100A2000012000F0ADF9C32000F0B0F9132000F070
:100A3000A7F9C42000F0AAF9202000F0A1F9C620EF
:100A400000F0A4F90F2000F09BF9CA2000F09EF9F5
:100A50000F2000F095F9C82000F098F9082000F068
:100A60008FF9552000F092F9902000F089F9D020FC
:100A700000F08CF9A42000F083F9A12000F080F9A7
:100A8000E02000F083F9D02000F07AF9002000F097
:100A900077F9062000F074F9092000F071F90B20B5
:100AA00000F06EF92A2000F06BF93C2000F068F9A4
:100AB000552000F065F94B2000F062F9082000F0A5
:100AC0005FF9162000F05CF9142000F059F91920A4
:100AD00000F056F9202000F053F9E12000F056F91B
:100AE000D02000F04DF9002000F04AF9062000F077
:100AF00047F9092000F044F90B2000F041F92920C2
:100B000000F03EF9362000F03BF9542000F038F9AF
:100B10004B2000F035F90D2000F032F9162000F0DE
:100B20002FF9142000F02CF9212000F029F92020C1
:100B300000F026F9292000F029F901F03DFB10BD55
:100B40002DE9FF5F80468A4617469B460F9D002091
:100B50000290CDF80080284605EBD071C1F3470420
:100B60002046E21704EB5272D2102146E31704EB41
:100B70005373DB10A4EBC3030BB1012300E000238C
:100B80001A446A4392B20192A7F12000C7B20AEB5D
:100B90000500401E83B208EB0400401E82B251469D
:100BA0004046FFF795FE002673E00C2D07D107EBBA
:100BB00047003A4901EB8000805D039025E0102D4D
:100BC00005D1374800EB0710805D03901DE0182D1C
:100BD00007D107EB4700334901EB0010805D03901C
:100BE00013E0202D05D1304800EB8710805D039085
:100BF0000BE0302D07D107EBC7002C4901EB0010AB
:100C0000805D039001E0BDE8FF9F4FF000093AE0EE
:100C10001098C8B9012000FA09F00399084018B1EA
:100C2000584600F0A0F802E00E9800F09CF80298F8
:100C3000401CC0B20290029890FBF4F104FB11003A
:100C4000E8B90020029021E0012000FA09F00399A0
:100C5000084020B15A4651464046FFF75AFE08F177
:100C600001001FFA80F80098A8EB0000A04206D10E
:100C7000DDF800800AF101001FFA80FA06E009F1B0
:100C8000010000F0FF09B9F1080FC1DB00BF701CC3
:100C900086B20198864288DB00BFB4E7B03700080F
:100CA000243C000814420008E4530008A46B000828
:100CB0002DE9F84F06460F4690469946DDF82CB0D0
:100CC0008020009007F11F0083B206F11F0082B25E
:100CD00039463046FFF7FCFD00251BE0104800EBCD
:100CE000C81010F805A0002410E0BBF1000F0BD1D4
:100CF0008020204100EA0A0018B1484600F033F88D
:100D000002E00A9800F02FF8601CC4B2082CECDB5B
:100D1000681C85B200988542E0DBBDE8F88F0000D2
:100D200014A100082DE9FE4F06460F4614469846CA
:100D3000DDE90D5ADDF8309010E0CDE9015ACDF82B
:100D400000902278434639463046FFF7F9FE2846A0
:100D500005EBD07106EB61018EB2641C207800288F
:100D6000EBD1BDE8FE8F18B5044620128DF80000C7
:100D7000E0B28DF8010002216846FFF787FB18BD3D
:100D800010B50446204600F011F810BD10B5044619
:100D900010210548FFF788FC204600F007F81021D5
:100DA0000148FFF783FC10BD000C014001B5402154
:100DB0000348FFF779FC01216846FFF767FB08BD90
:100DC000000C0140002418E001F078F9012803D05C
:100DD00002F0A6FB094908604FF4FA610748006871
:100DE00002F06CF804462CB102F09AFB034908604B
:100DF00001F0C2F9C82002F06FF9E5E760000020B9
:100E000000BFFEE77047000070B5002100230F22ED
:100E1000C47804B3154C246804F4E064C4F5E064B9
:100E2000210AC1F10403CA40447804FA03F184782A
:100E30001440214309010E4C0678A155047804F0B2
:100E40001F050124AC4005786D11AD0005F1E025CA
:100E5000C5F8004109E0047804F01F050124AC4006
:100E6000044D0678761145F8264070BD0CED00E083
:100E700000E400E080E100E002490143024A116021
:100E8000704700000000FA050CED00E029B1064AA9
:100E900052690243044B5A6104E0034A5269824397
:100EA000014B5A61704700000010024029B1064A08
:100EB000D2690243044BDA6104E0034AD2698243F7
:100EC000014BDA61704700000010024029B1064A68
:100ED00012690243044B1A6104E0034A1269824317
:100EE000014B1A61704700000010024029B1064A08
:100EF00092690243044B9A6104E0034A9269824377
:100F0000014B9A61704700000010024029B1064A67
:100F1000D2680243044BDA6004E0034AD268824399
:100F2000014BDA6070470000001002402DE9F041EB
:100F300000210022002500230026002400278C46E3
:100F4000DFF86081D8F8048008F00C0121B1042991
:100F500007D0082959D109E0DFF84C81C0F800809A
:100F600058E0DFF84881C0F8008053E0DFF83481B2
:100F7000D8F8048008F47012DFF82881D8F80480CB
:100F800008F48035920C0D2A01D0921C00E0062254
:100F900035B9DFF81C8102FB08F8C0F8008033E0A7
:100FA000DFF80081D8F82C8008F48036DFF8F48070
:100FB000D8F82C8008F00F0808F1010446B9DFF8D2
:100FC000EC80B8FBF4F808FB02F8C0F800801BE0E6
:100FD000DFF8D080D8F82C80C8F3031808F1010797
:100FE000DFF8C080D8F82C80C8F3032808F1020C81
:100FF000DFF8B880B8FBF7F808FB0CF8B8FBF4F89A
:1010000008FB02F8C0F8008004E0DFF89C80C0F81C
:10101000008000BF00BFDFF88C80D8F8048008F0A3
:10102000F0010909DFF88C8018F80130D0F8008051
:1010300028FA03F8C0F80480DFF86880D8F8048044
:1010400008F4E061090ADFF86C8018F80130D0F884
:10105000048028FA03F8C0F80880DFF84880D8F840
:10106000048008F46051C90ADFF8488018F801309C
:10107000D0F8048028FA03F8C0F80C80DFF8248048
:10108000D8F8048008F44041890BDFF82C8018F868
:101090000130D0F80C80B8FBF3F8C0F81080BDE840
:1010A000F08100000010024000127A0040787D01BB
:1010B00000093D00700000208000002021B102885E
:1010C00042F04002028004E002884FF6BF731A40EB
:1010D000028070471AB183880B43838002E08388C3
:1010E0008B438380704710B50022028802F441527E
:1010F0000B884C8823438C882343CC8823430C895A
:1011000023434C8923438C892343CC8923431A43AB
:101110000280838B4FF2FF74234083830B8A038208
:1011200010BD10B500F002F810BD00000CB5002095
:10113000019000903F48006840F480303D490860CD
:1011400000BF3C48006800F4003000900198401C4B
:101150000190009818B90198B0F5A06FF1D1354809
:10116000006800F4003010B10120009001E0002080
:101170000090009801285CD12F48006840F01000D2
:101180002D4908600846006820F003000860084602
:10119000006840F002000860264840682549486021
:1011A0000846406848600846406840F480604860EF
:1011B0000846C06A214908401E49C8620846C06AFC
:1011C0001F4908431B49C8620846006840F0806018
:1011D000086000BF1748006800F000600028F9D0E0
:1011E0001448406820F47C10124948600846406862
:1011F00040F4E81048600846006840F080700860DD
:1012000000BF0C48006800F000700028F9D00948C1
:10121000406820F00300074948600846406840F0F5
:101220000200486000BF0348406800F00C00082836
:10123000F9D10CBD001002400020024000F0FEFF7A
:1012400044060100032006490870002088600873E6
:10125000487308460021C0F80E10817470470000E2
:1012600000010020042808D14FF0E021096941F075
:1012700004014FF0E022116107E04FF0E02109691D
:1012800021F004014FF0E0221161704710B502F027
:1012900037F9012801D002F08DF810BD70B5054670
:1012A0000420FFF7DFFF104800681049B0FBF1F0A1
:1012B0000F4908700C4800680C49B0FBF1F44FF47A
:1012C0007A70444301200B4908804FF0E020006908
:1012D00040F002004FF0E0210861084644610069D7
:1012E00040F00100086170BD4C00002040420F003A
:1012F000DC000020DE00002010B51648006840F039
:101300000100144908600846406813490840114923
:10131000486008460068114908400E4908600846C0
:10132000006820F4802008600846406820F4FE0031
:1013300048600846006820F0A05008604FF47F0025
:1013400088600020C862FFF7ECFE4FF0006004499F
:10135000086010BD001002400000FFF0FFFFF6FE25
:1013600008ED00E0F0B50C46154600220021068C81
:101370004FF6FE773E400684028B018C4FF60C76CA
:1013800032407E1C06EA03162E433243104EB04212
:101390000ED0104EB0420BD0B0F1804F08D00E4EA0
:1013A000B04205D00D4EB04202D00D4EB04206D133
:1013B0004FF6FD76314044F00106314305E04FF62B
:1013C000F576314044F00106314302830184F0BDDB
:1013D000002C01400034014000040040000800409F
:1013E000000C0040F0B50C461546002200210026F6
:1013F000078C4FF6EF7C07EA0C070784028B018C01
:101400004FF6FF7707EA041640F6FF473A404FF6DB
:10141000FF7707EA03373A434FF6FF7707EA0527D6
:101420003A43114FB8420ED0104FB8420BD0B0F132
:10143000804F08D00E4FB84205D00E4FB84202D0B0
:101440000D4FB84206D14FF6DF77394046F010070E
:10145000394305E04FF65F77394044F010073943D0
:1014600002830184F0BD0000002C014000340140E3
:101470000004004000080040000C0040F0B50C469D
:101480001546002200210026078C4FF6FF6C07EA64
:101490000C070784828B018C4FF6FF7707EA04263E
:1014A0004FF60C773A404FF6FF7707EA03172F43C2
:1014B0003A43114FB8420ED0104FB8420BD0B0F1A2
:1014C000804F08D00E4FB84205D00E4FB84202D020
:1014D0000D4FB84206D14FF6FF57394046F480779A
:1014E000394305E04FF2FF57394044F480773943E0
:1014F00082830184F0BD0000002C014000340140D3
:101500000004004000080040000C0040F0B50C460C
:101510001546002200210026078C4EF6FF7C07EAC4
:101520000C070784828B018C4FF6FF7707EA04369D
:1015300040F6FF473A404FF6FF7707EA05273A4360
:101540004FF6FF7707EA03373A43114FB8420ED000
:10155000104FB8420BD0B0F1804F08D00E4FB842B8
:1015600005D00E4FB84202D00D4FB84206D14DF60D
:10157000FF77394046F48057394305E047F6FF5777
:10158000394044F48057394382830184F0BD000020
:10159000002C0140003401400004004000080040DD
:1015A000000C004010B50121304800F076F904210C
:1015B0002E4800F072F9002852D02C4800F06AF949
:1015C0002B49886008468068B42808D2084680689D
:1015D0008C2804D9002008730420087031E02448C6
:1015E00080683C2803D9224880685A2824D32048A0
:1015F0008068872820D21E48806864281CD91C4A2D
:10160000107BC21700EB5272D310194A0E32D25C13
:10161000174B197BCB1701EB5373DB10A1EBC30402
:10162000802323411A43124B187BC31700EB5373DB
:10163000DC100F4B0E331A550D48007B401C0C4933
:1016400008730B48007B282806D10021074800F0CA
:1016500021F80120064948730021044800F08DF963
:101660000521024800F013F810BD000000040040FE
:101670000001002010B5FFF741F80121014800F0FA
:1016800003F810BD00080040CA4302827047CA43F5
:101690000282704721B1028842F00102028004E018
:1016A00002884FF6FE731A400280704710B5044658
:1016B0006848844208D10121C014FFF727FC0021AB
:1016C000E014FFF723FCC4E0B4F1804F08D10121FE
:1016D0000846FFF7FBFB00210120FFF7F7FBB8E00E
:1016E0005D48844208D101210220FFF7EFFB002171
:1016F0000220FFF7EBFBACE05848844208D10121FF
:101700000420FFF7E3FB00210420FFF7DFFBA0E04C
:101710005348844208D101210820FFF7D7FB00215C
:101720000820FFF7D3FB94E04E48844208D1012102
:101730001020FFF7CBFB00211020FFF7C7FB88E04C
:101740004948844208D101212020FFF7BFFB002136
:101750002020FFF7BBFB7CE04448844208D10121F4
:101760004014FFF7D3FB00216014FFF7CFFB70E0BC
:101770003F48844209D10121C804FFF7C7FB00217B
:101780004FF40020FFF7C2FB63E03A48844209D1DE
:1017900001210805FFF7BAFB00214FF48010FFF785
:1017A000B5FB56E03448844209D101214805FFF7D2
:1017B000ADFB00214FF40010FFF7A8FB49E02F48D4
:1017C000844208D101214020FFF780FB0021402006
:1017D000FFF77CFB3DE02A48844208D101218020AC
:1017E000FFF774FB00218020FFF770FB31E02548F4
:1017F000844208D101218015FFF768FB0021A01564
:10180000FFF764FB25E02048844209D10121080448
:10181000FFF77CFB00214FF48030FFF777FB18E0E7
:101820001A48844209D101214804FFF76FFB0021C7
:101830004FF40030FFF76AFB0BE01548844208D1F3
:1018400001218804FFF762FB00214FF48020FFF79D
:101850005DFB10BD002C014000040040000800406A
:10186000000C004000100040001400400034014013
:10187000004C01400050014000540140001800405D
:10188000001C004000200040004001400044014096
:10189000004801400146088F704730B502460020DD
:1018A00000230024158A05EA0103958905EA01044D
:1018B00013B10CB1012000E0002030BD70B5054629
:1018C0000C46244885420ED0234885420BD0B5F102
:1018D000804F08D02148854205D02148854202D05A
:1018E0002048854200D100E000BF208850B92389FC
:1018F000A28861882846FFF735FDE188284600F078
:101900003EF825E0208804280AD12389A28861882E
:101910002846FFF767FDE188284600F039F817E010
:10192000208808280AD12389A28861882846FFF7E1
:10193000A5FDE188284600F038F809E02389A2884F
:1019400061882846FFF7E2FDE188284600F036F876
:1019500070BD0000002C0140003401400004004034
:1019600000080040000C00401AB183890B438381BA
:1019700002E083898B438381704781847047028BA7
:101980004FF6F3731A400283028B0A4302837047B7
:10199000028B4FF2FF331A400283028B4FF6FF7324
:1019A00003EA01231A4302837047828B4FF6F373D5
:1019B0001A408283828B0A4382837047828B4FF264
:1019C000FF331A408283828B4FF6FF7303EA0123B1
:1019D0001A43828370470000002202881D4B984200
:1019E0000ED01D4B98420BD0B0F1804F08D01B4B4E
:1019F000984205D01A4B984202D01A4B984204D113
:101A00004FF68F731A404B881A43174B984207D0F2
:101A1000164B984204D04FF6FF431A40CB881A4326
:101A200002808B8883850B8803850A4B98420BD0F4
:101A3000094B984208D00E4B984205D00D4B984266
:101A400002D00D4B984201D10B7A03860123838289
:101A500070470000002C01400034014000040040A9
:101A600000080040000C004000100040001400403E
:101A700000400140004401400048014000BF00F028
:101A8000BDFAFEF719FC642001F026FBF7E7000021
:101A900010B586B000242A480088632810DD284845
:101AA0000088B0F57A7F0BDA25480088642190FB26
:101AB000F1F03030C2B22046611CCCB204A90A5405
:101AC0001F480088642190FBF1F201FB12000A21FB
:101AD00090FBF1F03030C2B22046611CCCB204A9B8
:101AE0000A542E222046611CCCB204A90A54144880
:101AF00000880A2190FBF1F201FB12003030C2B2E3
:101B00002046611CCCB204A90A5421222046611C43
:101B1000CCB204A90A5400222046611CCCB204A90C
:101B20000A5400201821CDE900014FF6FF7304AAE2
:101B3000032102904620FFF7F5F806B010BD000023
:101B40006E000020ADF5006D00241CE04EF6602113
:101B50000D48006801F0B2F90446002C10D001F0E5
:101B6000DFFC09490860684601F012FB07A000F09D
:101B7000CFF813A000F0CCF869461DA000F0C8F81B
:101B8000642001F0A9FAE1E7E00000202D2D2D2DC1
:101B90002D2D2D2D2D2D2D2D2D2D2D2D2D2D2D2D75
:101BA000C8CECEF12D2D2D2D2D2D2D2D2D2D2D2DC4
:101BB0002D2D2D2D2D2D2D2D2D2D2D2D0D0A0000F2
:101BC000C3FBB3C62020202020202020202020D7A7
:101BD000B4CCAC202020D3C5CFC8BCB6202020CAAE
:101BE000A3D3E0D5BB2020D0F2BAC50D0A00000077
:101BF0002573000000F007F801F0C0F800BF642072
:101C000001F06AFAFBE708B50020F0234FF4A07258
:101C100001460090FEF78CFE08BD21B1828942F496
:101C20000052828104E082894DF6FF731A4082815E
:101C3000704700002DE9F04786B005460E460024A7
:101C4000A24600BFA1460027B08900B100BF2F46C1
:101C50002C8A4CF6FF700440F08804432C82AC8937
:101C60004EF6F3100440B088318908437189084367
:101C70000443AC81AC8A4FF6FF400440B089044372
:101C8000AC8201A8FFF752F91F48874202D1DDF864
:101C900010A001E0DDF80CA0A88900F4004040B1DC
:101CA0000AEBCA0000EB0A1031684900B0FBF1F8FA
:101CB00007E00AEBCA0000EB0A1031688900B0FBAC
:101CC000F1F86420B8FBF0F004012009642101FB65
:101CD0001089A88900F4004040B1322000EBC9000F
:101CE000B0FBF1F000F00700044308E0322000EB05
:101CF00009106421B0FBF1F000F00F0004432C81C7
:101D000006B0BDE8F08700000038014000BFFEE7E4
:101D10000FB4054B10B503A9044A029800F02CF843
:101D200010BC5DF814FB0000B91F0008E40000209F
:101D30000FB4084B10B504A902AA039800F01CF8D0
:101D4000044602A9002000F0F3F8204610BC5DF81C
:101D500014FB0000311F000802E008C8121F08C170
:101D6000002AFAD170477047002001E001C1121F1C
:101D7000002AFBD1704700002DE9FF4F8BB09A4637
:101D80000F460546002606E025280BD052460D9941
:101D900090476D1C761C28780028F5D10FB030468E
:101DA000BDE8F08F0024A0460122604900E0044312
:101DB00015F8013F203B02FA03F00842F7D12878DA
:101DC0002E2817D115F8010F44F004042A280ED04C
:101DD0006FF02F022878A0F1300109290AD808EB0A
:101DE000880102EB410100EB01086D1CF2E757F896
:101DF000048B6D1C287869283ED006DC0028CDD0E5
:101E000063280BD0642804D136E0732810D07528DD
:101E10004BD052460D999047761C85E017F8040B7D
:101E20008DF8000000208DF80100E946012003E054
:101E300057F8049B4FF0FF3061074FF0000401D4C6
:101E40000AE0641C44450DDA8442FADB19F80410F8
:101E50000029F6D106E0641C8442FCDB19F804106A
:101E60000029F8D1264404E019F8010B52460D99D7
:101E70009047641EF8D257E001CF4FF00A0B0028BC
:101E800002DA40422D2102E0210504D52B218DF8F4
:101E90002410012103E0E10705D02021F7E70DF12F
:101EA000200908910CE00021F9E701CF4FF00A0B5F
:101EB000F9E75946FEF7D8F901F1300209F8012D8A
:101EC0000028F6D1ADEB090000F1200B600701D42A
:101ED0004FF00108D84502DDA8EB0B0000E0002020
:101EE0008046002406E009A85246005D0D999047FF
:101EF000641C761C08988442F5DB04E030205246CE
:101F00000D999047761CB8F10001A8F10108F5DCA5
:101F100005E019F8010B52460D999047761CBBF16C
:101F20000001ABF1010BF4DC6D1C34E70928010062
:101F30000A68531C0B601070704700204FF4E1508A
:101F400000BF011EA0F10100FBD170472DE9F04157
:101F50000646374613480068874201D100241EE038
:101F600001F060F87D6901F06FF80F480068854264
:101F700003D00E480068854201D102240FE00C48CE
:101F8000854205D1B86A08B9032408E0022406E0B6
:101F90000848854200D00DB9042400E00124204601
:101FA000BDE8F08184000020880000208C00002023
:101FB000E4030020D00300200A46044900BF0B8838
:101FC00003F08003002BFAD088807047003801406E
:101FD00010B50020044948808880087047214FF6DA
:101FE000FF7000F0A7FA10BD0001002010B502211B
:101FF0000148FEF747FB10BD000C014070B52B48AF
:102000000068401C29490860084600681E2804D959
:10201000002008600120264908702548007830B16A
:10202000012805D0032809D004283CD112E03AE069
:10203000FFF708F9012000F0DFF834E080211D48A7
:10204000FEF734FB01211C48FFF724FB002000F0C1
:10205000D3F828E01648407B20B3002014490870CC
:1020600048730846857B012406E011480E30005D68
:102070002844C5B2601CC4B2042CF6DB0C48807C3A
:10208000A8420ED10A48C07B0949897B00EB012098
:10209000074988800846417C007C01EB0020044908
:1020A0004880002500BF00BF70BD00003400002044
:1020B00000010020000801400004004010B5FFF7B7
:1020C00095FF0446FFF739FF0D480078844203D19D
:1020D00000200C49087010E00948007884420CD0B8
:1020E00008480078401C0749087008460078142802
:1020F00003DD00200870024804700148007810BD1C
:10210000000000200100002008B501210820FEF792
:10211000EDFE0220ADF8000004208DF803006946B2
:102120000348FEF7DCF9FFF761FF0249087008BDBC
:10213000000C01400000002008B501211020FEF72E
:10214000D5FE4FF44040ADF8000002208DF80200AB
:1021500010208DF8030069460448FEF7C0F94FF4DB
:1021600080410248FEF7A0FA08BD000000100140BF
:1021700010B5FFF7E1FF10BD10B54FF480410D48D9
:10218000FEF789FAC0F10100C4B222464FF4804143
:102190000848FEF78DFA4FF400410648FEF77BFA37
:1021A000C0F10100C4B222464FF400410148FEF7DD
:1021B0007FFA10BD0010014010B54FF48061024855
:1021C000FEF774FA10BD00000010014008B50120B0
:1021D000ADF8000002208DF8020010208DF80300F9
:1021E00069460448FEF77BF901210248FEF75EFAD2
:1021F00008BD00000008014038B504460121042054
:10220000FEF774FE012C11D18020ADF800000220F1
:102210008DF8020010208DF8030069460948FEF78A
:102220005EF980210748FEF73FFA09E08020ADF80B
:10223000000048208DF8030069460248FEF74FF978
:1022400038BD00000008014008B501211020FEF74C
:102250004DFE01210420FEF749FE01210846FEF74C
:1022600045FE0620ADF8000003208DF80200102086
:102270008DF8030069460C48FEF731F90820ADF8E7
:10228000000003208DF8020004208DF80300694649
:102290000548FEF724F904210348FEF707FA022156
:1022A0000148FEF703FA08BD0010014010B5FFF722
:1022B000CBFFFFF78BFF002003490870034908702C
:1022C000FF200349087010BD2A0000202B000020C9
:1022D0002C00002010B54FF400410248FEF7E6F94B
:1022E00010BD00000008014010B54FF40041024845
:1022F000FEF7DAF910BD00000008014010B50446F1
:102300002CB14FF480510548FEF7D0F904E04FF4AA
:1023100080510248FEF7C8F910BD0000000C0140D2
:1023200000B587B001218803FEF7C0FD0121082018
:10233000FEF7DCFD01210846FEF7D8FD4FF46040B2
:10234000ADF8040003208DF8060018208DF8070072
:1023500001A91F48FEF7C3F84FF48050ADF8040000
:1023600003208DF8060010208DF8070001A91848F9
:10237000FEF7B5F84FF480511548FEF797F90020A5
:10238000ADF808004FF48270ADF80A000020ADF8F7
:102390000C000220ADF80E000120ADF81000400244
:1023A000ADF812001020ADF814000020ADF81600B2
:1023B0000720ADF8180002A90648FEF794FE012197
:1023C0000448FEF77BFE0120FFF798FF07B000BD31
:1023D000000C01400038004000BF011EA0F10100C8
:1023E000FBD1704700B591B00121C803FEF75EFD37
:1023F00001210220FEF74AFD01211D20FEF776FD96
:1024000001214648FEF7F6F84FF40040ADF82C00E5
:1024100010208DF82F0003208DF82E000BA94048C6
:10242000FEF75DF84FF400413D48FEF73FF95020BC
:10243000ADF82C0010208DF82F0003208DF82E0011
:102440000BA93848FEF74BF850213648FEF72EF915
:102450004FF48060ADF82C0010208DF82F00032081
:102460008DF82E000BA93048FEF739F84FF4806143
:102470002D48FEF719F92820ADF82C0003208DF81F
:102480002E0018208DF82F000BA92648FEF727F8FC
:102490004FF44040ADF830004FF48270ADF8320098
:1024A0000020ADF834000220ADF836000120ADF870
:1024B00038004002ADF83A000020ADF83C00ADF81D
:1024C0003E000720ADF840000CA91848FEF70BFEAF
:1024D0001748FDF717FF15480C30009010200290A8
:1024E0008001039000200490802005900020069039
:1024F000079008904FF48050099000200A90694698
:102500000B48FDF7A5FF012202210848FEF7E2FD76
:1025100001210648FEF7D2FD11B000BD00023000D7
:1025200000080140000C014000100140003C004048
:102530001C04024030B589B005460C46012102203A
:10254000FEF7B4FC01210420FEF7D0FC8020ADF89A
:10255000200010208DF8230003208DF8220008A908
:102560001F48FDF7BCFF80211D48FEF79FF8ADF81E
:102570000C50ADF808400020ADF80E00ADF80A0090
:1025800002A91848FFF728FA0420ADF81400022029
:10259000ADF816000120ADF818000020ADF81A00C3
:1025A000ADF81C0005A90F48FFF788F91D208DF82C
:1025B000040002208DF8050000208DF8060001209F
:1025C0008DF8070001A8FEF71FFC01220521054830
:1025D000FFF7CAF900210348FFF75CF809B030BDE6
:1025E00000080140000400401FB501210420FEF74F
:1025F0005DFC1A48FFF75AF83220ADF80800184879
:1026000000681849B0FBF1F0401E80B2ADF804003C
:102610000020ADF80A00ADF8060001A90F48FFF749
:10262000DBF9012211460D48FFF79EF901210B4805
:10263000FFF730F84FF4A060FEF71EFC1E208DF867
:10264000000000208DF8010003208DF80200012019
:102650008DF803006846FEF7D7FB1FBD0008004059
:102660004C00002040420F0010B5FFF7BDFF0024D2
:1026700017E0012004EB44010B4A02F8210000207E
:1026800004EB440102EB8101488004EB440102EBBE
:102690008101888004EB440102EB81018860601CA9
:1026A000C4B2022CE5DB10BDE80000201CB54820B8
:1026B000FEF7F4FD4FF44070FEF7DEFBFEF70AF87C
:1026C000002202210A2000F08FFE1F49086000F05E
:1026D00049FE1E4908601E48012100233222CDE92F
:1026E00000101CA11E4800F0DBFE1E480321002341
:1026F000C822CDE900101CA11E4800F0D1FE1E48E2
:10270000042100234FF49672CDE900101BA11E484E
:1027100000F0C6FE1D4802210023C822CDE90010AA
:102720001BA11E4800F0BCFE1848052100234FF4F1
:102730008062CDE900101AA11C4800F0B1FE00F043
:1027400097FD00201CBD00006400002068000020F0
:10275000380000204C65645F5461736B000000001A
:10276000C50D00083C0000204B65795F5461736B18
:1027700000000000B5080008400000205466744CBA
:1027800063645F5461736B00F51B00084400002014
:1027900054656D48756D5F5461736B007D1A000858
:1027A000546573745F5461736B000000451B00082F
:1027B0002DE9F04105460E461C4807681C48006894
:1027C000001D00F08DFB50B91948006890F82C10DE
:1027D0000120884017490968814316480160681C38
:1027E00038B936B112480168091D134800F00EFCD3
:1027F0001AE07C190E4800684460BC4207D20C48BD
:102800000168091D0D48006800F0E6FB0CE008486F
:102810000168091D0A48006800F0DEFB09480068ED
:10282000844201D207480460BDE8F081980000208E
:10283000840000209C000020E40300208C00002085
:1028400088000020B400002010B5044600F0EAFB28
:1028500024480068401C234908602348006840B9A8
:10286000214804600846006801280DD100F028F9CD
:102870000AE01E48006838B91B480068C06AE16A6F
:10288000884201D81848046019480068401C18495B
:10289000086008460068606494F82C1001208840A5
:1028A00014490968084313490860E16A01EB810192
:1028B000114A02EB8100211D00F0A8FB00F0C4FBCF
:1028C0000A48006868B108480068C06AE16A88423E
:1028D00007D24FF0805009490860BFF34F8FBFF314
:1028E0006F8F10BD9400002084000020A000002005
:1028F000B00000209C0000201401002004ED00E046
:1029000010B516E000F08EFB0C48C068C468201DAE
:1029100000F0E6FA0A480068401E094908600948C4
:102920000068401E0749086000F08EFB204600F05A
:102930000BF8044800680028E4D110BDD003002043
:10294000940000209000002010B50446206B00F099
:102950008BFB204600F088FB10BD000030B54FF423
:102960001043174800F007042CB1C01D20F00700E9
:10297000134C041B1B1B0246124C22600024114DF9
:102980006C60D018083820F007000F4C206000243D
:102990000D4D2D686C600C4D2D682C601146441A4D
:1029A0004C60094C24680C60084D4C682C60084D44
:1029B0004C682C604FF00044064D2C6030BD000088
:1029C000F8030020C0000020C8000020D000002034
:1029D000CC000020D400002000BFFFF791FF064884
:1029E00000680128F9D94FF0805004490860BFF30E
:1029F0004F8FBFF36F8FF0E71401002004ED00E06C
:102A00002DE9F04106460D4617469846069C0DB93D
:102A1000246000E02760E66325640121204600F081
:102A2000FFFC84F850800020A064BDE8F0812DE90F
:102A3000F05F81460F4690469A460A9E0C9C4FEAEC
:102A40008801A522206BFDF7EDFBA8F10100216BA9
:102A500001EB800B2BF0070B002507E0795D04F1FB
:102A600034004155785D00B902E06D1C102DF5D39E
:102A700000BF002143200155202E00D31F26E6620F
:102A8000E66400202065201D00F0A3FA04F1180080
:102A900000F09FFA2461C6F12000A061646200206A
:102AA000606584F8580052464946584600F054F98B
:102AB00020600B9808B10B980460BDE8F09F0000FF
:102AC00010B5002407E004EB84010F4A02EB8100FB
:102AD00000F072FA641C202CF5D30C4800F06CFA5C
:102AE0000B4800F069FA0B4800F066FA0A4800F05B
:102AF00063FA0A4800F060FA04480949086004488B
:102B00000849086010BD0000140100209403002053
:102B1000A8030020BC030020D0030020E403002011
:102B2000880000208C00002010B50146164800E007
:102B3000006803688B42FBD30246436813448B4210
:102B400004D143684C682344436001460A464B68FD
:102B500013440468A34211D10C4C03682468A342B7
:102B600008D04B680468646823444B6003681B68A2
:102B70000B6005E0054B1B680B6001E003680B6010
:102B8000884200D0016010BDC0000020C8000020B5
:102B90002DE9F04707460C4690460026206848B3CA
:102BA000204641684968416000F1080142688A4254
:102BB00002D14168496841604168D1F80C9000BF7A
:102BC000204641684968416000F1080142688A4234
:102BD00002D14168496841604168CD6806EBC60092
:102BE00007EB800143460122284600F08FFA761C4D
:102BF0004D45E5D13046BDE8F08700000A49096837
:102C0000096809B9012100E0002121B14FF0FF312D
:102C1000064A116006E004490968C968C868034AA1
:102C2000416811607047000088000020B400002057
:102C30000246002101E0521C491C1078A528FAD058
:102C4000890888B2704700BF502080F31188BFF315
:102C50004F8FBFF36F8F00BF00BFFEE770B5054613
:102C60000E4631462846FDF7F6FA2846FDF7ECFAFF
:102C7000044602E020202855641C0F2CFAD30020C3
:102C80002855281970BD00002DE9F04105464FF088
:102C9000000800F01FFB2B48006808B9FFF75EFE34
:102CA000294800682840002847D145B1083505F07B
:102CB000070020B105F00700C0F108000544002D11
:102CC0003BD022480068854237D8214E3046046800
:102CD00001E0264624686068A84202D220680028E5
:102CE000F7D118480068844227D0306800F10808FE
:102CF000206830606068401B102807D96719606839
:102D0000401B786065603846FFF70EFF0F4960682A
:102D10000968081A0D490860084600680D490968E5
:102D2000884203D2094800680A4908600649606879
:102D30000968084360600020206000F0C5FC404640
:102D4000BDE8F081C8000020D4000020CC000020A5
:102D5000C0000020D0000020001F4FF080730360EF
:102D6000001F21F001030360001F034B03601438B0
:102D70000260203870470000472C000800B587B07B
:102D8000002000904FF6FF730F22012101900846AA
:102D9000FDF78EFF002000904FF6FF730E220121F9
:102DA00001902120FDF784FF002000904FF6FF7373
:102DB000032201210190FA20FDF77AFF0020009004
:102DC0004FF6FF730422012101904FF48D70FDF73F
:102DD0006FFF002000904FF6FF7311220121019038
:102DE000D220FDF765FF00203021CDE900014FF62C
:102DF000FF732EA2642102904620FDF793FF32203C
:102E00008DF80C0030208DF80D0032208DF80E006A
:102E100034208DF80F002D208DF8100030208DF813
:102E2000110031208DF812002D208DF81300322072
:102E30008DF814008DF8150000208DF8160018216B
:102E4000CDE900014FF6FF7303AAC82102901420B8
:102E5000FDF768FF31208DF80C0032208DF80D0051
:102E60003A208DF80E0030208DF80F008DF81000FC
:102E700000208DF811001821CDE900014FF6FF73F5
:102E800003AAC8210290A020FDF74CFF00201821C2
:102E9000CDE900014FF6FF7307A2C82102904FF45D
:102EA0008270FDF73FFF07B000BD0000204449538A
:102EB00041524D20000000004D6F6E002DE9F041A1
:102EC00004460D460026002700F02AFB064627464A
:102ED000F01BA84202D90120BDE8F0810020FBE7E9
:102EE00001460A69D1E901309860D1E901035860CF
:102EF0005068884201D188685060002008611068DD
:102F0000401E1060106870472DE9F0410546884664
:102F100016460024202700F0DDF92148006880458E
:102F200039D300BF7F1E07EB87021E4B03EB8201E4
:102F300004EBC40205EB82000122FFF729FE0444E2
:102F4000002FEFD104EBC40105EB810002221649EA
:102F50000968FFF71DFE044404EBC40105EB810082
:102F6000022212490968FFF713FE044404EBC4016E
:102F700005EB810004220E49FFF70AFE044404EB2E
:102F8000C40105EB810003220A49FFF701FE044456
:102F90000EB10020306000F097FB2046BDE8F081C4
:102FA0009400002014010020880000208C000020E4
:102FB000D0030020E403002000F1080141604FF03D
:102FC000FF31816000F10801C160016100210160F1
:102FD000704700210161704710B502460B685C1C08
:102FE0000CB9106907E002F1080000E0406844688D
:102FF00024689C42FAD944684C604C68A16088609F
:1030000041600A611468641C146010BD42684A6023
:1030100093688B60936859609160086103685B1CDA
:103020000360704700BF502080F31188BFF34F8FBB
:10303000BFF36F8F00BF03480068401C0149086060
:1030400070470000D800002006480068401E05496F
:1030500008600846006820B9002080F3118800BF8E
:1030600000BF7047D800002070B506463546D6B17F
:10307000083D2C460C4960680968084098B12068F2
:1030800088B90949606809688843606000F022F9DE
:103090000649606809680844044908602046FFF74B
:1030A00043FD00F011FB70BDD4000020CC000020D7
:1030B00000204FF0E02108618861064800684FF465
:1030C0007A71B0FBF1F0401E4FF0E021486107201B
:1030D000086170474C00002070B50446002544B1DB
:1030E00000F0F8F800212046FFF762FB00F0ECFA50
:1030F00005463DB94FF0805003490860BFF34F8F3C
:10310000BFF36F8F70BD000004ED00E02DE9F041CA
:1031100007460C4690461E4617B91C48006800E05A
:1031200038460546256005F134006060E86A206194
:10313000286BE061686CA060E86C60610020A061B1
:10314000052E12D011480068854202D1002020735C
:103150000FE02673032E0CD100F0BCF8A86A08B16A
:103160000220207300F0B0FA03E02846FEF7EEFEDE
:103170002073B8F1000F04D0286BFFF759FD2084AD
:1031800001E000202084BDE8F081000084000020E0
:103190007FB50546002028703048006803902F490D
:1031A000096801EBC1018800FFF76EFD0446002CA1
:1031B00053D0002220460399FFF7A6FE039000207B
:1031C000029043E0029800EBC00004EB8000007B1B
:1031D00005280ED2DFE800F0030507090B0058268A
:1031E00009E0522607E0422605E0532603E0442684
:1031F00001E0002600BF00BF029800EBC00004EB16
:10320000800041682846FFF729FD0546029800EB3B
:10321000C00004EB80008068029901EBC10104EB5F
:103220008101098CCDE90010029800EBC00004EB8D
:10323000800032460AA103692846FEF779FD284638
:10324000FDF702F805440298401C0290DDE90201F6
:103250008842B7D32046FFF707FF7FBD94000020C8
:103260000925630925750925750925750D0A0000CD
:103270001CB5114800210B468022CDE900100FA19A
:10328000104800F00DF90446012C14D100BF502065
:1032900080F31188BFF34F8FBFF36F8F00BF4FF0E4
:1032A000FF300949086001200849086000200849EA
:1032B000086000F065F81CBDB800002049444C458A
:1032C00000000000D9290008B4000020A000002060
:1032D0009800002002480068401C014908607047BF
:1032E000BC0000201248006818B101201149086094
:1032F0001DE000200F4908600F480068B0FA80F018
:10330000C0F11F0101EB81020C4B03EB820042680C
:103310005268426000F108024368934202D1426859
:10332000526842604268D268054B1A6000BF70471D
:10333000BC000020A80000209C00002014010020F8
:10334000840000202DE9F04104460E462546FFF793
:1033500069FE2F682868B0432860FFF775FE38467D
:10336000BDE8F08110B51C20FFF78EFC044624B1A7
:1033700000202060201DFFF71FFE204610BD00002A
:1033800010B50A48006840F4700008490860084613
:10339000006840F070400860FFF78AFE0020044992
:1033A0000860FCF7F3FE002010BD000020ED00E0F7
:1033B000D800002010B500BF502080F31188BFF363
:1033C0004F8FBFF36F8F00BF00F0B0F818B14FF010
:1033D00080500449086000BF002080F3118800BFBE
:1033E00010BD000004ED00E02DE9F84307460D464E
:1033F00090460DB9002601E007FB05F606F15400E2
:10340000FFF742FC044644B104F1540943464A46DE
:10341000294638460094FFF7F3FA2046BDE8F883C2
:1034200070B505460E462C46FFF7FCFDD4E90F1299
:10343000206801FB020060600020A0632068A0609B
:10344000E06B401E226C216800FB0210E060FF2050
:1034500084F8440084F845009EB9206908B9012029
:1034600000E00020A8B904F1100000F0EDF880B1F0
:103470004FF0805009490860BFF34F8FBFF36F8F43
:1034800007E004F11000FFF797FD04F12400FFF7B7
:1034900093FDFFF7D9FD012070BD000004ED00E0B1
:1034A0002DE9FF4F85B0804689461746DDE912AB0E
:1034B000B800FFF7E9FB064656B15C20FFF7E4FBD6
:1034C00004460CB1266304E03046FFF7CDFD00E072
:1034D00000247CB10020CDE900ABCDE902403A46A2
:1034E00049464046089BFFF7A2FA2046FFF7ACF991
:1034F000012501E04FF0FF35284609B0BDE8F08F07
:103500000549096809B9012005E00449096809B9B4
:10351000022000E000207047A0000020BC00002036
:103520000149086870470000980000202DE9F0412B
:1035300000273A480068002863D139480068451CD4
:10354000374805608DB93748D0F8008036480068A4
:10355000344908603448C0F8008034480068401C92
:1035600032490860FFF74AFB00BF314800688542D6
:103570003BD300BF2B480068006808B9012000E079
:10358000002020B14FF0FF30294908602CE0254889
:103590000068C068C4686668B54202D22448066004
:1035A00022E0201DFFF79CFCA06A18B104F118006E
:1035B000FFF796FC94F82C10012088401D490968FB
:1035C00008431C490860E16A01EB81011A4A02EBD9
:1035D0008100211DFFF71AFD1849E06A0968C96AD0
:1035E0008842C7D30127C5E700BF14480068C06AF6
:1035F00000EB8000104951F82000012800D9012774
:1036000004E00F480068401C0D4908600D48006840
:1036100000B101273846BDE8F0810000BC00002061
:1036200098000020880000208C000020AC000020C2
:10363000B40000209C000020140100208400002021
:10364000A4000020A800002070B50646F068C468F9
:1036500004F11800FFF744FC15480068A8B9201DC4
:10366000FFF73EFC94F82C100120884011490968AE
:10367000084310490860E16A01EB81010E4A02EB40
:103680008100211DFFF7C2FC04E004F118010B4882
:10369000FFF7BCFC0A49E06A0968C96A884204D994
:1036A000012501200749086000E00025284670BD7B
:1036B000BC0000209C00002014010020BC0300205E
:1036C00084000020A800002070B500240026FFF729
:1036D000A9FC2E480068401E2C4908600846006876
:1036E00000284FD12A48006800284BD024E0294800
:1036F000C068C46804F11800FFF7F2FB201DFFF753
:10370000EFFB94F82C1001208840234909680843F6
:1037100021490860E16A01EB8101204A02EB810046
:10372000211DFFF773FC1E49E06A0968C96A8842D7
:1037300002D301201B4908601648006808B901201F
:1037400000E000200028D2D00CB1FFF757FA16484D
:10375000056865B100BFFFF7E9FE10B1012011490E
:1037600008606D1E002DF6D100200F4908600D483D
:10377000006838B1012630070C490860BFF34F8F4D
:10378000BFF36F8FFFF760FC304670BDBC000020B8
:1037900094000020BC0300209C00002014010020A5
:1037A00084000020A8000020A400002004ED00E018
:1037B0000000000000000000000000000000040401
:1037C000040404000004000014140A0000000000B7
:1037D0000000000000000A0A1F0A0A1F0A0A00006F
:1037E00000040E1505060C14150E04000000121539
:1037F0000D152E2C2A1200000000040A0A36151599
:103800002916000002020100000000000000000074
:103810001008080404040404080810000204040842
:10382000080808080404020000000004150E0E1524
:103830000400000000000008083E08080000000026
:103840000000000000000000020201000000000073
:10385000003F000000000000000000000000000029
:1038600000020000002010100808040402020100F9
:1038700000000E1111111111110E000000000406BC
:1038800004040404040E000000000E1111080402D8
:10389000011F000000000E11100C1010110E00008E
:1038A0000000080C0C0A091F081C000000001F0182
:1038B000010F1110110E000000000C12010D131168
:1038C000110E000000001E1008080404040400008B
:1038D00000000E11110E1111110E000000000E114A
:1038E0001119161009060000000000000400000075
:1038F00000040000000000000004000000040400B8
:10390000000010080402020408100000000000007B
:103910003F003F00000000000000020408101008F3
:103920000402000000000E1111080404000400004D
:1039300000001C22292D2D1D221C00000000040463
:103940000C0A0A1E1233000000000F12120E12128F
:10395000120F000000001E1101010101110E0000F4
:1039600000000F1212121212120F000000001F129C
:103970000A0E0A02121F000000001F120A0E0A029D
:103980000207000000001C1201013911120C000096
:1039900000003312121E12121233000000001F0426
:1039A00004040404041F000000003E08080808087E
:1039B00008080907000037120A060A121237000029
:1039C0000000070202020202223F000000003B1B2F
:1039D0001B1B15151535000000003B1216161A1A90
:1039E0001217000000000E1111111111110E00002C
:1039F00000000F12120E02020207000000000E115A
:103A000011111117190E180000000F12120E0A12D0
:103A10001237000000001E1101060810110F0000EF
:103A200000001F1504040404040E000000003312FB
:103A300012121212120C000000003312120A0A0CA9
:103A4000040400000000151515150E0A0A0A0000EE
:103A500000001B0A0A04040A0A1B000000001B0ADB
:103A60000A0A0404040E000000001F0908040402EE
:103A7000121F00001C0404040404040404041C00B9
:103A80000002020404040808081010000E080808C8
:103A90000808080808080E00040A000000000000DA
:103AA0000000000000000000000000000000003FD7
:103AB0000204000000000000000000000000000000
:103AC000000C121C123C000000030202020E121233
:103AD000120E000000000000001C1202120C000078
:103AE00000181010101C1212123C00000000000000
:103AF000000C121E021C000000182404041E040402
:103B0000041E000000000000003C120C021C221CDD
:103B100000030202020E1212123700000004040019
:103B200000060404040E000000080800000C080849
:103B30000808080700030202021A0A060A13000016
:103B40000007040404040404041F00000000000033
:103B5000000F15151515000000000000000F1212CF
:103B60001237000000000000000C1212120C0000BE
:103B700000000000000F1212120E020700000000E9
:103B8000001C1212121C103800000000001B06025C
:103B90000207000000000000001E020C101E0000C2
:103BA00000000004041E0404041C000000000000C7
:103BB000001B1212123C000000000000001B0A0A49
:103BC00004040000000000000015150E0A0A0000A1
:103BD00000000000001B0A040A1B00000000000097
:103BE000003312120C08040300000000001E080439
:103BF000041E000018080808080C08080808180027
:103C00000808080808080808080808080604040442
:103C10000408040404040600160900000000000063
:103C20000000000000000000000000000000000094
:103C3000000000000000000808080808080800004C
:103C40001818000000486C2412000000000000005A
:103C5000000000000000002424247F1212127F12B2
:103C6000121200000000081C2A2A0A0C1828282A10
:103C70002A1C080800000022251515152A5854543E
:103C8000542200000000000C1212120A762529119D
:103C9000916E000000060604030000000000000012
:103CA0000000000000402010100808080808081054
:103CB0001020400000020408081010101010100816
:103CC000080402000000000008086B1C1C6B0808B8
:103CD0000000000000000000080808087F0808082D
:103CE00008000000000000000000000000000000CC
:103CF000060604030000000000000000FE000000B3
:103D000000000000000000000000000000000000B3
:103D10000606000000008040402020101008080423
:103D20000402020000000018244242424242424281
:103D300024180000000000080E08080808080808F9
:103D4000083E00000000003C4242422020100804CF
:103D5000427E00000000003C4242201820404042C9
:103D6000221C0000000000203028242422227E2073
:103D7000207800000000007E0202021A2640404225
:103D8000221C0000000000382402021A264242428F
:103D9000241800000000007E2222101008080808E5
:103DA000080800000000003C42424224182442421D
:103DB000423C000000000018244242426458404047
:103DC000241C000000000000000018180000000083
:103DD00018180000000000000000000800000000AB
:103DE0000008080400000040201008040204081025
:103DF000204000000000000000007F0000007F0065
:103E000000000000000000020408102040201008FC
:103E1000040200000000003C424246402010100016
:103E2000181800000000001C225A555555552D4207
:103E3000221C00000000000808181414243C224230
:103E400042E700000000001F2222221E22424242BE
:103E5000221F00000000007C4242010101010142DA
:103E6000221C00000000001F224242424242424205
:103E7000221F00000000003F4212121E12120242D6
:103E8000423F00000000003F4212121E12120202C6
:103E9000020700000000003C2222010101712122E2
:103EA000221C0000000000E7424242427E424242A1
:103EB00042E700000000003E08080808080808085B
:103EC000083E00000000007C1010101010101010B0
:103ED0001010110F0000007722120A0E0A1212228F
:103EE0002277000000000007020202020202020222
:103EF000427F000000000077363636362A2A2A2A0A
:103F00002A6B0000000000E346464A4A52525262C1
:103F1000624700000000001C2241414141414141F3
:103F2000221C00000000003F424242423E020202C8
:103F3000020700000000001C2241414141414D5355
:103F4000321C60000000003F4242423E1212222218
:103F500042C700000000007C424202041820404298
:103F6000423E00000000007F4908080808080808D1
:103F7000081C0000000000E7424242424242424226
:103F8000423C0000000000E742422224241414189E
:103F9000080800000000006B494949495555362280
:103FA00022220000000000E74224241818182424CC
:103FB00042E70000000000772222141408080808D5
:103FC000081C00000000007E21201010080404429C
:103FD000423F000000780808080808080808080898
:103FE00008087800000002020404080808101020E5
:103FF00020204040001E1010101010101010101043
:1040000010101E00003844000000000000000000F6
:1040100000000000000000000000000000000000A0
:10402000000000FF00060800000000000000000083
:1040300000000000000000000000003C4278444204
:1040400042FC0000000000030202021A2642424223
:10405000261A00000000000000000038440202029E
:104060004438000000000060404040784442424232
:1040700064D80000000000000000003C427E020204
:10408000423C0000000000F08808087E080808088C
:10409000083E0000000000000000007C22221C02FC
:1040A0003C42423C000000030202023A46424242C5
:1040B00042E700000000000C0C00000E0808080891
:1040C000083E000000000030300000382020202092
:1040D0002020221E0000000302020272120A1612A1
:1040E000227700000000000E0808080808080808E9
:1040F000083E0000000000000000007F92929292B3
:1041000092B70000000000000000003B464242421F
:1041100042E70000000000000000003C4242424232
:10412000423C0000000000000000001B264242420A
:10413000221E0207000000000000007844424242B4
:10414000447840E000000000000000774C040404C4
:10415000041F0000000000000000007C42023C4000
:10416000423E0000000000000008083E0808080861
:10417000083000000000000000000063424242429C
:1041800062DC000000000000000000E7422424146C
:104190000808000000000000000000EB49495555E8
:1041A00022220000000000000000007624181818E9
:1041B000246E000000000000000000E742242414E8
:1041C00018080807000000000000007E2210080800
:1041D000447E000000C0202020202010202020202D
:1041E0002020C0001010101010101010101010100F
:1041F0001010101000060808080808100808080821
:10420000080806000C32C200000000000000000098
:10421000000000000000000000000000000000009E
:10422000000000000000000000000000000000008E
:10423000000000000000000000000000000000007E
:10424000000000000000000000000400CA012A0273
:104250001A021402100210001000100010001000CA
:10426000100010001000100010022001C00000001B
:1042700000000000000000006006600630039801A6
:104280008800440000000000000000000000000062
:10429000000000000000000000000000000000001E
:1042A00000000000000000000000000010021002EA
:1042B00010021002FE07FE070802080108010801AB
:1042C0000801FE07FE0704010401040104010000C7
:1042D0000000000000000000000040004000F0016D
:1042E00058034C03CC034C0058007000E000C001A0
:1042F000C00140034C035C034C034801F000400044
:104300004000000000000000000000000E010A0153
:10431000910091009100510051003A00AE03A002BB
:1043200050045004480448044804840284030000F4
:1043300000000000000000000000000038006C00D9
:104340006C006C006C006C002C0098071C011A01BA
:10435000330133016301E300C308C6093C070000D1
:1043600000000000000000000C001C001000100005
:104370000800040000000000000000000000000031
:10438000000000000000000000000000000000002D
:104390000000000000000000000400020001800096
:1043A000800040004000200020002000200020006D
:1043B000200020004000400080008000000100023A
:1043C00000040000000000000200040008001000CB
:1043D000100020002000400040004000400040004D
:1043E00040004000200020001000100008000400E1
:1043F00002000000000000000000000000000000BB
:104400004000C0004000460C4E0FD001F0015E0F8E
:10441000460C40004000400000000000000000008A
:10442000000000000000000000000000000000008C
:10443000000040004000400040004000FE0F4000EF
:10444000400040004000400000000000000000006C
:10445000000000000000000000000000000000005C
:10446000000000000000000000000000000000004C
:1044700000000000000000000C001C0010001000F4
:104480000800040000000000000000000000000020
:10449000000000000000000000000000FE07000017
:1044A000000000000000000000000000000000000C
:1044B00000000000000000000000000000000000FC
:1044C00000000000000000000000000000000000EC
:1044D00000000000000000001C001C001C00000088
:1044E00000000000000000000004000600020003BD
:1044F00000010001800080004000400060002000BA
:10450000200010001000080008000C000400060045
:104510000200000000000000000000000000F000A9
:1045200098010C030C030606060606060606060698
:104530000606060606060C030C039801F0000000B0
:10454000000000000000000000000000000040002B
:104550007C0060006000600060006000600060003F
:10456000600060006000600060006000FC0300000C
:104570000000000000000000000000000000F80043
:104580008401020306030603000300018001C0004A
:10459000600020001000080204020602FE03000072
:1045A0000000000000000000000000000000780093
:1045B000C6008601860180018001C0007000800174
:1045C000000100030003060306038601F800000053
:1045D000000000000000000000000000000080015A
:1045E0008001C001A001A00190018801880184011F
:1045F0008201FE0F8001800180018001E007000040
:104600000000000000000000000000000000FC03AB
:1046100004000400040004000400F4008C010403FE
:10462000000300030603060382018401F800000072
:104630000000000000000000000000000000E00199
:1046400018030C030C0004000600E60116030E0616
:1046500006060606060604060C021803F000000013
:104660000000000000000000000000000000F8074B
:104670000C060402040100010001800080004000DB
:1046800040004000600060006000600060000000CA
:104690000000000000000000000000000000F80121
:1046A0000C030606060606060C021C03F000C801F1
:1046B0000C0306060606060606060C03F0010000BB
:1046C0000000000000000000000000000000F000FA
:1046D0000C010C03060206060606060606078C06F3
:1046E00078060006000300030C018C01780000002E
:1046F00000000000000000000000000000000000BA
:104700000000000000000000E000E000E000000009
:104710000000000000000000E000E000E0000000F9
:104720000000000000000000000000000000000089
:1047300000000000000000006000600000000000B9
:104740000000000000000000000060006000400069
:104750002000200000000000000000000004000213
:104760000001800040002000100008000400080044
:104770001000200040008000000100020004000042
:104780000000000000000000000000000000000029
:104790000000000000000000FE0700000000000014
:1047A000FE07000000000000000000000000000004
:1047B00000000000000000000000000004000800ED
:1047C00010002000400080000001000200040002F0
:1047D00000018000400020001000080004000000DC
:1047E0000000000000000000000000000000E003E6
:1047F0001806040C040C0C0C0C0C00078001400083
:104800004000400000000000E000E000E000000088
:10481000000000000000000000000000E00018039D
:104820000C02CC0564056605A605B604B604B604FC
:10483000B604B602E4010C040C021803F0000000F8
:104840000000000000000000000000000000600008
:1048500060005000D000900090008800880108019E
:10486000F801040304030402020202060F0F000011
:104870000000000000000000000000000000FE003A
:104880008C030C030C030C030C038C01FC000C03C5
:104890000C020C060C060C060C060C03FE010000B4
:1048A0000000000000000000000000000000E00325
:1048B00018030C060C04040406000600060006009B
:1048C0000600060006040C040C021803F0000000A9
:1048D00000000000000000000000000000007F0059
:1048E0008C010C030C030C060C060C060C060C06C3
:1048F0000C060C060C060C030C038C017F00000058
:104900000000000000000000000000000000FF03A5
:10491000060306040604060086008600FE008600E4
:10492000860086000600060406040602FF03000057
:104930000000000000000000000000000000FF0375
:10494000060306040604060086008600FE008600B4
:104950008600860006000600060006001F00000014
:104960000000000000000000000000000000F00057
:1049700018010C020C0204020600060006000600E4
:10498000C60F060306030C030C031803F000000017
:1049900000000000000000000000000000000F0FF9
:1049A000060606060606060606060606FE070606AE
:1049B0000606060606060606060606060F0F000091
:1049C0000000000000000000000000000000FC03E8
:1049D00060006000600060006000600060006000D7
:1049E000600060006000600060006000FC03000088
:1049F0000000000000000000000000000000F807B8
:104A0000C000C000C000C000C000C000C000C000A6
:104A1000C000C000C000C000C000C000C000C60090
:104A200066003C0000000000000000000000CF0312
:104A30008601C60046002600160036002E006E00D5
:104A40004600C60086008601060106038F070000A7
:104A500000000000000000000000000000001F0037
:104A60000600060006000600060006000600060016
:104A7000060006000600060406040602FF03000006
:104A80000000000000000000000000000000070718
:104A9000860386038E038E034E034E034A035A0396
:104AA0005A033A033203320332031203870700002A
:104AB00000000000000000000000000000008E0F59
:104AC0000C021C021C02340234026402640244021E
:104AD000C402840284038403040304031F0200004D
:104AE0000000000000000000000000000000F000D6
:104AF00098010C030C0206060606060606060606C4
:104B00000606060606060C020C039801F0000000DB
:104B10000000000000000000000000000000FF0096
:104B20000603060606060606060606068603FE00B9
:104B30000600060006000600060006001F00000032
:104B40000000000000000000000000000000F00075
:104B500098010C030C020606060606060606060663
:104B60000606060676064C02CC039801F000800784
:104B70000003000000000000000000000000FF0132
:104B8000060306060606060606060603FE0046009F
:104B9000C600860086010603060306060F0E000007
:104BA0000000000000000000000000000000F8020B
:104BB0000C030602060206000E003C00F800E003AB
:104BC000800300070206020606060C03F00100003F
:104BD0000000000000000000000000000000FE07D0
:104BE00062046108610860006000600060006000AD
:104BF000600060006000600060006000F80100007C
:104C000000000000000000000000000000001E077F
:104C10000C020C020C020C020C020C020C020C0224
:104C20000C020C020C020C020C021801F000000035
:104C300000000000000000000000000000000F075E
:104C40000602040104010C010C0188008800980090
:104C5000980050005000700030002000200000003C
:104C60000000000000000000000000000000F70E3F
:104C7000620442044604460464026402E402E4025C
:104C80009C029C019801980188018800880000001E
:104C900000000000000000000000000000009E076F
:104CA0000C01080118019000B000600020006000B5
:104CB0006000D00090008801080104038E07000006
:104CC00000000000000000000000000000000F0FC6
:104CD000060404020C0208011801B800B0007000BC
:104CE000600060006000600060006000F80100008B
:104CF0000000000000000000000000000000FC07B1
:104D00000C020603020180018000400040002000E8
:104D100020001000180008040C040402FE03000028
:104D20000000000000000000E00320002000200040
:104D30002000200020002000200020002000200073
:104D40002000200020002000200020002000200063
:104D5000E003000000000000000000000400040068
:104D60000800080010001000100020002000400083
:104D70004000C0008000800000010001000200022D
:104D800000020004000000007C00400040004000E1
:104D90004000400040004000400040004000400013
:104DA0004000400040004000400040004000400003
:104DB0007C0000000000600090000801000000007E
:104DC00000000000000000000000000000000000E3
:104DD00000000000000000000000000000000000D3
:104DE00000000000000000000000000000000000C3
:104DF00000000000000000000000000000000000B3
:104E000000000000000000000000000000000000A2
:104E10000000FF0F0000000018006000000000000C
:104E20000000000000000000000000000000000082
:104E30000000000000000000000000000000000072
:104E40000000000000000000000000000000000062
:104E50000000000000000000F0010C030C03000340
:104E6000E0031C030E03060306038E0B7C0E0000FA
:104E700000000000000000000000000008000E001C
:104E80000C000C000C000C00CC013C031C060C06B2
:104E90000C060C060C060C060C021C03E4010000B8
:104EA0000000000000000000000000000000000002
:104EB0000000000000000000F0008C018C01860161
:104EC00006000600060006020C020C01F0000000BD
:104ED0000000000000000000000000000002C0030D
:104EE000000300030003000378038C030C03060394
:104EF000060306030603060304038C07780100007B
:104F000000000000000000000000000000000000A1
:104F10000000000000000000E001180308020C0679
:104F20000C06FC070C000C0018041802E00100003D
:104F30000000000000000000000000000000C003AE
:104F40006006300630003000FE01300030003000D6
:104F5000300030003000300030003000FC01000034
:104F60000000000000000000000000000000000041
:104F70000000000000000000F007D8068C018C0142
:104F80008C019801F8000C00FC00CC03060306031A
:104F90008E03F800000000000000000008000E0072
:104FA0000C000C000C000C00EC011C030C030C03A7
:104FB0000C030C030C030C030C030C039E070000F2
:104FC0000000000000000000000000000000600081
:104FD00060000000000040007C0060006000600095
:104FE000600060006000600060006000FC03000082
:104FF0000000000000000000000000000000C001F0
:10500000C001000000000001F0018001800180016A
:105010008001800180018001800180018001800188
:10502000CC007C00000000000000000008000E0022
:105030000C000C000C000C008C038C008C004C004D
:105040006C005C008C008C010C010C039E070000BE
:1050500000000000000000000000000040007C0094
:105060006000600060006000600060006000600040
:10507000600060006000600060006000FC030000F1
:105080000000000000000000000000000000000020
:1050900000000000000000003707EE066606660606
:1050A000660666066606660666066606FF0F00006A
:1050B00000000000000000000000000000000000F0
:1050C0000000000000000000EE011C030C030C03B4
:1050D0000C030C030C030C030C030C039E070000D1
:1050E00000000000000000000000000000000000C0
:1050F0000000000000000000F00098010C0306060C
:1051000006060606060606060C030C03F000000061
:10511000000000000000000000000000000000008F
:105120000000000000000000EE011C030C060C064D
:105130000C060C060C060C060C031C03EC010C0000
:105140000C003E0000000000000000000000000015
:10515000000000000000000078028C030C0306032E
:10516000060306030603060304038C037803000307
:105170000003C00700000000000000000000000065
:1051800000000000000000009F03580638061800C9
:10519000180018001800180018001800FF00000080
:1051A00000000000000000000000000000000000FF
:1051B0000000000000000000F0031C030C020C02C1
:1051C0003800F000C003040304038C03FC0100005A
:1051D00000000000000000000000000000000000CF
:1051E0002000200030003000FE0130003000300090
:1051F000300030003000300030023002E0010000AA
:10520000000000000000000000000000000000009E
:1052100000000000000008028E030C030C030C03C6
:105220000C030C030C030C030C039C077801000017
:10523000000000000000000000000000000000006E
:1052400000000000000000001E070C020801080119
:1052500018019000B000B000600060002000000065
:10526000000000000000000000000000000000003E
:105270000000000000000000F70E62044604640213
:105280006402EC029C01980198019801080000005A
:10529000000000000000000000000000000000000E
:1052A0000000000000000000BC0718011001B00061
:1052B00060006000E0009000080108039E07000005
:1052C00000000000000000000000000000000000DE
:1052D00000000000000000009E070801080108010E
:1052E00090009000B000600060006000200020008E
:1052F00024001C000000000000000000000000006E
:105300000000000000000000FC018401C400440013
:10531000600020003000180208020C03FC010000AD
:1053200000000000000000000003800080008000FA
:10533000800080008000800080004000200040004D
:10534000800080008000800080008000800080005D
:1053500000030000400040004000400040004000CA
:10536000400040004000400040004000400040003D
:10537000400040004000400040004000400040002D
:1053800040004000000000000C0010001000100061
:10539000100010001000100010002000400020003D
:1053A000100010001000100010001000100010007D
:1053B0000C00000000001C002204C2048003000056
:1053C00000000000000000000000000000000000DD
:1053D00000000000000000000000000000000000CD
:1053E00000000000000000000000000000000000BD
:1053F00000000000000000000000000000000000AD
:10540000000000000000000000000000000000009C
:10541000000000000000000000000000000000008C
:105420000000000000000000000000000000C001BB
:10543000C001C001C001C001C001C00180008000E6
:1054400080008000800080008000000000000000DC
:1054500000008001C003C0038001000000000000C4
:1054600000000000000000000000E01CE01CF01E36
:10547000700E3807180308018400000000000000C7
:10548000000000000000000000000000000000001C
:10549000000000000000000000000000000000000C
:1054A00000000000000000000000000000000000FC
:1054B00020102010201020102010FE7FFE7F1008EA
:1054C000100810081008100810081008FE7FFE7F52
:1054D0000804080408040804080400000000000090
:1054E00000000000000000000000000000010001BA
:1054F000C007601910311831183918393801700196
:10550000E001C0038007000F001D003900311C318D
:105510001C310C310C11180DE007000100010001D5
:10552000000000000000000000000000000000007B
:105530001C1036186308630C63046304630263027F
:105540006301361D9C378022806340634063206383
:105550002063306310221836081C00000000000091
:10556000000000000000000000000000000000003B
:10557000F00098018C018C018C018C018C00CC0016
:105580007800183E1C083608320863046304C3041C
:10559000C303834306438E26781C000000000000EE
:1055A000000000000000000000001C003C003C0067
:1055B0003000300010000C00060000000000000069
:1055C00000000000000000000000000000000000DB
:1055D00000000000000000000000000000000000CB
:1055E000000000000000000000000040002000104B
:1055F0000008000C00040006000300030003800103
:105600008001800180018001800180018001000310
:105610000003000300060006000C00080010002034
:10562000004000000000000000000200040008002C
:105630001000300020006000C000C000C0008001E9
:105640008001800180018001800180018001C00013
:10565000C000C000600060003000100008000400BE
:105660000200000000000000000000000000000038
:105670000000000000018003800300011C713C79E0
:10568000783DC0070001C007783D3C791C710001DE
:105690008003800380010000000000000000000083
:1056A00000000000000000000000000000000000FA
:1056B00000000000000000010001000100010001E5
:1056C00000010001FC7F0001000100010001000158
:1056D00000010001000000000000000000000000C8
:1056E00000000000000000000000000000000000BA
:1056F00000000000000000000000000000000000AA
:105700000000000000000000000000000000000099
:10571000000000001C003C003C0030003000100085
:105720000C00060000000000000000000000000067
:105730000000000000000000000000000000000069
:1057400000000000FE7F00000000000000000000DC
:105750000000000000000000000000000000000049
:105760000000000000000000000000000000000039
:105770000000000000000000000000000000000029
:105780000000000000000000000000000000000019
:10579000000018003C003C00180000000000000061
:1057A0000000000000000000000000400060002039
:1057B0000030001000180008000C00040006000271
:1057C0000003000180018000C00040006000200054
:1057D00030001000180008000C0004000600020051
:1057E00000000000000000000000000000000000B9
:1057F000C007600C30181830183018200C600C608E
:105800000C600C600C600C600C600C600C6018206C
:10581000183018303018600CC0070000000000007D
:105820000000000000000000000000000000000078
:1058300000018001F8018001800180018001800168
:105840008001800180018001800180018001800150
:10585000800180018001C003F81F000000000000EB
:105860000000000000000000000000000000000038
:10587000E007101C0818043004300C300C300030E5
:1058800000180008000400020001800040002020F1
:10589000102008200430FC1FFC1F00000000000046
:1058A00000000000000000000000000000000000F8
:1058B000E003180E0C0C0C180C180C180018000C37
:1058C0000006C003000E00180010003000300C303D
:1058D0000C300C100C18180CE00300000000000045
:1058E00000000000000000000000000000000000B8
:1058F000000C000E000E000F800E800E400E600E99
:10590000200E100E100E080E040E040EFE7F000E68
:10591000000E000E000E000E000EC07F0000000002
:105920000000000000000000000000000000000077
:10593000F03FF03F10001000100008000800C807FA
:10594000280C1818081000300030003000300C30DF
:105950000C3004180418080CF003000000000000CC
:105960000000000000000000000000000000000037
:10597000800FC010203010301800180008000C00F4
:105980008C0F6C183C301C600C600C600C600C6060
:105990001860182030306018C007000000000000B8
:1059A00000000000000000000000000000000000F7
:1059B000F83FF83F1C100C0804080404000400021F
:1059C0000002000100010001800080008000C00092
:1059D000C000C000C000C000C00000000000000007
:1059E00000000000000000000000000000000000B7
:1059F000E007300C18180C300C300C301C30381804
:105A00007008E007B007180E0C1C06380630063088
:105A1000063006300C18180CE003000000000000EF
:105A20000000000000000000000000000000000076
:105A3000E00318040C080C18061006300630063077
:105A4000063006380C3C1836F031003000180018CB
:105A500000180C0C0C060C03F00100000000000004
:105A60000000000000000000000000000000000036
:105A700000000000000000000000000000008001A5
:105A8000C003C0038001000000000000000000000F
:105A900000008001C003C00380010000000000007E
:105AA00000000000000000000000000000000000F6
:105AB0000000000000000000000000000000C00026
:105AC000C000000000000000000000000000000016
:105AD000000000000000C000C00080008000400006
