:020000040800F2
:10000000789A002001020008F10D0008B9070008E5
:10001000ED0D0008BD020008491C000800000000AA
:10002000000000000000000000000000690100085E
:100030009904000800000000AD01000879120008D2
:100040001B0200081B0200081B0200081B0200081C
:100050001B0200081B0200081B0200081B0200080C
:100060001B0200081B0200081B0200081B020008FC
:100070001B0200081B0200081B0200081B020008EC
:100080001B0200081B0200081B0200081B020008DC
:100090001B0200081B0200081B0200081B020008CC
:1000A0001B0200081B0200081B0200081B020008BC
:1000B0001B02000891150008611600081B020008C9
:1000C0001B0200081B0200081B0200081B0200089C
:1000D0001B0200081B0200081B0200081B0200088C
:1000E0001B0200081B0200081B02000800000000A1
:1000F0000000000000000000000000000000000000
:1001000000000000000000001B0200081B020008A5
:100110001B0200081B0200081B0200081B0200084B
:100120001B0200081B0200081B0200081B0200083B
:100130001B0200081B0200081B0200081B0200082B
:100140001B0200081B0200081B0200081B0200081B
:10015000DFF810D000F07CF800480047E9240008E0
:10016000AFF30080789A0020224B19680868B0E845
:10017000F00F80F30988BFF36F8F4FF0000080F31A
:1001800011884EF00D0E7047000000000648006810
:10019000006880F3088862B661B6BFF34F8FBFF383
:1001A0006F8F00DF00BF00BF08ED00E0EFF30980B4
:1001B000BFF36F8F0F4B1A6820E9F00F106008B57E
:1001C0004FF0500080F31188BFF34F8FBFF36F8F54
:1001D00002F02AFE4FF0000080F31188BDE80840CD
:1001E00019680868B0E8F00F80F30988BFF36F8FD3
:1001F000704700BF84000020EFF3058070470000C7
:100200000648804706480047FEE7FEE7FEE7FEE7B0
:10021000FEE7FEE7FEE7FEE7FEE7FEE7E512000881
:100220005101000830B50B46014600202022012470
:1002300009E021FA02F59D4205D303FA02F5491BB4
:1002400004FA02F52844151EA2F10102F1DC30BDCA
:10025000064C074D06E0E06840F0010394E8070013
:1002600098471034AC42F6D3FFF776FFD8A50008C4
:10027000F8A5000810B5002400F004FA0D4909881B
:10028000884204D000F0FEF90A490880012400F0F9
:10029000F3F909490988884204D000F0EDF90649CC
:1002A00008800124012C03D101F0E8FB00F086FA5C
:1002B00010BD00006E0000206C00002000BFFEE7B3
:1002C00001684FF6FE72114001600021016041603B
:1002D0008160C1604B49884208D14A490839496860
:1002E00041F00F01474A083A51608AE0454914310C
:1002F000884208D143490839496841F0F001414A30
:10030000083A51607DE03F492831884208D13D4993
:100310000839496841F470613A4A083A516070E01E
:1003200038493C31884208D136490839496841F496
:100330007041344A083A516063E032495031884292
:1003400008D130490839496841F470212D4A083AEA
:10035000516056E02B496431884208D12949083957
:10036000496841F47001274A083A516049E025493B
:100370007831884208D123490839496841F07061D1
:10038000204A083A51603CE01F49884206D1011FCB
:10039000096841F00F01021F116032E01A4914315F
:1003A000884208D11849091F096841F0F001164A2E
:1003B000121F116025E014492831884208D11249E2
:1003C000091F096841F470610F4A121F116018E09B
:1003D0000D493C31884208D10B49091F096841F495
:1003E0007041094A121F11600BE0074950318842E1
:1003F00007D10549091F096841F47021024A121FFB
:1004000011607047080002400804024010B5002245
:10041000026847F6F0739A430C6A8B6823430C69B1
:1004200023434C6923438C692343CC6923434C6A9F
:1004300023438C6A23431A430260CB6843600B68F2
:1004400083604B68C36010BD124A126842F0F0022C
:10045000104B1A600F4A1C3211600E4A2432106091
:100460000C4A1832126842F001020A4B18331A6023
:1004700000BF084A121F126802F02002002AF8D0BA
:10048000044A1832126822F00102024B18331A6033
:10049000704700000404024070472DE9F041024615
:1004A00000250026002000230024002791F803C027
:1004B0000CF00F0591F803C00CF0100CBCF1000F0C
:1004C00003D091F802C04CEA050591F800C0BCF1D8
:1004D000000F31D0146800202BE04FF0010C0CFA13
:1004E00000F3B1F800C00CEA03069E4220D183005D
:1004F0004FF00F0C0CFA03F7BC4305FA03FC4CEA6F
:10050000040491F803C0BCF1280F06D14FF0010C90
:100510000CFA00FCC2F814C00AE091F803C0BCF168
:10052000480F05D14FF0010C0CFA00FCC2F810C0C6
:10053000401C0828D1D31460B1F800C0BCF1FF0FF3
:1005400034DD546800202EE000F1080C4FF0010863
:1005500008FA0CF3B1F800C00CEA03069E4221D160
:1005600083004FF00F0C0CFA03F7BC4305FA03FCB1
:100570004CEA040491F803C0BCF1280F05D100F146
:10058000080C08FA0CF8C2F8148091F803C0BCF10A
:10059000480F07D100F1080C4FF0010808FA0CF8D9
:1005A000C2F81080401C0828CED35460BDE8F0810A
:1005B000F0B50A46002300240021002500F0004683
:1005C000B6F1004F02D11D4EF16901E01B4E71687A
:1005D000C0F3034583B200F44016B6F5401F08D1BE
:1005E00021F07061154E766826F07066134F7E60BC
:1005F00012E000F48016B6F5801F06D1032606FA35
:1006000005F4A14341F0706106E0460D360103FA9E
:1006100006F6B14341F0706122B1460D360103FA8E
:1006200006F6314300F00046B6F1004F02D1034E0A
:10063000F16101E0014E7160F0BD00000000014079
:100640000246002093680B400BB1012000E000201F
:10065000704702460020D3680B400BB1012000E038
:100660000020704741617047016170470AB1016124
:1006700000E0416170470000014880887047000039
:10068000FC0000200148408870470000FC0000206A
:1006900010B501F08BFC00F04BF801F053FC01F0B9
:1006A0005DFD01F0BDFD00F067F901F01DFD01F0F9
:1006B000F9FE01F0ABFB10BD10B5002432E004EBF5
:1006C00044001A4901EB8000806848B304EB440001
:1006D00011F82000022823D104EB440001EB800034
:1006E0004088401C04EB4401104A02EB8101488021
:1006F00004EB4400114601EB8000408804EB440108
:1007000002EB8101898888420ADB012004EB440165
:1007100002F8210004EB440102EB81018868804764
:10072000601CC4B2022CCADB10BD0000E400002033
:1007300000B585B00121042000F0CEFB0121880323
:1007400000F0CAFB4FF40070ADF8100018208DF8CF
:10075000130003208DF8120004A91548FFF79DFE31
:100760004FF48060ADF8100004208DF813000320D2
:100770008DF8120004A90E48FFF78FFE4FF4E13008
:1007800000900020ADF80400ADF80600ADF80800B8
:10079000ADF80C000C20ADF80A006946054801F0E0
:1007A000E7F90121034801F0D6F905B000BD0000CA
:1007B000000801400038014000BFFEE710B586B0D8
:1007C00000242A480088632810DD28480088B0F5F6
:1007D0007A7F0BDA25480088642190FBF1F03030F5
:1007E000C2B22046611CCCB204A90A541F4800883A
:1007F000642190FBF1F201FB12000A2190FBF1F061
:100800003030C2B22046611CCCB204A90A542E2258
:100810002046611CCCB204A90A54144800880A215D
:1008200090FBF1F201FB12003030C2B22046611C95
:10083000CCB204A90A5425222046611CCCB204A9DA
:100840000A5400222046611CCCB204A90A5400209C
:100850001821CDE900014FF6FF7304AA032102908D
:10086000872000F055FA06B010BD00006C00002093
:100870006FF07F410B48006802F006FB00BF4FF4A9
:100880007A610948006802F0C5F9044634B102F003
:10089000E9FB0549086005A001F0D8F9642002F0E1
:1008A0006FFAECE764000020680000204865617280
:1008B00074426561742121210D0A00002DE9F04187
:1008C00004460D4616461F462A2000F055FAA11C84
:1008D00088B200F03EFAB11C88B200F03AFA2B2040
:1008E00000F04AFA691C88B200F033FA791C88B229
:1008F00000F02FFA2C2000F03FFABDE8F08170B52F
:1009000004460D4616462B46224629462046FFF74A
:10091000D5FF304600F01DFA70BD00002DE9F0470C
:1009200081460F4615461E46DDF82080701E83B2B4
:10093000681E82B239464846FFF7C0FF00240AE02D
:100940004FEA28222046611C8CB20A490A5401F859
:100950000480601C84B2AC42F2DB3C4605E02946D0
:100960000448FFF771FD601C84B2B4EB460FF6DB60
:10097000BDE8F087F493002010B542F2107001F04A
:1009800049FC01F0CFFB42F2107001F043FC01F092
:10099000BFFB642001F03EFC112000F0EDF942F2B3
:1009A000107001F037FC362000F0E6F9A02000F0CE
:1009B000DDF93A2000F0E0F9052000F0D7F9B22087
:1009C00000F0DAF90C2000F0D1F90C2000F0CEF99B
:1009D000002000F0CBF9332000F0C8F9332000F0FC
:1009E000C5F9B72000F0C8F9352000F0BFF9BB20E9
:1009F00000F0C2F9352000F0B9F9C02000F0BCF9D0
:100A00002C2000F0B3F9C22000F0B6F9012000F06C
:100A1000ADF9C32000F0B0F9132000F0A7F9C4200D
:100A200000F0AAF9202000F0A1F9C62000F0A4F9F6
:100A30000F2000F09BF9CA2000F09EF90F2000F073
:100A400095F9C82000F098F9082000F08FF955209A
:100A500000F092F9902000F089F9D02000F08CF994
:100A6000A42000F083F9A12000F080F9E02000F03C
:100A700083F9D02000F07AF9002000F077F9062001
:100A800000F074F9092000F071F90B2000F06EF904
:100A90002A2000F06BF93C2000F068F9552000F0A6
:100AA00065F94B2000F062F9082000F05FF916208C
:100AB00000F05CF9142000F059F9192000F056F903
:100AC000202000F053F9E12000F056F9D02000F08A
:100AD0004DF9002000F04AF9062000F047F90920FE
:100AE00000F044F90B2000F041F9292000F03EF914
:100AF000362000F03BF9542000F038F94B2000F08C
:100B000035F90D2000F032F9162000F02FF91420ED
:100B100000F02CF9212000F029F9202000F026F91E
:100B2000292000F029F901F065FA10BD2DE9FF5FD9
:100B300080468A4617469B460F9D00200290CDF8BE
:100B40000080284605EBD071C1F347042046E21728
:100B500004EB5272D2102146E31704EB5373DB10FF
:100B6000A4EBC3030BB1012300E000231A446A4342
:100B700092B20192A7F12000C7B20AEB0500401E15
:100B800083B208EB0400401E82B251464046FFF794
:100B900095FE002673E00C2D07D107EB47003A497C
:100BA00001EB8000805D039025E0102D05D13748D2
:100BB00000EB0710805D03901DE0182D07D107EBB7
:100BC0004700334901EB0010805D039013E0202DB6
:100BD00005D1304800EB8710805D03900BE0302D8D
:100BE00007D107EBC7002C4901EB0010805D039093
:100BF00001E0BDE8FF9F4FF000093AE01098C8B946
:100C0000012000FA09F00399084018B1584600F095
:100C1000A0F802E00E9800F09CF80298401CC0B2C8
:100C20000290029890FBF4F104FB1100E8B9002057
:100C3000029021E0012000FA09F00399084020B158
:100C40005A4651464046FFF75AFE08F101001FFA86
:100C500080F80098A8EB0000A04206D1DDF80080E3
:100C60000AF101001FFA80FA06E009F1010000F024
:100C7000FF09B9F1080FC1DB00BF701C86B20198F3
:100C8000864288DB00BFB4E7F4320008683700080A
:100C9000583D0008284F0008E86600082DE9F84F85
:100CA00006460F4690469946DDF82CB0802000900D
:100CB00007F11F0083B206F11F0082B239463046A9
:100CC000FFF7FCFD00251BE0104800EBC81010F8F2
:100CD00005A0002410E0BBF1000F0BD180202041C3
:100CE00000EA0A0018B1484600F033F802E00A981A
:100CF00000F02FF8601CC4B2082CECDB681C85B235
:100D000000988542E0DBBDE8F88F0000589C0008A1
:100D10002DE9FE4F06460F4614469846DDE90D5A6A
:100D2000DDF8309010E0CDE9015ACDF8009022783E
:100D3000434639463046FFF7F9FE284605EBD071A9
:100D400006EB61018EB2641C20780028EBD1BDE86F
:100D5000FE8F18B5044620128DF80000E0B28DF821
:100D6000010002216846FFF76FFB18BD10B504466D
:100D7000204600F011F810BD10B5044610210548BA
:100D8000FFF770FC204600F007F810210148FFF73C
:100D90006BFC10BD000C014001B540210348FFF77A
:100DA00061FC01216846FFF74FFB08BD000C0140C4
:100DB000002418E001F0A0F8012803D002F052F955
:100DC000094908604FF4FA610748006801F022FF02
:100DD00004462CB102F046F90349086001F0EAF834
:100DE000C82001F0CDFFE5E75C00002000BFFEE772
:100DF0007047000070B5002100230F22C47804B3AF
:100E0000154C246804F4E064C4F5E064210AC1F1DF
:100E10000403CA40447804FA03F18478144021435F
:100E200009010E4C0678A155047804F01F05012431
:100E3000AC4005786D11AD0005F1E025C5F8004125
:100E400009E0047804F01F050124AC40044D067845
:100E5000761145F8264070BD0CED00E000E400E09E
:100E600080E100E002490143024A1160704700003E
:100E70000000FA050CED00E029B1064A5269024370
:100E8000044B5A6104E0034A52698243014B5A61A0
:100E9000704700000010024029B1064AD26902439F
:100EA000044BDA6104E0034AD2698243014BDA6100
:100EB000704700000010024029B1064A126902433F
:100EC000044B1A6104E0034A12698243014B1A6120
:100ED000704700000010024029B1064A926902439F
:100EE000044B9A6104E0034A92698243014B9A6180
:100EF000704700000010024029B1064AD268024340
:100F0000044BDA6004E0034AD2688243014BDA60A2
:100F100070470000001002402DE9F041002100223E
:100F2000002500230026002400278C46DFF860817E
:100F3000D8F8048008F00C0121B1042907D0082951
:100F400059D109E0DFF84C81C0F8008058E0DFF8A3
:100F50004881C0F8008053E0DFF83481D8F804807D
:100F600008F47012DFF82881D8F8048008F480357E
:100F7000920C0D2A01D0921C00E0062235B9DFF850
:100F80001C8102FB08F8C0F8008033E0DFF8008124
:100F9000D8F82C8008F48036DFF8F480D8F82C805C
:100FA00008F00F0808F1010446B9DFF8EC80B8FB3F
:100FB000F4F808FB02F8C0F800801BE0DFF8D080EE
:100FC000D8F82C80C8F3031808F10107DFF8C080B7
:100FD000D8F82C80C8F3032808F1020CDFF8B88099
:100FE000B8FBF7F808FB0CF8B8FBF4F808FB02F8BC
:100FF000C0F8008004E0DFF89C80C0F8008000BFEB
:1010000000BFDFF88C80D8F8048008F0F0010909EF
:10101000DFF88C8018F80130D0F8008028FA03F847
:10102000C0F80480DFF86880D8F8048008F4E06134
:10103000090ADFF86C8018F80130D0F8048028FA2B
:1010400003F8C0F80880DFF84880D8F8048008F476
:101050006051C90ADFF8488018F80130D0F80480E0
:1010600028FA03F8C0F80C80DFF82480D8F8048050
:1010700008F44041890BDFF82C8018F80130D0F8D3
:101080000C80B8FBF3F8C0F81080BDE8F0810000D8
:101090000010024000127A0040787D0100093D00F6
:1010A000700000208000002021B1028842F0400240
:1010B000028004E002884FF6BF731A400280704736
:1010C0001AB183880B43838002E083888B4383803B
:1010D000704710B50022028802F441520B884C88F8
:1010E00023438C882343CC8823430C8923434C8996
:1010F00023438C892343CC8923431A430280838B67
:101100004FF2FF74234083830B8A038210BD10B516
:1011100000F002F810BD00000CB500200190009016
:101120003F48006840F480303D49086000BF3C48BB
:10113000006800F4003000900198401C0190009875
:1011400018B90198B0F5A06FF1D13548006800F4E6
:10115000003010B10120009001E0002000900098C4
:1011600001285CD12F48006840F010002D4908602C
:101170000846006820F0030008600846006840F058
:1011800002000860264840682549486008464068D3
:1011900048600846406840F4806048600846C06A7D
:1011A000214908401E49C8620846C06A1F490843D1
:1011B0001B49C8620846006840F08060086000BFB4
:1011C0001748006800F000600028F9D01448406813
:1011D00020F47C10124948600846406840F4E8104A
:1011E00048600846006840F08070086000BF0C4806
:1011F000006800F000700028F9D00948406820F02D
:101200000300074948600846406840F00200486013
:1012100000BF0348406800F00C000828F9D10CBD5D
:10122000001002400020024000F0FEFF44060100D2
:101230000320064908700020886008734873084638
:101240000021C0F80E10817470470000FC000020DF
:10125000042808D14FF0E021096941F004014FF062
:10126000E022116107E04FF0E021096921F004015B
:101270004FF0E0221161704710B501F0E3FE012844
:1012800001D001F039FE10BD70B505460420FFF70E
:10129000DFFF104800681049B0FBF1F00F490870FB
:1012A0000C4800680C49B0FBF1F44FF47A704443E9
:1012B00001200B4908804FF0E020006940F0020057
:1012C0004FF0E021086108464461006940F00100E8
:1012D000086170BD4800002040420F00DC00002083
:1012E000DE00002010B51648006840F001001449E7
:1012F000086008464068134908401149486008469C
:101300000068114908400E4908600846006820F44A
:10131000802008600846406820F4FE0048600846C7
:10132000006820F0A05008604FF47F008860002023
:10133000C862FFF7ECFE4FF000600449086010BD82
:10134000001002400000FFF0FFFFF6FE08ED00E095
:10135000F0B50C46154600220021068C4FF6FE77AC
:101360003E400684028B018C4FF60C7632407E1C88
:1013700006EA03162E433243104EB0420ED0104EF2
:10138000B0420BD0B0F1804F08D00E4EB04205D025
:101390000D4EB04202D00D4EB04206D14FF6FD7652
:1013A000314044F00106314305E04FF6F576314017
:1013B00044F00106314302830184F0BD002C01405A
:1013C000003401400004004000080040000C0040D0
:1013D000F0B50C461546002200210026078C4FF67A
:1013E000EF7C07EA0C070784028B018C4FF6FF772E
:1013F00007EA041640F6FF473A404FF6FF7707EA40
:1014000003373A434FF6FF7707EA05273A43114F70
:10141000B8420ED0104FB8420BD0B0F1804F08D078
:101420000E4FB84205D00E4FB84202D00D4FB84211
:1014300006D14FF6DF77394046F01007394305E013
:101440004FF65F77394044F0100739430283018437
:10145000F0BD0000002C01400034014000040040B9
:1014600000080040000C0040F0B50C461546002274
:1014700000210026078C4FF6FF6C07EA0C07078453
:10148000828B018C4FF6FF7707EA04264FF60C7724
:101490003A404FF6FF7707EA03172F433A43114FBD
:1014A000B8420ED0104FB8420BD0B0F1804F08D0E8
:1014B0000E4FB84205D00E4FB84202D00D4FB84281
:1014C00006D14FF6FF57394046F48077394305E09F
:1014D0004FF2FF57394044F48077394382830184C7
:1014E000F0BD0000002C0140003401400004004029
:1014F00000080040000C0040F0B50C4615460022E4
:1015000000210026078C4EF6FF7C07EA0C070784B3
:10151000828B018C4FF6FF7707EA043640F6FF47CF
:101520003A404FF6FF7707EA05273A434FF6FF7731
:1015300007EA03373A43114FB8420ED0104FB84272
:101540000BD0B0F1804F08D00E4FB84205D00E4FEF
:10155000B84202D00D4FB84206D14DF6FF77394060
:1015600046F48057394305E047F6FF57394044F4C5
:101570008057394382830184F0BD0000002C014074
:10158000003401400004004000080040000C00400E
:1015900010B50121304800F076F904212E4800F002
:1015A00072F9002852D02C4800F06AF92B49886063
:1015B00008468068B42808D2084680688C2804D978
:1015C000002008730420087031E0244880683C281B
:1015D00003D9224880685A2824D320488068872865
:1015E00020D21E48806864281CD91C4A107BC21770
:1015F00000EB5272D310194A0E32D25C174B197B92
:10160000CB1701EB5373DB10A1EBC3048023234101
:101610001A43124B187BC31700EB5373DC100F4BAC
:101620000E331A550D48007B401C0C4908730B48BB
:10163000007B282806D10021074800F021F801206E
:10164000064948730021044800F08DF9052102483D
:1016500000F013F810BD000000040040FC00002062
:1016600010B5FFF729F80121014800F003F810BD7B
:1016700000080040CA4302827047CA430282704792
:1016800021B1028842F00102028004E002884FF694
:10169000FE731A400280704710B5044668488442C1
:1016A00008D10121C014FFF727FC0021E014FFF747
:1016B00023FCC4E0B4F1804F08D101210846FFF7B4
:1016C000FBFB00210120FFF7F7FBB8E05D488442F7
:1016D00008D101210220FFF7EFFB00210220FFF7D4
:1016E000EBFBACE05848844208D101210420FFF70D
:1016F000E3FB00210420FFF7DFFBA0E05348844216
:1017000008D101210820FFF7D7FB00210820FFF7AF
:10171000D3FB94E04E48844208D101211020FFF70A
:10172000CBFB00211020FFF7C7FB88E0494884422B
:1017300008D101212020FFF7BFFB00212020FFF767
:10174000BBFB7CE04448844208D101214014FFF7F0
:10175000D3FB00216014FFF7CFFB70E03F488442C9
:1017600009D10121C804FFF7C7FB00214FF4002075
:10177000FFF7C2FB63E03A48844209D10121080522
:10178000FFF7BAFB00214FF48010FFF7B5FB56E0DE
:101790003448844209D101214805FFF7ADFB0021FF
:1017A0004FF40010FFF7A8FB49E02F48844208D10E
:1017B00001214020FFF780FB00214020FFF77CFB48
:1017C0003DE02A48844208D101218020FFF774FBC4
:1017D00000218020FFF770FB31E02548844208D1CA
:1017E00001218015FFF768FB0021A015FFF764FBBE
:1017F00025E02048844209D101210804FFF77CFB41
:1018000000214FF48030FFF777FB18E01A4884423C
:1018100009D101214804FFF76FFB00214FF400308C
:10182000FFF76AFB0BE01548844208D101218804C8
:10183000FFF762FB00214FF48020FFF75DFB10BD36
:10184000002C01400004004000080040000C004053
:10185000001000400014004000340140004C0140E2
:10186000005001400054014000180040001C00409E
:101870000020004000400140004401400048014079
:101880000146088F704730B502460020002300242F
:10189000158A05EA0103958905EA010413B10CB123
:1018A000012000E0002030BD70B505460C462448FC
:1018B00085420ED0234885420BD0B5F1804F08D029
:1018C0002148854205D02148854202D020488542E2
:1018D00000D100E000BF208850B92389A288618828
:1018E0002846FFF735FDE188284600F03EF825E060
:1018F000208804280AD12389A28861882846FFF716
:1019000067FDE188284600F039F817E020880828AC
:101910000AD12389A28861882846FFF7A5FDE188BE
:10192000284600F038F809E02389A2886188284613
:10193000FFF7E2FDE188284600F036F870BD0000B0
:10194000002C014000340140000400400008004029
:10195000000C00401AB183890B43838102E0838924
:101960008B438381704781847047028B4FF6F373FA
:101970001A400283028B0A4302837047028B4FF2A4
:10198000FF331A400283028B4FF6FF7303EA0123F1
:101990001A4302837047828B4FF6F3731A40828397
:1019A000828B0A4382837047828B4FF2FF331A4047
:1019B0008283828B4FF6FF7303EA01231A438283EB
:1019C00070470000002202881D4B98420ED01D4B2C
:1019D00098420BD0B0F1804F08D01B4B984205D0F5
:1019E0001A4B984202D01A4B984204D14FF68F738B
:1019F0001A404B881A43174B984207D0164B98420F
:101A000004D04FF6FF431A40CB881A4302808B88DC
:101A100083850B8803850A4B98420BD0094B98426B
:101A200008D00E4B984205D00D4B984202D00D4B7A
:101A3000984201D10B7A038601238382704700000C
:101A4000002C014000340140000400400008004028
:101A5000000C004000100040001400400040014015
:101A6000004401400048014000BF00F0E5F9FEF7E6
:101A700001FC642001F084F9F7E7000010B586B09E
:101A800000242A480088632810DD28480088B0F523
:101A90007A7F0BDA25480088642190FBF1F0303022
:101AA000C2B22046611CCCB204A90A541F48008867
:101AB000642190FBF1F201FB12000A2190FBF1F08E
:101AC0003030C2B22046611CCCB204A90A542E2286
:101AD0002046611CCCB204A90A54144800880A218B
:101AE00090FBF1F201FB12003030C2B22046611CC3
:101AF000CCB204A90A5443222046611CCCB204A9EA
:101B00000A5400222046611CCCB204A90A540020C9
:101B10001821CDE900014FF6FF7304AA03210290BA
:101B20004620FFF7F5F806B010BD00006E0000205B
:101B300000F007F800F0CEFF00BF642001F020F9AC
:101B4000FBE708B50020F0234FF4A0720146009097
:101B5000FEF7E4FE08BD21B1828942F40052828181
:101B600004E082894DF6FF731A40828170470000BD
:101B70002DE9F04786B005460E460024A24600BF78
:101B8000A1460027B08900B100BF2F462C8A4CF631
:101B9000FF700440F08804432C82AC894EF6F310A9
:101BA0000440B08831890843718908430443AC81FB
:101BB000AC8A4FF6FF400440B0890443AC8201A8D0
:101BC000FFF7AAF91F48874202D1DDF810A001E013
:101BD000DDF80CA0A88900F4004040B10AEBCA006F
:101BE00000EB0A1031684900B0FBF1F807E00AEB9E
:101BF000CA0000EB0A1031688900B0FBF1F86420DC
:101C0000B8FBF0F004012009642101FB1089A889C8
:101C100000F4004040B1322000EBC900B0FBF1F00D
:101C200000F00700044308E0322000EB09106421B3
:101C3000B0FBF1F000F00F0004432C8106B0BDE8CA
:101C4000F08700000038014000BFFEE70FB4054BED
:101C500010B503A9044A029800F018F810BC5DF80A
:101C600014FB0000F51D0008E000002002E008C899
:101C7000121F08C1002AFAD170477047002001E006
:101C800001C1121F002AFBD1704700002DE9FF4F50
:101C900089B09B460446002506E025280BD05A460D
:101CA0000B999047641C6D1C20780028F5D10DB06D
:101CB0002846BDE8F08F0027B8460122474900E0DA
:101CC000074314F8013F203B02FA03F00842F7D122
:101CD00020782E2819D114F8010F47F004072A287C
:101CE0000ED06FF02F022078A0F1300109290CD816
:101CF00008EB880102EB410100EB0108641CF2E7EC
:101D00000A98641C50F8048B0A9020780028CED0E2
:101D1000642808D0692806D075281ED05A460B9929
:101D200090476D1C58E00A994FF00A0901C90A91C1
:101D3000002802DA40422D2102E0390504D52B218A
:101D40008DF82010012103E0F90704D02021F7E7E6
:101D50008A4608AE0DE00021FAE70A994FF00A0919
:101D600001C90A91F7E74946FEF75CFA303106F8F7
:101D7000011D0028F7D1ADEB060000F1200978071E
:101D800001D44FF00108C84502DDA8EB090000E0CE
:101D900000208046002706E008A85A46C05D0B993F
:101DA00090476D1C7F1C5745F6DB04E030205A46F7
:101DB0000B9990476D1CB8F10001A8F10108F5DC02
:101DC00005E016F8010B5A460B9990476D1CB9F1C6
:101DD0000001A9F10109F4DC641C65E70928010090
:101DE00000204FF4E15000BF011EA0F10100FBD123
:101DF000704700000A46044900BF0B8803F08003C7
:101E0000002BFAD0888070470038014010B50020C0
:101E1000044948808880087047214FF6FF7000F021
:101E2000A7FA10BDFC00002010B502210148FEF702
:101E300007FC10BD000C014070B52B480068401C29
:101E400029490860084600681E2804D90020086057
:101E50000120264908702548007830B1012805D0B6
:101E6000032809D004283CD112E03AE0FFF7E0F95A
:101E7000012000F0DFF834E080211D48FEF7F4FB7C
:101E800001211C48FFF7FCFB002000F0D3F828E0FC
:101E90001648407B20B30020144908704873084658
:101EA000857B012406E011480E30005D2844C5B250
:101EB000601CC4B2042CF6DB0C48807CA8420ED116
:101EC0000A48C07B0949897B00EB012007498880CB
:101ED0000846417C007C01EB002004494880002535
:101EE00000BF00BF70BD000034000020FC000020D7
:101EF000000801400004004010B5FFF795FF0446BC
:101F0000FFF76EFF0D480078844203D100200C4992
:101F1000087010E00948007884420CD00848007826
:101F2000401C0749087008460078142803DD00208B
:101F30000870024804700148007810BD00000020BD
:101F40000100002008B501210820FEF7C5FF02208E
:101F5000ADF8000004208DF8030069460348FEF741
:101F60009CFAFFF761FF0249087008BD000C0140B0
:101F70000000002008B501211020FEF7ADFF4FF44E
:101F80004040ADF8000002208DF8020010208DF8CE
:101F9000030069460448FEF780FA4FF48041024886
:101FA000FEF760FB08BD00000010014010B5FFF710
:101FB000E1FF10BD10B54FF480410D48FEF749FB1D
:101FC000C0F10100C4B222464FF480410848FEF738
:101FD0004DFB4FF400410648FEF73BFBC0F101000A
:101FE000C4B222464FF400410148FEF73FFB10BD4A
:101FF0000010014010B54FF480610248FEF734FB39
:1020000010BD00000010014008B50120ADF800002F
:1020100002208DF8020010208DF803006946044864
:10202000FEF73BFA01210248FEF71EFB08BD000047
:102030000008014038B5044601210420FEF74CFF9A
:10204000012C11D18020ADF8000002208DF8020093
:1020500010208DF8030069460948FEF71EFA80211A
:102060000748FEF7FFFA09E08020ADF8000048209D
:102070008DF8030069460248FEF70FFA38BD0000EC
:102080000008014008B501211020FEF725FF0121BD
:102090000420FEF721FF01210846FEF71DFF062060
:1020A000ADF8000003208DF8020010208DF8030029
:1020B00069460C48FEF7F1F90820ADF8000003204E
:1020C0008DF8020004208DF8030069460548FEF7EC
:1020D000E4F904210348FEF7C7FA02210148FEF79C
:1020E000C3FA08BD0010014010B5FFF7CBFFFFF7A2
:1020F0008BFF00200349087003490870FF20034943
:10210000087010BD2A0000202B0000202C000020A9
:1021100010B54FF400410248FEF7A6FA10BD0000CA
:102120000008014010B54FF400410248FEF79AFA4A
:1021300010BD00000008014010B504462CB14FF45A
:1021400080510548FEF790FA04E04FF480510248B0
:10215000FEF788FA10BD0000000C014000B587B002
:1021600001218803FEF798FE01210820FEF7B4FE46
:1021700001210846FEF7B0FE4FF46040ADF80400C0
:1021800003208DF8060018208DF8070001A91F48CC
:10219000FEF783F94FF48050ADF8040003208DF86A
:1021A000060010208DF8070001A91848FEF775F900
:1021B0004FF480511548FEF757FA0020ADF808009B
:1021C0004FF48270ADF80A000020ADF80C00022038
:1021D000ADF80E000120ADF810004002ADF812007D
:1021E0001020ADF814000020ADF816000720ADF85F
:1021F000180002A90648FEF76CFF01210448FEF70B
:1022000053FF0120FFF798FF07B000BD000C01400D
:102210000038004000BF011EA0F10100FBD1704753
:1022200000B591B00121C803FEF736FE012102205E
:10223000FEF722FE01211D20FEF74EFE0121464839
:10224000FEF7B6F94FF40040ADF82C0010208DF8E1
:102250002F0003208DF82E000BA94048FEF71DF932
:102260004FF400413D48FEF7FFF95020ADF82C0037
:1022700010208DF82F0003208DF82E000BA9384870
:10228000FEF70BF950213648FEF7EEF94FF4806067
:10229000ADF82C0010208DF82F0003208DF82E00B3
:1022A0000BA93048FEF7F9F84FF480612D48FEF78E
:1022B000D9F92820ADF82C0003208DF82E00182025
:1022C0008DF82F000BA92648FEF7E7F84FF44040A1
:1022D000ADF830004FF48270ADF832000020ADF858
:1022E00034000220ADF836000120ADF8380040027D
:1022F000ADF83A000020ADF83C00ADF83E000720F4
:10230000ADF840000CA91848FEF7E3FE1748FDF7AA
:10231000D7FF15480C3000901020029080010390E8
:1023200000200490802005900020069007900890DF
:102330004FF48050099000200A9069460B48FEF740
:1023400065F8012202210848FEF7BAFE012106487D
:10235000FEF7AAFE11B000BD0002300000080140E7
:10236000000C014000100140003C00401C040240F1
:1023700030B589B005460C4601210220FEF78CFDE0
:1023800001210420FEF7A8FD8020ADF820001020D8
:102390008DF8230003208DF8220008A91F48FEF7BE
:1023A0007CF880211D48FEF75FF9ADF80C50ADF8C0
:1023B00008400020ADF80E00ADF80A0002A9184848
:1023C000FFF700FB0420ADF814000220ADF8160062
:1023D0000120ADF818000020ADF81A00ADF81C007F
:1023E00005A90F48FFF760FA1D208DF804000220B0
:1023F0008DF8050000208DF8060001208DF80700FB
:1024000001A8FEF7F7FC012205210548FFF7A2FA13
:1024100000210348FFF734F909B030BD000801403E
:10242000000400401FB501210420FEF735FD1A48C5
:10243000FFF732F93220ADF8080018480068184953
:10244000B0FBF1F0401E80B2ADF804000020ADF802
:102450000A00ADF8060001A90F48FFF7B3FA012200
:1024600011460D48FFF776FA01210B48FFF708F9EE
:102470004FF4A060FEF7F6FC1E208DF8000000204F
:102480008DF8010003208DF8020001208DF8030073
:102490006846FEF7AFFC1FBD000800404800002062
:1024A00040420F0010B5FFF7BDFF002417E00120E8
:1024B00004EB44010B4A02F82100002004EB440124
:1024C00002EB8101488004EB440102EB810188802A
:1024D00004EB440102EB81018860601CC4B2022C51
:1024E000E5DB10BDE40000201CB54820FEF7CCFE63
:1024F0004FF44070FEF7B6FCFEF7CAF80022022146
:102500000A2000F013FD1A49086000F0CDFC1949BB
:102510000860194800210B463222CDE9001017A1AE
:10252000194800F05FFD1948022100234FF4FA72A8
:10253000CDE9001016A1194800F054FD18480321F8
:1025400000234FF4FA72CDE9001016A1184800F0EC
:1025500049FD1848032100234FF4FA72CDE9001019
:1025600015A1184800F03EFD00F024FC00201CBD21
:102570006000002064000020380000204C65645F8B
:102580005461736B00000000B10D00083C00002096
:102590004B65795F5461736B00000000710800089F
:1025A000400000205466744C63645F5461736B0098
:1025B000311B00084400002054656D48756D5F5460
:1025C00061736B00691A00082DE9F04105460E465B
:1025D0001C4807681C480068001D00F02DFB50B91E
:1025E0001948006890F82C100120884017490968A4
:1025F000814316480160681C38B936B11248016839
:10260000091D134800F056FB1AE07C190E480068BB
:102610004460BC4207D20C480168091D0D4800689F
:1026200000F02EFB0CE008480168091D0A4800680C
:1026300000F026FB09480068844201D20748046084
:10264000BDE8F08198000020840000209C0000205C
:10265000E00300208C00002088000020B40000204F
:1026600010B5044600F032FB23480068401C2249A4
:1026700008602248006840B92048046008460068A5
:1026800001280DD100F01EF90AE01D48006838B994
:102690001A480068C06AE16A884201D81748046095
:1026A00018480068401C1749086094F82C10012055
:1026B000884015490968084313490860E16A01EB3D
:1026C0008101124A02EB8100211D00F0F3FA00F0B3
:1026D0000FFB0B48006868B108480068C06AE16AEF
:1026E000884207D24FF0805009490860BFF34F8FEE
:1026F000BFF36F8F10BD0000940000208400002005
:10270000A0000020B00000209C000020100100204C
:1027100004ED00E010B516E000F0D8FA0C48C068EF
:10272000C468201D00F088FA0A480068401E094964
:10273000086009480068401E0749086000F0D8FAA0
:10274000204600F00BF8044800680028E4D110BDD2
:10275000CC030020940000209000002010B5044617
:10276000206B00F0D5FA204600F0D2FA10BD000030
:1027700030B54FF41043174800F007042CB1C01DCA
:1027800020F00700134C041B1B1B0246124C226056
:102790000024114D6C60D018083820F007000F4C51
:1027A000206000240D4D2D686C600C4D2D682C6050
:1027B0001146441A4C60094C24680C60084D4C6862
:1027C0002C60084D4C682C604FF00044064D2C6086
:1027D00030BD0000F4030020C0000020C80000202D
:1027E000D0000020CC000020D400002000BFFFF764
:1027F00091FF064800680128F9D94FF0805004493C
:102800000860BFF34F8FBFF36F8FF0E71001002018
:1028100004ED00E02DE9F04106460D4617469846C6
:10282000069C0DB9246000E02760E6632564012161
:10283000204600F097FB0020A064BDE8F0812DE960
:10284000FF5F80460F469146DDE90E6A109CA9F1B4
:102850000100216B01EB800B2BF0070B002507E03B
:10286000795D04F134004155785D00B902E06D1CDA
:10287000102DF5D300BF002143200155202E00D399
:102880001F26E66266640020A064201D00F0F5F9B2
:1028900004F1180000F0F1F92461C6F12000A061F4
:1028A00064620020E06484F8500041465846039A70
:1028B00000F0FEF82060BAF1000F01D0CAF8004025
:1028C000BDE8FF9F10B5002407E004EB84010F4A28
:1028D00002EB810000F0C4F9641C202CF5D30C48F5
:1028E00000F0BEF90B4800F0BBF90B4800F0B8F956
:1028F0000A4800F0B5F90A4800F0B2F9044809495D
:10290000086004480849086010BD0000100100205C
:1029100090030020A4030020B8030020CC03002073
:10292000E0030020880000208C00002010B5014644
:10293000164800E0006803688B42FBD302464368F8
:1029400013448B4204D143684C68234443600146DE
:102950000A464B6813440468A34211D10C4C036827
:102960002468A34208D04B680468646823444B6021
:1029700003681B680B6005E0054B1B680B6001E0FA
:1029800003680B60884200D0016010BDC0000020C9
:10299000C80000200A490968096809B9012100E056
:1029A000002121B14FF0FF31064A116006E00449D1
:1029B0000968C968C868034A416811607047000027
:1029C00088000020B400002000BF502080F3118850
:1029D000BFF34F8FBFF36F8F00BF00BFFEE7000054
:1029E0002DE9F04105464FF0000800F015FA2B489C
:1029F000006808B9FFF7BCFE294800682840002895
:102A000047D145B1083505F0070020B105F00700B2
:102A1000C0F108000544002D3BD0224800688542E3
:102A200037D8214E3046046801E0264624686068A5
:102A3000A84202D220680028F7D1184800688442D2
:102A400027D0306800F10808206830606068401BBB
:102A5000102807D967196068401B786065603846A0
:102A6000FFF764FF0F4960680968081A0D4908609C
:102A7000084600680D490968884203D20948006881
:102A80000A490860064960680968084360600020D8
:102A9000206000F0BBFB4046BDE8F081C80000208C
:102AA000D4000020CC000020C0000020D000002076
:102AB000001F4FF080730360001F21F001030360CB
:102AC000001F034B03601438026020387047000079
:102AD000C929000800B587B0002000904FF6FF73A9
:102AE0000F22012101900846FEF7D8F8002000903F
:102AF0004FF6FF730E22012101902120FEF7CEF840
:102B0000002000904FF6FF73032201210190FA206C
:102B1000FEF7C4F8002000904FF6FF730422012155
:102B200001904FF48D70FEF7B9F8002000904FF639
:102B3000FF73112201210190D220FEF7AFF800208F
:102B40003021CDE900014FF6FF732EA264210290DF
:102B50004620FEF7DDF832208DF80C0030208DF88D
:102B60000D0032208DF80E0034208DF80F002D203E
:102B70008DF8100030208DF8110031208DF81200F2
:102B80002D208DF8130032208DF814008DF81500DB
:102B900000208DF816001821CDE900014FF6FF73D3
:102BA00003AAC82102901420FEF7B2F831208DF854
:102BB0000C0032208DF80D003A208DF80E003020E8
:102BC0008DF80F008DF8100000208DF811001821ED
:102BD000CDE900014FF6FF7303AAC8210290A0209F
:102BE000FEF796F800201821CDE900014FF6FF739B
:102BF00007A2C82102904FF48270FEF789F807B04F
:102C000000BD00002044495341524D200000000007
:102C10004D6F6E002DE9F04104460D460026002759
:102C200000F020FA06462746F01BA84202D90120F0
:102C3000BDE8F0810020FBE701460A69D1E90130D7
:102C40009860D1E9010358605068884201D18868D2
:102C50005060002008611068401E106010687047C6
:102C600000F1080141604FF0FF31816000F108017F
:102C7000C16001610021016070470021016170475E
:102C800010B502460B685C1C0CB9106907E002F134
:102C9000080000E04068446824689C42FAD944680F
:102CA0004C604C68A160886041600A611468641CD3
:102CB000146010BD42684A6093688B6093685960E5
:102CC0009160086103685B1C0360704700BF50207F
:102CD00080F31188BFF34F8FBFF36F8F00BF03489E
:102CE0000068401C0149086070470000D8000020BF
:102CF00006480068401E054908600846006820B97B
:102D0000002080F3118800BF00BF7047D80000206A
:102D100070B506463546D6B1083D2C460C4960686C
:102D20000968084098B1206888B90949606809684D
:102D30008843606000F070F80649606809680844DC
:102D4000044908602046FFF7F1FD00F05FFA70BD0E
:102D5000D4000020CC00002000204FF0E0210861CA
:102D60008861064800684FF47A71B0FBF1F0401EAC
:102D70004FF0E021486107200861704748000020BB
:102D800070B50446002544B100F046F80021204605
:102D9000FFF71AFC00F03AFA05463DB94FF08050B3
:102DA00003490860BFF34F8FBFF36F8F70BD000002
:102DB00004ED00E01CB5114800210B468022CDE94E
:102DC00000100FA1104800F00DF90446012C14D199
:102DD00000BF502080F31188BFF34F8FBFF36F8F78
:102DE00000BF4FF0FF300949086001200849086022
:102DF00000200849086000F065F81CBDB8000020FC
:102E000049444C4500000000ED270008B4000020B4
:102E1000A00000209800002002480068401C0149E2
:102E200008607047BC0000201248006818B10120FB
:102E3000114908601DE000200F4908600F48006834
:102E4000B0FA80F0C0F11F0101EB81020C4B03EBE3
:102E5000820042685268426000F10802436893426F
:102E600002D14268526842604268D268054B1A60DB
:102E700000BF7047BC000020A80000209C0000207C
:102E800010010020840000202DE9F04104460E4688
:102E90002546FFF71BFF2F682868B0432860FFF71F
:102EA00027FF3846BDE8F08110B51820FFF798FDE0
:102EB000044624B100202060201DFFF7D1FE2046EB
:102EC00010BD000010B50A48006840F470000849C1
:102ED00008600846006840F070400860FFF73CFF5B
:102EE000002004490860FDF751F9002010BD0000E2
:102EF00020ED00E0D800002010B500BF502080F386
:102F00001188BFF34F8FBFF36F8F00BF00F0B0F891
:102F100018B14FF080500449086000BF002080F3D2
:102F2000118800BF10BD000004ED00E02DE9F8435A
:102F300007460D4690460DB9002601E007FB05F651
:102F400006F14C00FFF74CFD044644B104F14C0976
:102F500043464A46294638460094FFF75BFC204624
:102F6000BDE8F88370B505460E462C46FFF7AEFE69
:102F7000D4E90F12206801FB020060600020A0630A
:102F80002068A060E06B401E226C216800FB0210EC
:102F9000E060FF2084F8440084F845009EB9206971
:102FA00008B9012000E00020A8B904F1100000F0E9
:102FB000EDF880B14FF0805009490860BFF34F8FA2
:102FC000BFF36F8F07E004F11000FFF749FE04F133
:102FD0002400FFF745FEFFF78BFE012070BD0000C7
:102FE00004ED00E02DE9FF4F85B080468946174685
:102FF000DDE912ABB800FFF7F3FC064656B15420EA
:10300000FFF7EEFC04460CB1266304E03046FFF700
:103010007FFE00E000247CB10020CDE900ABCDE9CB
:1030200002403A4649464046089BFFF708FC2046C6
:10303000FFF716FB012501E04FF0FF35284609B0E8
:10304000BDE8F08F0549096809B9012005E0044988
:10305000096809B9022000E000207047A0000020A4
:10306000BC0000200149086870470000980000205B
:103070002DE9F04100273A480068002863D139481B
:103080000068451C374805608DB93748D0F8008086
:1030900036480068344908603448C0F80080344835
:1030A0000068401C32490860FFF774FC00BF3148DB
:1030B000006885423BD300BF2B480068006808B910
:1030C000012000E0002020B14FF0FF3029490860C6
:1030D0002CE025480068C068C4686668B54202D222
:1030E0002448066022E0201DFFF7A6FDA06A18B163
:1030F00004F11800FFF7A0FD94F82C10012088407F
:103100001D49096808431C490860E16A01EB810117
:103110001A4A02EB8100211DFFF7CCFD1849E06A35
:103120000968C96A8842C7D30127C5E700BF1448A8
:103130000068C06A00EB8000104951F820000128A7
:1031400000D9012704E00F480068401C0D490860C1
:103150000D48006800B101273846BDE8F081000045
:10316000BC00002098000020880000208C00002077
:10317000AC000020B40000209C00002010010020C2
:1031800084000020A4000020A800002070B506469E
:10319000F068C46804F11800FFF74EFD1548006898
:1031A000A8B9201DFFF748FD94F82C100120884095
:1031B00011490968084310490860E16A01EB81017F
:1031C0000E4A02EB8100211DFFF774FD04E004F1BB
:1031D00018010B48FFF76EFD0A49E06A0968C96AE1
:1031E000884204D9012501200749086000E0002534
:1031F000284670BDBC0000209C000020100100206B
:10320000B803002084000020A800002070B500242E
:103210000026FFF75BFD2E480068401E2C49086021
:103220000846006800284FD12A48006800284BD083
:1032300024E02948C068C46804F11800FFF7FCFCCA
:10324000201DFFF7F9FC94F82C1001208840234939
:103250000968084321490860E16A01EB8101204ABD
:1032600002EB8100211DFFF725FD1E49E06A096878
:10327000C96A884202D301201B49086016480068C9
:1032800008B9012000E000200028D2D00CB1FFF7DF
:1032900081FB1648056865B100BFFFF7E9FE10B174
:1032A0000120114908606D1E002DF6D100200F4944
:1032B00008600D48006838B1012630070C490860E5
:1032C000BFF34F8FBFF36F8FFFF712FD304670BD16
:1032D000BC00002094000020B80300209C000020C7
:1032E0001001002084000020A8000020A40000207D
:1032F00004ED00E0000000000000000000000000FD
:1033000000000404040404000004000014140A0073
:10331000000000000000000000000A0A1F0A0A1F47
:103320000A0A000000040E1505060C14150E040010
:10333000000012150D152E2C2A1200000000040AA0
:103340000A361515291600000202010000000000CF
:103350000000000010080804040404040808100019
:10336000020404080808080804040200000000041D
:10337000150E0E150400000000000008083E0808A5
:103380000000000000000000000000000202010038
:1033900000000000003F00000000000000000000EE
:1033A00000000000000200000020101008080404C3
:1033B0000202010000000E1111111111110E000086
:1033C0000000040604040404040E000000000E11B2
:1033D00011080402011F000000000E11100C101053
:1033E000110E00000000080C0C0A091F081C000048
:1033F00000001F01010F1110110E000000000C123F
:10340000010D1311110E000000001E100808040425
:103410000404000000000E11110E1111110E000025
:1034200000000E111119161009060000000000001E
:103430000400000000040000000000000004000080
:103440000004040000001008040202040810000038
:10345000000000003F003F000000000000000204E8
:10346000081010080402000000000E1111080404E6
:103470000004000000001C22292D2D1D221C00002C
:10348000000004040C0A0A1E1233000000000F1290
:10349000120E1212120F000000001E110101010194
:1034A000110E000000000F1212121212120F000073
:1034B00000001F120A0E0A02121F000000001F1255
:1034C0000A0E0A020207000000001C120101391155
:1034D000120C000000003312121E121212330000F0
:1034E00000001F0404040404041F000000003E0840
:1034F0000808080808080907000037120A060A1217
:10350000123700000000070202020202223F000000
:1035100000003B1B1B1B15151535000000003B125E
:1035200016161A1A1217000000000E1111111111AF
:10353000110E000000000F12120E0202020700001E
:1035400000000E1111111117190E180000000F12B2
:10355000120E0A121237000000001E110106081098
:10356000110F000000001F1504040404040E0000E5
:103570000000331212121212120C0000000033125B
:10358000120A0A0C040400000000151515150E0A95
:103590000A0A000000001B0A0A04040A0A1B0000B1
:1035A00000001B0A0A0A0404040E000000001F09A0
:1035B00008040402121F00001C0404040404040490
:1035C00004041C000002020404040808081010008F
:1035D0000E0808080808080808080E00040A000079
:1035E00000000000000000000000000000000000DB
:1035F0000000003F02040000000000000000000086
:1036000000000000000C121C123C0000000302022B
:10361000020E1212120E000000000000001C120226
:10362000120C000000181010101C1212123C0000A6
:1036300000000000000C121E021C000000182404F0
:10364000041E0404041E000000000000003C120CD4
:10365000021C221C00030202020E1212123700008A
:103660000004040000060404040E00000008080022
:10367000000C08080808080700030202021A0A06DC
:103680000A1300000007040404040404041F0000DB
:1036900000000000000F15151515000000000000C7
:1036A000000F12121237000000000000000C12126E
:1036B000120C000000000000000F1212120E020790
:1036C00000000000001C1212121C10380000000044
:1036D000001B06020207000000000000001E020C92
:1036E000101E000000000004041E0404041C00005E
:1036F00000000000001B1212123C0000000000003D
:10370000001B0A0A04040000000000000015150E4A
:103710000A0A000000000000001B0A040A1B000047
:1037200000000000003312120C0804030000000027
:10373000001E0804041E000018080808080C0808E9
:1037400008081800080808080808080808080808F1
:103750000604040404080404040406001609000016
:103760000000000000000000000000000000000059
:103770000000000000000000000000080808080821
:10378000080800001818000000486C24120000000F
:1037900000000000000000000000002424247F122C
:1037A00012127F12121200000000081C2A2A0A0CB2
:1037B0001828282A2A1C080800000022251515159B
:1037C0002A585454542200000000000C1212120A0D
:1037D00076252911916E0000000606040300000002
:1037E0000000000000000000004020101008080841
:1037F00008080810102040000002040808101010EB
:1038000010101008080402000000000008086B1CDB
:103810001C6B0808000000000000000008080808F1
:103820007F080808080000000000000000000000F9
:103830000000000006060403000000000000000075
:10384000FE0000000000000000000000000000007A
:10385000000000000606000000008040402020100C
:10386000100808040402020000000018244242422A
:103870004242424224180000000000080E080808D6
:1038800008080808083E00000000003C42424220B0
:1038900020100804427E00000000003C4242201834
:1038A00020404042221C0000000000203028242438
:1038B00022227E20207800000000007E0202021AF0
:1038C00026404042221C0000000000382402021A58
:1038D00026424242241800000000007E22221010DE
:1038E00008080808080800000000003C4242422482
:1038F00018244242423C0000000000182442424288
:1039000064584040241C000000000000000018180B
:10391000000000001818000000000000000000086F
:103920000000000000080804000000402010080407
:1039300002040810204000000000000000007F008A
:1039400000007F00000000000000000204081020BA
:1039500040201008040200000000003C42424640A3
:1039600020101000181800000000001C225A5555A5
:1039700055552D42221C00000000000808181414A0
:10398000243C224242E700000000001F2222221EA7
:1039900022424242221F00000000007C42420101FC
:1039A00001010142221C00000000001F224242428D
:1039B00042424242221F00000000003F4212121EFB
:1039C00012120242423F00000000003F4212121E4B
:1039D00012120202020700000000003C2222010134
:1039E00001712122221C0000000000E742424242F5
:1039F0007E42424242E700000000003E08080808FC
:103A000008080808083E00000000007C1010101094
:103A1000101010101010110F0000007722120A0E63
:103A20000A1212222277000000000007020202029E
:103A300002020202427F000000000077363636366E
:103A40002A2A2A2A2A6B0000000000E346464A4A36
:103A500052525262624700000000001C2241414164
:103A600041414141221C00000000003F42424242CD
:103A70003E020202020700000000001C22414141F8
:103A800041414D53321C60000000003F4242423E23
:103A90001212222242C700000000007C42420204AF
:103AA00018204042423E00000000007F49080808FC
:103AB00008080808081C0000000000E742424242D3
:103AC00042424242423C0000000000E742422224BF
:103AD00024141418080800000000006B49494949E3
:103AE0005555362222220000000000E74224241807
:103AF0001818242442E70000000000772222141442
:103B000008080808081C00000000007E2120101092
:103B100008040442423F000000780808080808082A
:103B200008080808080878000000020204040808D1
:103B30000810102020204040001E101010101010FF
:103B40001010101010101E0000384400000000007B
:103B50000000000000000000000000000000000065
:103B600000000000000000FF000608000000000048
:103B70000000000000000000000000000000003C09
:103B80004278444242FC0000000000030202021A94
:103B900026424242261A00000000000000000038C1
:103BA00044020202443800000000006040404078B7
:103BB0004442424264D80000000000000000003C83
:103BC000427E0202423C0000000000F08808087EAD
:103BD00008080808083E0000000000000000007C03
:103BE00022221C023C42423C000000030202023A34
:103BF0004642424242E700000000000C0C00000E6A
:103C000008080808083E00000000003030000038B6
:103C1000202020202020221E000000030202027229
:103C2000120A1612227700000000000E0808080889
:103C300008080808083E0000000000000000007F9F
:103C40009292929292B70000000000000000003BA8
:103C50004642424242E70000000000000000003CF3
:103C600042424242423C0000000000000000001BB3
:103C700026424242221E0207000000000000007897
:103C800044424242447840E00000000000000077D7
:103C90004C040404041F0000000000000000007C2D
:103CA00042023C40423E0000000000000008083E86
:103CB0000808080808300000000000000000006349
:103CC0004242424262DC000000000000000000E7C7
:103CD000422424140808000000000000000000EB4B
:103CE00049495555222200000000000000000076DE
:103CF00024181818246E000000000000000000E7DF
:103D00004224241418080807000000000000007E68
:103D100022100808447E000000C02020202020102F
:103D2000202020202020C000101010101010101093
:103D300010101010101010100006080808080810C5
:103D400008080808080806000C32C200000000003D
:103D50000000000000000000000000000000000063
:103D60000000000000000000000000000000000053
:103D70000000000000000000000000000000000043
:103D80000000000000000000000000000000000033
:103D90006000600060006000600060006000400043
:103DA00020002000200000000000000060006000F3
:103DB00060000000000000000000000060066006D7
:103DC000300398018800440000000000000000005B
:103DD00000000000000000000000000000000000E3
:103DE00000000000000000000000000000000000D3
:103DF0001002100210021002FE07FE07080208015E
:103E0000080108010801FE07FE070401040104017E
:103E1000040100000000000000000000000040005D
:103E20004000F00158034C03CC034C0058007000D4
:103E3000E000C001C00140034C035C034C03480197
:103E4000F000400040000000000000000000000002
:103E50000E010A01910091009100510051003A00B9
:103E6000AE03A002500450044804480448048402ED
:103E700084030000000000000000000000000000BB
:103E800038006C006C006C006C006C002C00980713
:103E90001C011A01330133016301E300C308C609A1
:103EA0003C07000000000000000000000C001C00A7
:103EB00010001000080004000000000000000000D6
:103EC00000000000000000000000000000000000F2
:103ED00000000000000000000000000000040002DC
:103EE00000018000800040004000200020002000F1
:103EF00020002000200020004000400080008000C2
:103F000000010002000400000000000002000400A4
:103F10000800100010002000200040004000400079
:103F20004000400040004000200020001000100031
:103F30000800040002000000000000000000000073
:103F4000000000004000C0004000460C4E0FD001B1
:103F5000F0015E0F460C40004000400000000000F1
:103F60000000000000000000000000000000000051
:103F70000000000000004000400040004000400001
:103F8000FE0F4000400040004000400000000000E4
:103F90000000000000000000000000000000000021
:103FA0000000000000000000000000000000000011
:103FB0000000000000000000000000000C001C00D9
:103FC00010001000080004000000000000000000C5
:103FD00000000000000000000000000000000000E1
:103FE000FE070000000000000000000000000000CC
:103FF00000000000000000000000000000000000C1
:1040000000000000000000000000000000000000B0
:104010000000000000000000000000001C001C0068
:104020001C0000000000000000000000000400066A
:1040300000020003000100018000800040004000F9
:1040400060002000200010001000080008000C0094
:104050000400060002000000000000000000000054
:104060000000F00098010C030C0306060606060685
:10407000060606060606060606060C030C0398014D
:10408000F000000000000000000000000000000040
:10409000000040007C006000600060006000600084
:1040A0006000600060006000600060006000600010
:1040B000FC03000000000000000000000000000001
:1040C0000000F80084010203060306030003000158
:1040D0008001C000600020001000080204020602F7
:1040E000FE030000000000000000000000000000CF
:1040F00000007800C6008601860180018001C000B2
:10410000700080010001000300030603060386011E
:10411000F8000000000000000000000000000000A7
:10412000000080018001C001A001A0019001880170
:10413000880184018201FE0F8001800180018001DD
:10414000E007000000000000000000000000000088
:104150000000FC0304000400040004000400F40058
:104160008C0104030003000306030603820184019B
:10417000F800000000000000000000000000000047
:104180000000E00118030C030C0004000600E60127
:1041900016030E0606060606060604060C0218039B
:1041A000F00000000000000000000000000000001F
:1041B0000000F8070C060402040100010001800061
:1041C000800040004000400060006000600060002F
:1041D000600000000000000000000000000000007F
:1041E0000000F8010C030606060606060C021C0376
:1041F000F000C8010C0306060606060606060C03B8
:10420000F0010000000000000000000000000000BD
:104210000000F0000C010C03060206060606060666
:1042200006078C0678060006000300030C018C01CB
:104230007800000000000000000000000000000006
:10424000000000000000000000000000E000E000AE
:10425000E00000000000000000000000E000E000BE
:10426000E00000000000000000000000000000006E
:10427000000000000000000000000000600060007E
:1042800000000000000000000000000000006000CE
:10429000600040002000200000000000000000003E
:1042A000000400020001800040002000100008000F
:1042B00004000800100020004000800000010002FF
:1042C00000040000000000000000000000000000EA
:1042D000000000000000000000000000FE070000D9
:1042E00000000000FE0700000000000000000000C9
:1042F00000000000000000000000000000000000BE
:1043000004000800100020004000800000010002AE
:10431000000400020001800040002000100008009E
:104320000400000000000000000000000000000089
:104330000000E0031806040C040C0C0C0C0C000725
:10434000800140004000400000000000E000E0006C
:10435000E00000000000000000000000000000007D
:10436000E00018030C02CC0564056605A605B6043A
:10437000B604B604B604B602E4010C040C02180339
:10438000F00000000000000000000000000000003D
:104390000000600060005000D00090009000880095
:1043A00088010801F8010403040304020202020662
:1043B0000F0F0000000000000000000000000000DF
:1043C0000000FE008C030C030C030C030C038C0197
:1043D000FC000C030C020C060C060C060C060C036D
:1043E000FE010000000000000000000000000000CE
:1043F0000000E00318030C060C0404040600060089
:10440000060006000600060006040C040C02180351
:10441000F0000000000000000000000000000000AC
:1044200000007F008C010C030C030C060C060C062C
:104430000C060C060C060C060C060C030C038C0177
:104440007F000000000000000000000000000000ED
:104450000000FF030603060406040600860086002B
:10446000FE0086008600860006000604060406029A
:10447000FF0300000000000000000000000000003A
:104480000000FF03060306040604060086008600FB
:10449000FE00860086008600060006000600060074
:1044A0001F000000000000000000000000000000ED
:1044B0000000F00018010C020C02040206000600C5
:1044C00006000600C60F060306030C030C031803C0
:1044D000F0000000000000000000000000000000EC
:1044E00000000F0F06060606060606060606060666
:1044F000FE07060606060606060606060606060663
:104500000F0F00000000000000000000000000008D
:104510000000FC036000600060006000600060005C
:10452000600060006000600060006000600060008B
:10453000FC0300000000000000000000000000007C
:104540000000F807C000C000C000C000C000C000EC
:10455000C000C000C000C000C000C000C000C0005B
:10456000C000C60066003C00000000000000000023
:104570000000CF038601C600460026001600360064
:104580002E006E004600C600860086010601060366
:104590008F07000000000000000000000000000085
:1045A00000001F00060006000600060006000600C8
:1045B00006000600060006000600060406040602C1
:1045C000FF030000000000000000000000000000E9
:1045D00000000707860386038E038E034E034E03F7
:1045E0004A035A035A033A033203320332031203D3
:1045F000870700000000000000000000000000002D
:1046000000008E0F0C021C021C02340234026402F1
:1046100064024402C4028402840384030403040386
:104620001F02000000000000000000000000000069
:104630000000F00098010C030C02060606060606B0
:10464000060606060606060606060C020C03980178
:10465000F00000000000000000000000000000006A
:104660000000FF0006030606060606060606060606
:104670008603FE000600060006000600060006008F
:104680001F0000000000000000000000000000000B
:104690000000F00098010C030C0206060606060650
:1046A000060606060606060676064C02CC039801A8
:1046B000F000800700030000000000000000000080
:1046C0000000FF01060306060606060606060603A8
:1046D000FE004600C60086008601060306030606A5
:1046E0000F0E0000000000000000000000000000AD
:1046F0000000F8020C030602060206000E003C0051
:10470000F800E003800300070206020606060C0319
:10471000F0010000000000000000000000000000A8
:104720000000FE076204610861086000600060002C
:104730006000600060006000600060006000600079
:10474000F801000000000000000000000000000070
:1047500000001E070C020C020C020C020C020C02E0
:104760000C020C020C020C020C020C020C021801CE
:10477000F000000000000000000000000000000049
:1047800000000F070602040104010C010C0188005F
:104790008800980098005000500070003000200001
:1047A00020000000000000000000000000000000E9
:1047B0000000F70E620442044604460464026402E8
:1047C000E402E4029C029C0198019801880188009F
:1047D0008800000000000000000000000000000051
:1047E00000009E070C01080118019000B000600055
:1047F000200060006000D0009000880108010403E0
:104800008E07000000000000000000000000000013
:1048100000000F0F060404020C0208011801B80082
:10482000B000700060006000600060006000600028
:10483000F80100000000000000000000000000007F
:104840000000FC070C02060302018001800040000A
:104850004000200020001000180008040C0404028E
:10486000FE0300000000000000000000E003200044
:104870002000200020002000200020002000200038
:104880002000200020002000200020002000200028
:1048900020002000E00300000000000000000000F5
:1048A00004000400080008001000100010002000A0
:1048B000200040004000C000800080000001000196
:1048C0000002000200020004000000007C00400022
:1048D00040004000400040004000400040004000D8
:1048E00040004000400040004000400040004000C8
:1048F000400040007C0000000000600090000801C3
:1049000000000000000000000000000000000000A7
:104910000000000000000000000000000000000097
:104920000000000000000000000000000000000087
:104930000000000000000000000000000000000077
:104940000000000000000000000000000000000067
:10495000000000000000FF0F0000000018006000D1
:104960000000000000000000000000000000000047
:104970000000000000000000000000000000000037
:104980000000000000000000000000000000000027
:10499000000000000000000000000000F0010C0317
:1049A0000C030003E0031C030E03060306038E0B37
:1049B0007C0E00000000000000000000000000006D
:1049C00008000E000C000C000C000C00CC013C0395
:1049D0001C060C060C060C060C060C060C021C032E
:1049E000E4010000000000000000000000000000E2
:1049F000000000000000000000000000F0008C013A
:104A00008C01860106000600060006020C020C015D
:104A1000F0000000000000000000000000000000A6
:104A20000002C003000300030003000378038C03AB
:104A30000C030603060306030603060304038C07A0
:104A400078010000000000000000000000000000ED
:104A5000000000000000000000000000E00118035A
:104A600008020C060C06FC070C000C0018041802C7
:104A7000E001000000000000000000000000000055
:104A80000000C0036006300630003000FE01300038
:104A90003000300030003000300030003000300096
:104AA000FC01000000000000000000000000000009
:104AB000000000000000000000000000F007D80621
:104AC0008C018C018C019801F8000C00FC00CC03D7
:104AD000060306038E03F80000000000000000003B
:104AE00008000E000C000C000C000C00EC011C0374
:104AF0000C030C030C030C030C030C030C030C033E
:104B00009E07000000000000000000000000000000
:104B10000000600060000000000040007C006000B9
:104B20006000600060006000600060006000600085
:104B3000FC03000000000000000000000000000076
:104B40000000C001C001000000000001F001800170
:104B5000800180018001800180018001800180014D
:104B600080018001CC007C000000000000000000FB
:104B700008000E000C000C000C000C008C038C00D4
:104B80008C004C006C005C008C008C010C010C0350
:104B90009E07000000000000000000000000000070
:104BA00040007C0060006000600060006000600009
:104BB00060006000600060006000600060006000F5
:104BC000FC030000000000000000000000000000E6
:104BD0000000000000000000000000003707EE06A3
:104BE0006606660666066606660666066606660665
:104BF000FF0F0000000000000000000000000000A7
:104C0000000000000000000000000000EE011C0396
:104C10000C030C030C030C030C030C030C030C031C
:104C20009E070000000000000000000000000000DF
:104C3000000000000000000000000000F0009801EB
:104C40000C03060606060606060606060C030C03FB
:104C5000F000000000000000000000000000000064
:104C6000000000000000000000000000EE011C0336
:104C70000C060C060C060C060C060C060C031C039A
:104C8000EC010C000C003E000000000000000000E1
:104C900000000000000000000000000078028C030B
:104CA0000C030603060306030603060304038C0332
:104CB000780300030003C0070000000000000000AC
:104CC0000000000000000000000000009F035806E4
:104CD00038061800180018001800180018001800EE
:104CE000FF000000000000000000000000000000C5
:104CF000000000000000000000000000F0031C03A2
:104D00000C020C023800F000C003040304038C03FF
:104D1000FC01000000000000000000000000000096
:104D2000000000002000200030003000FE013000B4
:104D300030003000300030003000300030023002EF
:104D4000E001000000000000000000000000000082
:104D50000000000000000000000008028E030C03A9
:104D60000C030C030C030C030C030C030C039C0737
:104D700078010000000000000000000000000000BA
:104D80000000000000000000000000001E070C02F0
:104D90000801080118019000B000B0006000600038
:104DA00020000000000000000000000000000000E3
:104DB000000000000000000000000000F70E620488
:104DC000460464026402EC029C0198019801980177
:104DD00008000000000000000000000000000000CB
:104DE000000000000000000000000000BC071801E7
:104DF0001001B00060006000E000900008010803AE
:104E00009E070000000000000000000000000000FD
:104E10000000000000000000000000009E070801E4
:104E20000801080190009000B00060006000600080
:104E30002000200024001C000000000000000000F2
:104E4000000000000000000000000000FC018401E0
:104E5000C4004400600020003000180208020C0367
:104E6000FC010000000000000000000000038000C2
:104E70008000800080008000800080008000400072
:104E800020004000800080008000800080008000C2
:104E9000800080000003000040004000400040000F
:104EA0004000400040004000400040004000400002
:104EB00040004000400040004000400040004000F2
:104EC0004000400040004000000000000C001000C6
:104ED0001000100010001000100010001000200042
:104EE0004000200010001000100010001000100002
:104EF000100010000C00000000001C002204C2047E
:104F0000800300000000000000000000000000001E
:104F10000000000000000000000000000000000091
:104F20000000000000000000000000000000000081
:104F30000000000000000000000000000000000071
:104F40000000000000000000000000000000000061
:104F50000000000000000000000000000000000051
:104F60000000000000000000000000000000000041
:104F70000000C001C001C001C001C001C001C001EA
:104F800080008000800080008000800080000000A1
:104F90000000000000008001C003C0038001000089
:104FA0000000000000000000000000000000E01C05
:104FB000E01CF01E700E3807180308018400000082
:104FC00000000000000000000000000000000000E1
:104FD00000000000000000000000000000000000D1
:104FE00000000000000000000000000000000000C1
:104FF0000000000020102010201020102010FE7F44
:10500000FE7F10081008100810081008100810087B
:10501000FE7FFE7F0804080408040804080400005A
:105020000000000000000000000000000000000080
:1050300000010001C0076019103118311839183902
:1050400038017001E001C0038007000F001D003926
:1050500000311C311C310C310C11180DE00700011E
:10506000000100010000000000000000000000003E
:10507000000000001C1036186308630C630463040E
:10508000630263026301361D9C37802280634063A4
:10509000406320632063306310221836081C000030
:1050A0000000000000000000000000000000000000
:1050B00000000000F00098018C018C018C018C0133
:1050C0008C00CC007800183E1C08360832086304B7
:1050D0006304C304C303834306438E26781C000085
:1050E00000000000000000000000000000001C00A4
:1050F0003C003C003000300010000C0006000000B6
:10510000000000000000000000000000000000009F
:10511000000000000000000000000000000000008F
:10512000000000000000000000000000000000403F
:10513000002000100008000C00040006000300031B
:1051400000038001800180018001800180018001D5
:10515000800100030003000300060006000C0008A5
:1051600000100020004000000000000000000200CD
:10517000040008001000300020006000C000C000E3
:10518000C0008001800180018001800180018001D8
:105190008001C000C000C00060006000300010004E
:1051A00008000400020000000000000000000000F1
:1051B00000000000000000000001800380030001E7
:1051C0001C713C79783DC0070001C007783D3C79EF
:1051D0001C710001800380038001000000000000BA
:1051E00000000000000000000000000000000000BF
:1051F00000000000000000000000000100010001AC
:105200000001000100010001FC7F0001000100011C
:10521000000100010001000100000000000000008A
:10522000000000000000000000000000000000007E
:10523000000000000000000000000000000000006E
:10524000000000000000000000000000000000005E
:1052500000000000000000001C003C003C0030008A
:10526000300010000C0006000000000000000000EC
:10527000000000000000000000000000000000002E
:105280000000000000000000FE7F000000000000A1
:10529000000000000000000000000000000000000E
:1052A00000000000000000000000000000000000FE
:1052B00000000000000000000000000000000000EE
:1052C00000000000000000000000000000000000DE
:1052D00000000000000018003C003C001800000026
:1052E000000000000000000000000000000000407E
:1052F000006000200030001000180008000C0004BE
:10530000000600020003000180018000C000400090
:105310006000200030001000180008000C0004009D
:105320000600020000000000000000000000000075
:1053300000000000C007600C30181830183018202A
:105340000C600C600C600C600C600C600C600C60FD
:105350000C601820183018303018600CC00700009E
:10536000000000000000000000000000000000003D
:105370000000000000018001F8018001800180012F
:105380008001800180018001800180018001800115
:1053900080018001800180018001C003F81F0000AE
:1053A00000000000000000000000000000000000FD
:1053B00000000000E007101C0818043004300C3016
:1053C0000C300030001800080004000200018000CA
:1053D00040002020102008200430FC1FFC1F00008B
:1053E00000000000000000000000000000000000BD
:1053F00000000000E003180E0C0C0C180C180C1820
:105400000018000C0006C003000E00180010003049
:1054100000300C300C300C100C18180CE00300009D
:10542000000000000000000000000000000000007C
:1054300000000000000C000E000E000F800E800E19
:10544000400E600E200E100E100E080E040E040EFC
:10545000FE7F000E000E000E000E000E000EC07F3C
:10546000000000000000000000000000000000003C
:1054700000000000F03FF03F100010001000080096
:105480000800C807280C1818081000300030003039
:1054900000300C300C3004180418080CF003000025
:1054A00000000000000000000000000000000000FC
:1054B00000000000800FC0102030103018001800CD
:1054C00008000C008C0F6C183C301C600C600C60E9
:1054D0000C600C601860182030306018C0070000A5
:1054E00000000000000000000000000000000000BC
:1054F00000000000F83FF83F1C100C0804080404EA
:105500000004000200020001000100018000800090
:105510008000C000C000C000C000C000C00000008B
:10552000000000000000000000000000000000007B
:1055300000000000E007300C18180C300C300C3064
:105540001C3038187008E007B007180E0C1C06381D
:1055500006300630063006300C18180CE003000048
:10556000000000000000000000000000000000003B
:1055700000000000E00318040C080C1806100630A8
:1055800006300630063006380C3C1836F031003054
:105590000018001800180C0C0C060C03F001000099
:1055A00000000000000000000000000000000000FB
:1055B00000000000000000000000000000000000EB
:1055C00000008001C003C003800100000000000053
:1055D0000000000000008001C003C0038001000043
:1055E00000000000000000000000000000000000BB
:1055F00000000000000000000000000000000000AB
:105600000000C000C000000000000000000000001A
:1056100000000000000000000000C000C00080008A
:10562000800040004000000000000000000000007A
:1056300000000020001000080004000600038001A4
:10564000C0006000300018000C001800300060003E
:10565000C0008001000300060004000800100020C4
:10566000000000000000000000000000000000003A
:10567000000000000000000000000000000000002A
:105680000000FE7F00000000000000000000FE7F20
:10569000000000000000000000000000000000000A
:1056A00000000000000000000000000000000000FA
:1056B000000004000800100020006000C00080010D
:1056C00000030006000C001800300018000C000653
:1056D00000038001C00060002000100008000400EA
:1056E00000000000000000000000000000000000BA
:1056F0000000C0073018083008600C601C601C6097
:105700001C600030001C000600018000800080004A
:105710008000000000008001C003C0038001000081
:105720000000000000000000000000000000000079
:1057300000000000C0076018103018200C2F8C4D9E
:10574000864CC64CC64C664C664466446626662645
:105750006615CC1C0C40082018303018C00700001B
:105760000000000000000000000000000000000039
:1057700000000001C001C001C0014001600320031E
:10578000200320033006100610061006F80F080C40
:10579000080C080C0C0C0418041806181F7C0000D8
:1057A00000000000000000000000000000000000F9
:1057B00000000000FE07181C183818301830183088
:1057C00018301818180CF807181818301820186016
:1057D000186018601860186018301818FE0F000064
:1057E00000000000000000000000000000000000B9
:1057F00000000000C0276038103018200C400C401A
:10580000040006000600060006000600060006006A
:1058100006000C400C400C2018303018C007000067
:105820000000000000000000000000000000000078
:1058300000000000FE03180E181818301830183039
:105840001860186018601860186018601860186098
:1058500018601830183018101818180EFE030000C1
:105860000000000000000000000000000000000038
:1058700000000000FE3F1830182018601840180083
:1058800018081808180CF80F180C18081808180031
:10589000180018001840184018201830FE3F00006B
:1058A00000000000000000000000000000000000F8
:1058B00000000000FE7F1870184018C01880180003
:1058C000181018101818F81F1818181018101800A9
:1058D0001800180018001800180018007E000000BA
:1058E00000000000000000000000000000000000B8
:1058F00000000000C013701C101018100C200C20A9
:1059000004000600060006000600060006FC06303D
:1059100006300C300C30183018303008C00700004A
:105920000000000000000000000000000000000077
:10593000000000003F7E0C180C180C180C180C18F6
:105940000C180C180C180C18FC1F0C180C180C1840
:105950000C180C180C180C180C180C183F7E0000B2
:105960000000000000000000000000000000000037
:1059700000000000F81F800180018001800180018B
:10598000800180018001800180018001800180010F
:10599000800180018001800180018001F81F0000EA
:1059A00000000000000000000000000000000000F7
:1059B00000000000E07F000600060006000600066A
:1059C00000060006000600060006000600060006A7
:1059D0000006000600060006000600060006000697
:1059E0000E060E038E01FC00000000000000000007
:1059F000000000007E7C1818180818041806180209
:105A0000180198019801D801B8033803180718063F
:105A1000180E180C181C1818183018307EFC0000CE
:105A20000000000000000000000000000000000076
:105A3000000000007E001800180018001800180070
:105A40001800180018001800180018001800180096
:105A5000180018001840184018201830FE3F0000A9
:105A60000000000000000000000000000000000036
:105A7000000000001FF81C381C381C381C3C343453
:105A800034343434343674326432643264326431DF
:105A9000C431C431C431C430C43084309FFC0000F0
:105AA00000000000000000000000000000000000F6
:105AB000000000001F7C1C103C10341034107410C7
:105AC0006410E410C410C411841184130413041767
:105AD0000416041E041C041C041C04181F180000D7
