:020000040800F2
:10000000109A002001020008210A0008DD060008FD
:100010001D0A000875020008D50F00080000000046
:10002000000000000000000000000000690100085E
:100030005104000800000000AD010008D90D0008BF
:100040001B0200081B0200081B0200081B0200081C
:100050001B0200081B0200081B0200081B0200080C
:100060001B0200081B0200081B0200081B020008FC
:100070001B0200081B0200081B0200081B020008EC
:100080001B0200081B0200081B0200081B020008DC
:100090001B0200081B0200081B0200081B020008CC
:1000A0001B0200081B0200081B0200081B020008BC
:1000B0001B0200081B0200081B0200081B020008AC
:1000C0001B0200081B0200081B0200081B0200089C
:1000D0001B0200081B0200081B0200081B0200088C
:1000E0001B0200081B0200081B02000800000000A1
:1000F0000000000000000000000000000000000000
:1001000000000000000000001B0200081B020008A5
:100110001B0200081B0200081B0200081B0200084B
:100120001B0200081B0200081B0200081B0200083B
:100130001B0200081B0200081B0200081B0200082B
:100140001B0200081B0200081B0200081B0200081B
:10015000DFF810D000F07CF80048004719150008BF
:10016000AFF30080109A0020224B19680868B0E8AD
:10017000F00F80F30988BFF36F8F4FF0000080F31A
:1001800011884EF00D0E7047000000000648006810
:10019000006880F3088862B661B6BFF34F8FBFF383
:1001A0006F8F00DF00BF00BF08ED00E0EFF30980B4
:1001B000BFF36F8F0F4B1A6820E9F00F106008B57E
:1001C0004FF0500080F31188BFF34F8FBFF36F8F54
:1001D00001F08CFD4FF0000080F31188BDE808406D
:1001E00019680868B0E8F00F80F30988BFF36F8FD3
:1001F000704700BF48000020EFF305807047000003
:100200000648804706480047FEE7FEE7FEE7FEE7B0
:10021000FEE7FEE7FEE7FEE7FEE7FEE7450E000825
:100220005101000830B50B46014600202022012470
:1002300009E021FA02F59D4205D303FA02F5491BB4
:1002400004FA02F52844151EA2F10102F1DC30BDCA
:10025000064C074D06E0E06840F0010394E8070013
:1002600098471034AC42F6D3FFF776FFB821000868
:10027000D821000800BFFEE701684FF6FE7211406A
:1002800001600021016041608160C1604B4988428A
:1002900008D14A490839496841F00F01474A083AEC
:1002A00051608AE045491431884208D143490839F0
:1002B000496841F0F001414A083A51607DE03F4908
:1002C0002831884208D13D490839496841F47061B4
:1002D0003A4A083A516070E038493C31884208D1C6
:1002E00036490839496841F47041344A083A516046
:1002F00063E032495031884208D1304908394968B1
:1003000041F470212D4A083A516056E02B4964317E
:10031000884208D129490839496841F47001274ABF
:10032000083A516049E025497831884208D123498B
:100330000839496841F07061204A083A51603CE050
:100340001F49884206D1011F096841F00F01021FB1
:10035000116032E01A491431884208D11849091F46
:10036000096841F0F001164A121F116025E0144996
:100370002831884208D11249091F096841F4706187
:100380000F4A121F116018E00D493C31884208D114
:100390000B49091F096841F47041094A121F116095
:1003A0000BE007495031884207D10549091F096808
:1003B00041F47021024A121F116070470800024088
:1003C0000804024010B50022026847F6F0739A4311
:1003D0000C6A8B6823430C6923434C6923438C6963
:1003E0002343CC6923434C6A23438C6A23431A4337
:1003F0000260CB6843600B6883604B68C36010BDCC
:10040000124A126842F0F002104B1A600F4A1C3276
:1004100011600E4A243210600C4A1832126842F001
:1004200001020A4B18331A6000BF084A121F1268F3
:1004300002F02002002AF8D0044A1832126822F092
:100440000102024B18331A60704700000404024096
:1004500070472DE9F04102460025002600200023C8
:100460000024002791F803C00CF00F0591F803C099
:100470000CF0100CBCF1000F03D091F802C04CEA54
:10048000050591F800C0BCF1000F31D014680020C0
:100490002BE04FF0010C0CFA00F3B1F800C00CEAAD
:1004A00003069E4220D183004FF00F0C0CFA03F795
:1004B000BC4305FA03FC4CEA040491F803C0BCF108
:1004C000280F06D14FF0010C0CFA00FCC2F814C042
:1004D0000AE091F803C0BCF1480F05D14FF0010CC0
:1004E0000CFA00FCC2F810C0401C0828D1D31460DC
:1004F000B1F800C0BCF1FF0F34DD546800202EE0DD
:1005000000F1080C4FF0010808FA0CF3B1F800C034
:100510000CEA03069E4221D183004FF00F0C0CFA27
:1005200003F7BC4305FA03FC4CEA040491F803C04A
:10053000BCF1280F05D100F1080C08FA0CF8C2F83C
:10054000148091F803C0BCF1480F07D100F1080CEA
:100550004FF0010808FA0CF8C2F81080401C082877
:10056000CED35460BDE8F081F0B50A4600230024E4
:100570000021002500F00046B6F1004F02D11D4ECB
:10058000F16901E01B4E7168C0F3034583B200F4CA
:100590004016B6F5401F08D121F07061154E7668FF
:1005A00026F07066134F7E6012E000F48016B6F5F8
:1005B000801F06D1032606FA05F4A14341F07061BD
:1005C00006E0460D360103FA06F6B14341F07061CC
:1005D00022B1460D360103FA06F6314300F000461B
:1005E000B6F1004F02D1034EF16101E0014E71609E
:1005F000F0BD0000000001400246002093680B405F
:100600000BB1012000E00020704702460020D368B3
:100610000B400BB1012000E00020704741617047A2
:10062000016170470AB1016100E04161704710B596
:1006300000F014FE00F00AF800F0DCFD00F062FEAD
:1006400000F0C2FE00F0C2F810BD000000B585B099
:100650000121042000F010FA0121880300F00CFAB7
:100660004FF40070ADF8100018208DF8130003202F
:100670008DF8120004A91748FFF7EBFE4FF48060D5
:10068000ADF8100004208DF8130003208DF812003F
:1006900004A91048FFF7DDFE4FF4E1300090002080
:1006A000ADF80400ADF80600ADF80800ADF80C0098
:1006B0000C20ADF80A006946074800F01FFC012134
:1006C000054800F005FC01228021034800F00CFCE5
:1006D00005B000BD000801400038014000BFFEE742
:1006E0006FF07F410B48006801F030FB00BF4FF412
:1006F0007A610948006801F0EFF9044634B101F06D
:1007000013FC0549086005A000F066FC642001F0B8
:1007100099FAECE72C000020300000204865617257
:1007200074426561742121210D0A00002DE9F04118
:1007300004460D4616461F462A2000F035F9A11C36
:1007400088B200F01DF9B11C88B200F019F92B2015
:1007500000F02AF9691C88B200F012F9791C88B2FD
:1007600000F00EF92C2000F01FF9BDE8F081000028
:100770002DE9F04781460F4615461E46DDF82080DC
:10078000701E83B2681E82B239464846FFF7CEFF1C
:1007900000240AE04FEA28222046611C8CB20A4954
:1007A0000A5401F80480601C84B2AC42F2DB3C467F
:1007B00005E029460448FFF723FE601C84B2B4EB31
:1007C000460FF6DBBDE8F0878C93002010B542F2AF
:1007D000107000F0F3FD00F079FD42F2107000F0AF
:1007E000EDFD00F069FD642000F0E8FD112000F04F
:1007F000DBF842F2107000F0E1FD362000F0D4F892
:10080000A02000F0CAF83A2000F0CEF8052000F051
:10081000C4F8B22000F0C8F80C2000F0BEF80C209C
:1008200000F0BBF8002000F0B8F8332000F0B5F875
:10083000332000F0B2F8B72000F0B6F8352000F011
:10084000ACF8BB2000F0B0F8352000F0A6F8C020CE
:1008500000F0AAF82C2000F0A0F8C22000F0A4F8C4
:10086000012000F09AF8C32000F09EF8132000F059
:1008700094F8C42000F098F8202000F08EF8C620EC
:1008800000F092F80F2000F088F8CA2000F08CF8F1
:100890000F2000F082F8C82000F086F8082000F051
:1008A0007CF8552000F080F8902000F076F8D020F9
:1008B00000F07AF8A42000F070F8A12000F06DF8A4
:1008C000E02000F071F8D02000F067F8002000F080
:1008D00064F8062000F061F8092000F05EF80B20B3
:1008E00000F05BF82A2000F058F83C2000F055F8A2
:1008F000552000F052F84B2000F04FF8082000F08F
:100900004CF8162000F049F8142000F046F81920A1
:1009100000F043F8202000F040F8E12000F044F817
:10092000D02000F03AF8002000F037F8062000F060
:1009300034F8092000F031F80B2000F02EF82920BF
:1009400000F02BF8362000F028F8542000F025F8AD
:100950004B2000F022F80D2000F01FF8162000F0C8
:100960001CF8142000F019F8212000F016F82020BF
:1009700000F013F8292000F017F800F093FC10BDE8
:1009800018B5044620128DF80000E0B28DF8010081
:1009900002216846FFF734FD18BD10B50446204615
:1009A00000F012F810BD000010B5044610210548F3
:1009B000FFF734FE204600F007F810210148FFF74A
:1009C0002FFE10BD000C014001B540210348FFF788
:1009D00025FE01216846FFF713FD08BD000C01400C
:1009E000002418E000F0E0FB012803D001F09CFA9D
:1009F000094908604FF4FA610748006801F06CF893
:100A000004462CB101F090FA0349086000F02AFC7A
:100A1000C82001F017F9E5E72400002000BFFEE739
:100A20007047000002490143024A1160704700000C
:100A30000000FA050CED00E029B1064A52690243B4
:100A4000044B5A6104E0034A52698243014B5A61E4
:100A5000704700000010024029B1064AD2690243E3
:100A6000044BDA6104E0034AD2698243014BDA6144
:100A7000704700000010024029B1064A9269024303
:100A8000044B9A6104E0034A92698243014B9A61E4
:100A900070470000001002402DE9F04100210022C3
:100AA000002500230026002400278C46DFF8608103
:100AB000D8F8048008F00C0121B1042907D00829D6
:100AC00059D109E0DFF84C81C0F8008058E0DFF828
:100AD0004881C0F8008053E0DFF83481D8F8048002
:100AE00008F47012DFF82881D8F8048008F4803503
:100AF000920C0D2A01D0921C00E0062235B9DFF8D5
:100B00001C8102FB08F8C0F8008033E0DFF80081A8
:100B1000D8F82C8008F48036DFF8F480D8F82C80E0
:100B200008F00F0808F1010446B9DFF8EC80B8FBC3
:100B3000F4F808FB02F8C0F800801BE0DFF8D08072
:100B4000D8F82C80C8F3031808F10107DFF8C0803B
:100B5000D8F82C80C8F3032808F1020CDFF8B8801D
:100B6000B8FBF7F808FB0CF8B8FBF4F808FB02F840
:100B7000C0F8008004E0DFF89C80C0F8008000BF6F
:100B800000BFDFF88C80D8F8048008F0F001090974
:100B9000DFF88C8018F80130D0F8008028FA03F8CC
:100BA000C0F80480DFF86880D8F8048008F4E061B9
:100BB000090ADFF86C8018F80130D0F8048028FAB0
:100BC00003F8C0F80880DFF84880D8F8048008F4FB
:100BD0006051C90ADFF8488018F80130D0F8048065
:100BE00028FA03F8C0F80C80DFF82480D8F80480D5
:100BF00008F44041890BDFF82C8018F80130D0F858
:100C00000C80B8FBF3F8C0F81080BDE8F08100005C
:100C10000010024000127A0040787D0100093D007A
:100C2000340000204400002021B1028842F040023C
:100C3000028004E002884FF6BF731A4002807047BA
:100C40001AB183880B43838002E083888B438380BF
:100C5000704710B50022028802F441520B884C887C
:100C600023438C882343CC8823430C8923434C891A
:100C700023438C892343CC8923431A430280838BEB
:100C80004FF2FF74234083830B8A038210BD10B59B
:100C900000F002F810BD00000CB50020019000909B
:100CA0003F48006840F480303D49086000BF3C4840
:100CB000006800F4003000900198401C01900098FA
:100CC00018B90198B0F5A06FF1D13548006800F46B
:100CD000003010B10120009001E000200090009849
:100CE00001285CD12F48006840F010002D490860B1
:100CF0000846006820F0030008600846006840F0DD
:100D00000200086026484068254948600846406857
:100D100048600846406840F4806048600846C06A01
:100D2000214908401E49C8620846C06A1F49084355
:100D30001B49C8620846006840F08060086000BF38
:100D40001748006800F000600028F9D01448406897
:100D500020F47C10124948600846406840F4E810CE
:100D600048600846006840F08070086000BF0C488A
:100D7000006800F000700028F9D00948406820F0B1
:100D80000300074948600846406840F00200486098
:100D900000BF0348406800F00C000828F9D10CBDE2
:100DA000001002400020024000F0FEFF4406010057
:100DB000042808D14FF0E021096941F004014FF007
:100DC000E022116107E04FF0E021096921F0040100
:100DD0004FF0E0221161704710B501F095F801283D
:100DE00001D000F0EBFF10BD70B505460420FFF701
:100DF000DFFF104800681049B0FBF1F00F490870A0
:100E00000C4800680C49B0FBF1F44FF47A7044438D
:100E100001200B4908804FF0E020006940F00200FB
:100E20004FF0E021086108464461006940F001008C
:100E3000086170BD1000002040420F00A00000209B
:100E4000A200002010B51648006840F001001449C7
:100E50000860084640681349084011494860084640
:100E60000068114908400E4908600846006820F4EF
:100E7000802008600846406820F4FE00486008466C
:100E8000006820F0A05008604FF47F0088600020C8
:100E9000C862FFF7FCFE4FF000600449086010BD17
:100EA000001002400000FFF0FFFFF6FE08ED00E03A
:100EB00008B54FF6E070F0234FF4A07200210090C7
:100EC0000846FFF755FC00BF642000F0BBFEFBE7BF
:100ED00021B1828942F40052828104E082894DF678
:100EE000FF731A40828170471AB1838A0B43838251
:100EF00002E0838A8B438382704700002DE9F0472C
:100F000086B005460E460024A24600BFA146002733
:100F1000B08900B100BF2F462C8A4CF6FF70044008
:100F2000F08804432C82AC894EF6F3100440B0885C
:100F300031890843718908430443AC81AC8A4FF678
:100F4000FF400440B0890443AC8201A8FFF7A4FD30
:100F50001F48874202D1DDF810A001E0DDF80CA0A7
:100F6000A88900F4004040B10AEBCA0000EB0A1067
:100F700031684900B0FBF1F807E00AEBCA0000EB6A
:100F80000A1031688900B0FBF1F86420B8FBF0F07A
:100F900004012009642101FB1089A88900F40040A4
:100FA00040B1322000EBC900B0FBF1F000F00700C7
:100FB000044308E0322000EB09106421B0FBF1F09B
:100FC00000F00F0004432C8106B0BDE8F08700005C
:100FD0000038014000BFFEE70FB4054B10B503A970
:100FE000044A029800F018F810BC5DF814FB0000E9
:100FF00081110008A400002002E008C8121F08C1E7
:10100000002AFAD170477047002001E001C1121F89
:10101000002AFBD1704700002DE9FF4F89B09B46A5
:101020000446002506E025280BD05A460B99904728
:10103000641C6D1C20780028F5D10DB02846BDE851
:10104000F08F0027B8460122474900E0074314F813
:10105000013F203B02FA03F00842F7D120782E2806
:1010600019D114F8010F47F004072A280ED06FF0A9
:101070002F022078A0F1300109290CD808EB880153
:1010800002EB410100EB0108641CF2E70A98641CC2
:1010900050F8048B0A9020780028CED0642808D01D
:1010A000692806D075281ED05A460B9990476D1CAA
:1010B00058E00A994FF00A0901C90A91002802DA9A
:1010C00040422D2102E0390504D52B218DF8201056
:1010D000012103E0F90704D02021F7E78A4608AE92
:1010E0000DE00021FAE70A994FF00A0901C90A91B7
:1010F000F7E74946FFF796F8303106F8011D00285A
:10110000F7D1ADEB060000F12009780701D44FF0CC
:101110000108C84502DDA8EB090000E00020804678
:10112000002706E008A85A46C05D0B9990476D1C41
:101130007F1C5745F6DB04E030205A460B99904758
:101140006D1CB8F10001A8F10108F5DC05E016F806
:10115000010B5A460B9990476D1CB9F10001A9F19A
:101160000109F4DC641C65E70928010000204FF444
:10117000E15000BF011EA0F10100FBD1704700004B
:101180000A46044900BF0B8803F08003002BFAD005
:10119000888070470038014010B502210148FFF7F0
:1011A0002BFA10BD000C014010B5FFF7F5FF044607
:1011B000FFF7DCFF0D480078844203D100200C4982
:1011C000087010E00948007884420CD00848007884
:1011D000401C0749087008460078142803DD0020E9
:1011E0000870024804700148007810BD000000201B
:1011F0000100002008B501210820FFF73DFC022076
:10120000ADF8000004208DF8030069460348FFF79D
:1012100020F9FFF7C1FF0249087008BD000C01402A
:101220000000002008B501211020FFF725FC4FF435
:101230004040ADF8000002208DF8020010208DF82B
:10124000030069460448FFF704F94FF4804102485F
:10125000FFF7E4F908BD00000010014010B5FFF7EA
:10126000E1FF10BD10B54FF480410D48FFF7CDF9F7
:10127000C0F10100C4B222464FF480410848FFF794
:10128000D1F94FF400410648FFF7BFF9C0F1010062
:10129000C4B222464FF400410148FFF7C3F910BD24
:1012A0000010014010B54FF480610248FFF7B8F913
:1012B00010BD00000010014010B54FF4004102487D
:1012C000FFF7AEF910BD00000008014010B54FF463
:1012D00000410248FFF7A2F910BD000000080140DC
:1012E00010B504462CB14FF480510548FFF798F92A
:1012F00004E04FF480510248FFF790F910BD000060
:10130000000C014000B587B001218803FFF7A4FB62
:1013100001210820FFF7B0FB01210846FFF7ACFBD5
:101320004FF46040ADF8040003208DF8060018204B
:101330008DF8070001A91F48FFF78BF84FF4805084
:10134000ADF8040003208DF8060010208DF807008A
:1013500001A91848FFF77DF84FF480511548FFF7B1
:101360005FF90020ADF808004FF48270ADF80A0074
:101370000020ADF80C000220ADF80E000120ADF801
:1013800010004002ADF812001020ADF8140000204B
:10139000ADF816000720ADF8180002A90648FFF7BF
:1013A00058FC01210448FFF73FFC0120FFF798FF9C
:1013B00007B000BD000C01400038004000BF011E16
:1013C000A0F10100FBD1704700B591B00121C80325
:1013D000FFF742FB01210220FFF72EFB01211D2018
:1013E000FFF74AFB01214648FFF7BEF84FF40040E3
:1013F000ADF82C0010208DF82F0003208DF82E0062
:101400000BA94048FFF725F84FF400413D48FFF78E
:1014100007F95020ADF82C0010208DF82F00032084
:101420008DF82E000BA93848FFF713F850213648E5
:10143000FFF7F6F84FF48060ADF82C0010208DF81F
:101440002F0003208DF82E000BA93048FFF701F87C
:101450004FF480612D48FFF7E1F82820ADF82C000B
:1014600003208DF82E0018208DF82F000BA9264898
:10147000FEF7EFFF4FF44040ADF830004FF48270BC
:10148000ADF832000020ADF834000220ADF836008F
:101490000120ADF838004002ADF83A000020ADF868
:1014A0003C00ADF83E000720ADF840000CA91848FC
:1014B000FFF7CFFB1748FEF7DFFE15480C30009012
:1014C000102002908001039000200490802005905D
:1014D00000200690079008904FF48050099000205B
:1014E0000A9069460B48FEF76DFF01220221084869
:1014F000FFF7A6FB01210648FFF796FB11B000BDE0
:101500000002300000080140000C014000100140C2
:10151000003C00401C0402401CB54820FFF764FC5E
:101520004FF44070FFF77EFAFFF781F800220221A6
:101530000A2000F05DFC1449086000F017FC134914
:101540000860134800210B463222CDE9001011A19A
:10155000134800F0A9FC1348012100238A02CDE9B9
:10156000001011A1134800F09FFC13480221002332
:101570004A02CDE9001011A1134800F095FC00F0DB
:101580007BFB00201CBD0000280000202C00002058
:10159000040000204C65645F5461736B0000000020
:1015A000E1090008080000204B65795F5461736B06
:1015B00000000000E10600080C0000205466744C96
:1015C00063645F5461736B00B10E00082DE9F04154
:1015D00005460E461C4807681C480068001D00F0C0
:1015E0008DFA50B91948006890F82C1001208840F5
:1015F00017490968814316480160681C38B936B13B
:1016000012480168091D134800F0B6FA1AE07C1967
:101610000E4800684460BC4207D20C480168091DAE
:101620000D48006800F08EFA0CE008480168091DBA
:101630000A48006800F086FA09480068844201D22E
:1016400007480460BDE8F0815C00002048000020ED
:101650006000002078030020500000204C00002093
:101660007800002010B5044600F092FA2348006884
:10167000401C224908602248006840B920480460A4
:101680000846006801280DD100F01EF90AE01D4847
:10169000006838B91A480068C06AE16A884201D80F
:1016A0001748046018480068401C1749086094F8FF
:1016B0002C10012088401549096808431349086027
:1016C000E16A01EB8101124A02EB8100211D00F069
:1016D00053FA00F06FFA0B48006868B108480068D8
:1016E000C06AE16A884207D24FF080500949086019
:1016F000BFF34F8FBFF36F8F10BD00005800002065
:1017000048000020640000207400002060000020D9
:10171000A800002004ED00E010B516E000F038FA53
:101720000C48C068C468201D00F0E8F90A48006849
:10173000401E0949086009480068401E07490860C2
:1017400000F038FA204600F00BF804480068002842
:10175000E4D110BD64030020580000205400002094
:1017600010B50446206B00F035FA204600F032FA3E
:1017700010BD000030B54FF41043174800F00704C7
:101780002CB1C01D20F00700134C041B1B1B02468C
:10179000124C22600024114D6C60D018083820F0E3
:1017A00007000F4C206000240D4D2D686C600C4D1F
:1017B0002D682C601146441A4C60094C24680C605A
:1017C000084D4C682C60084D4C682C604FF000446C
:1017D000064D2C6030BD00008C03002084000020EA
:1017E0008C00002094000020900000209800002031
:1017F00000BFFFF791FF064800680128F9D94FF0B4
:10180000805004490860BFF34F8FBFF36F8FF0E73C
:10181000A800002004ED00E02DE9F04106460D4649
:1018200017469846069C0DB9246000E02760E663E1
:1018300025640121204600F0F7FA0020A064BDE8ED
:10184000F0812DE9FF5F80460F469146DDE90E6A83
:10185000109CA9F10100216B01EB800B2BF0070B11
:10186000002507E0795D04F134004155785D00B949
:1018700002E06D1C102DF5D300BF0021432001555F
:10188000202E00D31F26E66266640020A064201D7F
:1018900000F055F904F1180000F051F92461C6F187
:1018A0002000A06164620020E06484F8500041469A
:1018B0005846039A00F0FEF82060BAF1000F01D0FC
:1018C000CAF80040BDE8FF9F10B5002407E004EB14
:1018D00084010F4A02EB810000F024F9641C202CE3
:1018E000F5D30C4800F01EF90B4800F01BF90B482B
:1018F00000F018F90A4800F015F90A4800F012F94A
:1019000004480949086004480849086010BD0000FF
:10191000A8000020280300203C03002050030020E2
:1019200064030020780300204C00002050000020B9
:1019300010B50146164800E0006803688B42FBD3EF
:101940000246436813448B4204D143684C682344E5
:10195000436001460A464B6813440468A34211D110
:101960000C4C03682468A34208D04B680468646880
:1019700023444B6003681B680B6005E0054B1B6844
:101980000B6001E003680B60884200D0016010BD6D
:10199000840000208C0000200A490968096809B900
:1019A000012100E0002121B14FF0FF31064A116012
:1019B00006E004490968C968C868034A41681160BB
:1019C000704700004C0000207800002000BF50202D
:1019D00080F31188BFF34F8FBFF36F8F00BF00BF3D
:1019E000FEE700002DE9F04105464FF0000800F049
:1019F00075F92B48006808B9FFF7BCFE2948006854
:101A00002840002847D145B1083505F0070020B12E
:101A100005F00700C0F108000544002D3BD0224826
:101A20000068854237D8214E3046046801E02646DA
:101A300024686068A84202D220680028F7D11848BC
:101A40000068844227D0306800F1080820683060C0
:101A50006068401B102807D967196068401B7860D0
:101A600065603846FFF764FF0F4960680968081A27
:101A70000D490860084600680D490968884203D28C
:101A8000094800680A49086006496068096808430F
:101A900060600020206000F01BFB4046BDE8F08144
:101AA0008C0000209800002090000020840000207E
:101AB00094000020001F4FF080730360001F21F08E
:101AC00001030360001F034B0360143802602038D9
:101AD00070470000CD1900082DE9F04104460D467D
:101AE0000026002700F020FA06462746F01BA842F1
:101AF00002D90120BDE8F0810020FBE701460A6918
:101B0000D1E901309860D1E90103586050688842FA
:101B100001D188685060002008611068401E106084
:101B20001068704700F1080141604FF0FF3181609B
:101B300000F10801C16001610021016070470021CE
:101B40000161704710B502460B685C1C0CB9106946
:101B500007E002F1080000E04068446824689C4205
:101B6000FAD944684C604C68A160886041600A61A1
:101B70001468641C146010BD42684A6093688B60EE
:101B8000936859609160086103685B1C036070474B
:101B900000BF502080F31188BFF34F8FBFF36F8FCA
:101BA00000BF03480068401C0149086070470000FE
:101BB0009C00002006480068401E05490860084651
:101BC000006820B9002080F3118800BF00BF704773
:101BD0009C00002070B506463546D6B1083D2C461F
:101BE0000C4960680968084098B1206888B90949BB
:101BF000606809688843606000F070F806496068B2
:101C000009680844044908602046FFF791FE00F087
:101C10005FFA70BD980000209000002000204FF077
:101C2000E02108618861064800684FF47A71B0FBD2
:101C3000F1F0401E4FF0E021486107200861704735
:101C40001000002070B50446002544B100F046F8AD
:101C500000212046FFF7BAFC00F03AFA05463DB9EC
:101C60004FF0805003490860BFF34F8FBFF36F8F71
:101C700070BD000004ED00E01CB5114800210B46CA
:101C80008022CDE900100FA1104800F00DF90446A4
:101C9000012C14D100BF502080F31188BFF34F8F67
:101CA000BFF36F8F00BF4FF0FF300949086001207C
:101CB0000849086000200849086000F065F81CBD6C
:101CC0007C00002049444C4500000000F11700084A
:101CD00078000020640000205C00002002480068BA
:101CE000401C0149086070478000002012480068CD
:101CF00018B10120114908601DE000200F4908605B
:101D00000F480068B0FA80F0C0F11F0101EB8102BA
:101D10000C4B03EB820042685268426000F10802FB
:101D20004368934202D14268526842604268D26876
:101D3000054B1A6000BF7047800000206C00002037
:101D400060000020A8000020480000202DE9F0419C
:101D500004460E462546FFF71BFF2F682868B04350
:101D60002860FFF727FF3846BDE8F08110B518203E
:101D7000FFF738FE044624B100202060201DFFF745
:101D8000D1FE204610BD000010B50A48006840F49E
:101D90007000084908600846006840F0704008601C
:101DA000FFF73CFF002004490860FEF7EFF9002030
:101DB00010BD000020ED00E09C00002010B500BF29
:101DC000502080F31188BFF34F8FBFF36F8F00BF98
:101DD00000F0B0F818B14FF080500449086000BF1F
:101DE000002080F3118800BF10BD000004ED00E06A
:101DF0002DE9F84307460D4690460DB9002601E04F
:101E000007FB05F606F14C00FFF7ECFD044644B174
:101E100004F14C0943464A46294638460094FFF7E8
:101E2000FBFC2046BDE8F88370B505460E462C46FF
:101E3000FFF7AEFED4E90F12206801FB02006060DC
:101E40000020A0632068A060E06B401E226C216827
:101E500000FB0210E060FF2084F8440084F8450095
:101E60009EB9206908B9012000E00020A8B904F15A
:101E7000100000F0EDF880B14FF080500949086083
:101E8000BFF34F8FBFF36F8F07E004F11000FFF730
:101E900049FE04F12400FFF745FEFFF78BFE012009
:101EA00070BD000004ED00E02DE9FF4F85B08046D5
:101EB00089461746DDE912ABB800FFF793FD0646E9
:101EC00056B15420FFF78EFD04460CB1266304E0A2
:101ED0003046FFF77FFE00E000247CB10020CDE912
:101EE00000ABCDE902403A4649464046089BFFF721
:101EF000A8FC2046FFF7B6FB012501E04FF0FF35B7
:101F0000284609B0BDE8F08F0549096809B90120E4
:101F100005E00449096809B9022000E00020704783
:101F2000640000208000002001490868704700001C
:101F30005C0000202DE9F04100273A4800680028A5
:101F400063D139480068451C374805608DB937486A
:101F5000D0F8008036480068344908603448C0F83A
:101F6000008034480068401C32490860FFF714FDC7
:101F700000BF3148006885423BD300BF2B48006852
:101F8000006808B9012000E0002020B14FF0FF30C8
:101F9000294908602CE025480068C068C468666864
:101FA000B54202D22448066022E0201DFFF7A6FDBC
:101FB000A06A18B104F11800FFF7A0FD94F82C10E6
:101FC000012088401D49096808431C490860E16AEE
:101FD00001EB81011A4A02EB8100211DFFF7CCFDC4
:101FE0001849E06A0968C96A8842C7D30127C5E76A
:101FF00000BF14480068C06A00EB8000104951F827
:102000002000012800D9012704E00F480068401C87
:102010000D4908600D48006800B101273846BDE849
:10202000F0810000800000205C0000204C000020B7
:102030005000002070000020780000206000002088
:10204000A800002048000020680000206C0000204C
:1020500070B50646F068C46804F11800FFF74EFD3D
:1020600015480068A8B9201DFFF748FD94F82C100A
:102070000120884011490968084310490860E16A55
:1020800001EB81010E4A02EB8100211DFFF774FD77
:1020900004E004F118010B48FFF76EFD0A49E06AFD
:1020A0000968C96A884204D90125012007490860E6
:1020B00000E00025284670BD800000206000002060
:1020C000A800002050030020480000206C000020E1
:1020D00070B500240026FFF75BFD2E480068401E07
:1020E0002C4908600846006800284FD12A4800683B
:1020F00000284BD024E02948C068C46804F11800C7
:10210000FFF7FCFC201DFFF7F9FC94F82C100120D0
:10211000884023490968084321490860E16A01EBC6
:102120008101204A02EB8100211DFFF725FD1E4998
:10213000E06A0968C96A884202D301201B49086025
:102140001648006808B9012000E000200028D2D01D
:102150000CB1FFF721FC1648056865B100BFFFF719
:10216000E9FE10B10120114908606D1E002DF6D165
:1021700000200F4908600D48006838B1012630077B
:102180000C490860BFF34F8FBFF36F8FFFF712FD4D
:10219000304670BD80000020580000205003002011
:1021A00060000020A8000020480000206C000020F3
:1021B0006800002004ED00E0D821000800000020A5
:1021C000A8000000F80F000880220008A8000020E6
:1021D00068990000081000080000000000000000DE
:1021E000000000000000000000A24A0400000000FF
:1021F00000000000010203040607080900000000B7
:1022000000000000000000000000000000000000CE
:102210000102030401020304060708090204060878
:1022200000000000000000000000000000000000AE
:10223000000000000000000000000000000000009E
:10224000000000000000000000000000000000008E
:10225000000000000000000000000000000000007E
:10226000000000000000000000000000000000006E
:1022700000000000AAAAAAAA0000000000000000B6
:04000005080001519D
:00000001FF
